{
  "contractName": "dapp",
  "abi": [
    {
      "constant": true,
      "inputs": [
        {
          "internalType": "address",
          "name": "",
          "type": "address"
        }
      ],
      "name": "record",
      "outputs": [
        {
          "internalType": "uint256",
          "name": "",
          "type": "uint256"
        }
      ],
      "payable": false,
      "stateMutability": "view",
      "type": "function"
    },
    {
      "constant": false,
      "inputs": [
        {
          "internalType": "address",
          "name": "key",
          "type": "address"
        },
        {
          "internalType": "uint256",
          "name": "val",
          "type": "uint256"
        }
      ],
      "name": "set",
      "outputs": [],
      "payable": false,
      "stateMutability": "nonpayable",
      "type": "function"
    },
    {
      "constant": false,
      "inputs": [
        {
          "internalType": "address",
          "name": "account",
          "type": "address"
        }
      ],
      "name": "add",
      "outputs": [],
      "payable": false,
      "stateMutability": "nonpayable",
      "type": "function"
    }
  ],
  "bytecode": "0x608060405234801561001057600080fd5b5061030b806100206000396000f3fe608060405234801561001057600080fd5b50600436106100415760003560e01c80630a3b0a4f146100465780633465d6d51461008a5780633825d828146100e2575b600080fd5b6100886004803603602081101561005c57600080fd5b81019080803573ffffffffffffffffffffffffffffffffffffffff169060200190929190505050610130565b005b6100cc600480360360208110156100a057600080fd5b81019080803573ffffffffffffffffffffffffffffffffffffffff169060200190929190505050610277565b6040518082815260200191505060405180910390f35b61012e600480360360408110156100f857600080fd5b81019080803573ffffffffffffffffffffffffffffffffffffffff1690602001909291908035906020019092919050505061028f565b005b600073088800000000000000000000000000000000000190506060600160405190808252806020026020018201604052801561017b5781602001602082028038833980820191505090505b509050828160008151811061018c57fe5b602002602001019073ffffffffffffffffffffffffffffffffffffffff16908173ffffffffffffffffffffffffffffffffffffffff16815250508173ffffffffffffffffffffffffffffffffffffffff1663fe15156c826040518263ffffffff1660e01b81526004018080602001828103825283818151815260200191508051906020019060200280838360005b8381101561023557808201518184015260208101905061021a565b5050505090500192505050600060405180830381600087803b15801561025a57600080fd5b505af115801561026e573d6000803e3d6000fd5b50505050505050565b60006020528060005260406000206000915090505481565b806000808473ffffffffffffffffffffffffffffffffffffffff1673ffffffffffffffffffffffffffffffffffffffff16815260200190815260200160002081905550505056fea265627a7a72315820ff93bb0d46c326c49b4e9927f39c16552bf4a1043f41dbcb7f37508cc8b9f7ea64736f6c634300050b0032",
  "source": "pragma solidity 0.5.11;\nimport \"./InternalContract.sol\";\n\ncontract dapp {\n    mapping(address=>uint256) public record;\n\n    function set(address key, uint256 val) public {\n        record[key] = val;\n    }\n\n    function add(address account) public {\n        SponsorWhitelistControl cpc = SponsorWhitelistControl(0x0888000000000000000000000000000000000001);\n        address[] memory a = new address[](1);\n        a[0] = account;\n        cpc.add_privilege(a);\n    }\n}",
  "sourcePath": "/Users/xiongyu/conflux-sponsor-faucet/contracts/Dapp.sol",
  "compiler": {
    "name": "solc",
    "version": "0.5.11+commit.c082d0b4.Emscripten.clang"
  },
  "schemaVersion": "3.2.2",
  "updatedAt": "2020-08-20T06:48:51.071Z",
  "devdoc": {
    "methods": {}
  },
  "userdoc": {
    "methods": {}
  }
}