{
  "contractName": "SponsorFaucet",
  "abi": [
    {
      "constant": false,
      "inputs": [],
      "name": "unpause",
      "outputs": [],
      "payable": false,
      "stateMutability": "nonpayable",
      "type": "function"
    },
    {
      "constant": true,
      "inputs": [
        {
          "internalType": "address",
          "name": "account",
          "type": "address"
        }
      ],
      "name": "isPauser",
      "outputs": [
        {
          "internalType": "bool",
          "name": "",
          "type": "bool"
        }
      ],
      "payable": false,
      "stateMutability": "view",
      "type": "function"
    },
    {
      "constant": true,
      "inputs": [
        {
          "internalType": "address",
          "name": "",
          "type": "address"
        }
      ],
      "name": "dapps",
      "outputs": [
        {
          "internalType": "uint256",
          "name": "gas_amount",
          "type": "uint256"
        },
        {
          "internalType": "uint256",
          "name": "collateral_amount",
          "type": "uint256"
        }
      ],
      "payable": false,
      "stateMutability": "view",
      "type": "function"
    },
    {
      "constant": true,
      "inputs": [],
      "name": "collateral_total_limit",
      "outputs": [
        {
          "internalType": "uint256",
          "name": "",
          "type": "uint256"
        }
      ],
      "payable": false,
      "stateMutability": "view",
      "type": "function"
    },
    {
      "constant": true,
      "inputs": [],
      "name": "paused",
      "outputs": [
        {
          "internalType": "bool",
          "name": "",
          "type": "bool"
        }
      ],
      "payable": false,
      "stateMutability": "view",
      "type": "function"
    },
    {
      "constant": true,
      "inputs": [],
      "name": "gas_total_limit",
      "outputs": [
        {
          "internalType": "uint256",
          "name": "",
          "type": "uint256"
        }
      ],
      "payable": false,
      "stateMutability": "view",
      "type": "function"
    },
    {
      "constant": false,
      "inputs": [],
      "name": "renouncePauser",
      "outputs": [],
      "payable": false,
      "stateMutability": "nonpayable",
      "type": "function"
    },
    {
      "constant": false,
      "inputs": [],
      "name": "renounceOwnership",
      "outputs": [],
      "payable": false,
      "stateMutability": "nonpayable",
      "type": "function"
    },
    {
      "constant": false,
      "inputs": [
        {
          "internalType": "address",
          "name": "account",
          "type": "address"
        }
      ],
      "name": "addPauser",
      "outputs": [],
      "payable": false,
      "stateMutability": "nonpayable",
      "type": "function"
    },
    {
      "constant": false,
      "inputs": [],
      "name": "pause",
      "outputs": [],
      "payable": false,
      "stateMutability": "nonpayable",
      "type": "function"
    },
    {
      "constant": true,
      "inputs": [],
      "name": "upper_bound",
      "outputs": [
        {
          "internalType": "uint256",
          "name": "",
          "type": "uint256"
        }
      ],
      "payable": false,
      "stateMutability": "view",
      "type": "function"
    },
    {
      "constant": true,
      "inputs": [],
      "name": "owner",
      "outputs": [
        {
          "internalType": "address",
          "name": "",
          "type": "address"
        }
      ],
      "payable": false,
      "stateMutability": "view",
      "type": "function"
    },
    {
      "constant": true,
      "inputs": [],
      "name": "isOwner",
      "outputs": [
        {
          "internalType": "bool",
          "name": "",
          "type": "bool"
        }
      ],
      "payable": false,
      "stateMutability": "view",
      "type": "function"
    },
    {
      "constant": true,
      "inputs": [],
      "name": "gas_bound",
      "outputs": [
        {
          "internalType": "uint256",
          "name": "",
          "type": "uint256"
        }
      ],
      "payable": false,
      "stateMutability": "view",
      "type": "function"
    },
    {
      "constant": true,
      "inputs": [],
      "name": "collateral_bound",
      "outputs": [
        {
          "internalType": "uint256",
          "name": "",
          "type": "uint256"
        }
      ],
      "payable": false,
      "stateMutability": "view",
      "type": "function"
    },
    {
      "constant": false,
      "inputs": [
        {
          "internalType": "address",
          "name": "newOwner",
          "type": "address"
        }
      ],
      "name": "transferOwnership",
      "outputs": [],
      "payable": false,
      "stateMutability": "nonpayable",
      "type": "function"
    },
    {
      "inputs": [
        {
          "internalType": "uint256",
          "name": "gasTotalLimit",
          "type": "uint256"
        },
        {
          "internalType": "uint256",
          "name": "collateralTotalLimit",
          "type": "uint256"
        },
        {
          "internalType": "uint256",
          "name": "gasBound",
          "type": "uint256"
        },
        {
          "internalType": "uint256",
          "name": "collateralBound",
          "type": "uint256"
        },
        {
          "internalType": "uint256",
          "name": "upperBound",
          "type": "uint256"
        }
      ],
      "payable": false,
      "stateMutability": "nonpayable",
      "type": "constructor"
    },
    {
      "payable": true,
      "stateMutability": "payable",
      "type": "fallback"
    },
    {
      "anonymous": false,
      "inputs": [
        {
          "indexed": true,
          "internalType": "address",
          "name": "applicant",
          "type": "address"
        },
        {
          "indexed": true,
          "internalType": "address",
          "name": "dapp",
          "type": "address"
        },
        {
          "indexed": true,
          "internalType": "uint256",
          "name": "amount",
          "type": "uint256"
        }
      ],
      "name": "applied",
      "type": "event"
    },
    {
      "anonymous": false,
      "inputs": [
        {
          "indexed": false,
          "internalType": "address",
          "name": "account",
          "type": "address"
        }
      ],
      "name": "Paused",
      "type": "event"
    },
    {
      "anonymous": false,
      "inputs": [
        {
          "indexed": false,
          "internalType": "address",
          "name": "account",
          "type": "address"
        }
      ],
      "name": "Unpaused",
      "type": "event"
    },
    {
      "anonymous": false,
      "inputs": [
        {
          "indexed": true,
          "internalType": "address",
          "name": "account",
          "type": "address"
        }
      ],
      "name": "PauserAdded",
      "type": "event"
    },
    {
      "anonymous": false,
      "inputs": [
        {
          "indexed": true,
          "internalType": "address",
          "name": "account",
          "type": "address"
        }
      ],
      "name": "PauserRemoved",
      "type": "event"
    },
    {
      "anonymous": false,
      "inputs": [
        {
          "indexed": true,
          "internalType": "address",
          "name": "previousOwner",
          "type": "address"
        },
        {
          "indexed": true,
          "internalType": "address",
          "name": "newOwner",
          "type": "address"
        }
      ],
      "name": "OwnershipTransferred",
      "type": "event"
    },
    {
      "constant": false,
      "inputs": [
        {
          "internalType": "address",
          "name": "dapp",
          "type": "address"
        }
      ],
      "name": "applyBoth",
      "outputs": [],
      "payable": false,
      "stateMutability": "nonpayable",
      "type": "function"
    },
    {
      "constant": false,
      "inputs": [
        {
          "internalType": "address",
          "name": "dapp",
          "type": "address"
        }
      ],
      "name": "applyGas",
      "outputs": [],
      "payable": false,
      "stateMutability": "nonpayable",
      "type": "function"
    },
    {
      "constant": false,
      "inputs": [
        {
          "internalType": "address",
          "name": "dapp",
          "type": "address"
        }
      ],
      "name": "applyCol",
      "outputs": [],
      "payable": false,
      "stateMutability": "nonpayable",
      "type": "function"
    },
    {
      "constant": false,
      "inputs": [
        {
          "internalType": "address",
          "name": "dapp",
          "type": "address"
        }
      ],
      "name": "isAppliable",
      "outputs": [
        {
          "internalType": "bool",
          "name": "",
          "type": "bool"
        }
      ],
      "payable": false,
      "stateMutability": "nonpayable",
      "type": "function"
    },
    {
      "constant": false,
      "inputs": [
        {
          "internalType": "address payable",
          "name": "sponsor",
          "type": "address"
        },
        {
          "internalType": "uint256",
          "name": "amount",
          "type": "uint256"
        }
      ],
      "name": "withdraw",
      "outputs": [],
      "payable": false,
      "stateMutability": "nonpayable",
      "type": "function"
    },
    {
      "constant": false,
      "inputs": [
        {
          "internalType": "uint256",
          "name": "gasTotalLimit",
          "type": "uint256"
        },
        {
          "internalType": "uint256",
          "name": "collateralTotalLimit",
          "type": "uint256"
        },
        {
          "internalType": "uint256",
          "name": "gasBound",
          "type": "uint256"
        },
        {
          "internalType": "uint256",
          "name": "collateralBound",
          "type": "uint256"
        },
        {
          "internalType": "uint256",
          "name": "upperBound",
          "type": "uint256"
        }
      ],
      "name": "setBounds",
      "outputs": [],
      "payable": false,
      "stateMutability": "nonpayable",
      "type": "function"
    }
  ],
  "bytecode": "0x60806040526000600260016101000a81548160ff021916908315150217905550730888000000000000000000000000000000000001600960006101000a81548173ffffffffffffffffffffffffffffffffffffffff021916908373ffffffffffffffffffffffffffffffffffffffff1602179055503480156200008157600080fd5b506040516200306e3803806200306e8339818101604052620000a7919081019062000495565b6000620000b96200022160201b60201c565b9050806000806101000a81548173ffffffffffffffffffffffffffffffffffffffff021916908373ffffffffffffffffffffffffffffffffffffffff1602179055508073ffffffffffffffffffffffffffffffffffffffff16600073ffffffffffffffffffffffffffffffffffffffff167f8be0079c531659141344cd1fd0a4f28419497f9722a3daafe3b4186f6b6457e060405160405180910390a350620001776200016b6200022160201b60201c565b6200022960201b60201c565b6000600260006101000a81548160ff02191690831515021790555082620001af6103e8836200028a60201b620018bd1790919060201c565b1115620001f3576040517f08c379a0000000000000000000000000000000000000000000000000000000008152600401620001ea90620006d1565b60405180910390fd5b8460038190555083600481905550826005819055508160068190555080600781905550505050505062000728565b600033905090565b620002448160016200030060201b62001c551790919060201c565b8073ffffffffffffffffffffffffffffffffffffffff167f6719d08c1888103bea251a4ed56406bd0c3e69723c8a1686e017e7bbe159b6f860405160405180910390a250565b6000808314156200029f5760009050620002fa565b6000828402905082848281620002b157fe5b0414620002f5576040517f08c379a0000000000000000000000000000000000000000000000000000000008152600401620002ec906200068d565b60405180910390fd5b809150505b92915050565b620003128282620003b360201b60201c565b1562000355576040517f08c379a00000000000000000000000000000000000000000000000000000000081526004016200034c906200066b565b60405180910390fd5b60018260000160008373ffffffffffffffffffffffffffffffffffffffff1673ffffffffffffffffffffffffffffffffffffffff16815260200190815260200160002060006101000a81548160ff0219169083151502179055505050565b60008073ffffffffffffffffffffffffffffffffffffffff168273ffffffffffffffffffffffffffffffffffffffff16141562000427576040517f08c379a00000000000000000000000000000000000000000000000000000000081526004016200041e90620006af565b60405180910390fd5b8260000160008373ffffffffffffffffffffffffffffffffffffffff1673ffffffffffffffffffffffffffffffffffffffff16815260200190815260200160002060009054906101000a900460ff16905092915050565b6000815190506200048f816200070e565b92915050565b600080600080600060a08688031215620004ae57600080fd5b6000620004be888289016200047e565b9550506020620004d1888289016200047e565b9450506040620004e4888289016200047e565b9350506060620004f7888289016200047e565b92505060806200050a888289016200047e565b9150509295509295909350565b600062000526601f83620006f3565b91507f526f6c65733a206163636f756e7420616c72656164792068617320726f6c65006000830152602082019050919050565b600062000568602183620006f3565b91507f536166654d6174683a206d756c7469706c69636174696f6e206f766572666c6f60008301527f77000000000000000000000000000000000000000000000000000000000000006020830152604082019050919050565b6000620005d0602283620006f3565b91507f526f6c65733a206163636f756e7420697320746865207a65726f20616464726560008301527f73730000000000000000000000000000000000000000000000000000000000006020830152604082019050919050565b600062000638601383620006f3565b91507f7570706572426f756e6420746f6f2068696768000000000000000000000000006000830152602082019050919050565b60006020820190508181036000830152620006868162000517565b9050919050565b60006020820190508181036000830152620006a88162000559565b9050919050565b60006020820190508181036000830152620006ca81620005c1565b9050919050565b60006020820190508181036000830152620006ec8162000629565b9050919050565b600082825260208201905092915050565b6000819050919050565b620007198162000704565b81146200072557600080fd5b50565b61293680620007386000396000f3fe6080604052600436106101355760003560e01c8063715018a6116100ab5780638f32d59b1161006f5780638f32d59b146103c65780639ca64c41146103f1578063b86ad67a1461041c578063ca9c8c3714610445578063f2fde38b14610470578063f3fef3a31461049957610135565b8063715018a61461031957806382dc1ec4146103305780638456cb591461035957806385eb4dab146103705780638da5cb5b1461039b57610135565b806351f34703116100fd57806351f347031461021a57806355670f31146102435780635607a2c4146102815780635c975abb146102ac5780635f929b7b146102d75780636ef8d66d1461030257610135565b8063345400d5146101375780633cb05425146101605780633f4ba83a1461018957806346fbf68e146101a057806348132bee146101dd575b005b34801561014357600080fd5b5061015e60048036036101599190810190611dac565b6104c2565b005b34801561016c57600080fd5b5061018760048036036101829190810190611dac565b6105cb565b005b34801561019557600080fd5b5061019e6106bc565b005b3480156101ac57600080fd5b506101c760048036036101c29190810190611dac565b6107b5565b6040516101d491906124f2565b60405180910390f35b3480156101e957600080fd5b5061020460048036036101ff9190810190611dac565b6107d2565b60405161021191906124f2565b60405180910390f35b34801561022657600080fd5b50610241600480360361023c9190810190611e3a565b610801565b005b34801561024f57600080fd5b5061026a60048036036102659190810190611dac565b6108c9565b60405161027892919061278a565b60405180910390f35b34801561028d57600080fd5b506102966108ed565b6040516102a3919061276f565b60405180910390f35b3480156102b857600080fd5b506102c16108f3565b6040516102ce91906124f2565b60405180910390f35b3480156102e357600080fd5b506102ec61090a565b6040516102f9919061276f565b60405180910390f35b34801561030e57600080fd5b50610317610910565b005b34801561032557600080fd5b5061032e610922565b005b34801561033c57600080fd5b5061035760048036036103529190810190611dac565b610a28565b005b34801561036557600080fd5b5061036e610a83565b005b34801561037c57600080fd5b50610385610b7d565b604051610392919061276f565b60405180910390f35b3480156103a757600080fd5b506103b0610b83565b6040516103bd9190612493565b60405180910390f35b3480156103d257600080fd5b506103db610bac565b6040516103e891906124f2565b60405180910390f35b3480156103fd57600080fd5b50610406610c0a565b604051610413919061276f565b60405180910390f35b34801561042857600080fd5b50610443600480360361043e9190810190611dac565b610c10565b005b34801561045157600080fd5b5061045a610d01565b604051610467919061276f565b60405180910390f35b34801561047c57600080fd5b5061049760048036036104929190810190611dac565b610d07565b005b3480156104a557600080fd5b506104c060048036036104bb9190810190611dd5565b610d5a565b005b600260019054906101000a900460ff1615610512576040517f08c379a0000000000000000000000000000000000000000000000000000000008152600401610509906126ef565b60405180910390fd5b6001600260016101000a81548160ff021916908315150217905550600260009054906101000a900460ff161561057d576040517f08c379a00000000000000000000000000000000000000000000000000000000081526004016105749061262f565b60405180910390fd5b61058681610f81565b156105955761059481611164565b5b61059e816113b9565b156105ad576105ac8161159c565b5b6000600260016101000a81548160ff02191690831515021790555050565b600260019054906101000a900460ff161561061b576040517f08c379a0000000000000000000000000000000000000000000000000000000008152600401610612906126ef565b60405180910390fd5b6001600260016101000a81548160ff021916908315150217905550600260009054906101000a900460ff1615610686576040517f08c379a000000000000000000000000000000000000000000000000000000000815260040161067d9061262f565b60405180910390fd5b61068f816113b9565b1561069e5761069d8161159c565b5b6000600260016101000a81548160ff02191690831515021790555050565b6106cc6106c76117ed565b6107b5565b61070b576040517f08c379a00000000000000000000000000000000000000000000000000000000081526004016107029061258f565b60405180910390fd5b600260009054906101000a900460ff1661075a576040517f08c379a00000000000000000000000000000000000000000000000000000000081526004016107519061254f565b60405180910390fd5b6000600260006101000a81548160ff0219169083151502179055507f5db9ee0a495bf2e6ff9c91a7834c1ba4fdd244a5e8aa4e537bd38aeae4b073aa61079e6117ed565b6040516107ab91906124ae565b60405180910390a1565b60006107cb8260016117f590919063ffffffff16565b9050919050565b60006107dd82610f81565b806107ed57506107ec826113b9565b5b156107fb57600190506107fc565b5b919050565b610809610bac565b610848576040517f08c379a000000000000000000000000000000000000000000000000000000000815260040161083f9061268f565b60405180910390fd5b8261085e6103e8836118bd90919063ffffffff16565b111561089f576040517f08c379a00000000000000000000000000000000000000000000000000000000081526004016108969061274f565b60405180910390fd5b84600381905550836004819055508260058190555081600681905550806007819055505050505050565b60086020528060005260406000206000915090508060000154908060010154905082565b60045481565b6000600260009054906101000a900460ff16905090565b60035481565b61092061091b6117ed565b61192d565b565b61092a610bac565b610969576040517f08c379a00000000000000000000000000000000000000000000000000000000081526004016109609061268f565b60405180910390fd5b600073ffffffffffffffffffffffffffffffffffffffff166000809054906101000a900473ffffffffffffffffffffffffffffffffffffffff1673ffffffffffffffffffffffffffffffffffffffff167f8be0079c531659141344cd1fd0a4f28419497f9722a3daafe3b4186f6b6457e060405160405180910390a360008060006101000a81548173ffffffffffffffffffffffffffffffffffffffff021916908373ffffffffffffffffffffffffffffffffffffffff160217905550565b610a38610a336117ed565b6107b5565b610a77576040517f08c379a0000000000000000000000000000000000000000000000000000000008152600401610a6e9061258f565b60405180910390fd5b610a8081611987565b50565b610a93610a8e6117ed565b6107b5565b610ad2576040517f08c379a0000000000000000000000000000000000000000000000000000000008152600401610ac99061258f565b60405180910390fd5b600260009054906101000a900460ff1615610b22576040517f08c379a0000000000000000000000000000000000000000000000000000000008152600401610b199061262f565b60405180910390fd5b6001600260006101000a81548160ff0219169083151502179055507f62e78cea01bee320cd4e420270b5ea74000d11b0c9f74754ebdbfc544b05a258610b666117ed565b604051610b7391906124ae565b60405180910390a1565b60075481565b60008060009054906101000a900473ffffffffffffffffffffffffffffffffffffffff16905090565b60008060009054906101000a900473ffffffffffffffffffffffffffffffffffffffff1673ffffffffffffffffffffffffffffffffffffffff16610bee6117ed565b73ffffffffffffffffffffffffffffffffffffffff1614905090565b60055481565b600260019054906101000a900460ff1615610c60576040517f08c379a0000000000000000000000000000000000000000000000000000000008152600401610c57906126ef565b60405180910390fd5b6001600260016101000a81548160ff021916908315150217905550600260009054906101000a900460ff1615610ccb576040517f08c379a0000000000000000000000000000000000000000000000000000000008152600401610cc29061262f565b60405180910390fd5b610cd481610f81565b15610ce357610ce281611164565b5b6000600260016101000a81548160ff02191690831515021790555050565b60065481565b610d0f610bac565b610d4e576040517f08c379a0000000000000000000000000000000000000000000000000000000008152600401610d459061268f565b60405180910390fd5b610d57816119e1565b50565b610d62610bac565b610da1576040517f08c379a0000000000000000000000000000000000000000000000000000000008152600401610d989061268f565b60405180910390fd5b600260019054906101000a900460ff1615610df1576040517f08c379a0000000000000000000000000000000000000000000000000000000008152600401610de8906126ef565b60405180910390fd5b6001600260016101000a81548160ff021916908315150217905550600260009054906101000a900460ff16610e5b576040517f08c379a0000000000000000000000000000000000000000000000000000000008152600401610e529061254f565b60405180910390fd5b803073ffffffffffffffffffffffffffffffffffffffff16311015610eb5576040517f08c379a0000000000000000000000000000000000000000000000000000000008152600401610eac906126cf565b60405180910390fd5b60008273ffffffffffffffffffffffffffffffffffffffff1682604051610edb9061247e565b60006040518083038185875af1925050503d8060008114610f18576040519150601f19603f3d011682016040523d82523d6000602084013e610f1d565b606091505b5050905080610f61576040517f08c379a0000000000000000000000000000000000000000000000000000000008152600401610f589061272f565b60405180910390fd5b506000600260016101000a81548160ff0219169083151502179055505050565b60006005543073ffffffffffffffffffffffffffffffffffffffff16311015610fdf576040517f08c379a0000000000000000000000000000000000000000000000000000000008152600401610fd6906125ef565b60405180910390fd5b6000600960009054906101000a900473ffffffffffffffffffffffffffffffffffffffff1673ffffffffffffffffffffffffffffffffffffffff1663b3b28fac846040518263ffffffff1660e01b815260040161103c9190612493565b602060405180830381600087803b15801561105657600080fd5b505af115801561106a573d6000803e3d6000fd5b505050506040513d601f19601f8201168201806040525061108e9190810190611e11565b905060055481106110d4576040517f08c379a00000000000000000000000000000000000000000000000000000000081526004016110cb9061260f565b60405180910390fd5b600354600860008573ffffffffffffffffffffffffffffffffffffffff1673ffffffffffffffffffffffffffffffffffffffff168152602001908152602001600020600001541061115a576040517f08c379a00000000000000000000000000000000000000000000000000000000081526004016111519061270f565b60405180910390fd5b6001915050919050565b6000600960009054906101000a900473ffffffffffffffffffffffffffffffffffffffff1673ffffffffffffffffffffffffffffffffffffffff1663b3b28fac836040518263ffffffff1660e01b81526004016111c19190612493565b602060405180830381600087803b1580156111db57600080fd5b505af11580156111ef573d6000803e3d6000fd5b505050506040513d601f19601f820116820180604052506112139190810190611e11565b9050600960009054906101000a900473ffffffffffffffffffffffffffffffffffffffff1673ffffffffffffffffffffffffffffffffffffffff16633e3e6428600554846007546040518463ffffffff1660e01b81526004016112779291906124c9565b6000604051808303818588803b15801561129057600080fd5b505af11580156112a4573d6000803e3d6000fd5b505050505061131281611304600554600860008773ffffffffffffffffffffffffffffffffffffffff1673ffffffffffffffffffffffffffffffffffffffff16815260200190815260200160002060000154611b0f90919063ffffffff16565b611b6490919063ffffffff16565b600860008473ffffffffffffffffffffffffffffffffffffffff1673ffffffffffffffffffffffffffffffffffffffff168152602001908152602001600020600001819055506005548273ffffffffffffffffffffffffffffffffffffffff163373ffffffffffffffffffffffffffffffffffffffff167f0d517b7814d6361097aa44db26ae46a4e1244686721c5f28206a9605dc413c4a60405160405180910390a45050565b60006006543073ffffffffffffffffffffffffffffffffffffffff16311015611417576040517f08c379a000000000000000000000000000000000000000000000000000000000815260040161140e906125ef565b60405180910390fd5b6000600960009054906101000a900473ffffffffffffffffffffffffffffffffffffffff1673ffffffffffffffffffffffffffffffffffffffff1663d47e9a57846040518263ffffffff1660e01b81526004016114749190612493565b602060405180830381600087803b15801561148e57600080fd5b505af11580156114a2573d6000803e3d6000fd5b505050506040513d601f19601f820116820180604052506114c69190810190611e11565b9050600654811061150c576040517f08c379a00000000000000000000000000000000000000000000000000000000081526004016115039061260f565b60405180910390fd5b600454600860008573ffffffffffffffffffffffffffffffffffffffff1673ffffffffffffffffffffffffffffffffffffffff1681526020019081526020016000206001015410611592576040517f08c379a00000000000000000000000000000000000000000000000000000000081526004016115899061252f565b60405180910390fd5b6001915050919050565b6000600960009054906101000a900473ffffffffffffffffffffffffffffffffffffffff1673ffffffffffffffffffffffffffffffffffffffff1663d47e9a57836040518263ffffffff1660e01b81526004016115f99190612493565b602060405180830381600087803b15801561161357600080fd5b505af1158015611627573d6000803e3d6000fd5b505050506040513d601f19601f8201168201806040525061164b9190810190611e11565b9050600960009054906101000a900473ffffffffffffffffffffffffffffffffffffffff1673ffffffffffffffffffffffffffffffffffffffff1663e66c1bea600654846040518363ffffffff1660e01b81526004016116ab9190612493565b6000604051808303818588803b1580156116c457600080fd5b505af11580156116d8573d6000803e3d6000fd5b505050505061174681611738600654600860008773ffffffffffffffffffffffffffffffffffffffff1673ffffffffffffffffffffffffffffffffffffffff16815260200190815260200160002060010154611b0f90919063ffffffff16565b611b6490919063ffffffff16565b600860008473ffffffffffffffffffffffffffffffffffffffff1673ffffffffffffffffffffffffffffffffffffffff168152602001908152602001600020600101819055506006548273ffffffffffffffffffffffffffffffffffffffff163373ffffffffffffffffffffffffffffffffffffffff167f0d517b7814d6361097aa44db26ae46a4e1244686721c5f28206a9605dc413c4a60405160405180910390a45050565b600033905090565b60008073ffffffffffffffffffffffffffffffffffffffff168273ffffffffffffffffffffffffffffffffffffffff161415611866576040517f08c379a000000000000000000000000000000000000000000000000000000000815260040161185d906126af565b60405180910390fd5b8260000160008373ffffffffffffffffffffffffffffffffffffffff1673ffffffffffffffffffffffffffffffffffffffff16815260200190815260200160002060009054906101000a900460ff16905092915050565b6000808314156118d05760009050611927565b60008284029050828482816118e157fe5b0414611922576040517f08c379a00000000000000000000000000000000000000000000000000000000081526004016119199061266f565b60405180910390fd5b809150505b92915050565b611941816001611bae90919063ffffffff16565b8073ffffffffffffffffffffffffffffffffffffffff167fcd265ebaf09df2871cc7bd4133404a235ba12eff2041bb89d9c714a2621c7c7e60405160405180910390a250565b61199b816001611c5590919063ffffffff16565b8073ffffffffffffffffffffffffffffffffffffffff167f6719d08c1888103bea251a4ed56406bd0c3e69723c8a1686e017e7bbe159b6f860405160405180910390a250565b600073ffffffffffffffffffffffffffffffffffffffff168173ffffffffffffffffffffffffffffffffffffffff161415611a51576040517f08c379a0000000000000000000000000000000000000000000000000000000008152600401611a48906125af565b60405180910390fd5b8073ffffffffffffffffffffffffffffffffffffffff166000809054906101000a900473ffffffffffffffffffffffffffffffffffffffff1673ffffffffffffffffffffffffffffffffffffffff167f8be0079c531659141344cd1fd0a4f28419497f9722a3daafe3b4186f6b6457e060405160405180910390a3806000806101000a81548173ffffffffffffffffffffffffffffffffffffffff021916908373ffffffffffffffffffffffffffffffffffffffff16021790555050565b600080828401905083811015611b5a576040517f08c379a0000000000000000000000000000000000000000000000000000000008152600401611b51906125cf565b60405180910390fd5b8091505092915050565b6000611ba683836040518060400160405280601e81526020017f536166654d6174683a207375627472616374696f6e206f766572666c6f770000815250611cfd565b905092915050565b611bb882826117f5565b611bf7576040517f08c379a0000000000000000000000000000000000000000000000000000000008152600401611bee9061264f565b60405180910390fd5b60008260000160008373ffffffffffffffffffffffffffffffffffffffff1673ffffffffffffffffffffffffffffffffffffffff16815260200190815260200160002060006101000a81548160ff0219169083151502179055505050565b611c5f82826117f5565b15611c9f576040517f08c379a0000000000000000000000000000000000000000000000000000000008152600401611c969061256f565b60405180910390fd5b60018260000160008373ffffffffffffffffffffffffffffffffffffffff1673ffffffffffffffffffffffffffffffffffffffff16815260200190815260200160002060006101000a81548160ff0219169083151502179055505050565b6000838311158290611d45576040517f08c379a0000000000000000000000000000000000000000000000000000000008152600401611d3c919061250d565b60405180910390fd5b5060008385039050809150509392505050565b600081359050611d67816128ae565b92915050565b600081359050611d7c816128c5565b92915050565b600081359050611d91816128dc565b92915050565b600081519050611da6816128dc565b92915050565b600060208284031215611dbe57600080fd5b6000611dcc84828501611d58565b91505092915050565b60008060408385031215611de857600080fd5b6000611df685828601611d6d565b9250506020611e0785828601611d82565b9150509250929050565b600060208284031215611e2357600080fd5b6000611e3184828501611d97565b91505092915050565b600080600080600060a08688031215611e5257600080fd5b6000611e6088828901611d82565b9550506020611e7188828901611d82565b9450506040611e8288828901611d82565b9350506060611e9388828901611d82565b9250506080611ea488828901611d82565b9150509295509295909350565b611eba81612834565b82525050565b611ec9816127da565b82525050565b611ed8816127fe565b82525050565b6000611ee9826127b3565b611ef381856127c9565b9350611f0381856020860161286a565b611f0c8161289d565b840191505092915050565b6000611f24601b836127c9565b91507f6f76657220636f6c6c61746572616c20746f74616c206c696d697400000000006000830152602082019050919050565b6000611f646014836127c9565b91507f5061757361626c653a206e6f74207061757365640000000000000000000000006000830152602082019050919050565b6000611fa4601f836127c9565b91507f526f6c65733a206163636f756e7420616c72656164792068617320726f6c65006000830152602082019050919050565b6000611fe46030836127c9565b91507f506175736572526f6c653a2063616c6c657220646f6573206e6f74206861766560008301527f207468652050617573657220726f6c65000000000000000000000000000000006020830152604082019050919050565b600061204a6026836127c9565b91507f4f776e61626c653a206e6577206f776e657220697320746865207a65726f206160008301527f64647265737300000000000000000000000000000000000000000000000000006020830152604082019050919050565b60006120b0601b836127c9565b91507f536166654d6174683a206164646974696f6e206f766572666c6f7700000000006000830152602082019050919050565b60006120f06013836127c9565b91507f666175636574206f7574206f66206d6f6e6579000000000000000000000000006000830152602082019050919050565b60006121306015836127c9565b91507f73706f6e736f7265642066756e6420756e7573656400000000000000000000006000830152602082019050919050565b60006121706010836127c9565b91507f5061757361626c653a20706175736564000000000000000000000000000000006000830152602082019050919050565b60006121b06021836127c9565b91507f526f6c65733a206163636f756e7420646f6573206e6f74206861766520726f6c60008301527f65000000000000000000000000000000000000000000000000000000000000006020830152604082019050919050565b60006122166021836127c9565b91507f536166654d6174683a206d756c7469706c69636174696f6e206f766572666c6f60008301527f77000000000000000000000000000000000000000000000000000000000000006020830152604082019050919050565b600061227c6020836127c9565b91507f4f776e61626c653a2063616c6c6572206973206e6f7420746865206f776e65726000830152602082019050919050565b60006122bc6022836127c9565b91507f526f6c65733a206163636f756e7420697320746865207a65726f20616464726560008301527f73730000000000000000000000000000000000000000000000000000000000006020830152604082019050919050565b6000612322600f836127c9565b91507f616d6f756e7420746f6f206869676800000000000000000000000000000000006000830152602082019050919050565b60006123626012836127c9565b91507f5245454e5452414e43595f494c4c4547414c00000000000000000000000000006000830152602082019050919050565b60006123a26014836127c9565b91507f6f7665722067617320746f74616c206c696d69740000000000000000000000006000830152602082019050919050565b60006123e26000836127be565b9150600082019050919050565b60006123fc600f836127c9565b91507f7769746864726177206661696c656400000000000000000000000000000000006000830152602082019050919050565b600061243c6013836127c9565b91507f7570706572426f756e6420746f6f2068696768000000000000000000000000006000830152602082019050919050565b6124788161282a565b82525050565b6000612489826123d5565b9150819050919050565b60006020820190506124a86000830184611ec0565b92915050565b60006020820190506124c36000830184611eb1565b92915050565b60006040820190506124de6000830185611ec0565b6124eb602083018461246f565b9392505050565b60006020820190506125076000830184611ecf565b92915050565b600060208201905081810360008301526125278184611ede565b905092915050565b6000602082019050818103600083015261254881611f17565b9050919050565b6000602082019050818103600083015261256881611f57565b9050919050565b6000602082019050818103600083015261258881611f97565b9050919050565b600060208201905081810360008301526125a881611fd7565b9050919050565b600060208201905081810360008301526125c88161203d565b9050919050565b600060208201905081810360008301526125e8816120a3565b9050919050565b60006020820190508181036000830152612608816120e3565b9050919050565b6000602082019050818103600083015261262881612123565b9050919050565b6000602082019050818103600083015261264881612163565b9050919050565b60006020820190508181036000830152612668816121a3565b9050919050565b6000602082019050818103600083015261268881612209565b9050919050565b600060208201905081810360008301526126a88161226f565b9050919050565b600060208201905081810360008301526126c8816122af565b9050919050565b600060208201905081810360008301526126e881612315565b9050919050565b6000602082019050818103600083015261270881612355565b9050919050565b6000602082019050818103600083015261272881612395565b9050919050565b60006020820190508181036000830152612748816123ef565b9050919050565b600060208201905081810360008301526127688161242f565b9050919050565b6000602082019050612784600083018461246f565b92915050565b600060408201905061279f600083018561246f565b6127ac602083018461246f565b9392505050565b600081519050919050565b600081905092915050565b600082825260208201905092915050565b60006127e58261280a565b9050919050565b60006127f78261280a565b9050919050565b60008115159050919050565b600073ffffffffffffffffffffffffffffffffffffffff82169050919050565b6000819050919050565b600061283f82612846565b9050919050565b600061285182612858565b9050919050565b60006128638261280a565b9050919050565b60005b8381101561288857808201518184015260208101905061286d565b83811115612897576000848401525b50505050565b6000601f19601f8301169050919050565b6128b7816127da565b81146128c257600080fd5b50565b6128ce816127ec565b81146128d957600080fd5b50565b6128e58161282a565b81146128f057600080fd5b5056fea365627a7a72315820263b61288019550511be1b843aa95476557f52f738ef08bf3f7fcc8a4b094e756c6578706572696d656e74616cf564736f6c634300050b0040",
  "source": "pragma solidity 0.5.11;\npragma experimental ABIEncoderV2;\n\nimport \"@openzeppelin/contracts/ownership/Ownable.sol\";\nimport \"@openzeppelin/contracts/lifecycle/Pausable.sol\";\nimport \"@openzeppelin/contracts/math/SafeMath.sol\";\nimport \"./Lib/ReentrancyGuard.sol\";\nimport \"./InternalContract.sol\";\n\ncontract SponsorFaucet is Ownable, Pausable, ReentrancyGuard {\n    using SafeMath for uint256;\n    struct detail {\n        uint256 gas_amount; ////current total sponsored amout for gas\n        uint256 collateral_amount; //current total sponsored amount for collateral\n    }\n\n    /*** bounds set by foundation ***/\n    //total sponsored limit\n    uint256 public gas_total_limit;\n    uint256 public collateral_total_limit;\n    //single sponsor bound\n    uint256 public gas_bound;\n    uint256 public collateral_bound;\n    //upper bound for single tx\n    uint256 public upper_bound;\n    \n    mapping(address=>detail) public dapps;\n    \n    event applied(address indexed applicant, address indexed dapp, uint256 indexed amount);\n    \n    SponsorWhitelistControl internal_sponsor_faucet = SponsorWhitelistControl(0x0888000000000000000000000000000000000001);\n    \n    constructor(uint256 gasTotalLimit, uint256 collateralTotalLimit, uint256 gasBound, uint256 collateralBound, uint256 upperBound) public {\n        require(upperBound.mul(1000) <= gasBound, 'upperBound too high');\n        gas_total_limit = gasTotalLimit;\n        collateral_total_limit = collateralTotalLimit;\n        gas_bound = gasBound;\n        collateral_bound = collateralBound;\n        upper_bound = upperBound;\n    }\n     \n    /*** Dapp dev calls ***/ \n    function applyBoth(address dapp) public nonReentrant whenNotPaused {\n        if(_isAppliableForGas(dapp)) _applyForGas(dapp);\n        if(_isAppliableForCollateral(dapp)) _applyForCollateral(dapp);\n    }\n\n    function applyGas(address dapp) public nonReentrant whenNotPaused {\n        if(_isAppliableForGas(dapp)) _applyForGas(dapp);\n    }\n\n    function applyCol(address dapp) public nonReentrant whenNotPaused {\n        if(_isAppliableForCollateral(dapp)) \n        _applyForCollateral(dapp);\n    }\n\n    function isAppliable(address dapp) public returns (bool) {\n        if(_isAppliableForGas(dapp) || _isAppliableForCollateral(dapp)) return true;\n    }\n\n    function _isAppliableForGas(address dapp) internal returns (bool) {\n        require(address(this).balance >= gas_bound, \"faucet out of money\");\n        uint256 gas_balance = internal_sponsor_faucet.getSponsoredBalanceForGas(dapp);\n        require(gas_balance < gas_bound, \"sponsored fund unused\");\n        require(dapps[dapp].gas_amount < gas_total_limit, \"over gas total limit\");\n        return true;\n    }\n\n    function _isAppliableForCollateral(address dapp) internal returns (bool) {\n        require(address(this).balance >= collateral_bound, \"faucet out of money\");\n        uint256 collateral_balance = internal_sponsor_faucet.getSponsoredBalanceForCollateral(dapp);\n        require(collateral_balance < collateral_bound, \"sponsored fund unused\");\n        require(dapps[dapp].collateral_amount < collateral_total_limit, \"over collateral total limit\");\n        return true;\n    }\n\n    function _applyForGas(address dapp) internal {\n        uint256 gas_balance = internal_sponsor_faucet.getSponsoredBalanceForGas(dapp);\n        internal_sponsor_faucet.setSponsorForGas.value(gas_bound)(dapp, upper_bound);\n        dapps[dapp].gas_amount = dapps[dapp].gas_amount.add(gas_bound).sub(gas_balance);\n        emit applied(msg.sender, dapp, gas_bound);\n    }\n\n    function _applyForCollateral(address dapp) internal {\n        uint256 collateral_balance = internal_sponsor_faucet.getSponsoredBalanceForCollateral(dapp);\n        internal_sponsor_faucet.setSponsorForCollateral.value(collateral_bound)(dapp);\n        dapps[dapp].collateral_amount = dapps[dapp].collateral_amount.add(collateral_bound).sub(collateral_balance);\n        emit applied(msg.sender, dapp, collateral_bound);\n    }\n\n    //accept sponsor's cfx\n    function () external payable {\n    }\n\n    //withdraw to specific address by amount\n    function withdraw(address payable sponsor, uint256 amount) public onlyOwner nonReentrant whenPaused {\n        require(address(this).balance >= amount, \"amount too high\");\n        (bool success, ) = sponsor.call.value(amount)(\"\");\n        require(success, \"withdraw failed\");\n    }\n\n    //set bounds for sponsorship\n    function setBounds(uint256 gasTotalLimit, uint256 collateralTotalLimit, uint256 gasBound, uint256 collateralBound, uint256 upperBound) public onlyOwner {\n        require(upperBound.mul(1000) <= gasBound, 'upperBound too high');\n        gas_total_limit = gasTotalLimit;\n        collateral_total_limit = collateralTotalLimit;\n        gas_bound = gasBound;\n        collateral_bound = collateralBound;\n        upper_bound = upperBound;   \n    }\n}\n",
  "sourcePath": "/Users/xiongyu/conflux-sponsor-faucet/contracts/SponsorFaucet.sol",
  "compiler": {
    "name": "solc",
    "version": "0.5.11+commit.c082d0b4.Emscripten.clang"
  },
  "schemaVersion": "3.2.2",
  "updatedAt": "2020-10-14T12:40:32.068Z",
  "devdoc": {
    "methods": {
      "isOwner()": {
        "details": "Returns true if the caller is the current owner."
      },
      "owner()": {
        "details": "Returns the address of the current owner."
      },
      "pause()": {
        "details": "Called by a pauser to pause, triggers stopped state."
      },
      "paused()": {
        "details": "Returns true if the contract is paused, and false otherwise."
      },
      "renounceOwnership()": {
        "details": "Leaves the contract without owner. It will not be possible to call `onlyOwner` functions anymore. Can only be called by the current owner.     * NOTE: Renouncing ownership will leave the contract without an owner, thereby removing any functionality that is only available to the owner."
      },
      "transferOwnership(address)": {
        "details": "Transfers ownership of the contract to a new account (`newOwner`). Can only be called by the current owner."
      },
      "unpause()": {
        "details": "Called by a pauser to unpause, returns to normal state."
      }
    }
  },
  "userdoc": {
    "methods": {
      "applyBoth(address)": {
        "notice": "* Dapp dev calls **"
      }
    }
  }
}