{
  "contractName": "SponsorFaucet",
  "abi": [
    {
      "constant": false,
      "inputs": [],
      "name": "unpause",
      "outputs": [],
      "payable": false,
      "stateMutability": "nonpayable",
      "type": "function"
    },
    {
      "constant": true,
      "inputs": [
        {
          "internalType": "address",
          "name": "account",
          "type": "address"
        }
      ],
      "name": "isPauser",
      "outputs": [
        {
          "internalType": "bool",
          "name": "",
          "type": "bool"
        }
      ],
      "payable": false,
      "stateMutability": "view",
      "type": "function"
    },
    {
      "constant": true,
      "inputs": [
        {
          "internalType": "address",
          "name": "",
          "type": "address"
        }
      ],
      "name": "dapps",
      "outputs": [
        {
          "internalType": "uint256",
          "name": "gas_amount_accumulated",
          "type": "uint256"
        },
        {
          "internalType": "uint256",
          "name": "collateral_amount_accumulated",
          "type": "uint256"
        }
      ],
      "payable": false,
      "stateMutability": "view",
      "type": "function"
    },
    {
      "constant": true,
      "inputs": [],
      "name": "collateral_total_limit",
      "outputs": [
        {
          "internalType": "uint256",
          "name": "",
          "type": "uint256"
        }
      ],
      "payable": false,
      "stateMutability": "view",
      "type": "function"
    },
    {
      "constant": true,
      "inputs": [],
      "name": "paused",
      "outputs": [
        {
          "internalType": "bool",
          "name": "",
          "type": "bool"
        }
      ],
      "payable": false,
      "stateMutability": "view",
      "type": "function"
    },
    {
      "constant": true,
      "inputs": [],
      "name": "gas_total_limit",
      "outputs": [
        {
          "internalType": "uint256",
          "name": "",
          "type": "uint256"
        }
      ],
      "payable": false,
      "stateMutability": "view",
      "type": "function"
    },
    {
      "constant": false,
      "inputs": [],
      "name": "renouncePauser",
      "outputs": [],
      "payable": false,
      "stateMutability": "nonpayable",
      "type": "function"
    },
    {
      "constant": false,
      "inputs": [],
      "name": "renounceOwnership",
      "outputs": [],
      "payable": false,
      "stateMutability": "nonpayable",
      "type": "function"
    },
    {
      "constant": false,
      "inputs": [
        {
          "internalType": "address",
          "name": "account",
          "type": "address"
        }
      ],
      "name": "addPauser",
      "outputs": [],
      "payable": false,
      "stateMutability": "nonpayable",
      "type": "function"
    },
    {
      "constant": false,
      "inputs": [],
      "name": "pause",
      "outputs": [],
      "payable": false,
      "stateMutability": "nonpayable",
      "type": "function"
    },
    {
      "constant": true,
      "inputs": [],
      "name": "upper_bound",
      "outputs": [
        {
          "internalType": "uint256",
          "name": "",
          "type": "uint256"
        }
      ],
      "payable": false,
      "stateMutability": "view",
      "type": "function"
    },
    {
      "constant": true,
      "inputs": [],
      "name": "owner",
      "outputs": [
        {
          "internalType": "address",
          "name": "",
          "type": "address"
        }
      ],
      "payable": false,
      "stateMutability": "view",
      "type": "function"
    },
    {
      "constant": true,
      "inputs": [],
      "name": "isOwner",
      "outputs": [
        {
          "internalType": "bool",
          "name": "",
          "type": "bool"
        }
      ],
      "payable": false,
      "stateMutability": "view",
      "type": "function"
    },
    {
      "constant": true,
      "inputs": [],
      "name": "gas_bound",
      "outputs": [
        {
          "internalType": "uint256",
          "name": "",
          "type": "uint256"
        }
      ],
      "payable": false,
      "stateMutability": "view",
      "type": "function"
    },
    {
      "constant": true,
      "inputs": [],
      "name": "collateral_bound",
      "outputs": [
        {
          "internalType": "uint256",
          "name": "",
          "type": "uint256"
        }
      ],
      "payable": false,
      "stateMutability": "view",
      "type": "function"
    },
    {
      "constant": false,
      "inputs": [
        {
          "internalType": "address",
          "name": "newOwner",
          "type": "address"
        }
      ],
      "name": "transferOwnership",
      "outputs": [],
      "payable": false,
      "stateMutability": "nonpayable",
      "type": "function"
    },
    {
      "inputs": [
        {
          "internalType": "uint256",
          "name": "gasTotalLimit",
          "type": "uint256"
        },
        {
          "internalType": "uint256",
          "name": "collateralTotalLimit",
          "type": "uint256"
        },
        {
          "internalType": "uint256",
          "name": "gasBound",
          "type": "uint256"
        },
        {
          "internalType": "uint256",
          "name": "collateralBound",
          "type": "uint256"
        },
        {
          "internalType": "uint256",
          "name": "upperBound",
          "type": "uint256"
        }
      ],
      "payable": false,
      "stateMutability": "nonpayable",
      "type": "constructor"
    },
    {
      "payable": true,
      "stateMutability": "payable",
      "type": "fallback"
    },
    {
      "anonymous": false,
      "inputs": [
        {
          "indexed": true,
          "internalType": "address",
          "name": "applicant",
          "type": "address"
        },
        {
          "indexed": true,
          "internalType": "address",
          "name": "dapp",
          "type": "address"
        },
        {
          "indexed": false,
          "internalType": "uint256",
          "name": "amount",
          "type": "uint256"
        }
      ],
      "name": "applied",
      "type": "event"
    },
    {
      "anonymous": false,
      "inputs": [
        {
          "indexed": false,
          "internalType": "address",
          "name": "account",
          "type": "address"
        }
      ],
      "name": "Paused",
      "type": "event"
    },
    {
      "anonymous": false,
      "inputs": [
        {
          "indexed": false,
          "internalType": "address",
          "name": "account",
          "type": "address"
        }
      ],
      "name": "Unpaused",
      "type": "event"
    },
    {
      "anonymous": false,
      "inputs": [
        {
          "indexed": true,
          "internalType": "address",
          "name": "account",
          "type": "address"
        }
      ],
      "name": "PauserAdded",
      "type": "event"
    },
    {
      "anonymous": false,
      "inputs": [
        {
          "indexed": true,
          "internalType": "address",
          "name": "account",
          "type": "address"
        }
      ],
      "name": "PauserRemoved",
      "type": "event"
    },
    {
      "anonymous": false,
      "inputs": [
        {
          "indexed": true,
          "internalType": "address",
          "name": "previousOwner",
          "type": "address"
        },
        {
          "indexed": true,
          "internalType": "address",
          "name": "newOwner",
          "type": "address"
        }
      ],
      "name": "OwnershipTransferred",
      "type": "event"
    },
    {
      "constant": false,
      "inputs": [
        {
          "internalType": "address",
          "name": "dapp",
          "type": "address"
        }
      ],
      "name": "applyGasAndCollateral",
      "outputs": [],
      "payable": false,
      "stateMutability": "nonpayable",
      "type": "function"
    },
    {
      "constant": false,
      "inputs": [
        {
          "internalType": "address",
          "name": "dapp",
          "type": "address"
        }
      ],
      "name": "isAppliable",
      "outputs": [
        {
          "internalType": "bool",
          "name": "",
          "type": "bool"
        }
      ],
      "payable": false,
      "stateMutability": "nonpayable",
      "type": "function"
    },
    {
      "constant": false,
      "inputs": [
        {
          "internalType": "address payable",
          "name": "sponsor",
          "type": "address"
        },
        {
          "internalType": "uint256",
          "name": "amount",
          "type": "uint256"
        }
      ],
      "name": "withdraw",
      "outputs": [],
      "payable": false,
      "stateMutability": "nonpayable",
      "type": "function"
    },
    {
      "constant": false,
      "inputs": [
        {
          "internalType": "uint256",
          "name": "gasTotalLimit",
          "type": "uint256"
        },
        {
          "internalType": "uint256",
          "name": "collateralTotalLimit",
          "type": "uint256"
        },
        {
          "internalType": "uint256",
          "name": "gasBound",
          "type": "uint256"
        },
        {
          "internalType": "uint256",
          "name": "collateralBound",
          "type": "uint256"
        },
        {
          "internalType": "uint256",
          "name": "upperBound",
          "type": "uint256"
        }
      ],
      "name": "setBounds",
      "outputs": [],
      "payable": false,
      "stateMutability": "nonpayable",
      "type": "function"
    }
  ],
  "bytecode": "0x60806040526000600260016101000a81548160ff021916908315150217905550730888000000000000000000000000000000000001600960006101000a81548173ffffffffffffffffffffffffffffffffffffffff021916908373ffffffffffffffffffffffffffffffffffffffff1602179055503480156200008157600080fd5b506040516200336f3803806200336f8339818101604052620000a7919081019062000495565b6000620000b96200022160201b60201c565b9050806000806101000a81548173ffffffffffffffffffffffffffffffffffffffff021916908373ffffffffffffffffffffffffffffffffffffffff1602179055508073ffffffffffffffffffffffffffffffffffffffff16600073ffffffffffffffffffffffffffffffffffffffff167f8be0079c531659141344cd1fd0a4f28419497f9722a3daafe3b4186f6b6457e060405160405180910390a350620001776200016b6200022160201b60201c565b6200022960201b60201c565b6000600260006101000a81548160ff02191690831515021790555082620001af6103e8836200028a60201b620019171790919060201c565b1115620001f3576040517f08c379a0000000000000000000000000000000000000000000000000000000008152600401620001ea90620006d1565b60405180910390fd5b8460038190555083600481905550826005819055508160068190555080600781905550505050505062000728565b600033905090565b620002448160016200030060201b62001f971790919060201c565b8073ffffffffffffffffffffffffffffffffffffffff167f6719d08c1888103bea251a4ed56406bd0c3e69723c8a1686e017e7bbe159b6f860405160405180910390a250565b6000808314156200029f5760009050620002fa565b6000828402905082848281620002b157fe5b0414620002f5576040517f08c379a0000000000000000000000000000000000000000000000000000000008152600401620002ec906200068d565b60405180910390fd5b809150505b92915050565b620003128282620003b360201b60201c565b1562000355576040517f08c379a00000000000000000000000000000000000000000000000000000000081526004016200034c906200066b565b60405180910390fd5b60018260000160008373ffffffffffffffffffffffffffffffffffffffff1673ffffffffffffffffffffffffffffffffffffffff16815260200190815260200160002060006101000a81548160ff0219169083151502179055505050565b60008073ffffffffffffffffffffffffffffffffffffffff168273ffffffffffffffffffffffffffffffffffffffff16141562000427576040517f08c379a00000000000000000000000000000000000000000000000000000000081526004016200041e90620006af565b60405180910390fd5b8260000160008373ffffffffffffffffffffffffffffffffffffffff1673ffffffffffffffffffffffffffffffffffffffff16815260200190815260200160002060009054906101000a900460ff16905092915050565b6000815190506200048f816200070e565b92915050565b600080600080600060a08688031215620004ae57600080fd5b6000620004be888289016200047e565b9550506020620004d1888289016200047e565b9450506040620004e4888289016200047e565b9350506060620004f7888289016200047e565b92505060806200050a888289016200047e565b9150509295509295909350565b600062000526601f83620006f3565b91507f526f6c65733a206163636f756e7420616c72656164792068617320726f6c65006000830152602082019050919050565b600062000568602183620006f3565b91507f536166654d6174683a206d756c7469706c69636174696f6e206f766572666c6f60008301527f77000000000000000000000000000000000000000000000000000000000000006020830152604082019050919050565b6000620005d0602283620006f3565b91507f526f6c65733a206163636f756e7420697320746865207a65726f20616464726560008301527f73730000000000000000000000000000000000000000000000000000000000006020830152604082019050919050565b600062000638601383620006f3565b91507f7570706572426f756e6420746f6f2068696768000000000000000000000000006000830152602082019050919050565b60006020820190508181036000830152620006868162000517565b9050919050565b60006020820190508181036000830152620006a88162000559565b9050919050565b60006020820190508181036000830152620006ca81620005c1565b9050919050565b60006020820190508181036000830152620006ec8162000629565b9050919050565b600082825260208201905092915050565b6000819050919050565b620007198162000704565b81146200072557600080fd5b50565b612c3780620007386000396000f3fe60806040526004361061011f5760003560e01c806382dc1ec4116100a05780639c27c7e1116100645780639c27c7e1146103895780639ca64c41146103b2578063ca9c8c37146103dd578063f2fde38b14610408578063f3fef3a3146104315761011f565b806382dc1ec4146102c85780638456cb59146102f157806385eb4dab146103085780638da5cb5b146103335780638f32d59b1461035e5761011f565b80635607a2c4116100e75780635607a2c4146102195780635c975abb146102445780635f929b7b1461026f5780636ef8d66d1461029a578063715018a6146102b15761011f565b80633f4ba83a1461012157806346fbf68e1461013857806348132bee1461017557806351f34703146101b257806355670f31146101db575b005b34801561012d57600080fd5b5061013661045a565b005b34801561014457600080fd5b5061015f600480360361015a91908101906120a8565b610553565b60405161016c9190612844565b60405180910390f35b34801561018157600080fd5b5061019c600480360361019791908101906120a8565b610570565b6040516101a99190612844565b60405180910390f35b3480156101be57600080fd5b506101d960048036036101d4919081019061215f565b6105b1565b005b3480156101e757600080fd5b5061020260048036036101fd91908101906120a8565b610679565b604051610210929190612ada565b60405180910390f35b34801561022557600080fd5b5061022e61069d565b60405161023b9190612abf565b60405180910390f35b34801561025057600080fd5b506102596106a3565b6040516102669190612844565b60405180910390f35b34801561027b57600080fd5b506102846106ba565b6040516102919190612abf565b60405180910390f35b3480156102a657600080fd5b506102af6106c0565b005b3480156102bd57600080fd5b506102c66106d2565b005b3480156102d457600080fd5b506102ef60048036036102ea91908101906120a8565b6107d8565b005b3480156102fd57600080fd5b50610306610833565b005b34801561031457600080fd5b5061031d61092d565b60405161032a9190612abf565b60405180910390f35b34801561033f57600080fd5b50610348610933565b60405161035591906127e5565b60405180910390f35b34801561036a57600080fd5b5061037361095c565b6040516103809190612844565b60405180910390f35b34801561039557600080fd5b506103b060048036036103ab91908101906120a8565b6109ba565b005b3480156103be57600080fd5b506103c7610ac3565b6040516103d49190612abf565b60405180910390f35b3480156103e957600080fd5b506103f2610ac9565b6040516103ff9190612abf565b60405180910390f35b34801561041457600080fd5b5061042f600480360361042a91908101906120a8565b610acf565b005b34801561043d57600080fd5b50610458600480360361045391908101906120fa565b610b22565b005b61046a610465610d49565b610553565b6104a9576040517f08c379a00000000000000000000000000000000000000000000000000000000081526004016104a0906128bf565b60405180910390fd5b600260009054906101000a900460ff166104f8576040517f08c379a00000000000000000000000000000000000000000000000000000000081526004016104ef9061287f565b60405180910390fd5b6000600260006101000a81548160ff0219169083151502179055507f5db9ee0a495bf2e6ff9c91a7834c1ba4fdd244a5e8aa4e537bd38aeae4b073aa61053c610d49565b6040516105499190612800565b60405180910390a1565b6000610569826001610d5190919063ffffffff16565b9050919050565b600061057b82610e19565b8061058b575061058a826111d3565b5b1561059957600190506105ac565b6105a282611329565b6105ab82611728565b5b919050565b6105b961095c565b6105f8576040517f08c379a00000000000000000000000000000000000000000000000000000000081526004016105ef906129bf565b60405180910390fd5b8261060e6103e88361191790919063ffffffff16565b111561064f576040517f08c379a000000000000000000000000000000000000000000000000000000000815260040161064690612a9f565b60405180910390fd5b84600381905550836004819055508260058190555081600681905550806007819055505050505050565b60086020528060005260406000206000915090508060000154908060010154905082565b60045481565b6000600260009054906101000a900460ff16905090565b60035481565b6106d06106cb610d49565b611987565b565b6106da61095c565b610719576040517f08c379a0000000000000000000000000000000000000000000000000000000008152600401610710906129bf565b60405180910390fd5b600073ffffffffffffffffffffffffffffffffffffffff166000809054906101000a900473ffffffffffffffffffffffffffffffffffffffff1673ffffffffffffffffffffffffffffffffffffffff167f8be0079c531659141344cd1fd0a4f28419497f9722a3daafe3b4186f6b6457e060405160405180910390a360008060006101000a81548173ffffffffffffffffffffffffffffffffffffffff021916908373ffffffffffffffffffffffffffffffffffffffff160217905550565b6107e86107e3610d49565b610553565b610827576040517f08c379a000000000000000000000000000000000000000000000000000000000815260040161081e906128bf565b60405180910390fd5b610830816119e1565b50565b61084361083e610d49565b610553565b610882576040517f08c379a0000000000000000000000000000000000000000000000000000000008152600401610879906128bf565b60405180910390fd5b600260009054906101000a900460ff16156108d2576040517f08c379a00000000000000000000000000000000000000000000000000000000081526004016108c99061295f565b60405180910390fd5b6001600260006101000a81548160ff0219169083151502179055507f62e78cea01bee320cd4e420270b5ea74000d11b0c9f74754ebdbfc544b05a258610916610d49565b6040516109239190612800565b60405180910390a1565b60075481565b60008060009054906101000a900473ffffffffffffffffffffffffffffffffffffffff16905090565b60008060009054906101000a900473ffffffffffffffffffffffffffffffffffffffff1673ffffffffffffffffffffffffffffffffffffffff1661099e610d49565b73ffffffffffffffffffffffffffffffffffffffff1614905090565b600260019054906101000a900460ff1615610a0a576040517f08c379a0000000000000000000000000000000000000000000000000000000008152600401610a0190612a1f565b60405180910390fd5b6001600260016101000a81548160ff021916908315150217905550600260009054906101000a900460ff1615610a75576040517f08c379a0000000000000000000000000000000000000000000000000000000008152600401610a6c9061295f565b60405180910390fd5b610a7e81610e19565b15610a8d57610a8c81611a3b565b5b610a96816111d3565b15610aa557610aa481611bd6565b5b6000600260016101000a81548160ff02191690831515021790555050565b60055481565b60065481565b610ad761095c565b610b16576040517f08c379a0000000000000000000000000000000000000000000000000000000008152600401610b0d906129bf565b60405180910390fd5b610b1f81611d6d565b50565b610b2a61095c565b610b69576040517f08c379a0000000000000000000000000000000000000000000000000000000008152600401610b60906129bf565b60405180910390fd5b600260019054906101000a900460ff1615610bb9576040517f08c379a0000000000000000000000000000000000000000000000000000000008152600401610bb090612a1f565b60405180910390fd5b6001600260016101000a81548160ff021916908315150217905550600260009054906101000a900460ff16610c23576040517f08c379a0000000000000000000000000000000000000000000000000000000008152600401610c1a9061287f565b60405180910390fd5b803073ffffffffffffffffffffffffffffffffffffffff16311015610c7d576040517f08c379a0000000000000000000000000000000000000000000000000000000008152600401610c74906129ff565b60405180910390fd5b60008273ffffffffffffffffffffffffffffffffffffffff1682604051610ca3906127d0565b60006040518083038185875af1925050503d8060008114610ce0576040519150601f19603f3d011682016040523d82523d6000602084013e610ce5565b606091505b5050905080610d29576040517f08c379a0000000000000000000000000000000000000000000000000000000008152600401610d2090612a7f565b60405180910390fd5b506000600260016101000a81548160ff0219169083151502179055505050565b600033905090565b60008073ffffffffffffffffffffffffffffffffffffffff168273ffffffffffffffffffffffffffffffffffffffff161415610dc2576040517f08c379a0000000000000000000000000000000000000000000000000000000008152600401610db9906129df565b60405180910390fd5b8260000160008373ffffffffffffffffffffffffffffffffffffffff1673ffffffffffffffffffffffffffffffffffffffff16815260200190815260200160002060009054906101000a900460ff16905092915050565b600080600960009054906101000a900473ffffffffffffffffffffffffffffffffffffffff1673ffffffffffffffffffffffffffffffffffffffff1663b3b28fac846040518263ffffffff1660e01b8152600401610e7791906127e5565b602060405180830381600087803b158015610e9157600080fd5b505af1158015610ea5573d6000803e3d6000fd5b505050506040513d601f19601f82011682018060405250610ec99190810190612136565b90506000600960009054906101000a900473ffffffffffffffffffffffffffffffffffffffff1673ffffffffffffffffffffffffffffffffffffffff166333a1af31856040518263ffffffff1660e01b8152600401610f2891906127e5565b602060405180830381600087803b158015610f4257600080fd5b505af1158015610f56573d6000803e3d6000fd5b505050506040513d601f19601f82011682018060405250610f7a91908101906120d1565b90503073ffffffffffffffffffffffffffffffffffffffff168173ffffffffffffffffffffffffffffffffffffffff161480610fe25750600073ffffffffffffffffffffffffffffffffffffffff168173ffffffffffffffffffffffffffffffffffffffff16145b1561107e576005543073ffffffffffffffffffffffffffffffffffffffff163110158015611011575060055482105b80156110755750600354611072600554600860008873ffffffffffffffffffffffffffffffffffffffff1673ffffffffffffffffffffffffffffffffffffffff16815260200190815260200160002060000154611e9b90919063ffffffff16565b11155b925050506111ce565b6000600960009054906101000a900473ffffffffffffffffffffffffffffffffffffffff1673ffffffffffffffffffffffffffffffffffffffff1663d665f9dd866040518263ffffffff1660e01b81526004016110db91906127e5565b602060405180830381600087803b1580156110f557600080fd5b505af1158015611109573d6000803e3d6000fd5b505050506040513d601f19601f8201168201806040525061112d9190810190612136565b9050808310801561115757506005543073ffffffffffffffffffffffffffffffffffffffff163110155b8015611164575060055483105b80156111c857506003546111c5600554600860008973ffffffffffffffffffffffffffffffffffffffff1673ffffffffffffffffffffffffffffffffffffffff16815260200190815260200160002060000154611e9b90919063ffffffff16565b11155b93505050505b919050565b600080600960009054906101000a900473ffffffffffffffffffffffffffffffffffffffff1673ffffffffffffffffffffffffffffffffffffffff1663d47e9a57846040518263ffffffff1660e01b815260040161123191906127e5565b602060405180830381600087803b15801561124b57600080fd5b505af115801561125f573d6000803e3d6000fd5b505050506040513d601f19601f820116820180604052506112839190810190612136565b90506006543073ffffffffffffffffffffffffffffffffffffffff1631101580156112af575060065481105b80156113135750600454611310600654600860008773ffffffffffffffffffffffffffffffffffffffff1673ffffffffffffffffffffffffffffffffffffffff16815260200190815260200160002060010154611e9b90919063ffffffff16565b11155b15611322576001915050611324565b505b919050565b6000600960009054906101000a900473ffffffffffffffffffffffffffffffffffffffff1673ffffffffffffffffffffffffffffffffffffffff166333a1af31836040518263ffffffff1660e01b815260040161138691906127e5565b602060405180830381600087803b1580156113a057600080fd5b505af11580156113b4573d6000803e3d6000fd5b505050506040513d601f19601f820116820180604052506113d891908101906120d1565b90506000600960009054906101000a900473ffffffffffffffffffffffffffffffffffffffff1673ffffffffffffffffffffffffffffffffffffffff1663b3b28fac846040518263ffffffff1660e01b815260040161143791906127e5565b602060405180830381600087803b15801561145157600080fd5b505af1158015611465573d6000803e3d6000fd5b505050506040513d601f19601f820116820180604052506114899190810190612136565b90503073ffffffffffffffffffffffffffffffffffffffff168273ffffffffffffffffffffffffffffffffffffffff16141580156114f45750600073ffffffffffffffffffffffffffffffffffffffff168273ffffffffffffffffffffffffffffffffffffffff1614155b156115e857600960009054906101000a900473ffffffffffffffffffffffffffffffffffffffff1673ffffffffffffffffffffffffffffffffffffffff1663d665f9dd846040518263ffffffff1660e01b815260040161155491906127e5565b602060405180830381600087803b15801561156e57600080fd5b505af1158015611582573d6000803e3d6000fd5b505050506040513d601f19601f820116820180604052506115a69190810190612136565b81106115e7576040517f08c379a00000000000000000000000000000000000000000000000000000000081526004016115de90612a5f565b60405180910390fd5b5b6005543073ffffffffffffffffffffffffffffffffffffffff16311015611644576040517f08c379a000000000000000000000000000000000000000000000000000000000815260040161163b9061291f565b60405180910390fd5b6005548110611688576040517f08c379a000000000000000000000000000000000000000000000000000000000815260040161167f9061293f565b60405180910390fd5b6003546116e2600554600860008773ffffffffffffffffffffffffffffffffffffffff1673ffffffffffffffffffffffffffffffffffffffff16815260200190815260200160002060000154611e9b90919063ffffffff16565b1115611723576040517f08c379a000000000000000000000000000000000000000000000000000000000815260040161171a90612a3f565b60405180910390fd5b505050565b6006543073ffffffffffffffffffffffffffffffffffffffff16311015611784576040517f08c379a000000000000000000000000000000000000000000000000000000000815260040161177b9061291f565b60405180910390fd5b6000600960009054906101000a900473ffffffffffffffffffffffffffffffffffffffff1673ffffffffffffffffffffffffffffffffffffffff1663d47e9a57836040518263ffffffff1660e01b81526004016117e191906127e5565b602060405180830381600087803b1580156117fb57600080fd5b505af115801561180f573d6000803e3d6000fd5b505050506040513d601f19601f820116820180604052506118339190810190612136565b90506006548110611879576040517f08c379a00000000000000000000000000000000000000000000000000000000081526004016118709061293f565b60405180910390fd5b6004546118d3600654600860008673ffffffffffffffffffffffffffffffffffffffff1673ffffffffffffffffffffffffffffffffffffffff16815260200190815260200160002060010154611e9b90919063ffffffff16565b10611913576040517f08c379a000000000000000000000000000000000000000000000000000000000815260040161190a9061285f565b60405180910390fd5b5050565b60008083141561192a5760009050611981565b600082840290508284828161193b57fe5b041461197c576040517f08c379a00000000000000000000000000000000000000000000000000000000081526004016119739061299f565b60405180910390fd5b809150505b92915050565b61199b816001611ef090919063ffffffff16565b8073ffffffffffffffffffffffffffffffffffffffff167fcd265ebaf09df2871cc7bd4133404a235ba12eff2041bb89d9c714a2621c7c7e60405160405180910390a250565b6119f5816001611f9790919063ffffffff16565b8073ffffffffffffffffffffffffffffffffffffffff167f6719d08c1888103bea251a4ed56406bd0c3e69723c8a1686e017e7bbe159b6f860405160405180910390a250565b600960009054906101000a900473ffffffffffffffffffffffffffffffffffffffff1673ffffffffffffffffffffffffffffffffffffffff16633e3e6428600554836007546040518463ffffffff1660e01b8152600401611a9d92919061281b565b6000604051808303818588803b158015611ab657600080fd5b505af1158015611aca573d6000803e3d6000fd5b5050505050611b26600554600860008473ffffffffffffffffffffffffffffffffffffffff1673ffffffffffffffffffffffffffffffffffffffff16815260200190815260200160002060000154611e9b90919063ffffffff16565b600860008373ffffffffffffffffffffffffffffffffffffffff1673ffffffffffffffffffffffffffffffffffffffff168152602001908152602001600020600001819055508073ffffffffffffffffffffffffffffffffffffffff163373ffffffffffffffffffffffffffffffffffffffff167f0d517b7814d6361097aa44db26ae46a4e1244686721c5f28206a9605dc413c4a600554604051611bcb9190612abf565b60405180910390a350565b600960009054906101000a900473ffffffffffffffffffffffffffffffffffffffff1673ffffffffffffffffffffffffffffffffffffffff1663e66c1bea600654836040518363ffffffff1660e01b8152600401611c3491906127e5565b6000604051808303818588803b158015611c4d57600080fd5b505af1158015611c61573d6000803e3d6000fd5b5050505050611cbd600654600860008473ffffffffffffffffffffffffffffffffffffffff1673ffffffffffffffffffffffffffffffffffffffff16815260200190815260200160002060010154611e9b90919063ffffffff16565b600860008373ffffffffffffffffffffffffffffffffffffffff1673ffffffffffffffffffffffffffffffffffffffff168152602001908152602001600020600101819055508073ffffffffffffffffffffffffffffffffffffffff163373ffffffffffffffffffffffffffffffffffffffff167f0d517b7814d6361097aa44db26ae46a4e1244686721c5f28206a9605dc413c4a600654604051611d629190612abf565b60405180910390a350565b600073ffffffffffffffffffffffffffffffffffffffff168173ffffffffffffffffffffffffffffffffffffffff161415611ddd576040517f08c379a0000000000000000000000000000000000000000000000000000000008152600401611dd4906128df565b60405180910390fd5b8073ffffffffffffffffffffffffffffffffffffffff166000809054906101000a900473ffffffffffffffffffffffffffffffffffffffff1673ffffffffffffffffffffffffffffffffffffffff167f8be0079c531659141344cd1fd0a4f28419497f9722a3daafe3b4186f6b6457e060405160405180910390a3806000806101000a81548173ffffffffffffffffffffffffffffffffffffffff021916908373ffffffffffffffffffffffffffffffffffffffff16021790555050565b600080828401905083811015611ee6576040517f08c379a0000000000000000000000000000000000000000000000000000000008152600401611edd906128ff565b60405180910390fd5b8091505092915050565b611efa8282610d51565b611f39576040517f08c379a0000000000000000000000000000000000000000000000000000000008152600401611f309061297f565b60405180910390fd5b60008260000160008373ffffffffffffffffffffffffffffffffffffffff1673ffffffffffffffffffffffffffffffffffffffff16815260200190815260200160002060006101000a81548160ff0219169083151502179055505050565b611fa18282610d51565b15611fe1576040517f08c379a0000000000000000000000000000000000000000000000000000000008152600401611fd89061289f565b60405180910390fd5b60018260000160008373ffffffffffffffffffffffffffffffffffffffff1673ffffffffffffffffffffffffffffffffffffffff16815260200190815260200160002060006101000a81548160ff0219169083151502179055505050565b60008135905061204e81612baf565b92915050565b60008151905061206381612baf565b92915050565b60008135905061207881612bc6565b92915050565b60008135905061208d81612bdd565b92915050565b6000815190506120a281612bdd565b92915050565b6000602082840312156120ba57600080fd5b60006120c88482850161203f565b91505092915050565b6000602082840312156120e357600080fd5b60006120f184828501612054565b91505092915050565b6000806040838503121561210d57600080fd5b600061211b85828601612069565b925050602061212c8582860161207e565b9150509250929050565b60006020828403121561214857600080fd5b600061215684828501612093565b91505092915050565b600080600080600060a0868803121561217757600080fd5b60006121858882890161207e565b95505060206121968882890161207e565b94505060406121a78882890161207e565b93505060606121b88882890161207e565b92505060806121c98882890161207e565b9150509295509295909350565b6121df81612b79565b82525050565b6121ee81612b1f565b82525050565b6121fd81612b43565b82525050565b6000612210601b83612b0e565b91507f6f76657220636f6c6c61746572616c20746f74616c206c696d697400000000006000830152602082019050919050565b6000612250601483612b0e565b91507f5061757361626c653a206e6f74207061757365640000000000000000000000006000830152602082019050919050565b6000612290601f83612b0e565b91507f526f6c65733a206163636f756e7420616c72656164792068617320726f6c65006000830152602082019050919050565b60006122d0603083612b0e565b91507f506175736572526f6c653a2063616c6c657220646f6573206e6f74206861766560008301527f207468652050617573657220726f6c65000000000000000000000000000000006020830152604082019050919050565b6000612336602683612b0e565b91507f4f776e61626c653a206e6577206f776e657220697320746865207a65726f206160008301527f64647265737300000000000000000000000000000000000000000000000000006020830152604082019050919050565b600061239c601b83612b0e565b91507f536166654d6174683a206164646974696f6e206f766572666c6f7700000000006000830152602082019050919050565b60006123dc601383612b0e565b91507f666175636574206f7574206f66206d6f6e6579000000000000000000000000006000830152602082019050919050565b600061241c601583612b0e565b91507f73706f6e736f7265642066756e6420756e7573656400000000000000000000006000830152602082019050919050565b600061245c601083612b0e565b91507f5061757361626c653a20706175736564000000000000000000000000000000006000830152602082019050919050565b600061249c602183612b0e565b91507f526f6c65733a206163636f756e7420646f6573206e6f74206861766520726f6c60008301527f65000000000000000000000000000000000000000000000000000000000000006020830152604082019050919050565b6000612502602183612b0e565b91507f536166654d6174683a206d756c7469706c69636174696f6e206f766572666c6f60008301527f77000000000000000000000000000000000000000000000000000000000000006020830152604082019050919050565b6000612568602083612b0e565b91507f4f776e61626c653a2063616c6c6572206973206e6f7420746865206f776e65726000830152602082019050919050565b60006125a8602283612b0e565b91507f526f6c65733a206163636f756e7420697320746865207a65726f20616464726560008301527f73730000000000000000000000000000000000000000000000000000000000006020830152604082019050919050565b600061260e600f83612b0e565b91507f616d6f756e7420746f6f206869676800000000000000000000000000000000006000830152602082019050919050565b600061264e601283612b0e565b91507f5245454e5452414e43595f494c4c4547414c00000000000000000000000000006000830152602082019050919050565b600061268e601483612b0e565b91507f6f7665722067617320746f74616c206c696d69740000000000000000000000006000830152602082019050919050565b60006126ce600083612b03565b9150600082019050919050565b60006126e8602183612b0e565b91507f63616e206e6f74207265706c616365203372642070617274792073706f6e736f60008301527f72000000000000000000000000000000000000000000000000000000000000006020830152604082019050919050565b600061274e600f83612b0e565b91507f7769746864726177206661696c656400000000000000000000000000000000006000830152602082019050919050565b600061278e601383612b0e565b91507f7570706572426f756e6420746f6f2068696768000000000000000000000000006000830152602082019050919050565b6127ca81612b6f565b82525050565b60006127db826126c1565b9150819050919050565b60006020820190506127fa60008301846121e5565b92915050565b600060208201905061281560008301846121d6565b92915050565b600060408201905061283060008301856121e5565b61283d60208301846127c1565b9392505050565b600060208201905061285960008301846121f4565b92915050565b6000602082019050818103600083015261287881612203565b9050919050565b6000602082019050818103600083015261289881612243565b9050919050565b600060208201905081810360008301526128b881612283565b9050919050565b600060208201905081810360008301526128d8816122c3565b9050919050565b600060208201905081810360008301526128f881612329565b9050919050565b600060208201905081810360008301526129188161238f565b9050919050565b60006020820190508181036000830152612938816123cf565b9050919050565b600060208201905081810360008301526129588161240f565b9050919050565b600060208201905081810360008301526129788161244f565b9050919050565b600060208201905081810360008301526129988161248f565b9050919050565b600060208201905081810360008301526129b8816124f5565b9050919050565b600060208201905081810360008301526129d88161255b565b9050919050565b600060208201905081810360008301526129f88161259b565b9050919050565b60006020820190508181036000830152612a1881612601565b9050919050565b60006020820190508181036000830152612a3881612641565b9050919050565b60006020820190508181036000830152612a5881612681565b9050919050565b60006020820190508181036000830152612a78816126db565b9050919050565b60006020820190508181036000830152612a9881612741565b9050919050565b60006020820190508181036000830152612ab881612781565b9050919050565b6000602082019050612ad460008301846127c1565b92915050565b6000604082019050612aef60008301856127c1565b612afc60208301846127c1565b9392505050565b600081905092915050565b600082825260208201905092915050565b6000612b2a82612b4f565b9050919050565b6000612b3c82612b4f565b9050919050565b60008115159050919050565b600073ffffffffffffffffffffffffffffffffffffffff82169050919050565b6000819050919050565b6000612b8482612b8b565b9050919050565b6000612b9682612b9d565b9050919050565b6000612ba882612b4f565b9050919050565b612bb881612b1f565b8114612bc357600080fd5b50565b612bcf81612b31565b8114612bda57600080fd5b50565b612be681612b6f565b8114612bf157600080fd5b5056fea365627a7a723158206a77fb0b00f4b1bf068baedde97581b78a3e511b461172306fb2aae12e107b956c6578706572696d656e74616cf564736f6c634300050b0040",
  "source": "pragma solidity 0.5.11;\npragma experimental ABIEncoderV2;\n\nimport \"@openzeppelin/contracts/ownership/Ownable.sol\";\nimport \"@openzeppelin/contracts/lifecycle/Pausable.sol\";\nimport \"@openzeppelin/contracts/math/SafeMath.sol\";\nimport \"./Lib/ReentrancyGuard.sol\";\nimport \"./InternalContract.sol\";\n\ncontract SponsorFaucet is Ownable, Pausable, ReentrancyGuard {\n    using SafeMath for uint256;\n    struct detail {\n        uint256 gas_amount_accumulated; //current accumulated sponsored amout for gas\n        uint256 collateral_amount_accumulated; //current total sponsored amount for collateral\n    }\n\n    /*** bounds set by foundation ***/\n    //total sponsored limit\n    uint256 public gas_total_limit;\n    uint256 public collateral_total_limit;\n    //single sponsor bound\n    uint256 public gas_bound;\n    uint256 public collateral_bound;\n    //upper bound for single tx\n    uint256 public upper_bound;\n\n    mapping(address => detail) public dapps;\n\n    event applied(\n        address indexed applicant,\n        address indexed dapp,\n        uint256 amount\n    );\n\n    SponsorWhitelistControl internal_sponsor = SponsorWhitelistControl(\n        0x0888000000000000000000000000000000000001\n    );\n\n    constructor(\n        uint256 gasTotalLimit,\n        uint256 collateralTotalLimit,\n        uint256 gasBound,\n        uint256 collateralBound,\n        uint256 upperBound\n    ) public {\n        //rule by internal contract\n        require(upperBound.mul(1000) <= gasBound, \"upperBound too high\");\n        gas_total_limit = gasTotalLimit;\n        collateral_total_limit = collateralTotalLimit;\n        gas_bound = gasBound;\n        collateral_bound = collateralBound;\n        upper_bound = upperBound;\n    }\n\n    /*** Dapp dev calls ***/\n    function applyGasAndCollateral(address dapp)\n        public\n        nonReentrant\n        whenNotPaused\n    {\n        if (_isAppliableForGas(dapp)) _applyForGas(dapp);\n        if (_isAppliableForCollateral(dapp)) _applyForCollateral(dapp);\n    }\n\n    function isAppliable(address dapp) public returns (bool) {\n        if (_isAppliableForGas(dapp) || _isAppliableForCollateral(dapp))\n            return true;\n        _validateApplyForGas(dapp);\n        _validateApplyForCollateral(dapp);\n    }\n\n    function _isAppliableForGas(address dapp) internal returns (bool) {\n        uint256 gas_balance = internal_sponsor.getSponsoredBalanceForGas(dapp);\n        address current_sponsor = internal_sponsor.getSponsorForGas(dapp);\n        if (\n            current_sponsor == address(this) ||\n            current_sponsor ==\n            address(0x0000000000000000000000000000000000000000)\n        ) {\n            return\n                address(this).balance >= gas_bound &&\n                gas_balance < gas_bound &&\n                dapps[dapp].gas_amount_accumulated.add(gas_bound) <=\n                gas_total_limit;\n        }\n\n        uint256 current_upper_bound = internal_sponsor\n            .getSponsoredGasFeeUpperBound(dapp);\n        return\n            gas_balance < current_upper_bound &&\n            address(this).balance >= gas_bound &&\n            gas_balance < gas_bound &&\n            dapps[dapp].gas_amount_accumulated.add(gas_bound) <=\n            gas_total_limit;\n    }\n\n    function _validateApplyForGas(address dapp) internal {\n        address current_sponsor = internal_sponsor.getSponsorForGas(dapp);\n        uint256 gas_balance = internal_sponsor.getSponsoredBalanceForGas(dapp);\n        if (\n            current_sponsor != address(this) &&\n            current_sponsor !=\n            address(0x0000000000000000000000000000000000000000)\n        ) {\n            require(\n                gas_balance <\n                    internal_sponsor.getSponsoredGasFeeUpperBound(dapp),\n                \"can not replace 3rd party sponsor\"\n            );\n        }\n        require(address(this).balance >= gas_bound, \"faucet out of money\");\n        require(gas_balance < gas_bound, \"sponsored fund unused\");\n        require(\n            dapps[dapp].gas_amount_accumulated.add(gas_bound) <=\n                gas_total_limit,\n            \"over gas total limit\"\n        );\n    }\n\n    function _isAppliableForCollateral(address dapp) internal returns (bool) {\n        uint256 collateral_balance = internal_sponsor\n            .getSponsoredBalanceForCollateral(dapp);\n        if (\n            address(this).balance >= collateral_bound &&\n            collateral_balance < collateral_bound &&\n            dapps[dapp].collateral_amount_accumulated.add(collateral_bound) <=\n            collateral_total_limit\n        ) {\n            return true;\n        }\n    }\n\n    function _validateApplyForCollateral(address dapp) internal {\n        require(\n            address(this).balance >= collateral_bound,\n            \"faucet out of money\"\n        );\n        uint256 collateral_balance = internal_sponsor\n            .getSponsoredBalanceForCollateral(dapp);\n        require(collateral_balance < collateral_bound, \"sponsored fund unused\");\n        require(\n            dapps[dapp].collateral_amount_accumulated.add(collateral_bound) <\n                collateral_total_limit,\n            \"over collateral total limit\"\n        );\n    }\n\n    function _applyForGas(address dapp) internal {\n        internal_sponsor.setSponsorForGas.value(gas_bound)(dapp, upper_bound);\n        dapps[dapp].gas_amount_accumulated = dapps[dapp]\n            .gas_amount_accumulated\n            .add(gas_bound);\n        emit applied(msg.sender, dapp, gas_bound);\n    }\n\n    function _applyForCollateral(address dapp) internal {\n        internal_sponsor.setSponsorForCollateral.value(collateral_bound)(dapp);\n        dapps[dapp].collateral_amount_accumulated = dapps[dapp]\n            .collateral_amount_accumulated\n            .add(collateral_bound);\n        emit applied(msg.sender, dapp, collateral_bound);\n    }\n\n    //accept sponsor's cfx\n    function() external payable {}\n\n    //withdraw to specific address by amount\n    function withdraw(address payable sponsor, uint256 amount)\n        public\n        onlyOwner\n        nonReentrant\n        whenPaused\n    {\n        require(address(this).balance >= amount, \"amount too high\");\n        (bool success, ) = sponsor.call.value(amount)(\"\");\n        require(success, \"withdraw failed\");\n    }\n\n    //set bounds for sponsorship\n    function setBounds(\n        uint256 gasTotalLimit,\n        uint256 collateralTotalLimit,\n        uint256 gasBound,\n        uint256 collateralBound,\n        uint256 upperBound\n    ) public onlyOwner {\n        //rule by internal contract\n        require(upperBound.mul(1000) <= gasBound, \"upperBound too high\");\n        gas_total_limit = gasTotalLimit;\n        collateral_total_limit = collateralTotalLimit;\n        gas_bound = gasBound;\n        collateral_bound = collateralBound;\n        upper_bound = upperBound;\n    }\n}\n",
  "sourcePath": "/Users/xiongyu/conflux-sponsor-faucet/contracts/SponsorFaucet.sol",
  "compiler": {
    "name": "solc",
    "version": "0.5.11+commit.c082d0b4.Emscripten.clang"
  },
  "schemaVersion": "3.2.2",
  "updatedAt": "2020-10-16T07:04:48.559Z",
  "devdoc": {
    "methods": {
      "isOwner()": {
        "details": "Returns true if the caller is the current owner."
      },
      "owner()": {
        "details": "Returns the address of the current owner."
      },
      "pause()": {
        "details": "Called by a pauser to pause, triggers stopped state."
      },
      "paused()": {
        "details": "Returns true if the contract is paused, and false otherwise."
      },
      "renounceOwnership()": {
        "details": "Leaves the contract without owner. It will not be possible to call `onlyOwner` functions anymore. Can only be called by the current owner.     * NOTE: Renouncing ownership will leave the contract without an owner, thereby removing any functionality that is only available to the owner."
      },
      "transferOwnership(address)": {
        "details": "Transfers ownership of the contract to a new account (`newOwner`). Can only be called by the current owner."
      },
      "unpause()": {
        "details": "Called by a pauser to unpause, returns to normal state."
      }
    }
  },
  "userdoc": {
    "methods": {
      "applyGasAndCollateral(address)": {
        "notice": "* Dapp dev calls **"
      }
    }
  }
}