{
  "contractName": "SponsorFaucet",
  "abi": [
    {
      "constant": false,
      "inputs": [],
      "name": "unpause",
      "outputs": [],
      "payable": false,
      "stateMutability": "nonpayable",
      "type": "function"
    },
    {
      "constant": true,
      "inputs": [
        {
          "internalType": "address",
          "name": "account",
          "type": "address"
        }
      ],
      "name": "isPauser",
      "outputs": [
        {
          "internalType": "bool",
          "name": "",
          "type": "bool"
        }
      ],
      "payable": false,
      "stateMutability": "view",
      "type": "function"
    },
    {
      "constant": true,
      "inputs": [
        {
          "internalType": "address",
          "name": "",
          "type": "address"
        }
      ],
      "name": "dapps",
      "outputs": [
        {
          "internalType": "uint256",
          "name": "gas_amount_accumulated",
          "type": "uint256"
        },
        {
          "internalType": "uint256",
          "name": "collateral_amount_accumulated",
          "type": "uint256"
        }
      ],
      "payable": false,
      "stateMutability": "view",
      "type": "function"
    },
    {
      "constant": true,
      "inputs": [],
      "name": "collateral_total_limit",
      "outputs": [
        {
          "internalType": "uint256",
          "name": "",
          "type": "uint256"
        }
      ],
      "payable": false,
      "stateMutability": "view",
      "type": "function"
    },
    {
      "constant": true,
      "inputs": [],
      "name": "paused",
      "outputs": [
        {
          "internalType": "bool",
          "name": "",
          "type": "bool"
        }
      ],
      "payable": false,
      "stateMutability": "view",
      "type": "function"
    },
    {
      "constant": true,
      "inputs": [],
      "name": "gas_total_limit",
      "outputs": [
        {
          "internalType": "uint256",
          "name": "",
          "type": "uint256"
        }
      ],
      "payable": false,
      "stateMutability": "view",
      "type": "function"
    },
    {
      "constant": false,
      "inputs": [],
      "name": "renouncePauser",
      "outputs": [],
      "payable": false,
      "stateMutability": "nonpayable",
      "type": "function"
    },
    {
      "constant": false,
      "inputs": [],
      "name": "renounceOwnership",
      "outputs": [],
      "payable": false,
      "stateMutability": "nonpayable",
      "type": "function"
    },
    {
      "constant": false,
      "inputs": [
        {
          "internalType": "address",
          "name": "account",
          "type": "address"
        }
      ],
      "name": "addPauser",
      "outputs": [],
      "payable": false,
      "stateMutability": "nonpayable",
      "type": "function"
    },
    {
      "constant": false,
      "inputs": [],
      "name": "pause",
      "outputs": [],
      "payable": false,
      "stateMutability": "nonpayable",
      "type": "function"
    },
    {
      "constant": true,
      "inputs": [],
      "name": "upper_bound",
      "outputs": [
        {
          "internalType": "uint256",
          "name": "",
          "type": "uint256"
        }
      ],
      "payable": false,
      "stateMutability": "view",
      "type": "function"
    },
    {
      "constant": true,
      "inputs": [],
      "name": "owner",
      "outputs": [
        {
          "internalType": "address",
          "name": "",
          "type": "address"
        }
      ],
      "payable": false,
      "stateMutability": "view",
      "type": "function"
    },
    {
      "constant": true,
      "inputs": [],
      "name": "isOwner",
      "outputs": [
        {
          "internalType": "bool",
          "name": "",
          "type": "bool"
        }
      ],
      "payable": false,
      "stateMutability": "view",
      "type": "function"
    },
    {
      "constant": true,
      "inputs": [],
      "name": "gas_bound",
      "outputs": [
        {
          "internalType": "uint256",
          "name": "",
          "type": "uint256"
        }
      ],
      "payable": false,
      "stateMutability": "view",
      "type": "function"
    },
    {
      "constant": true,
      "inputs": [],
      "name": "collateral_bound",
      "outputs": [
        {
          "internalType": "uint256",
          "name": "",
          "type": "uint256"
        }
      ],
      "payable": false,
      "stateMutability": "view",
      "type": "function"
    },
    {
      "constant": false,
      "inputs": [
        {
          "internalType": "address",
          "name": "newOwner",
          "type": "address"
        }
      ],
      "name": "transferOwnership",
      "outputs": [],
      "payable": false,
      "stateMutability": "nonpayable",
      "type": "function"
    },
    {
      "inputs": [
        {
          "internalType": "uint256",
          "name": "gasTotalLimit",
          "type": "uint256"
        },
        {
          "internalType": "uint256",
          "name": "collateralTotalLimit",
          "type": "uint256"
        },
        {
          "internalType": "uint256",
          "name": "gasBound",
          "type": "uint256"
        },
        {
          "internalType": "uint256",
          "name": "collateralBound",
          "type": "uint256"
        },
        {
          "internalType": "uint256",
          "name": "upperBound",
          "type": "uint256"
        }
      ],
      "payable": false,
      "stateMutability": "nonpayable",
      "type": "constructor"
    },
    {
      "payable": true,
      "stateMutability": "payable",
      "type": "fallback"
    },
    {
      "anonymous": false,
      "inputs": [
        {
          "indexed": true,
          "internalType": "address",
          "name": "applicant",
          "type": "address"
        },
        {
          "indexed": true,
          "internalType": "address",
          "name": "dapp",
          "type": "address"
        },
        {
          "indexed": true,
          "internalType": "uint256",
          "name": "amount",
          "type": "uint256"
        }
      ],
      "name": "applied",
      "type": "event"
    },
    {
      "anonymous": false,
      "inputs": [
        {
          "indexed": false,
          "internalType": "address",
          "name": "account",
          "type": "address"
        }
      ],
      "name": "Paused",
      "type": "event"
    },
    {
      "anonymous": false,
      "inputs": [
        {
          "indexed": false,
          "internalType": "address",
          "name": "account",
          "type": "address"
        }
      ],
      "name": "Unpaused",
      "type": "event"
    },
    {
      "anonymous": false,
      "inputs": [
        {
          "indexed": true,
          "internalType": "address",
          "name": "account",
          "type": "address"
        }
      ],
      "name": "PauserAdded",
      "type": "event"
    },
    {
      "anonymous": false,
      "inputs": [
        {
          "indexed": true,
          "internalType": "address",
          "name": "account",
          "type": "address"
        }
      ],
      "name": "PauserRemoved",
      "type": "event"
    },
    {
      "anonymous": false,
      "inputs": [
        {
          "indexed": true,
          "internalType": "address",
          "name": "previousOwner",
          "type": "address"
        },
        {
          "indexed": true,
          "internalType": "address",
          "name": "newOwner",
          "type": "address"
        }
      ],
      "name": "OwnershipTransferred",
      "type": "event"
    },
    {
      "constant": false,
      "inputs": [
        {
          "internalType": "address",
          "name": "dapp",
          "type": "address"
        }
      ],
      "name": "applyBoth",
      "outputs": [],
      "payable": false,
      "stateMutability": "nonpayable",
      "type": "function"
    },
    {
      "constant": false,
      "inputs": [
        {
          "internalType": "address",
          "name": "dapp",
          "type": "address"
        }
      ],
      "name": "applyGas",
      "outputs": [],
      "payable": false,
      "stateMutability": "nonpayable",
      "type": "function"
    },
    {
      "constant": false,
      "inputs": [
        {
          "internalType": "address",
          "name": "dapp",
          "type": "address"
        }
      ],
      "name": "applyCol",
      "outputs": [],
      "payable": false,
      "stateMutability": "nonpayable",
      "type": "function"
    },
    {
      "constant": false,
      "inputs": [
        {
          "internalType": "address",
          "name": "dapp",
          "type": "address"
        }
      ],
      "name": "isAppliable",
      "outputs": [
        {
          "internalType": "bool",
          "name": "",
          "type": "bool"
        }
      ],
      "payable": false,
      "stateMutability": "nonpayable",
      "type": "function"
    },
    {
      "constant": false,
      "inputs": [
        {
          "internalType": "address payable",
          "name": "sponsor",
          "type": "address"
        },
        {
          "internalType": "uint256",
          "name": "amount",
          "type": "uint256"
        }
      ],
      "name": "withdraw",
      "outputs": [],
      "payable": false,
      "stateMutability": "nonpayable",
      "type": "function"
    },
    {
      "constant": false,
      "inputs": [
        {
          "internalType": "uint256",
          "name": "gasTotalLimit",
          "type": "uint256"
        },
        {
          "internalType": "uint256",
          "name": "collateralTotalLimit",
          "type": "uint256"
        },
        {
          "internalType": "uint256",
          "name": "gasBound",
          "type": "uint256"
        },
        {
          "internalType": "uint256",
          "name": "collateralBound",
          "type": "uint256"
        },
        {
          "internalType": "uint256",
          "name": "upperBound",
          "type": "uint256"
        }
      ],
      "name": "setBounds",
      "outputs": [],
      "payable": false,
      "stateMutability": "nonpayable",
      "type": "function"
    }
  ],
  "bytecode": "0x60806040526000600260016101000a81548160ff021916908315150217905550730888000000000000000000000000000000000001600960006101000a81548173ffffffffffffffffffffffffffffffffffffffff021916908373ffffffffffffffffffffffffffffffffffffffff1602179055503480156200008157600080fd5b50604051620032e8380380620032e88339818101604052620000a7919081019062000495565b6000620000b96200022160201b60201c565b9050806000806101000a81548173ffffffffffffffffffffffffffffffffffffffff021916908373ffffffffffffffffffffffffffffffffffffffff1602179055508073ffffffffffffffffffffffffffffffffffffffff16600073ffffffffffffffffffffffffffffffffffffffff167f8be0079c531659141344cd1fd0a4f28419497f9722a3daafe3b4186f6b6457e060405160405180910390a350620001776200016b6200022160201b60201c565b6200022960201b60201c565b6000600260006101000a81548160ff02191690831515021790555082620001af6103e8836200028a60201b62001af91790919060201c565b1115620001f3576040517f08c379a0000000000000000000000000000000000000000000000000000000008152600401620001ea90620006d1565b60405180910390fd5b8460038190555083600481905550826005819055508160068190555080600781905550505050505062000728565b600033905090565b620002448160016200030060201b62001e911790919060201c565b8073ffffffffffffffffffffffffffffffffffffffff167f6719d08c1888103bea251a4ed56406bd0c3e69723c8a1686e017e7bbe159b6f860405160405180910390a250565b6000808314156200029f5760009050620002fa565b6000828402905082848281620002b157fe5b0414620002f5576040517f08c379a0000000000000000000000000000000000000000000000000000000008152600401620002ec906200068d565b60405180910390fd5b809150505b92915050565b620003128282620003b360201b60201c565b1562000355576040517f08c379a00000000000000000000000000000000000000000000000000000000081526004016200034c906200066b565b60405180910390fd5b60018260000160008373ffffffffffffffffffffffffffffffffffffffff1673ffffffffffffffffffffffffffffffffffffffff16815260200190815260200160002060006101000a81548160ff0219169083151502179055505050565b60008073ffffffffffffffffffffffffffffffffffffffff168273ffffffffffffffffffffffffffffffffffffffff16141562000427576040517f08c379a00000000000000000000000000000000000000000000000000000000081526004016200041e90620006af565b60405180910390fd5b8260000160008373ffffffffffffffffffffffffffffffffffffffff1673ffffffffffffffffffffffffffffffffffffffff16815260200190815260200160002060009054906101000a900460ff16905092915050565b6000815190506200048f816200070e565b92915050565b600080600080600060a08688031215620004ae57600080fd5b6000620004be888289016200047e565b9550506020620004d1888289016200047e565b9450506040620004e4888289016200047e565b9350506060620004f7888289016200047e565b92505060806200050a888289016200047e565b9150509295509295909350565b600062000526601f83620006f3565b91507f526f6c65733a206163636f756e7420616c72656164792068617320726f6c65006000830152602082019050919050565b600062000568602183620006f3565b91507f536166654d6174683a206d756c7469706c69636174696f6e206f766572666c6f60008301527f77000000000000000000000000000000000000000000000000000000000000006020830152604082019050919050565b6000620005d0602283620006f3565b91507f526f6c65733a206163636f756e7420697320746865207a65726f20616464726560008301527f73730000000000000000000000000000000000000000000000000000000000006020830152604082019050919050565b600062000638601383620006f3565b91507f7570706572426f756e6420746f6f2068696768000000000000000000000000006000830152602082019050919050565b60006020820190508181036000830152620006868162000517565b9050919050565b60006020820190508181036000830152620006a88162000559565b9050919050565b60006020820190508181036000830152620006ca81620005c1565b9050919050565b60006020820190508181036000830152620006ec8162000629565b9050919050565b600082825260208201905092915050565b6000819050919050565b620007198162000704565b81146200072557600080fd5b50565b612bb080620007386000396000f3fe6080604052600436106101355760003560e01c8063715018a6116100ab5780638f32d59b1161006f5780638f32d59b146103c65780639ca64c41146103f1578063b86ad67a1461041c578063ca9c8c3714610445578063f2fde38b14610470578063f3fef3a31461049957610135565b8063715018a61461031957806382dc1ec4146103305780638456cb591461035957806385eb4dab146103705780638da5cb5b1461039b57610135565b806351f34703116100fd57806351f347031461021a57806355670f31146102435780635607a2c4146102815780635c975abb146102ac5780635f929b7b146102d75780636ef8d66d1461030257610135565b8063345400d5146101375780633cb05425146101605780633f4ba83a1461018957806346fbf68e146101a057806348132bee146101dd575b005b34801561014357600080fd5b5061015e60048036036101599190810190611ffd565b6104c2565b005b34801561016c57600080fd5b5061018760048036036101829190810190611ffd565b6105cb565b005b34801561019557600080fd5b5061019e6106bc565b005b3480156101ac57600080fd5b506101c760048036036101c29190810190611ffd565b6107b5565b6040516101d4919061276c565b60405180910390f35b3480156101e957600080fd5b5061020460048036036101ff9190810190611ffd565b6107d2565b604051610211919061276c565b60405180910390f35b34801561022657600080fd5b50610241600480360361023c91908101906120b4565b610801565b005b34801561024f57600080fd5b5061026a60048036036102659190810190611ffd565b6108c9565b604051610278929190612a04565b60405180910390f35b34801561028d57600080fd5b506102966108ed565b6040516102a391906129e9565b60405180910390f35b3480156102b857600080fd5b506102c16108f3565b6040516102ce919061276c565b60405180910390f35b3480156102e357600080fd5b506102ec61090a565b6040516102f991906129e9565b60405180910390f35b34801561030e57600080fd5b50610317610910565b005b34801561032557600080fd5b5061032e610922565b005b34801561033c57600080fd5b5061035760048036036103529190810190611ffd565b610a28565b005b34801561036557600080fd5b5061036e610a83565b005b34801561037c57600080fd5b50610385610b7d565b60405161039291906129e9565b60405180910390f35b3480156103a757600080fd5b506103b0610b83565b6040516103bd919061270d565b60405180910390f35b3480156103d257600080fd5b506103db610bac565b6040516103e8919061276c565b60405180910390f35b3480156103fd57600080fd5b50610406610c0a565b60405161041391906129e9565b60405180910390f35b34801561042857600080fd5b50610443600480360361043e9190810190611ffd565b610c10565b005b34801561045157600080fd5b5061045a610d01565b60405161046791906129e9565b60405180910390f35b34801561047c57600080fd5b5061049760048036036104929190810190611ffd565b610d07565b005b3480156104a557600080fd5b506104c060048036036104bb919081019061204f565b610d5a565b005b600260019054906101000a900460ff1615610512576040517f08c379a000000000000000000000000000000000000000000000000000000000815260040161050990612969565b60405180910390fd5b6001600260016101000a81548160ff021916908315150217905550600260009054906101000a900460ff161561057d576040517f08c379a0000000000000000000000000000000000000000000000000000000008152600401610574906128a9565b60405180910390fd5b61058681610f81565b156105955761059481611164565b5b61059e816114d7565b156105ad576105ac816116ba565b5b6000600260016101000a81548160ff02191690831515021790555050565b600260019054906101000a900460ff161561061b576040517f08c379a000000000000000000000000000000000000000000000000000000000815260040161061290612969565b60405180910390fd5b6001600260016101000a81548160ff021916908315150217905550600260009054906101000a900460ff1615610686576040517f08c379a000000000000000000000000000000000000000000000000000000000815260040161067d906128a9565b60405180910390fd5b61068f816114d7565b1561069e5761069d816116ba565b5b6000600260016101000a81548160ff02191690831515021790555050565b6106cc6106c7611a29565b6107b5565b61070b576040517f08c379a000000000000000000000000000000000000000000000000000000000815260040161070290612809565b60405180910390fd5b600260009054906101000a900460ff1661075a576040517f08c379a0000000000000000000000000000000000000000000000000000000008152600401610751906127c9565b60405180910390fd5b6000600260006101000a81548160ff0219169083151502179055507f5db9ee0a495bf2e6ff9c91a7834c1ba4fdd244a5e8aa4e537bd38aeae4b073aa61079e611a29565b6040516107ab9190612728565b60405180910390a1565b60006107cb826001611a3190919063ffffffff16565b9050919050565b60006107dd82610f81565b806107ed57506107ec826114d7565b5b156107fb57600190506107fc565b5b919050565b610809610bac565b610848576040517f08c379a000000000000000000000000000000000000000000000000000000000815260040161083f90612909565b60405180910390fd5b8261085e6103e883611af990919063ffffffff16565b111561089f576040517f08c379a0000000000000000000000000000000000000000000000000000000008152600401610896906129c9565b60405180910390fd5b84600381905550836004819055508260058190555081600681905550806007819055505050505050565b60086020528060005260406000206000915090508060000154908060010154905082565b60045481565b6000600260009054906101000a900460ff16905090565b60035481565b61092061091b611a29565b611b69565b565b61092a610bac565b610969576040517f08c379a000000000000000000000000000000000000000000000000000000000815260040161096090612909565b60405180910390fd5b600073ffffffffffffffffffffffffffffffffffffffff166000809054906101000a900473ffffffffffffffffffffffffffffffffffffffff1673ffffffffffffffffffffffffffffffffffffffff167f8be0079c531659141344cd1fd0a4f28419497f9722a3daafe3b4186f6b6457e060405160405180910390a360008060006101000a81548173ffffffffffffffffffffffffffffffffffffffff021916908373ffffffffffffffffffffffffffffffffffffffff160217905550565b610a38610a33611a29565b6107b5565b610a77576040517f08c379a0000000000000000000000000000000000000000000000000000000008152600401610a6e90612809565b60405180910390fd5b610a8081611bc3565b50565b610a93610a8e611a29565b6107b5565b610ad2576040517f08c379a0000000000000000000000000000000000000000000000000000000008152600401610ac990612809565b60405180910390fd5b600260009054906101000a900460ff1615610b22576040517f08c379a0000000000000000000000000000000000000000000000000000000008152600401610b19906128a9565b60405180910390fd5b6001600260006101000a81548160ff0219169083151502179055507f62e78cea01bee320cd4e420270b5ea74000d11b0c9f74754ebdbfc544b05a258610b66611a29565b604051610b739190612728565b60405180910390a1565b60075481565b60008060009054906101000a900473ffffffffffffffffffffffffffffffffffffffff16905090565b60008060009054906101000a900473ffffffffffffffffffffffffffffffffffffffff1673ffffffffffffffffffffffffffffffffffffffff16610bee611a29565b73ffffffffffffffffffffffffffffffffffffffff1614905090565b60055481565b600260019054906101000a900460ff1615610c60576040517f08c379a0000000000000000000000000000000000000000000000000000000008152600401610c5790612969565b60405180910390fd5b6001600260016101000a81548160ff021916908315150217905550600260009054906101000a900460ff1615610ccb576040517f08c379a0000000000000000000000000000000000000000000000000000000008152600401610cc2906128a9565b60405180910390fd5b610cd481610f81565b15610ce357610ce281611164565b5b6000600260016101000a81548160ff02191690831515021790555050565b60065481565b610d0f610bac565b610d4e576040517f08c379a0000000000000000000000000000000000000000000000000000000008152600401610d4590612909565b60405180910390fd5b610d5781611c1d565b50565b610d62610bac565b610da1576040517f08c379a0000000000000000000000000000000000000000000000000000000008152600401610d9890612909565b60405180910390fd5b600260019054906101000a900460ff1615610df1576040517f08c379a0000000000000000000000000000000000000000000000000000000008152600401610de890612969565b60405180910390fd5b6001600260016101000a81548160ff021916908315150217905550600260009054906101000a900460ff16610e5b576040517f08c379a0000000000000000000000000000000000000000000000000000000008152600401610e52906127c9565b60405180910390fd5b803073ffffffffffffffffffffffffffffffffffffffff16311015610eb5576040517f08c379a0000000000000000000000000000000000000000000000000000000008152600401610eac90612949565b60405180910390fd5b60008273ffffffffffffffffffffffffffffffffffffffff1682604051610edb906126f8565b60006040518083038185875af1925050503d8060008114610f18576040519150601f19603f3d011682016040523d82523d6000602084013e610f1d565b606091505b5050905080610f61576040517f08c379a0000000000000000000000000000000000000000000000000000000008152600401610f58906129a9565b60405180910390fd5b506000600260016101000a81548160ff0219169083151502179055505050565b60006005543073ffffffffffffffffffffffffffffffffffffffff16311015610fdf576040517f08c379a0000000000000000000000000000000000000000000000000000000008152600401610fd690612869565b60405180910390fd5b6000600960009054906101000a900473ffffffffffffffffffffffffffffffffffffffff1673ffffffffffffffffffffffffffffffffffffffff1663b3b28fac846040518263ffffffff1660e01b815260040161103c919061270d565b602060405180830381600087803b15801561105657600080fd5b505af115801561106a573d6000803e3d6000fd5b505050506040513d601f19601f8201168201806040525061108e919081019061208b565b905060055481106110d4576040517f08c379a00000000000000000000000000000000000000000000000000000000081526004016110cb90612889565b60405180910390fd5b600354600860008573ffffffffffffffffffffffffffffffffffffffff1673ffffffffffffffffffffffffffffffffffffffff168152602001908152602001600020600001541061115a576040517f08c379a000000000000000000000000000000000000000000000000000000000815260040161115190612989565b60405180910390fd5b6001915050919050565b6000600960009054906101000a900473ffffffffffffffffffffffffffffffffffffffff1673ffffffffffffffffffffffffffffffffffffffff1663b3b28fac836040518263ffffffff1660e01b81526004016111c1919061270d565b602060405180830381600087803b1580156111db57600080fd5b505af11580156111ef573d6000803e3d6000fd5b505050506040513d601f19601f82011682018060405250611213919081019061208b565b9050600960009054906101000a900473ffffffffffffffffffffffffffffffffffffffff1673ffffffffffffffffffffffffffffffffffffffff16633e3e6428600554846007546040518463ffffffff1660e01b8152600401611277929190612743565b6000604051808303818588803b15801561129057600080fd5b505af11580156112a4573d6000803e3d6000fd5b50505050506000600960009054906101000a900473ffffffffffffffffffffffffffffffffffffffff1673ffffffffffffffffffffffffffffffffffffffff166333a1af31846040518263ffffffff1660e01b8152600401611306919061270d565b602060405180830381600087803b15801561132057600080fd5b505af1158015611334573d6000803e3d6000fd5b505050506040513d601f19601f820116820180604052506113589190810190612026565b90503073ffffffffffffffffffffffffffffffffffffffff168173ffffffffffffffffffffffffffffffffffffffff1614806113c05750600073ffffffffffffffffffffffffffffffffffffffff168173ffffffffffffffffffffffffffffffffffffffff16145b156114755761142e82611420600554600860008873ffffffffffffffffffffffffffffffffffffffff1673ffffffffffffffffffffffffffffffffffffffff16815260200190815260200160002060000154611d4b90919063ffffffff16565b611da090919063ffffffff16565b600860008573ffffffffffffffffffffffffffffffffffffffff1673ffffffffffffffffffffffffffffffffffffffff168152602001908152602001600020600001819055505b6005548373ffffffffffffffffffffffffffffffffffffffff163373ffffffffffffffffffffffffffffffffffffffff167f0d517b7814d6361097aa44db26ae46a4e1244686721c5f28206a9605dc413c4a60405160405180910390a4505050565b60006006543073ffffffffffffffffffffffffffffffffffffffff16311015611535576040517f08c379a000000000000000000000000000000000000000000000000000000000815260040161152c90612869565b60405180910390fd5b6000600960009054906101000a900473ffffffffffffffffffffffffffffffffffffffff1673ffffffffffffffffffffffffffffffffffffffff1663d47e9a57846040518263ffffffff1660e01b8152600401611592919061270d565b602060405180830381600087803b1580156115ac57600080fd5b505af11580156115c0573d6000803e3d6000fd5b505050506040513d601f19601f820116820180604052506115e4919081019061208b565b9050600654811061162a576040517f08c379a000000000000000000000000000000000000000000000000000000000815260040161162190612889565b60405180910390fd5b600454600860008573ffffffffffffffffffffffffffffffffffffffff1673ffffffffffffffffffffffffffffffffffffffff16815260200190815260200160002060010154106116b0576040517f08c379a00000000000000000000000000000000000000000000000000000000081526004016116a7906127a9565b60405180910390fd5b6001915050919050565b6000600960009054906101000a900473ffffffffffffffffffffffffffffffffffffffff1673ffffffffffffffffffffffffffffffffffffffff1663d47e9a57836040518263ffffffff1660e01b8152600401611717919061270d565b602060405180830381600087803b15801561173157600080fd5b505af1158015611745573d6000803e3d6000fd5b505050506040513d601f19601f82011682018060405250611769919081019061208b565b9050600960009054906101000a900473ffffffffffffffffffffffffffffffffffffffff1673ffffffffffffffffffffffffffffffffffffffff1663e66c1bea600654846040518363ffffffff1660e01b81526004016117c9919061270d565b6000604051808303818588803b1580156117e257600080fd5b505af11580156117f6573d6000803e3d6000fd5b50505050506000600960009054906101000a900473ffffffffffffffffffffffffffffffffffffffff1673ffffffffffffffffffffffffffffffffffffffff16638382c3a7846040518263ffffffff1660e01b8152600401611858919061270d565b602060405180830381600087803b15801561187257600080fd5b505af1158015611886573d6000803e3d6000fd5b505050506040513d601f19601f820116820180604052506118aa9190810190612026565b90503073ffffffffffffffffffffffffffffffffffffffff168173ffffffffffffffffffffffffffffffffffffffff1614806119125750600073ffffffffffffffffffffffffffffffffffffffff168173ffffffffffffffffffffffffffffffffffffffff16145b156119c75761198082611972600654600860008873ffffffffffffffffffffffffffffffffffffffff1673ffffffffffffffffffffffffffffffffffffffff16815260200190815260200160002060010154611d4b90919063ffffffff16565b611da090919063ffffffff16565b600860008573ffffffffffffffffffffffffffffffffffffffff1673ffffffffffffffffffffffffffffffffffffffff168152602001908152602001600020600101819055505b6006548373ffffffffffffffffffffffffffffffffffffffff163373ffffffffffffffffffffffffffffffffffffffff167f0d517b7814d6361097aa44db26ae46a4e1244686721c5f28206a9605dc413c4a60405160405180910390a4505050565b600033905090565b60008073ffffffffffffffffffffffffffffffffffffffff168273ffffffffffffffffffffffffffffffffffffffff161415611aa2576040517f08c379a0000000000000000000000000000000000000000000000000000000008152600401611a9990612929565b60405180910390fd5b8260000160008373ffffffffffffffffffffffffffffffffffffffff1673ffffffffffffffffffffffffffffffffffffffff16815260200190815260200160002060009054906101000a900460ff16905092915050565b600080831415611b0c5760009050611b63565b6000828402905082848281611b1d57fe5b0414611b5e576040517f08c379a0000000000000000000000000000000000000000000000000000000008152600401611b55906128e9565b60405180910390fd5b809150505b92915050565b611b7d816001611dea90919063ffffffff16565b8073ffffffffffffffffffffffffffffffffffffffff167fcd265ebaf09df2871cc7bd4133404a235ba12eff2041bb89d9c714a2621c7c7e60405160405180910390a250565b611bd7816001611e9190919063ffffffff16565b8073ffffffffffffffffffffffffffffffffffffffff167f6719d08c1888103bea251a4ed56406bd0c3e69723c8a1686e017e7bbe159b6f860405160405180910390a250565b600073ffffffffffffffffffffffffffffffffffffffff168173ffffffffffffffffffffffffffffffffffffffff161415611c8d576040517f08c379a0000000000000000000000000000000000000000000000000000000008152600401611c8490612829565b60405180910390fd5b8073ffffffffffffffffffffffffffffffffffffffff166000809054906101000a900473ffffffffffffffffffffffffffffffffffffffff1673ffffffffffffffffffffffffffffffffffffffff167f8be0079c531659141344cd1fd0a4f28419497f9722a3daafe3b4186f6b6457e060405160405180910390a3806000806101000a81548173ffffffffffffffffffffffffffffffffffffffff021916908373ffffffffffffffffffffffffffffffffffffffff16021790555050565b600080828401905083811015611d96576040517f08c379a0000000000000000000000000000000000000000000000000000000008152600401611d8d90612849565b60405180910390fd5b8091505092915050565b6000611de283836040518060400160405280601e81526020017f536166654d6174683a207375627472616374696f6e206f766572666c6f770000815250611f39565b905092915050565b611df48282611a31565b611e33576040517f08c379a0000000000000000000000000000000000000000000000000000000008152600401611e2a906128c9565b60405180910390fd5b60008260000160008373ffffffffffffffffffffffffffffffffffffffff1673ffffffffffffffffffffffffffffffffffffffff16815260200190815260200160002060006101000a81548160ff0219169083151502179055505050565b611e9b8282611a31565b15611edb576040517f08c379a0000000000000000000000000000000000000000000000000000000008152600401611ed2906127e9565b60405180910390fd5b60018260000160008373ffffffffffffffffffffffffffffffffffffffff1673ffffffffffffffffffffffffffffffffffffffff16815260200190815260200160002060006101000a81548160ff0219169083151502179055505050565b6000838311158290611f81576040517f08c379a0000000000000000000000000000000000000000000000000000000008152600401611f789190612787565b60405180910390fd5b5060008385039050809150509392505050565b600081359050611fa381612b28565b92915050565b600081519050611fb881612b28565b92915050565b600081359050611fcd81612b3f565b92915050565b600081359050611fe281612b56565b92915050565b600081519050611ff781612b56565b92915050565b60006020828403121561200f57600080fd5b600061201d84828501611f94565b91505092915050565b60006020828403121561203857600080fd5b600061204684828501611fa9565b91505092915050565b6000806040838503121561206257600080fd5b600061207085828601611fbe565b925050602061208185828601611fd3565b9150509250929050565b60006020828403121561209d57600080fd5b60006120ab84828501611fe8565b91505092915050565b600080600080600060a086880312156120cc57600080fd5b60006120da88828901611fd3565b95505060206120eb88828901611fd3565b94505060406120fc88828901611fd3565b935050606061210d88828901611fd3565b925050608061211e88828901611fd3565b9150509295509295909350565b61213481612aae565b82525050565b61214381612a54565b82525050565b61215281612a78565b82525050565b600061216382612a2d565b61216d8185612a43565b935061217d818560208601612ae4565b61218681612b17565b840191505092915050565b600061219e601b83612a43565b91507f6f76657220636f6c6c61746572616c20746f74616c206c696d697400000000006000830152602082019050919050565b60006121de601483612a43565b91507f5061757361626c653a206e6f74207061757365640000000000000000000000006000830152602082019050919050565b600061221e601f83612a43565b91507f526f6c65733a206163636f756e7420616c72656164792068617320726f6c65006000830152602082019050919050565b600061225e603083612a43565b91507f506175736572526f6c653a2063616c6c657220646f6573206e6f74206861766560008301527f207468652050617573657220726f6c65000000000000000000000000000000006020830152604082019050919050565b60006122c4602683612a43565b91507f4f776e61626c653a206e6577206f776e657220697320746865207a65726f206160008301527f64647265737300000000000000000000000000000000000000000000000000006020830152604082019050919050565b600061232a601b83612a43565b91507f536166654d6174683a206164646974696f6e206f766572666c6f7700000000006000830152602082019050919050565b600061236a601383612a43565b91507f666175636574206f7574206f66206d6f6e6579000000000000000000000000006000830152602082019050919050565b60006123aa601583612a43565b91507f73706f6e736f7265642066756e6420756e7573656400000000000000000000006000830152602082019050919050565b60006123ea601083612a43565b91507f5061757361626c653a20706175736564000000000000000000000000000000006000830152602082019050919050565b600061242a602183612a43565b91507f526f6c65733a206163636f756e7420646f6573206e6f74206861766520726f6c60008301527f65000000000000000000000000000000000000000000000000000000000000006020830152604082019050919050565b6000612490602183612a43565b91507f536166654d6174683a206d756c7469706c69636174696f6e206f766572666c6f60008301527f77000000000000000000000000000000000000000000000000000000000000006020830152604082019050919050565b60006124f6602083612a43565b91507f4f776e61626c653a2063616c6c6572206973206e6f7420746865206f776e65726000830152602082019050919050565b6000612536602283612a43565b91507f526f6c65733a206163636f756e7420697320746865207a65726f20616464726560008301527f73730000000000000000000000000000000000000000000000000000000000006020830152604082019050919050565b600061259c600f83612a43565b91507f616d6f756e7420746f6f206869676800000000000000000000000000000000006000830152602082019050919050565b60006125dc601283612a43565b91507f5245454e5452414e43595f494c4c4547414c00000000000000000000000000006000830152602082019050919050565b600061261c601483612a43565b91507f6f7665722067617320746f74616c206c696d69740000000000000000000000006000830152602082019050919050565b600061265c600083612a38565b9150600082019050919050565b6000612676600f83612a43565b91507f7769746864726177206661696c656400000000000000000000000000000000006000830152602082019050919050565b60006126b6601383612a43565b91507f7570706572426f756e6420746f6f2068696768000000000000000000000000006000830152602082019050919050565b6126f281612aa4565b82525050565b60006127038261264f565b9150819050919050565b6000602082019050612722600083018461213a565b92915050565b600060208201905061273d600083018461212b565b92915050565b6000604082019050612758600083018561213a565b61276560208301846126e9565b9392505050565b60006020820190506127816000830184612149565b92915050565b600060208201905081810360008301526127a18184612158565b905092915050565b600060208201905081810360008301526127c281612191565b9050919050565b600060208201905081810360008301526127e2816121d1565b9050919050565b6000602082019050818103600083015261280281612211565b9050919050565b6000602082019050818103600083015261282281612251565b9050919050565b60006020820190508181036000830152612842816122b7565b9050919050565b600060208201905081810360008301526128628161231d565b9050919050565b600060208201905081810360008301526128828161235d565b9050919050565b600060208201905081810360008301526128a28161239d565b9050919050565b600060208201905081810360008301526128c2816123dd565b9050919050565b600060208201905081810360008301526128e28161241d565b9050919050565b6000602082019050818103600083015261290281612483565b9050919050565b60006020820190508181036000830152612922816124e9565b9050919050565b6000602082019050818103600083015261294281612529565b9050919050565b600060208201905081810360008301526129628161258f565b9050919050565b60006020820190508181036000830152612982816125cf565b9050919050565b600060208201905081810360008301526129a28161260f565b9050919050565b600060208201905081810360008301526129c281612669565b9050919050565b600060208201905081810360008301526129e2816126a9565b9050919050565b60006020820190506129fe60008301846126e9565b92915050565b6000604082019050612a1960008301856126e9565b612a2660208301846126e9565b9392505050565b600081519050919050565b600081905092915050565b600082825260208201905092915050565b6000612a5f82612a84565b9050919050565b6000612a7182612a84565b9050919050565b60008115159050919050565b600073ffffffffffffffffffffffffffffffffffffffff82169050919050565b6000819050919050565b6000612ab982612ac0565b9050919050565b6000612acb82612ad2565b9050919050565b6000612add82612a84565b9050919050565b60005b83811015612b02578082015181840152602081019050612ae7565b83811115612b11576000848401525b50505050565b6000601f19601f8301169050919050565b612b3181612a54565b8114612b3c57600080fd5b50565b612b4881612a66565b8114612b5357600080fd5b50565b612b5f81612aa4565b8114612b6a57600080fd5b5056fea365627a7a723158209c92d672ac75461e66b875365ea2cd902f7988b187ee333f0bc650b3ed91fa576c6578706572696d656e74616cf564736f6c634300050b0040",
  "source": "pragma solidity 0.5.11;\npragma experimental ABIEncoderV2;\n\nimport \"@openzeppelin/contracts/ownership/Ownable.sol\";\nimport \"@openzeppelin/contracts/lifecycle/Pausable.sol\";\nimport \"@openzeppelin/contracts/math/SafeMath.sol\";\nimport \"./Lib/ReentrancyGuard.sol\";\nimport \"./InternalContract.sol\";\n\ncontract SponsorFaucet is Ownable, Pausable, ReentrancyGuard {\n    using SafeMath for uint256;\n    struct detail {\n        uint256 gas_amount_accumulated; ////current accumulated sponsored amout for gas\n        uint256 collateral_amount_accumulated; //current total sponsored amount for collateral\n    }\n\n    /*** bounds set by foundation ***/\n    //total sponsored limit\n    uint256 public gas_total_limit;\n    uint256 public collateral_total_limit;\n    //single sponsor bound\n    uint256 public gas_bound;\n    uint256 public collateral_bound;\n    //upper bound for single tx\n    uint256 public upper_bound;\n    \n    mapping(address=>detail) public dapps;\n    \n    event applied(address indexed applicant, address indexed dapp, uint256 indexed amount);\n    \n    SponsorWhitelistControl internal_sponsor = SponsorWhitelistControl(0x0888000000000000000000000000000000000001);\n    \n    constructor(uint256 gasTotalLimit, uint256 collateralTotalLimit, uint256 gasBound, uint256 collateralBound, uint256 upperBound) public {\n        require(upperBound.mul(1000) <= gasBound, 'upperBound too high');\n        gas_total_limit = gasTotalLimit;\n        collateral_total_limit = collateralTotalLimit;\n        gas_bound = gasBound;\n        collateral_bound = collateralBound;\n        upper_bound = upperBound;\n    }\n     \n    /*** Dapp dev calls ***/ \n    function applyBoth(address dapp) public nonReentrant whenNotPaused {\n        if(_isAppliableForGas(dapp)) _applyForGas(dapp);\n        if(_isAppliableForCollateral(dapp)) _applyForCollateral(dapp);\n    }\n\n    function applyGas(address dapp) public nonReentrant whenNotPaused {\n        if(_isAppliableForGas(dapp)) _applyForGas(dapp);\n    }\n\n    function applyCol(address dapp) public nonReentrant whenNotPaused {\n        if(_isAppliableForCollateral(dapp)) \n        _applyForCollateral(dapp);\n    }\n\n    function isAppliable(address dapp) public returns (bool) {\n        if(_isAppliableForGas(dapp) || _isAppliableForCollateral(dapp)) return true;\n    }\n\n    function _isAppliableForGas(address dapp) internal returns (bool) {\n        require(address(this).balance >= gas_bound, \"faucet out of money\");\n        uint256 gas_balance = internal_sponsor.getSponsoredBalanceForGas(dapp);\n        require(gas_balance < gas_bound, \"sponsored fund unused\");\n        require(dapps[dapp].gas_amount_accumulated < gas_total_limit, \"over gas total limit\");\n        return true;\n    }\n\n    function _isAppliableForCollateral(address dapp) internal returns (bool) {\n        require(address(this).balance >= collateral_bound, \"faucet out of money\");\n        uint256 collateral_balance = internal_sponsor.getSponsoredBalanceForCollateral(dapp);\n        require(collateral_balance < collateral_bound, \"sponsored fund unused\");\n        require(dapps[dapp].collateral_amount_accumulated < collateral_total_limit, \"over collateral total limit\");\n        return true;\n    }\n\n    function _applyForGas(address dapp) internal {\n        uint256 gas_balance = internal_sponsor.getSponsoredBalanceForGas(dapp);\n        internal_sponsor.setSponsorForGas.value(gas_bound)(dapp, upper_bound);\n        address last_sponsor = internal_sponsor.getSponsorForGas(dapp); \n        \n        if(last_sponsor == address(this) || last_sponsor == address(0x0000000000000000000000000000000000000000)) {\n            dapps[dapp].gas_amount_accumulated = dapps[dapp].gas_amount_accumulated.add(gas_bound).sub(gas_balance);\n        }\n        emit applied(msg.sender, dapp, gas_bound);\n    }\n\n    function _applyForCollateral(address dapp) internal {\n        uint256 collateral_balance = internal_sponsor.getSponsoredBalanceForCollateral(dapp);\n        internal_sponsor.setSponsorForCollateral.value(collateral_bound)(dapp);\n        address last_sponsor = internal_sponsor.getSponsorForCollateral(dapp);\n        if(last_sponsor == address(this) || last_sponsor == address(0x0000000000000000000000000000000000000000)) {\n            dapps[dapp].collateral_amount_accumulated = dapps[dapp].collateral_amount_accumulated.add(collateral_bound).sub(collateral_balance);\n        }\n        emit applied(msg.sender, dapp, collateral_bound);\n    }\n\n    //accept sponsor's cfx\n    function () external payable {\n    }\n\n    //withdraw to specific address by amount\n    function withdraw(address payable sponsor, uint256 amount) public onlyOwner nonReentrant whenPaused {\n        require(address(this).balance >= amount, \"amount too high\");\n        (bool success, ) = sponsor.call.value(amount)(\"\");\n        require(success, \"withdraw failed\");\n    }\n\n    //set bounds for sponsorship\n    function setBounds(uint256 gasTotalLimit, uint256 collateralTotalLimit, uint256 gasBound, uint256 collateralBound, uint256 upperBound) public onlyOwner {\n        require(upperBound.mul(1000) <= gasBound, 'upperBound too high');\n        gas_total_limit = gasTotalLimit;\n        collateral_total_limit = collateralTotalLimit;\n        gas_bound = gasBound;\n        collateral_bound = collateralBound;\n        upper_bound = upperBound;   \n    }\n}\n",
  "sourcePath": "/Users/xiongyu/conflux-sponsor-faucet/contracts/SponsorFaucet.sol",
  "compiler": {
    "name": "solc",
    "version": "0.5.11+commit.c082d0b4.Emscripten.clang"
  },
  "schemaVersion": "3.2.2",
  "updatedAt": "2020-10-15T03:00:40.518Z",
  "devdoc": {
    "methods": {
      "isOwner()": {
        "details": "Returns true if the caller is the current owner."
      },
      "owner()": {
        "details": "Returns the address of the current owner."
      },
      "pause()": {
        "details": "Called by a pauser to pause, triggers stopped state."
      },
      "paused()": {
        "details": "Returns true if the contract is paused, and false otherwise."
      },
      "renounceOwnership()": {
        "details": "Leaves the contract without owner. It will not be possible to call `onlyOwner` functions anymore. Can only be called by the current owner.     * NOTE: Renouncing ownership will leave the contract without an owner, thereby removing any functionality that is only available to the owner."
      },
      "transferOwnership(address)": {
        "details": "Transfers ownership of the contract to a new account (`newOwner`). Can only be called by the current owner."
      },
      "unpause()": {
        "details": "Called by a pauser to unpause, returns to normal state."
      }
    }
  },
  "userdoc": {
    "methods": {
      "applyBoth(address)": {
        "notice": "* Dapp dev calls **"
      }
    }
  }
}