{
  "contractName": "pay",
  "abi": [
    {
      "payable": true,
      "stateMutability": "payable",
      "type": "fallback"
    },
    {
      "constant": false,
      "inputs": [
        {
          "internalType": "address payable",
          "name": "sponsor",
          "type": "address"
        },
        {
          "internalType": "uint256",
          "name": "amount",
          "type": "uint256"
        }
      ],
      "name": "withdraw",
      "outputs": [],
      "payable": false,
      "stateMutability": "nonpayable",
      "type": "function"
    },
    {
      "constant": false,
      "inputs": [
        {
          "internalType": "address payable",
          "name": "sponsor",
          "type": "address"
        }
      ],
      "name": "withdrawAll",
      "outputs": [],
      "payable": false,
      "stateMutability": "nonpayable",
      "type": "function"
    }
  ],
  "bytecode": "0x608060405234801561001057600080fd5b50610371806100206000396000f3fe6080604052600436106100295760003560e01c8063f3fef3a31461002b578063fa09e63014610086575b005b34801561003757600080fd5b506100846004803603604081101561004e57600080fd5b81019080803573ffffffffffffffffffffffffffffffffffffffff169060200190929190803590602001909291905050506100d7565b005b34801561009257600080fd5b506100d5600480360360208110156100a957600080fd5b81019080803573ffffffffffffffffffffffffffffffffffffffff169060200190929190505050610245565b005b803073ffffffffffffffffffffffffffffffffffffffff16311015610164576040517f08c379a000000000000000000000000000000000000000000000000000000000815260040180806020018281038252600f8152602001807f616d6f756e7420746f6f2068696768000000000000000000000000000000000081525060200191505060405180910390fd5b60008273ffffffffffffffffffffffffffffffffffffffff168260405180600001905060006040518083038185875af1925050503d80600081146101c4576040519150601f19603f3d011682016040523d82523d6000602084013e6101c9565b606091505b5050905080610240576040517f08c379a000000000000000000000000000000000000000000000000000000000815260040180806020018281038252600f8152602001807f7769746864726177206661696c6564000000000000000000000000000000000081525060200191505060405180910390fd5b505050565b60008173ffffffffffffffffffffffffffffffffffffffff163073ffffffffffffffffffffffffffffffffffffffff163160405180600001905060006040518083038185875af1925050503d80600081146102bc576040519150601f19603f3d011682016040523d82523d6000602084013e6102c1565b606091505b5050905080610338576040517f08c379a000000000000000000000000000000000000000000000000000000000815260040180806020018281038252600f8152602001807f7769746864726177206661696c6564000000000000000000000000000000000081525060200191505060405180910390fd5b505056fea265627a7a723158205fe5f5017b0e7684e9adda6312ba37a337f2256a5c7df057c1b0a06e2d5d05ce64736f6c634300050b0032",
  "source": "pragma solidity 0.5.11;\n\ncontract pay {\n    function () external payable {}\n    function withdraw(address payable sponsor, uint256 amount) public {\n        require(address(this).balance >= amount, \"amount too high\");\n        //require(sponsor.send(amount), \"withdraw failed\");\n        (bool success, ) = sponsor.call.value(amount)(\"\");\n        require(success, \"withdraw failed\");\n    }\n\n    function withdrawAll(address payable sponsor) public {\n        (bool success, ) = sponsor.call.value(address(this).balance)(\"\");\n        require(success, \"withdraw failed\");\n    }\n}",
  "sourcePath": "/Users/xiongyu/conflux-sponsor-faucet/contracts/pay.sol",
  "compiler": {
    "name": "solc",
    "version": "0.5.11+commit.c082d0b4.Emscripten.clang"
  },
  "schemaVersion": "3.2.2",
  "updatedAt": "2020-09-25T06:24:32.025Z",
  "devdoc": {
    "methods": {}
  },
  "userdoc": {
    "methods": {}
  }
}