{
  "contractName": "SponsorFaucet",
  "abi": [
    {
      "constant": false,
      "inputs": [],
      "name": "unpause",
      "outputs": [],
      "payable": false,
      "stateMutability": "nonpayable",
      "type": "function"
    },
    {
      "constant": true,
      "inputs": [
        {
          "internalType": "address",
          "name": "account",
          "type": "address"
        }
      ],
      "name": "isPauser",
      "outputs": [
        {
          "internalType": "bool",
          "name": "",
          "type": "bool"
        }
      ],
      "payable": false,
      "stateMutability": "view",
      "type": "function"
    },
    {
      "constant": true,
      "inputs": [
        {
          "internalType": "address",
          "name": "",
          "type": "address"
        }
      ],
      "name": "dapps",
      "outputs": [
        {
          "internalType": "uint256",
          "name": "gas_cnt",
          "type": "uint256"
        },
        {
          "internalType": "uint256",
          "name": "collateral_cnt",
          "type": "uint256"
        },
        {
          "internalType": "uint256",
          "name": "limit",
          "type": "uint256"
        }
      ],
      "payable": false,
      "stateMutability": "view",
      "type": "function"
    },
    {
      "constant": true,
      "inputs": [],
      "name": "paused",
      "outputs": [
        {
          "internalType": "bool",
          "name": "",
          "type": "bool"
        }
      ],
      "payable": false,
      "stateMutability": "view",
      "type": "function"
    },
    {
      "constant": false,
      "inputs": [],
      "name": "renouncePauser",
      "outputs": [],
      "payable": false,
      "stateMutability": "nonpayable",
      "type": "function"
    },
    {
      "constant": false,
      "inputs": [],
      "name": "renounceOwnership",
      "outputs": [],
      "payable": false,
      "stateMutability": "nonpayable",
      "type": "function"
    },
    {
      "constant": false,
      "inputs": [
        {
          "internalType": "address",
          "name": "account",
          "type": "address"
        }
      ],
      "name": "addPauser",
      "outputs": [],
      "payable": false,
      "stateMutability": "nonpayable",
      "type": "function"
    },
    {
      "constant": false,
      "inputs": [],
      "name": "pause",
      "outputs": [],
      "payable": false,
      "stateMutability": "nonpayable",
      "type": "function"
    },
    {
      "constant": true,
      "inputs": [],
      "name": "upper_bound",
      "outputs": [
        {
          "internalType": "uint256",
          "name": "",
          "type": "uint256"
        }
      ],
      "payable": false,
      "stateMutability": "view",
      "type": "function"
    },
    {
      "constant": true,
      "inputs": [],
      "name": "owner",
      "outputs": [
        {
          "internalType": "address",
          "name": "",
          "type": "address"
        }
      ],
      "payable": false,
      "stateMutability": "view",
      "type": "function"
    },
    {
      "constant": true,
      "inputs": [],
      "name": "isOwner",
      "outputs": [
        {
          "internalType": "bool",
          "name": "",
          "type": "bool"
        }
      ],
      "payable": false,
      "stateMutability": "view",
      "type": "function"
    },
    {
      "constant": true,
      "inputs": [],
      "name": "gas_bound",
      "outputs": [
        {
          "internalType": "uint256",
          "name": "",
          "type": "uint256"
        }
      ],
      "payable": false,
      "stateMutability": "view",
      "type": "function"
    },
    {
      "constant": true,
      "inputs": [],
      "name": "collateral_bound",
      "outputs": [
        {
          "internalType": "uint256",
          "name": "",
          "type": "uint256"
        }
      ],
      "payable": false,
      "stateMutability": "view",
      "type": "function"
    },
    {
      "constant": false,
      "inputs": [
        {
          "internalType": "address",
          "name": "newOwner",
          "type": "address"
        }
      ],
      "name": "transferOwnership",
      "outputs": [],
      "payable": false,
      "stateMutability": "nonpayable",
      "type": "function"
    },
    {
      "inputs": [
        {
          "internalType": "uint256",
          "name": "gasBound",
          "type": "uint256"
        },
        {
          "internalType": "uint256",
          "name": "collateralBound",
          "type": "uint256"
        },
        {
          "internalType": "uint256",
          "name": "upperBound",
          "type": "uint256"
        }
      ],
      "payable": false,
      "stateMutability": "nonpayable",
      "type": "constructor"
    },
    {
      "payable": true,
      "stateMutability": "payable",
      "type": "fallback"
    },
    {
      "anonymous": false,
      "inputs": [
        {
          "indexed": true,
          "internalType": "address",
          "name": "applicant",
          "type": "address"
        },
        {
          "indexed": true,
          "internalType": "address",
          "name": "dapp",
          "type": "address"
        },
        {
          "indexed": true,
          "internalType": "uint256",
          "name": "upper_bound",
          "type": "uint256"
        }
      ],
      "name": "applied",
      "type": "event"
    },
    {
      "anonymous": false,
      "inputs": [
        {
          "indexed": false,
          "internalType": "address",
          "name": "account",
          "type": "address"
        }
      ],
      "name": "Paused",
      "type": "event"
    },
    {
      "anonymous": false,
      "inputs": [
        {
          "indexed": false,
          "internalType": "address",
          "name": "account",
          "type": "address"
        }
      ],
      "name": "Unpaused",
      "type": "event"
    },
    {
      "anonymous": false,
      "inputs": [
        {
          "indexed": true,
          "internalType": "address",
          "name": "account",
          "type": "address"
        }
      ],
      "name": "PauserAdded",
      "type": "event"
    },
    {
      "anonymous": false,
      "inputs": [
        {
          "indexed": true,
          "internalType": "address",
          "name": "account",
          "type": "address"
        }
      ],
      "name": "PauserRemoved",
      "type": "event"
    },
    {
      "anonymous": false,
      "inputs": [
        {
          "indexed": true,
          "internalType": "address",
          "name": "previousOwner",
          "type": "address"
        },
        {
          "indexed": true,
          "internalType": "address",
          "name": "newOwner",
          "type": "address"
        }
      ],
      "name": "OwnershipTransferred",
      "type": "event"
    },
    {
      "constant": false,
      "inputs": [
        {
          "internalType": "address",
          "name": "dapp",
          "type": "address"
        }
      ],
      "name": "applyFor",
      "outputs": [],
      "payable": false,
      "stateMutability": "nonpayable",
      "type": "function"
    },
    {
      "constant": false,
      "inputs": [
        {
          "internalType": "address",
          "name": "dapp",
          "type": "address"
        }
      ],
      "name": "applyForGas",
      "outputs": [],
      "payable": false,
      "stateMutability": "nonpayable",
      "type": "function"
    },
    {
      "constant": false,
      "inputs": [
        {
          "internalType": "address",
          "name": "dapp",
          "type": "address"
        }
      ],
      "name": "applyForCollateral",
      "outputs": [],
      "payable": false,
      "stateMutability": "nonpayable",
      "type": "function"
    },
    {
      "constant": false,
      "inputs": [
        {
          "internalType": "address",
          "name": "dapp",
          "type": "address"
        }
      ],
      "name": "getGasBalance",
      "outputs": [
        {
          "internalType": "uint256",
          "name": "",
          "type": "uint256"
        }
      ],
      "payable": false,
      "stateMutability": "nonpayable",
      "type": "function"
    },
    {
      "constant": false,
      "inputs": [
        {
          "internalType": "address",
          "name": "dapp",
          "type": "address"
        }
      ],
      "name": "getCollateralBalance",
      "outputs": [
        {
          "internalType": "uint256",
          "name": "",
          "type": "uint256"
        }
      ],
      "payable": false,
      "stateMutability": "nonpayable",
      "type": "function"
    },
    {
      "constant": false,
      "inputs": [
        {
          "internalType": "address payable",
          "name": "sponsor",
          "type": "address"
        },
        {
          "internalType": "uint256",
          "name": "amount",
          "type": "uint256"
        }
      ],
      "name": "withdraw",
      "outputs": [],
      "payable": false,
      "stateMutability": "nonpayable",
      "type": "function"
    },
    {
      "constant": false,
      "inputs": [
        {
          "internalType": "uint256",
          "name": "gasBound",
          "type": "uint256"
        },
        {
          "internalType": "uint256",
          "name": "collateralBound",
          "type": "uint256"
        },
        {
          "internalType": "uint256",
          "name": "upperBound",
          "type": "uint256"
        }
      ],
      "name": "setBound",
      "outputs": [],
      "payable": false,
      "stateMutability": "nonpayable",
      "type": "function"
    }
  ],
  "bytecode": "0x60806040526000600260016101000a81548160ff021916908315150217905550730888000000000000000000000000000000000001600760006101000a81548173ffffffffffffffffffffffffffffffffffffffff021916908373ffffffffffffffffffffffffffffffffffffffff1602179055503480156200008157600080fd5b5060405162002ab938038062002ab98339818101604052620000a79190810190620004a0565b620000b76200022c60201b60201c565b6000806101000a81548173ffffffffffffffffffffffffffffffffffffffff021916908373ffffffffffffffffffffffffffffffffffffffff1602179055506000809054906101000a900473ffffffffffffffffffffffffffffffffffffffff1673ffffffffffffffffffffffffffffffffffffffff16600073ffffffffffffffffffffffffffffffffffffffff167f8be0079c531659141344cd1fd0a4f28419497f9722a3daafe3b4186f6b6457e060405160405180910390a362000192620001866200022c60201b60201c565b6200023460201b60201c565b6000600260006101000a81548160ff02191690831515021790555082620001ca6103e8836200029560201b6200171b1790919060201c565b11156200020e576040517f08c379a00000000000000000000000000000000000000000000000000000000081526004016200020590620006b0565b60405180910390fd5b82600381905550816004819055508060058190555050505062000707565b600033905090565b6200024f8160016200030b60201b620019601790919060201c565b8073ffffffffffffffffffffffffffffffffffffffff167f6719d08c1888103bea251a4ed56406bd0c3e69723c8a1686e017e7bbe159b6f860405160405180910390a250565b600080831415620002aa576000905062000305565b6000828402905082848281620002bc57fe5b041462000300576040517f08c379a0000000000000000000000000000000000000000000000000000000008152600401620002f7906200066c565b60405180910390fd5b809150505b92915050565b6200031d8282620003be60201b60201c565b1562000360576040517f08c379a000000000000000000000000000000000000000000000000000000000815260040162000357906200064a565b60405180910390fd5b60018260000160008373ffffffffffffffffffffffffffffffffffffffff1673ffffffffffffffffffffffffffffffffffffffff16815260200190815260200160002060006101000a81548160ff0219169083151502179055505050565b60008073ffffffffffffffffffffffffffffffffffffffff168273ffffffffffffffffffffffffffffffffffffffff16141562000432576040517f08c379a000000000000000000000000000000000000000000000000000000000815260040162000429906200068e565b60405180910390fd5b8260000160008373ffffffffffffffffffffffffffffffffffffffff1673ffffffffffffffffffffffffffffffffffffffff16815260200190815260200160002060009054906101000a900460ff16905092915050565b6000815190506200049a81620006ed565b92915050565b600080600060608486031215620004b657600080fd5b6000620004c68682870162000489565b9350506020620004d98682870162000489565b9250506040620004ec8682870162000489565b9150509250925092565b600062000505601f83620006d2565b91507f526f6c65733a206163636f756e7420616c72656164792068617320726f6c65006000830152602082019050919050565b600062000547602183620006d2565b91507f536166654d6174683a206d756c7469706c69636174696f6e206f766572666c6f60008301527f77000000000000000000000000000000000000000000000000000000000000006020830152604082019050919050565b6000620005af602283620006d2565b91507f526f6c65733a206163636f756e7420697320746865207a65726f20616464726560008301527f73730000000000000000000000000000000000000000000000000000000000006020830152604082019050919050565b600062000617601383620006d2565b91507f7570706572426f756e6420746f6f2068696768000000000000000000000000006000830152602082019050919050565b600060208201905081810360008301526200066581620004f6565b9050919050565b60006020820190508181036000830152620006878162000538565b9050919050565b60006020820190508181036000830152620006a981620005a0565b9050919050565b60006020820190508181036000830152620006cb8162000608565b9050919050565b600082825260208201905092915050565b6000819050919050565b620006f881620006e3565b81146200070457600080fd5b50565b6123a280620007176000396000f3fe60806040526004361061012a5760003560e01c806385eb4dab116100ab578063d2fc61c61161006f578063d2fc61c614610395578063db51cd66146103be578063e747e66c146103fb578063efb2adeb14610424578063f2fde38b1461044d578063f3fef3a3146104765761012a565b806385eb4dab146102be5780638da5cb5b146102e95780638f32d59b146103145780639ca64c411461033f578063ca9c8c371461036a5761012a565b80635c975abb116100f25780635c975abb146102255780636ef8d66d14610250578063715018a61461026757806382dc1ec41461027e5780638456cb59146102a75761012a565b80632703ee851461012c57806337ea0de2146101695780633f4ba83a1461019257806346fbf68e146101a957806355670f31146101e6575b005b34801561013857600080fd5b50610153600480360361014e9190810190611a5c565b61049f565b604051610160919061221c565b60405180910390f35b34801561017557600080fd5b50610190600480360361018b9190810190611a5c565b610555565b005b34801561019e57600080fd5b506101a76108c9565b005b3480156101b557600080fd5b506101d060048036036101cb9190810190611a5c565b6109c2565b6040516101dd9190612041565b60405180910390f35b3480156101f257600080fd5b5061020d60048036036102089190810190611a5c565b6109df565b60405161021c93929190612237565b60405180910390f35b34801561023157600080fd5b5061023a610a09565b6040516102479190612041565b60405180910390f35b34801561025c57600080fd5b50610265610a20565b005b34801561027357600080fd5b5061027c610a32565b005b34801561028a57600080fd5b506102a560048036036102a09190810190611a5c565b610b38565b005b3480156102b357600080fd5b506102bc610b93565b005b3480156102ca57600080fd5b506102d3610c8d565b6040516102e0919061221c565b60405180910390f35b3480156102f557600080fd5b506102fe610c93565b60405161030b9190611fe2565b60405180910390f35b34801561032057600080fd5b50610329610cbc565b6040516103369190612041565b60405180910390f35b34801561034b57600080fd5b50610354610d1a565b604051610361919061221c565b60405180910390f35b34801561037657600080fd5b5061037f610d20565b60405161038c919061221c565b60405180910390f35b3480156103a157600080fd5b506103bc60048036036103b79190810190611a5c565b610d26565b005b3480156103ca57600080fd5b506103e560048036036103e09190810190611a5c565b610f42565b6040516103f2919061221c565b60405180910390f35b34801561040757600080fd5b50610422600480360361041d9190810190611a5c565b610ff8565b005b34801561043057600080fd5b5061044b60048036036104469190810190611aea565b611210565b005b34801561045957600080fd5b50610474600480360361046f9190810190611a5c565b6112c8565b005b34801561048257600080fd5b5061049d60048036036104989190810190611a85565b61131b565b005b6000600760009054906101000a900473ffffffffffffffffffffffffffffffffffffffff1673ffffffffffffffffffffffffffffffffffffffff1663d47e9a57836040518263ffffffff1660e01b81526004016104fc9190611fe2565b602060405180830381600087803b15801561051657600080fd5b505af115801561052a573d6000803e3d6000fd5b505050506040513d601f19601f8201168201806040525061054e9190810190611ac1565b9050919050565b600260019054906101000a900460ff16156105a5576040517f08c379a000000000000000000000000000000000000000000000000000000000815260040161059c906121bc565b60405180910390fd5b6001600260016101000a81548160ff021916908315150217905550600260009054906101000a900460ff1615610610576040517f08c379a0000000000000000000000000000000000000000000000000000000008152600401610607906120fc565b60405180910390fd5b600760009054906101000a900473ffffffffffffffffffffffffffffffffffffffff1673ffffffffffffffffffffffffffffffffffffffff16633e3e6428600354836005546040518463ffffffff1660e01b8152600401610672929190612018565b6000604051808303818588803b15801561068b57600080fd5b505af115801561069f573d6000803e3d6000fd5b5050505050600760009054906101000a900473ffffffffffffffffffffffffffffffffffffffff1673ffffffffffffffffffffffffffffffffffffffff1663e66c1bea600454836040518363ffffffff1660e01b81526004016107029190611fe2565b6000604051808303818588803b15801561071b57600080fd5b505af115801561072f573d6000803e3d6000fd5b505050505061078a6001600660008473ffffffffffffffffffffffffffffffffffffffff1673ffffffffffffffffffffffffffffffffffffffff1681526020019081526020016000206000015461154290919063ffffffff16565b506107e16001600660008473ffffffffffffffffffffffffffffffffffffffff1673ffffffffffffffffffffffffffffffffffffffff1681526020019081526020016000206001015461154290919063ffffffff16565b5061084d6107fc60045460035461154290919063ffffffff16565b600660008473ffffffffffffffffffffffffffffffffffffffff1673ffffffffffffffffffffffffffffffffffffffff1681526020019081526020016000206002015461154290919063ffffffff16565b506005548173ffffffffffffffffffffffffffffffffffffffff163373ffffffffffffffffffffffffffffffffffffffff167f0d517b7814d6361097aa44db26ae46a4e1244686721c5f28206a9605dc413c4a60405160405180910390a46000600260016101000a81548160ff02191690831515021790555050565b6108d96108d4611597565b6109c2565b610918576040517f08c379a000000000000000000000000000000000000000000000000000000000815260040161090f9061209c565b60405180910390fd5b600260009054906101000a900460ff16610967576040517f08c379a000000000000000000000000000000000000000000000000000000000815260040161095e9061205c565b60405180910390fd5b6000600260006101000a81548160ff0219169083151502179055507f5db9ee0a495bf2e6ff9c91a7834c1ba4fdd244a5e8aa4e537bd38aeae4b073aa6109ab611597565b6040516109b89190611ffd565b60405180910390a1565b60006109d882600161159f90919063ffffffff16565b9050919050565b60066020528060005260406000206000915090508060000154908060010154908060020154905083565b6000600260009054906101000a900460ff16905090565b610a30610a2b611597565b611667565b565b610a3a610cbc565b610a79576040517f08c379a0000000000000000000000000000000000000000000000000000000008152600401610a709061215c565b60405180910390fd5b600073ffffffffffffffffffffffffffffffffffffffff166000809054906101000a900473ffffffffffffffffffffffffffffffffffffffff1673ffffffffffffffffffffffffffffffffffffffff167f8be0079c531659141344cd1fd0a4f28419497f9722a3daafe3b4186f6b6457e060405160405180910390a360008060006101000a81548173ffffffffffffffffffffffffffffffffffffffff021916908373ffffffffffffffffffffffffffffffffffffffff160217905550565b610b48610b43611597565b6109c2565b610b87576040517f08c379a0000000000000000000000000000000000000000000000000000000008152600401610b7e9061209c565b60405180910390fd5b610b90816116c1565b50565b610ba3610b9e611597565b6109c2565b610be2576040517f08c379a0000000000000000000000000000000000000000000000000000000008152600401610bd99061209c565b60405180910390fd5b600260009054906101000a900460ff1615610c32576040517f08c379a0000000000000000000000000000000000000000000000000000000008152600401610c29906120fc565b60405180910390fd5b6001600260006101000a81548160ff0219169083151502179055507f62e78cea01bee320cd4e420270b5ea74000d11b0c9f74754ebdbfc544b05a258610c76611597565b604051610c839190611ffd565b60405180910390a1565b60055481565b60008060009054906101000a900473ffffffffffffffffffffffffffffffffffffffff16905090565b60008060009054906101000a900473ffffffffffffffffffffffffffffffffffffffff1673ffffffffffffffffffffffffffffffffffffffff16610cfe611597565b73ffffffffffffffffffffffffffffffffffffffff1614905090565b60035481565b60045481565b600260019054906101000a900460ff1615610d76576040517f08c379a0000000000000000000000000000000000000000000000000000000008152600401610d6d906121bc565b60405180910390fd5b6001600260016101000a81548160ff021916908315150217905550600260009054906101000a900460ff1615610de1576040517f08c379a0000000000000000000000000000000000000000000000000000000008152600401610dd8906120fc565b60405180910390fd5b600760009054906101000a900473ffffffffffffffffffffffffffffffffffffffff1673ffffffffffffffffffffffffffffffffffffffff16633e3e6428600354836005546040518463ffffffff1660e01b8152600401610e43929190612018565b6000604051808303818588803b158015610e5c57600080fd5b505af1158015610e70573d6000803e3d6000fd5b5050505050610ecb6001600660008473ffffffffffffffffffffffffffffffffffffffff1673ffffffffffffffffffffffffffffffffffffffff1681526020019081526020016000206000015461154290919063ffffffff16565b50610f23600354600660008473ffffffffffffffffffffffffffffffffffffffff1673ffffffffffffffffffffffffffffffffffffffff1681526020019081526020016000206002015461154290919063ffffffff16565b506000600260016101000a81548160ff02191690831515021790555050565b6000600760009054906101000a900473ffffffffffffffffffffffffffffffffffffffff1673ffffffffffffffffffffffffffffffffffffffff1663b3b28fac836040518263ffffffff1660e01b8152600401610f9f9190611fe2565b602060405180830381600087803b158015610fb957600080fd5b505af1158015610fcd573d6000803e3d6000fd5b505050506040513d601f19601f82011682018060405250610ff19190810190611ac1565b9050919050565b600260019054906101000a900460ff1615611048576040517f08c379a000000000000000000000000000000000000000000000000000000000815260040161103f906121bc565b60405180910390fd5b6001600260016101000a81548160ff021916908315150217905550600260009054906101000a900460ff16156110b3576040517f08c379a00000000000000000000000000000000000000000000000000000000081526004016110aa906120fc565b60405180910390fd5b600760009054906101000a900473ffffffffffffffffffffffffffffffffffffffff1673ffffffffffffffffffffffffffffffffffffffff1663e66c1bea600454836040518363ffffffff1660e01b81526004016111119190611fe2565b6000604051808303818588803b15801561112a57600080fd5b505af115801561113e573d6000803e3d6000fd5b50505050506111996001600660008473ffffffffffffffffffffffffffffffffffffffff1673ffffffffffffffffffffffffffffffffffffffff1681526020019081526020016000206001015461154290919063ffffffff16565b506111f1600454600660008473ffffffffffffffffffffffffffffffffffffffff1673ffffffffffffffffffffffffffffffffffffffff1681526020019081526020016000206002015461154290919063ffffffff16565b506000600260016101000a81548160ff02191690831515021790555050565b611218610cbc565b611257576040517f08c379a000000000000000000000000000000000000000000000000000000000815260040161124e9061215c565b60405180910390fd5b8261126d6103e88361171b90919063ffffffff16565b11156112ae576040517f08c379a00000000000000000000000000000000000000000000000000000000081526004016112a5906121fc565b60405180910390fd5b826003819055508160048190555080600581905550505050565b6112d0610cbc565b61130f576040517f08c379a00000000000000000000000000000000000000000000000000000000081526004016113069061215c565b60405180910390fd5b6113188161178b565b50565b611323610cbc565b611362576040517f08c379a00000000000000000000000000000000000000000000000000000000081526004016113599061215c565b60405180910390fd5b600260019054906101000a900460ff16156113b2576040517f08c379a00000000000000000000000000000000000000000000000000000000081526004016113a9906121bc565b60405180910390fd5b6001600260016101000a81548160ff021916908315150217905550600260009054906101000a900460ff1661141c576040517f08c379a00000000000000000000000000000000000000000000000000000000081526004016114139061205c565b60405180910390fd5b803073ffffffffffffffffffffffffffffffffffffffff16311015611476576040517f08c379a000000000000000000000000000000000000000000000000000000000815260040161146d9061219c565b60405180910390fd5b60008273ffffffffffffffffffffffffffffffffffffffff168260405161149c90611fcd565b60006040518083038185875af1925050503d80600081146114d9576040519150601f19603f3d011682016040523d82523d6000602084013e6114de565b606091505b5050905080611522576040517f08c379a0000000000000000000000000000000000000000000000000000000008152600401611519906121dc565b60405180910390fd5b506000600260016101000a81548160ff0219169083151502179055505050565b60008082840190508381101561158d576040517f08c379a0000000000000000000000000000000000000000000000000000000008152600401611584906120dc565b60405180910390fd5b8091505092915050565b600033905090565b60008073ffffffffffffffffffffffffffffffffffffffff168273ffffffffffffffffffffffffffffffffffffffff161415611610576040517f08c379a00000000000000000000000000000000000000000000000000000000081526004016116079061217c565b60405180910390fd5b8260000160008373ffffffffffffffffffffffffffffffffffffffff1673ffffffffffffffffffffffffffffffffffffffff16815260200190815260200160002060009054906101000a900460ff16905092915050565b61167b8160016118b990919063ffffffff16565b8073ffffffffffffffffffffffffffffffffffffffff167fcd265ebaf09df2871cc7bd4133404a235ba12eff2041bb89d9c714a2621c7c7e60405160405180910390a250565b6116d581600161196090919063ffffffff16565b8073ffffffffffffffffffffffffffffffffffffffff167f6719d08c1888103bea251a4ed56406bd0c3e69723c8a1686e017e7bbe159b6f860405160405180910390a250565b60008083141561172e5760009050611785565b600082840290508284828161173f57fe5b0414611780576040517f08c379a00000000000000000000000000000000000000000000000000000000081526004016117779061213c565b60405180910390fd5b809150505b92915050565b600073ffffffffffffffffffffffffffffffffffffffff168173ffffffffffffffffffffffffffffffffffffffff1614156117fb576040517f08c379a00000000000000000000000000000000000000000000000000000000081526004016117f2906120bc565b60405180910390fd5b8073ffffffffffffffffffffffffffffffffffffffff166000809054906101000a900473ffffffffffffffffffffffffffffffffffffffff1673ffffffffffffffffffffffffffffffffffffffff167f8be0079c531659141344cd1fd0a4f28419497f9722a3daafe3b4186f6b6457e060405160405180910390a3806000806101000a81548173ffffffffffffffffffffffffffffffffffffffff021916908373ffffffffffffffffffffffffffffffffffffffff16021790555050565b6118c3828261159f565b611902576040517f08c379a00000000000000000000000000000000000000000000000000000000081526004016118f99061211c565b60405180910390fd5b60008260000160008373ffffffffffffffffffffffffffffffffffffffff1673ffffffffffffffffffffffffffffffffffffffff16815260200190815260200160002060006101000a81548160ff0219169083151502179055505050565b61196a828261159f565b156119aa576040517f08c379a00000000000000000000000000000000000000000000000000000000081526004016119a19061207c565b60405180910390fd5b60018260000160008373ffffffffffffffffffffffffffffffffffffffff1673ffffffffffffffffffffffffffffffffffffffff16815260200190815260200160002060006101000a81548160ff0219169083151502179055505050565b600081359050611a178161231a565b92915050565b600081359050611a2c81612331565b92915050565b600081359050611a4181612348565b92915050565b600081519050611a5681612348565b92915050565b600060208284031215611a6e57600080fd5b6000611a7c84828501611a08565b91505092915050565b60008060408385031215611a9857600080fd5b6000611aa685828601611a1d565b9250506020611ab785828601611a32565b9150509250929050565b600060208284031215611ad357600080fd5b6000611ae184828501611a47565b91505092915050565b600080600060608486031215611aff57600080fd5b6000611b0d86828701611a32565b9350506020611b1e86828701611a32565b9250506040611b2f86828701611a32565b9150509250925092565b611b42816122e4565b82525050565b611b518161228a565b82525050565b611b60816122ae565b82525050565b6000611b73601483612279565b91507f5061757361626c653a206e6f74207061757365640000000000000000000000006000830152602082019050919050565b6000611bb3601f83612279565b91507f526f6c65733a206163636f756e7420616c72656164792068617320726f6c65006000830152602082019050919050565b6000611bf3603083612279565b91507f506175736572526f6c653a2063616c6c657220646f6573206e6f74206861766560008301527f207468652050617573657220726f6c65000000000000000000000000000000006020830152604082019050919050565b6000611c59602683612279565b91507f4f776e61626c653a206e6577206f776e657220697320746865207a65726f206160008301527f64647265737300000000000000000000000000000000000000000000000000006020830152604082019050919050565b6000611cbf601b83612279565b91507f536166654d6174683a206164646974696f6e206f766572666c6f7700000000006000830152602082019050919050565b6000611cff601083612279565b91507f5061757361626c653a20706175736564000000000000000000000000000000006000830152602082019050919050565b6000611d3f602183612279565b91507f526f6c65733a206163636f756e7420646f6573206e6f74206861766520726f6c60008301527f65000000000000000000000000000000000000000000000000000000000000006020830152604082019050919050565b6000611da5602183612279565b91507f536166654d6174683a206d756c7469706c69636174696f6e206f766572666c6f60008301527f77000000000000000000000000000000000000000000000000000000000000006020830152604082019050919050565b6000611e0b602083612279565b91507f4f776e61626c653a2063616c6c6572206973206e6f7420746865206f776e65726000830152602082019050919050565b6000611e4b602283612279565b91507f526f6c65733a206163636f756e7420697320746865207a65726f20616464726560008301527f73730000000000000000000000000000000000000000000000000000000000006020830152604082019050919050565b6000611eb1600f83612279565b91507f616d6f756e7420746f6f206869676800000000000000000000000000000000006000830152602082019050919050565b6000611ef1601283612279565b91507f5245454e5452414e43595f494c4c4547414c00000000000000000000000000006000830152602082019050919050565b6000611f3160008361226e565b9150600082019050919050565b6000611f4b600f83612279565b91507f7769746864726177206661696c656400000000000000000000000000000000006000830152602082019050919050565b6000611f8b601383612279565b91507f7570706572426f756e6420746f6f2068696768000000000000000000000000006000830152602082019050919050565b611fc7816122da565b82525050565b6000611fd882611f24565b9150819050919050565b6000602082019050611ff76000830184611b48565b92915050565b60006020820190506120126000830184611b39565b92915050565b600060408201905061202d6000830185611b48565b61203a6020830184611fbe565b9392505050565b60006020820190506120566000830184611b57565b92915050565b6000602082019050818103600083015261207581611b66565b9050919050565b6000602082019050818103600083015261209581611ba6565b9050919050565b600060208201905081810360008301526120b581611be6565b9050919050565b600060208201905081810360008301526120d581611c4c565b9050919050565b600060208201905081810360008301526120f581611cb2565b9050919050565b6000602082019050818103600083015261211581611cf2565b9050919050565b6000602082019050818103600083015261213581611d32565b9050919050565b6000602082019050818103600083015261215581611d98565b9050919050565b6000602082019050818103600083015261217581611dfe565b9050919050565b6000602082019050818103600083015261219581611e3e565b9050919050565b600060208201905081810360008301526121b581611ea4565b9050919050565b600060208201905081810360008301526121d581611ee4565b9050919050565b600060208201905081810360008301526121f581611f3e565b9050919050565b6000602082019050818103600083015261221581611f7e565b9050919050565b60006020820190506122316000830184611fbe565b92915050565b600060608201905061224c6000830186611fbe565b6122596020830185611fbe565b6122666040830184611fbe565b949350505050565b600081905092915050565b600082825260208201905092915050565b6000612295826122ba565b9050919050565b60006122a7826122ba565b9050919050565b60008115159050919050565b600073ffffffffffffffffffffffffffffffffffffffff82169050919050565b6000819050919050565b60006122ef826122f6565b9050919050565b600061230182612308565b9050919050565b6000612313826122ba565b9050919050565b6123238161228a565b811461232e57600080fd5b50565b61233a8161229c565b811461234557600080fd5b50565b612351816122da565b811461235c57600080fd5b5056fea365627a7a723158201fd19e1de63426f00ac0839678653aa960905bdd9038f52efdbc200c42dfd4ad6c6578706572696d656e74616cf564736f6c634300050b0040",
  "source": "pragma solidity 0.5.11;\npragma experimental ABIEncoderV2;\n\nimport \"@openzeppelin/contracts/ownership/Ownable.sol\";\nimport \"@openzeppelin/contracts/lifecycle/Pausable.sol\";\nimport \"@openzeppelin/contracts/math/SafeMath.sol\";\nimport \"./Lib/ReentrancyGuard.sol\";\nimport \"./InternalContract.sol\";\n\ncontract SponsorFaucet is Ownable, Pausable, ReentrancyGuard {\n    using SafeMath for uint256;\n    struct detail {\n        uint256 gas_cnt;\n        uint256 collateral_cnt;\n        uint256 limit;\n    }\n\n    //single sponsor bound\n    uint256 public gas_bound;\n    uint256 public collateral_bound;\n    //upper bound for single tx\n    uint256 public upper_bound;\n    mapping(address=>detail) public dapps;\n    \n    event applied(address indexed applicant, address indexed dapp, uint256 indexed upper_bound);\n    \n    SponsorWhitelistControl cpc = SponsorWhitelistControl(0x0888000000000000000000000000000000000001);\n    \n    constructor(uint256 gasBound, uint256 collateralBound, uint256 upperBound) public {\n        require(upperBound.mul(1000) <= gasBound, 'upperBound too high');\n        gas_bound = gasBound;\n        collateral_bound = collateralBound;\n        upper_bound = upperBound;\n    }\n     \n    /*** Dapp dev calls ***/ \n    //apply cfx for gas & storage\n    function applyFor(address dapp) public nonReentrant whenNotPaused {\n        //todo: internal contract require check\n        cpc.setSponsorForGas.value(gas_bound)(dapp, upper_bound);\n        cpc.setSponsorForCollateral.value(collateral_bound)(dapp);\n        dapps[dapp].gas_cnt.add(1);\n        dapps[dapp].collateral_cnt.add(1);\n        dapps[dapp].limit.add(gas_bound.add(collateral_bound));\n        emit applied(msg.sender, dapp, upper_bound);\n    }\n\n    function applyForGas(address dapp) public nonReentrant whenNotPaused {\n        cpc.setSponsorForGas.value(gas_bound)(dapp, upper_bound);\n        dapps[dapp].gas_cnt.add(1);\n        dapps[dapp].limit.add(gas_bound);\n    }\n\n    function applyForCollateral(address dapp) public nonReentrant whenNotPaused {\n        cpc.setSponsorForCollateral.value(collateral_bound)(dapp);\n        dapps[dapp].collateral_cnt.add(1);\n        dapps[dapp].limit.add(collateral_bound);\n    }\n\n    //accept sponsor's cfx\n    function () external payable {\n    }\n\n    /*** get dapp sponsored balance ***/\n    function getGasBalance(address dapp) public returns(uint256) {\n        return cpc.getSponsoredBalanceForGas(dapp);\n    }\n\n    function getCollateralBalance(address dapp) public returns(uint256) {\n        return cpc.getSponsoredBalanceForCollateral(dapp);\n    }\n\n    //withdraw to specific address by amount\n    function withdraw(address payable sponsor, uint256 amount) public onlyOwner nonReentrant whenPaused {\n        require(address(this).balance >= amount, \"amount too high\");\n        //require(sponsor.send(amount), \"withdraw failed\");\n        (bool success, ) = sponsor.call.value(amount)(\"\");\n        require(success, \"withdraw failed\");\n    }\n\n    function setBound(uint256 gasBound, uint256 collateralBound, uint256 upperBound) public onlyOwner {\n        require(upperBound.mul(1000) <= gasBound, 'upperBound too high');\n        gas_bound = gasBound;\n        collateral_bound = collateralBound;\n        upper_bound = upperBound;   \n    }\n}\n",
  "sourcePath": "/Users/xiongyu/conflux-sponsor-faucet/contracts/SponsorFaucet.sol",
  "compiler": {
    "name": "solc",
    "version": "0.5.11+commit.c082d0b4.Emscripten.clang"
  },
  "schemaVersion": "3.2.2",
  "updatedAt": "2020-09-25T06:24:32.020Z",
  "devdoc": {
    "methods": {
      "isOwner()": {
        "details": "Returns true if the caller is the current owner."
      },
      "owner()": {
        "details": "Returns the address of the current owner."
      },
      "pause()": {
        "details": "Called by a pauser to pause, triggers stopped state."
      },
      "paused()": {
        "details": "Returns true if the contract is paused, and false otherwise."
      },
      "renounceOwnership()": {
        "details": "Leaves the contract without owner. It will not be possible to call `onlyOwner` functions anymore. Can only be called by the current owner.     * NOTE: Renouncing ownership will leave the contract without an owner, thereby removing any functionality that is only available to the owner."
      },
      "transferOwnership(address)": {
        "details": "Transfers ownership of the contract to a new account (`newOwner`). Can only be called by the current owner."
      },
      "unpause()": {
        "details": "Called by a pauser to unpause, returns to normal state."
      }
    }
  },
  "userdoc": {
    "methods": {
      "applyFor(address)": {
        "notice": "* Dapp dev calls **"
      },
      "getGasBalance(address)": {
        "notice": "* get dapp sponsored balance **"
      }
    }
  }
}