{
  "contractName": "SponsorFaucet",
  "abi": [
    {
      "constant": false,
      "inputs": [],
      "name": "unpause",
      "outputs": [],
      "payable": false,
      "stateMutability": "nonpayable",
      "type": "function"
    },
    {
      "constant": true,
      "inputs": [
        {
          "internalType": "address",
          "name": "account",
          "type": "address"
        }
      ],
      "name": "isPauser",
      "outputs": [
        {
          "internalType": "bool",
          "name": "",
          "type": "bool"
        }
      ],
      "payable": false,
      "stateMutability": "view",
      "type": "function"
    },
    {
      "constant": false,
      "inputs": [],
      "name": "renounceWhitelistAdmin",
      "outputs": [],
      "payable": false,
      "stateMutability": "nonpayable",
      "type": "function"
    },
    {
      "constant": true,
      "inputs": [
        {
          "internalType": "address",
          "name": "",
          "type": "address"
        }
      ],
      "name": "dapps",
      "outputs": [
        {
          "internalType": "uint256",
          "name": "gas_amount_accumulated",
          "type": "uint256"
        },
        {
          "internalType": "uint256",
          "name": "collateral_amount_accumulated",
          "type": "uint256"
        }
      ],
      "payable": false,
      "stateMutability": "view",
      "type": "function"
    },
    {
      "constant": true,
      "inputs": [],
      "name": "paused",
      "outputs": [
        {
          "internalType": "bool",
          "name": "",
          "type": "bool"
        }
      ],
      "payable": false,
      "stateMutability": "view",
      "type": "function"
    },
    {
      "constant": false,
      "inputs": [],
      "name": "renouncePauser",
      "outputs": [],
      "payable": false,
      "stateMutability": "nonpayable",
      "type": "function"
    },
    {
      "constant": false,
      "inputs": [],
      "name": "renounceOwnership",
      "outputs": [],
      "payable": false,
      "stateMutability": "nonpayable",
      "type": "function"
    },
    {
      "constant": false,
      "inputs": [
        {
          "internalType": "address",
          "name": "account",
          "type": "address"
        }
      ],
      "name": "addWhitelistAdmin",
      "outputs": [],
      "payable": false,
      "stateMutability": "nonpayable",
      "type": "function"
    },
    {
      "constant": false,
      "inputs": [
        {
          "internalType": "address",
          "name": "account",
          "type": "address"
        }
      ],
      "name": "addPauser",
      "outputs": [],
      "payable": false,
      "stateMutability": "nonpayable",
      "type": "function"
    },
    {
      "constant": false,
      "inputs": [],
      "name": "pause",
      "outputs": [],
      "payable": false,
      "stateMutability": "nonpayable",
      "type": "function"
    },
    {
      "constant": true,
      "inputs": [],
      "name": "owner",
      "outputs": [
        {
          "internalType": "address",
          "name": "",
          "type": "address"
        }
      ],
      "payable": false,
      "stateMutability": "view",
      "type": "function"
    },
    {
      "constant": true,
      "inputs": [],
      "name": "isOwner",
      "outputs": [
        {
          "internalType": "bool",
          "name": "",
          "type": "bool"
        }
      ],
      "payable": false,
      "stateMutability": "view",
      "type": "function"
    },
    {
      "constant": true,
      "inputs": [
        {
          "internalType": "address",
          "name": "account",
          "type": "address"
        }
      ],
      "name": "isWhitelistAdmin",
      "outputs": [
        {
          "internalType": "bool",
          "name": "",
          "type": "bool"
        }
      ],
      "payable": false,
      "stateMutability": "view",
      "type": "function"
    },
    {
      "constant": false,
      "inputs": [
        {
          "internalType": "address",
          "name": "newOwner",
          "type": "address"
        }
      ],
      "name": "transferOwnership",
      "outputs": [],
      "payable": false,
      "stateMutability": "nonpayable",
      "type": "function"
    },
    {
      "inputs": [
        {
          "components": [
            {
              "internalType": "uint256",
              "name": "gas_total_limit",
              "type": "uint256"
            },
            {
              "internalType": "uint256",
              "name": "collateral_total_limit",
              "type": "uint256"
            },
            {
              "internalType": "uint256",
              "name": "gas_bound",
              "type": "uint256"
            },
            {
              "internalType": "uint256",
              "name": "collateral_bound",
              "type": "uint256"
            },
            {
              "internalType": "uint256",
              "name": "upper_bound",
              "type": "uint256"
            }
          ],
          "internalType": "struct SponsorFaucet.Bounds",
          "name": "smallBounds",
          "type": "tuple"
        },
        {
          "components": [
            {
              "internalType": "uint256",
              "name": "gas_total_limit",
              "type": "uint256"
            },
            {
              "internalType": "uint256",
              "name": "collateral_total_limit",
              "type": "uint256"
            },
            {
              "internalType": "uint256",
              "name": "gas_bound",
              "type": "uint256"
            },
            {
              "internalType": "uint256",
              "name": "collateral_bound",
              "type": "uint256"
            },
            {
              "internalType": "uint256",
              "name": "upper_bound",
              "type": "uint256"
            }
          ],
          "internalType": "struct SponsorFaucet.Bounds",
          "name": "largeBounds",
          "type": "tuple"
        }
      ],
      "payable": false,
      "stateMutability": "nonpayable",
      "type": "constructor"
    },
    {
      "payable": true,
      "stateMutability": "payable",
      "type": "fallback"
    },
    {
      "anonymous": false,
      "inputs": [
        {
          "indexed": true,
          "internalType": "address",
          "name": "applicant",
          "type": "address"
        },
        {
          "indexed": true,
          "internalType": "address",
          "name": "dapp",
          "type": "address"
        },
        {
          "indexed": false,
          "internalType": "uint256",
          "name": "amount",
          "type": "uint256"
        }
      ],
      "name": "applied",
      "type": "event"
    },
    {
      "anonymous": false,
      "inputs": [
        {
          "indexed": true,
          "internalType": "address",
          "name": "account",
          "type": "address"
        }
      ],
      "name": "WhitelistAdminAdded",
      "type": "event"
    },
    {
      "anonymous": false,
      "inputs": [
        {
          "indexed": true,
          "internalType": "address",
          "name": "account",
          "type": "address"
        }
      ],
      "name": "WhitelistAdminRemoved",
      "type": "event"
    },
    {
      "anonymous": false,
      "inputs": [
        {
          "indexed": false,
          "internalType": "address",
          "name": "account",
          "type": "address"
        }
      ],
      "name": "Paused",
      "type": "event"
    },
    {
      "anonymous": false,
      "inputs": [
        {
          "indexed": false,
          "internalType": "address",
          "name": "account",
          "type": "address"
        }
      ],
      "name": "Unpaused",
      "type": "event"
    },
    {
      "anonymous": false,
      "inputs": [
        {
          "indexed": true,
          "internalType": "address",
          "name": "account",
          "type": "address"
        }
      ],
      "name": "PauserAdded",
      "type": "event"
    },
    {
      "anonymous": false,
      "inputs": [
        {
          "indexed": true,
          "internalType": "address",
          "name": "account",
          "type": "address"
        }
      ],
      "name": "PauserRemoved",
      "type": "event"
    },
    {
      "anonymous": false,
      "inputs": [
        {
          "indexed": true,
          "internalType": "address",
          "name": "previousOwner",
          "type": "address"
        },
        {
          "indexed": true,
          "internalType": "address",
          "name": "newOwner",
          "type": "address"
        }
      ],
      "name": "OwnershipTransferred",
      "type": "event"
    },
    {
      "constant": false,
      "inputs": [
        {
          "internalType": "address",
          "name": "dapp",
          "type": "address"
        }
      ],
      "name": "applyGasAndCollateral",
      "outputs": [],
      "payable": false,
      "stateMutability": "nonpayable",
      "type": "function"
    },
    {
      "constant": false,
      "inputs": [
        {
          "internalType": "address",
          "name": "dapp",
          "type": "address"
        }
      ],
      "name": "isAppliable",
      "outputs": [
        {
          "internalType": "bool",
          "name": "",
          "type": "bool"
        }
      ],
      "payable": false,
      "stateMutability": "nonpayable",
      "type": "function"
    },
    {
      "constant": false,
      "inputs": [
        {
          "internalType": "address payable",
          "name": "sponsor",
          "type": "address"
        },
        {
          "internalType": "uint256",
          "name": "amount",
          "type": "uint256"
        }
      ],
      "name": "withdraw",
      "outputs": [],
      "payable": false,
      "stateMutability": "nonpayable",
      "type": "function"
    },
    {
      "constant": false,
      "inputs": [
        {
          "internalType": "address",
          "name": "addr",
          "type": "address"
        },
        {
          "components": [
            {
              "internalType": "uint256",
              "name": "gas_total_limit",
              "type": "uint256"
            },
            {
              "internalType": "uint256",
              "name": "collateral_total_limit",
              "type": "uint256"
            },
            {
              "internalType": "uint256",
              "name": "gas_bound",
              "type": "uint256"
            },
            {
              "internalType": "uint256",
              "name": "collateral_bound",
              "type": "uint256"
            },
            {
              "internalType": "uint256",
              "name": "upper_bound",
              "type": "uint256"
            }
          ],
          "internalType": "struct SponsorFaucet.Bounds",
          "name": "bounds",
          "type": "tuple"
        }
      ],
      "name": "setBounds",
      "outputs": [],
      "payable": false,
      "stateMutability": "nonpayable",
      "type": "function"
    },
    {
      "constant": true,
      "inputs": [
        {
          "internalType": "address",
          "name": "dapp",
          "type": "address"
        }
      ],
      "name": "getBounds",
      "outputs": [
        {
          "components": [
            {
              "internalType": "uint256",
              "name": "gas_total_limit",
              "type": "uint256"
            },
            {
              "internalType": "uint256",
              "name": "collateral_total_limit",
              "type": "uint256"
            },
            {
              "internalType": "uint256",
              "name": "gas_bound",
              "type": "uint256"
            },
            {
              "internalType": "uint256",
              "name": "collateral_bound",
              "type": "uint256"
            },
            {
              "internalType": "uint256",
              "name": "upper_bound",
              "type": "uint256"
            }
          ],
          "internalType": "struct SponsorFaucet.Bounds",
          "name": "",
          "type": "tuple"
        }
      ],
      "payable": false,
      "stateMutability": "view",
      "type": "function"
    },
    {
      "constant": false,
      "inputs": [
        {
          "internalType": "address[]",
          "name": "addrList",
          "type": "address[]"
        }
      ],
      "name": "addLargeContracts",
      "outputs": [],
      "payable": false,
      "stateMutability": "nonpayable",
      "type": "function"
    },
    {
      "constant": false,
      "inputs": [
        {
          "internalType": "address",
          "name": "addr",
          "type": "address"
        },
        {
          "components": [
            {
              "internalType": "uint256",
              "name": "gas_total_limit",
              "type": "uint256"
            },
            {
              "internalType": "uint256",
              "name": "collateral_total_limit",
              "type": "uint256"
            },
            {
              "internalType": "uint256",
              "name": "gas_bound",
              "type": "uint256"
            },
            {
              "internalType": "uint256",
              "name": "collateral_bound",
              "type": "uint256"
            },
            {
              "internalType": "uint256",
              "name": "upper_bound",
              "type": "uint256"
            }
          ],
          "internalType": "struct SponsorFaucet.Bounds",
          "name": "bounds",
          "type": "tuple"
        }
      ],
      "name": "addCustomContracts",
      "outputs": [],
      "payable": false,
      "stateMutability": "nonpayable",
      "type": "function"
    },
    {
      "constant": false,
      "inputs": [
        {
          "internalType": "address[]",
          "name": "addrList",
          "type": "address[]"
        }
      ],
      "name": "removeContract",
      "outputs": [],
      "payable": false,
      "stateMutability": "nonpayable",
      "type": "function"
    },
    {
      "constant": true,
      "inputs": [
        {
          "internalType": "address",
          "name": "dapp",
          "type": "address"
        }
      ],
      "name": "isLargeContract",
      "outputs": [
        {
          "internalType": "bool",
          "name": "",
          "type": "bool"
        }
      ],
      "payable": false,
      "stateMutability": "view",
      "type": "function"
    },
    {
      "constant": true,
      "inputs": [
        {
          "internalType": "address",
          "name": "dapp",
          "type": "address"
        }
      ],
      "name": "isCustomContract",
      "outputs": [
        {
          "internalType": "bool",
          "name": "",
          "type": "bool"
        }
      ],
      "payable": false,
      "stateMutability": "view",
      "type": "function"
    }
  ],
  "bytecode": "0x60806040526000600260016101000a81548160ff021916908315150217905550730888000000000000000000000000000000000001600860006101000a81548173ffffffffffffffffffffffffffffffffffffffff021916908373ffffffffffffffffffffffffffffffffffffffff1602179055503480156200008157600080fd5b5060405162004bc638038062004bc68339818101604052620000a79190810190620007a7565b6000620000b96200043d60201b60201c565b9050806000806101000a81548173ffffffffffffffffffffffffffffffffffffffff021916908373ffffffffffffffffffffffffffffffffffffffff1602179055508073ffffffffffffffffffffffffffffffffffffffff16600073ffffffffffffffffffffffffffffffffffffffff167f8be0079c531659141344cd1fd0a4f28419497f9722a3daafe3b4186f6b6457e060405160405180910390a350620001776200016b6200043d60201b60201c565b6200044560201b60201c565b6000600260006101000a81548160ff021916908315150217905550620001b2620001a66200043d60201b60201c565b620004a660201b60201c565b8160400151620001d76103e884608001516200050760201b6200292d1790919060201c565b11156200021b576040517f08c379a0000000000000000000000000000000000000000000000000000000008152600401620002129062000a07565b60405180910390fd5b8060400151620002406103e883608001516200050760201b6200292d1790919060201c565b111562000284576040517f08c379a00000000000000000000000000000000000000000000000000000000081526004016200027b9062000a07565b60405180910390fd5b8160000151826040015111158015620002a557508160200151826060015111155b620002e7576040517f08c379a0000000000000000000000000000000000000000000000000000000008152600401620002de90620009e5565b60405180910390fd5b80600001518160400151111580156200030857508060200151816060015111155b6200034a576040517f08c379a00000000000000000000000000000000000000000000000000000000081526004016200034190620009e5565b60405180910390fd5b81600560008073ffffffffffffffffffffffffffffffffffffffff1673ffffffffffffffffffffffffffffffffffffffff16815260200190815260200160002060008201518160000155602082015181600101556040820151816002015560608201518160030155608082015181600401559050508060056000600173ffffffffffffffffffffffffffffffffffffffff1673ffffffffffffffffffffffffffffffffffffffff1681526020019081526020016000206000820151816000015560208201518160010155604082015181600201556060820151816003015560808201518160040155905050505062000a8c565b600033905090565b620004608160016200057d60201b62002f8b1790919060201c565b8073ffffffffffffffffffffffffffffffffffffffff167f6719d08c1888103bea251a4ed56406bd0c3e69723c8a1686e017e7bbe159b6f860405160405180910390a250565b620004c18160036200057d60201b62002f8b1790919060201c565b8073ffffffffffffffffffffffffffffffffffffffff167f22380c05984257a1cb900161c713dd71d39e74820f1aea43bd3f1bdd2096129960405160405180910390a250565b6000808314156200051c576000905062000577565b60008284029050828482816200052e57fe5b041462000572576040517f08c379a00000000000000000000000000000000000000000000000000000000081526004016200056990620009a1565b60405180910390fd5b809150505b92915050565b6200058f82826200063060201b60201c565b15620005d2576040517f08c379a0000000000000000000000000000000000000000000000000000000008152600401620005c9906200097f565b60405180910390fd5b60018260000160008373ffffffffffffffffffffffffffffffffffffffff1673ffffffffffffffffffffffffffffffffffffffff16815260200190815260200160002060006101000a81548160ff0219169083151502179055505050565b60008073ffffffffffffffffffffffffffffffffffffffff168273ffffffffffffffffffffffffffffffffffffffff161415620006a4576040517f08c379a00000000000000000000000000000000000000000000000000000000081526004016200069b90620009c3565b60405180910390fd5b8260000160008373ffffffffffffffffffffffffffffffffffffffff1673ffffffffffffffffffffffffffffffffffffffff16815260200190815260200160002060009054906101000a900460ff16905092915050565b600060a082840312156200070e57600080fd5b6200071a60a062000a29565b905060006200072c8482850162000790565b6000830152506020620007428482850162000790565b6020830152506040620007588482850162000790565b60408301525060606200076e8482850162000790565b6060830152506080620007848482850162000790565b60808301525092915050565b600081519050620007a18162000a72565b92915050565b6000806101408385031215620007bc57600080fd5b6000620007cc85828601620006fb565b92505060a0620007df85828601620006fb565b9150509250929050565b6000620007f8601f8362000a57565b91507f526f6c65733a206163636f756e7420616c72656164792068617320726f6c65006000830152602082019050919050565b60006200083a60218362000a57565b91507f536166654d6174683a206d756c7469706c69636174696f6e206f766572666c6f60008301527f77000000000000000000000000000000000000000000000000000000000000006020830152604082019050919050565b6000620008a260228362000a57565b91507f526f6c65733a206163636f756e7420697320746865207a65726f20616464726560008301527f73730000000000000000000000000000000000000000000000000000000000006020830152604082019050919050565b60006200090a60178362000a57565b91507f626f756e6420686967686572207468616e206c696d69740000000000000000006000830152602082019050919050565b60006200094c60138362000a57565b91507f7570706572426f756e6420746f6f2068696768000000000000000000000000006000830152602082019050919050565b600060208201905081810360008301526200099a81620007e9565b9050919050565b60006020820190508181036000830152620009bc816200082b565b9050919050565b60006020820190508181036000830152620009de8162000893565b9050919050565b6000602082019050818103600083015262000a0081620008fb565b9050919050565b6000602082019050818103600083015262000a22816200093d565b9050919050565b6000604051905081810181811067ffffffffffffffff8211171562000a4d57600080fd5b8060405250919050565b600082825260208201905092915050565b6000819050919050565b62000a7d8162000a68565b811462000a8957600080fd5b50565b61412a8062000a9c6000396000f3fe60806040526004361061014b5760003560e01c8063740b49ad116100b65780639c27c7e11161006f5780639c27c7e114610440578063a00d4fc814610469578063aa93748314610492578063bb5f747b146104cf578063f2fde38b1461050c578063f3fef3a3146105355761014b565b8063740b49ad1461035857806382dc1ec4146103815780638456cb59146103aa5780638c1e5d41146103c15780638da5cb5b146103ea5780638f32d59b146104155761014b565b80634f5f4c75116101085780634f5f4c751461025b57806355670f31146102985780635c975abb146102d65780636ef8d66d14610301578063715018a6146103185780637362d9c81461032f5761014b565b806321b5857c1461014d5780633a393554146101765780633f4ba83a146101b357806346fbf68e146101ca57806348132bee146102075780634c5a628c14610244575b005b34801561015957600080fd5b50610174600480360361016f91908101906132a0565b61055e565b005b34801561018257600080fd5b5061019d600480360361019891908101906131d6565b61092b565b6040516101aa9190613f42565b60405180910390f35b3480156101bf57600080fd5b506101c8610ada565b005b3480156101d657600080fd5b506101f160048036036101ec91908101906131d6565b610bd3565b6040516101fe9190613c07565b60405180910390f35b34801561021357600080fd5b5061022e600480360361022991908101906131d6565b610bf0565b60405161023b9190613c07565b60405180910390f35b34801561025057600080fd5b50610259610c8f565b005b34801561026757600080fd5b50610282600480360361027d91908101906131d6565b610ca1565b60405161028f9190613c07565b60405180910390f35b3480156102a457600080fd5b506102bf60048036036102ba91908101906131d6565b610cf7565b6040516102cd929190613f78565b60405180910390f35b3480156102e257600080fd5b506102eb610d1b565b6040516102f89190613c07565b60405180910390f35b34801561030d57600080fd5b50610316610d32565b005b34801561032457600080fd5b5061032d610d44565b005b34801561033b57600080fd5b50610356600480360361035191908101906131d6565b610e4a565b005b34801561036457600080fd5b5061037f600480360361037a9190810190613264565b610ea5565b005b34801561038d57600080fd5b506103a860048036036103a391908101906131d6565b6110f9565b005b3480156103b657600080fd5b506103bf611154565b005b3480156103cd57600080fd5b506103e860048036036103e391908101906132a0565b61124e565b005b3480156103f657600080fd5b506103ff611447565b60405161040c9190613ba8565b60405180910390f35b34801561042157600080fd5b5061042a611470565b6040516104379190613c07565b60405180910390f35b34801561044c57600080fd5b50610467600480360361046291908101906131d6565b6114ce565b005b34801561047557600080fd5b50610490600480360361048b9190810190613264565b6115d7565b005b34801561049e57600080fd5b506104b960048036036104b491908101906131d6565b611890565b6040516104c69190613c07565b60405180910390f35b3480156104db57600080fd5b506104f660048036036104f191908101906131d6565b6118e6565b6040516105039190613c07565b60405180910390f35b34801561051857600080fd5b50610533600480360361052e91908101906131d6565b611903565b005b34801561054157600080fd5b5061055c60048036036105579190810190613228565b611956565b005b61056e610569611b2e565b6118e6565b6105ad576040517f08c379a00000000000000000000000000000000000000000000000000000000081526004016105a490613e02565b60405180910390fd5b60008090505b815181101561092757600073ffffffffffffffffffffffffffffffffffffffff168282815181106105e057fe5b602002602001015173ffffffffffffffffffffffffffffffffffffffff161415801561064c5750600173ffffffffffffffffffffffffffffffffffffffff1682828151811061062b57fe5b602002602001015173ffffffffffffffffffffffffffffffffffffffff1614155b61068b576040517f08c379a000000000000000000000000000000000000000000000000000000000815260040161068290613ee2565b60405180910390fd5b6106bd82828151811061069a57fe5b602002602001015173ffffffffffffffffffffffffffffffffffffffff16611b36565b6106fc576040517f08c379a00000000000000000000000000000000000000000000000000000000081526004016106f390613ec2565b60405180910390fd5b6006600083838151811061070c57fe5b602002602001015173ffffffffffffffffffffffffffffffffffffffff1673ffffffffffffffffffffffffffffffffffffffff16815260200190815260200160002060009054906101000a900460ff166107cc5760016006600084848151811061077257fe5b602002602001015173ffffffffffffffffffffffffffffffffffffffff1673ffffffffffffffffffffffffffffffffffffffff16815260200190815260200160002060006101000a81548160ff0219169083151502179055505b600760008383815181106107dc57fe5b602002602001015173ffffffffffffffffffffffffffffffffffffffff1673ffffffffffffffffffffffffffffffffffffffff16815260200190815260200160002060009054906101000a900460ff161561091a576005600083838151811061084157fe5b602002602001015173ffffffffffffffffffffffffffffffffffffffff1673ffffffffffffffffffffffffffffffffffffffff168152602001908152602001600020600080820160009055600182016000905560028201600090556003820160009055600482016000905550506000600760008484815181106108c057fe5b602002602001015173ffffffffffffffffffffffffffffffffffffffff1673ffffffffffffffffffffffffffffffffffffffff16815260200190815260200160002060006101000a81548160ff0219169083151502179055505b80806001019150506105b3565b5050565b610933613033565b61093c82611890565b156109c457600560008373ffffffffffffffffffffffffffffffffffffffff1673ffffffffffffffffffffffffffffffffffffffff1681526020019081526020016000206040518060a0016040529081600082015481526020016001820154815260200160028201548152602001600382015481526020016004820154815250509050610ad5565b6109cd82610ca1565b15610a565760056000600173ffffffffffffffffffffffffffffffffffffffff1673ffffffffffffffffffffffffffffffffffffffff1681526020019081526020016000206040518060a0016040529081600082015481526020016001820154815260200160028201548152602001600382015481526020016004820154815250509050610ad5565b600560008073ffffffffffffffffffffffffffffffffffffffff1673ffffffffffffffffffffffffffffffffffffffff1681526020019081526020016000206040518060a00160405290816000820154815260200160018201548152602001600282015481526020016003820154815260200160048201548152505090505b919050565b610aea610ae5611b2e565b610bd3565b610b29576040517f08c379a0000000000000000000000000000000000000000000000000000000008152600401610b2090613c82565b60405180910390fd5b600260009054906101000a900460ff16610b78576040517f08c379a0000000000000000000000000000000000000000000000000000000008152600401610b6f90613c22565b60405180910390fd5b6000600260006101000a81548160ff0219169083151502179055507f5db9ee0a495bf2e6ff9c91a7834c1ba4fdd244a5e8aa4e537bd38aeae4b073aa610bbc611b2e565b604051610bc99190613bc3565b60405180910390a1565b6000610be9826001611b8190919063ffffffff16565b9050919050565b6000610bfb82611c49565b80610c0b5750610c0a8261204b565b5b15610c195760019050610c8a565b610c388273ffffffffffffffffffffffffffffffffffffffff16611b36565b610c77576040517f08c379a0000000000000000000000000000000000000000000000000000000008152600401610c6e90613ec2565b60405180910390fd5b610c80826121f1565b610c8982612610565b5b919050565b610c9f610c9a611b2e565b61281f565b565b6000600660008373ffffffffffffffffffffffffffffffffffffffff1673ffffffffffffffffffffffffffffffffffffffff16815260200190815260200160002060009054906101000a900460ff169050919050565b60046020528060005260406000206000915090508060000154908060010154905082565b6000600260009054906101000a900460ff16905090565b610d42610d3d611b2e565b612879565b565b610d4c611470565b610d8b576040517f08c379a0000000000000000000000000000000000000000000000000000000008152600401610d8290613da2565b60405180910390fd5b600073ffffffffffffffffffffffffffffffffffffffff166000809054906101000a900473ffffffffffffffffffffffffffffffffffffffff1673ffffffffffffffffffffffffffffffffffffffff167f8be0079c531659141344cd1fd0a4f28419497f9722a3daafe3b4186f6b6457e060405160405180910390a360008060006101000a81548173ffffffffffffffffffffffffffffffffffffffff021916908373ffffffffffffffffffffffffffffffffffffffff160217905550565b610e5a610e55611b2e565b6118e6565b610e99576040517f08c379a0000000000000000000000000000000000000000000000000000000008152600401610e9090613e02565b60405180910390fd5b610ea2816128d3565b50565b610eb5610eb0611b2e565b6118e6565b610ef4576040517f08c379a0000000000000000000000000000000000000000000000000000000008152600401610eeb90613e02565b60405180910390fd5b600073ffffffffffffffffffffffffffffffffffffffff168273ffffffffffffffffffffffffffffffffffffffff1614158015610f5e5750600173ffffffffffffffffffffffffffffffffffffffff168273ffffffffffffffffffffffffffffffffffffffff1614155b15610fc257610f828273ffffffffffffffffffffffffffffffffffffffff16611b36565b610fc1576040517f08c379a0000000000000000000000000000000000000000000000000000000008152600401610fb890613ec2565b60405180910390fd5b5b8060400151610fe06103e8836080015161292d90919063ffffffff16565b1115611021576040517f08c379a000000000000000000000000000000000000000000000000000000000815260040161101890613f22565b60405180910390fd5b806000015181604001511115801561104157508060200151816060015111155b611080576040517f08c379a000000000000000000000000000000000000000000000000000000000815260040161107790613e62565b60405180910390fd5b80600560008473ffffffffffffffffffffffffffffffffffffffff1673ffffffffffffffffffffffffffffffffffffffff16815260200190815260200160002060008201518160000155602082015181600101556040820151816002015560608201518160030155608082015181600401559050505050565b611109611104611b2e565b610bd3565b611148576040517f08c379a000000000000000000000000000000000000000000000000000000000815260040161113f90613c82565b60405180910390fd5b6111518161299d565b50565b61116461115f611b2e565b610bd3565b6111a3576040517f08c379a000000000000000000000000000000000000000000000000000000000815260040161119a90613c82565b60405180910390fd5b600260009054906101000a900460ff16156111f3576040517f08c379a00000000000000000000000000000000000000000000000000000000081526004016111ea90613d22565b60405180910390fd5b6001600260006101000a81548160ff0219169083151502179055507f62e78cea01bee320cd4e420270b5ea74000d11b0c9f74754ebdbfc544b05a258611237611b2e565b6040516112449190613bc3565b60405180910390a1565b61125e611259611b2e565b6118e6565b61129d576040517f08c379a000000000000000000000000000000000000000000000000000000000815260040161129490613e02565b60405180910390fd5b60008090505b8151811015611443576112c88282815181106112bb57fe5b6020026020010151610ca1565b1561133457600660008383815181106112dd57fe5b602002602001015173ffffffffffffffffffffffffffffffffffffffff1673ffffffffffffffffffffffffffffffffffffffff16815260200190815260200160002060006101000a81549060ff0219169055611436565b61135082828151811061134357fe5b6020026020010151611890565b15611435576007600083838151811061136557fe5b602002602001015173ffffffffffffffffffffffffffffffffffffffff1673ffffffffffffffffffffffffffffffffffffffff16815260200190815260200160002060006101000a81549060ff0219169055600560008383815181106113c757fe5b602002602001015173ffffffffffffffffffffffffffffffffffffffff1673ffffffffffffffffffffffffffffffffffffffff168152602001908152602001600020600080820160009055600182016000905560028201600090556003820160009055600482016000905550505b5b80806001019150506112a3565b5050565b60008060009054906101000a900473ffffffffffffffffffffffffffffffffffffffff16905090565b60008060009054906101000a900473ffffffffffffffffffffffffffffffffffffffff1673ffffffffffffffffffffffffffffffffffffffff166114b2611b2e565b73ffffffffffffffffffffffffffffffffffffffff1614905090565b600260019054906101000a900460ff161561151e576040517f08c379a000000000000000000000000000000000000000000000000000000000815260040161151590613e22565b60405180910390fd5b6001600260016101000a81548160ff021916908315150217905550600260009054906101000a900460ff1615611589576040517f08c379a000000000000000000000000000000000000000000000000000000000815260040161158090613d22565b60405180910390fd5b61159281611c49565b156115a1576115a0816129f7565b5b6115aa8161204b565b156115b9576115b881612bb2565b5b6000600260016101000a81548160ff02191690831515021790555050565b6115e76115e2611b2e565b6118e6565b611626576040517f08c379a000000000000000000000000000000000000000000000000000000000815260040161161d90613e02565b60405180910390fd5b600073ffffffffffffffffffffffffffffffffffffffff168273ffffffffffffffffffffffffffffffffffffffff16141580156116905750600173ffffffffffffffffffffffffffffffffffffffff168273ffffffffffffffffffffffffffffffffffffffff1614155b6116cf576040517f08c379a00000000000000000000000000000000000000000000000000000000081526004016116c690613ee2565b60405180910390fd5b6116ee8273ffffffffffffffffffffffffffffffffffffffff16611b36565b61172d576040517f08c379a000000000000000000000000000000000000000000000000000000000815260040161172490613ec2565b60405180910390fd5b600760008373ffffffffffffffffffffffffffffffffffffffff1673ffffffffffffffffffffffffffffffffffffffff16815260200190815260200160002060009054906101000a900460ff166117d7576001600760008473ffffffffffffffffffffffffffffffffffffffff1673ffffffffffffffffffffffffffffffffffffffff16815260200190815260200160002060006101000a81548160ff0219169083151502179055505b600660008373ffffffffffffffffffffffffffffffffffffffff1673ffffffffffffffffffffffffffffffffffffffff16815260200190815260200160002060009054906101000a900460ff1615611882576000600660008473ffffffffffffffffffffffffffffffffffffffff1673ffffffffffffffffffffffffffffffffffffffff16815260200190815260200160002060006101000a81548160ff0219169083151502179055505b61188c8282610ea5565b5050565b6000600760008373ffffffffffffffffffffffffffffffffffffffff1673ffffffffffffffffffffffffffffffffffffffff16815260200190815260200160002060009054906101000a900460ff169050919050565b60006118fc826003611b8190919063ffffffff16565b9050919050565b61190b611470565b61194a576040517f08c379a000000000000000000000000000000000000000000000000000000000815260040161194190613da2565b60405180910390fd5b61195381612d61565b50565b61195e611470565b61199d576040517f08c379a000000000000000000000000000000000000000000000000000000000815260040161199490613da2565b60405180910390fd5b600260019054906101000a900460ff16156119ed576040517f08c379a00000000000000000000000000000000000000000000000000000000081526004016119e490613e22565b60405180910390fd5b6001600260016101000a81548160ff021916908315150217905550803073ffffffffffffffffffffffffffffffffffffffff16311015611a62576040517f08c379a0000000000000000000000000000000000000000000000000000000008152600401611a5990613de2565b60405180910390fd5b60008273ffffffffffffffffffffffffffffffffffffffff1682604051611a8890613b93565b60006040518083038185875af1925050503d8060008114611ac5576040519150601f19603f3d011682016040523d82523d6000602084013e611aca565b606091505b5050905080611b0e576040517f08c379a0000000000000000000000000000000000000000000000000000000008152600401611b0590613f02565b60405180910390fd5b506000600260016101000a81548160ff0219169083151502179055505050565b600033905090565b60008060007fc5d2460186f7233c927e7db2dcc703c0e500b653ca82273b7bfad8045d85a47060001b9050833f9150808214158015611b7857506000801b8214155b92505050919050565b60008073ffffffffffffffffffffffffffffffffffffffff168273ffffffffffffffffffffffffffffffffffffffff161415611bf2576040517f08c379a0000000000000000000000000000000000000000000000000000000008152600401611be990613dc2565b60405180910390fd5b8260000160008373ffffffffffffffffffffffffffffffffffffffff1673ffffffffffffffffffffffffffffffffffffffff16815260200190815260200160002060009054906101000a900460ff16905092915050565b6000611c6a8273ffffffffffffffffffffffffffffffffffffffff16611b36565b611c775760009050612046565b6000600860009054906101000a900473ffffffffffffffffffffffffffffffffffffffff1673ffffffffffffffffffffffffffffffffffffffff1663b3b28fac846040518263ffffffff1660e01b8152600401611cd49190613ba8565b602060405180830381600087803b158015611cee57600080fd5b505af1158015611d02573d6000803e3d6000fd5b505050506040513d601f19601f82011682018060405250611d2691908101906132e1565b90506000600860009054906101000a900473ffffffffffffffffffffffffffffffffffffffff1673ffffffffffffffffffffffffffffffffffffffff166333a1af31856040518263ffffffff1660e01b8152600401611d859190613ba8565b602060405180830381600087803b158015611d9f57600080fd5b505af1158015611db3573d6000803e3d6000fd5b505050506040513d601f19601f82011682018060405250611dd791908101906131ff565b9050611de1613033565b611dea8561092b565b90506000816040015190506000826000015190503073ffffffffffffffffffffffffffffffffffffffff168473ffffffffffffffffffffffffffffffffffffffff161480611e645750600073ffffffffffffffffffffffffffffffffffffffff168473ffffffffffffffffffffffffffffffffffffffff16145b15611efb57813073ffffffffffffffffffffffffffffffffffffffff163110158015611e8f57508185105b8015611eef575080611eec83600460008b73ffffffffffffffffffffffffffffffffffffffff1673ffffffffffffffffffffffffffffffffffffffff16815260200190815260200160002060000154612e8f90919063ffffffff16565b11155b95505050505050612046565b6000600860009054906101000a900473ffffffffffffffffffffffffffffffffffffffff1673ffffffffffffffffffffffffffffffffffffffff1663d665f9dd896040518263ffffffff1660e01b8152600401611f589190613ba8565b602060405180830381600087803b158015611f7257600080fd5b505af1158015611f86573d6000803e3d6000fd5b505050506040513d601f19601f82011682018060405250611faa91908101906132e1565b90508086108015611fd25750823073ffffffffffffffffffffffffffffffffffffffff163110155b8015611fdd57508286105b801561203d57508161203a84600460008c73ffffffffffffffffffffffffffffffffffffffff1673ffffffffffffffffffffffffffffffffffffffff16815260200190815260200160002060000154612e8f90919063ffffffff16565b11155b96505050505050505b919050565b600061206c8273ffffffffffffffffffffffffffffffffffffffff16611b36565b61207957600090506121ec565b6000600860009054906101000a900473ffffffffffffffffffffffffffffffffffffffff1673ffffffffffffffffffffffffffffffffffffffff1663d47e9a57846040518263ffffffff1660e01b81526004016120d69190613ba8565b602060405180830381600087803b1580156120f057600080fd5b505af1158015612104573d6000803e3d6000fd5b505050506040513d601f19601f8201168201806040525061212891908101906132e1565b9050612132613033565b61213b8461092b565b9050600081606001519050600082602001519050813073ffffffffffffffffffffffffffffffffffffffff16311015801561217557508184105b80156121d55750806121d283600460008a73ffffffffffffffffffffffffffffffffffffffff1673ffffffffffffffffffffffffffffffffffffffff16815260200190815260200160002060010154612e8f90919063ffffffff16565b11155b156121e75760019450505050506121ec565b505050505b919050565b6000600860009054906101000a900473ffffffffffffffffffffffffffffffffffffffff1673ffffffffffffffffffffffffffffffffffffffff166333a1af31836040518263ffffffff1660e01b815260040161224e9190613ba8565b602060405180830381600087803b15801561226857600080fd5b505af115801561227c573d6000803e3d6000fd5b505050506040513d601f19601f820116820180604052506122a091908101906131ff565b90506000600860009054906101000a900473ffffffffffffffffffffffffffffffffffffffff1673ffffffffffffffffffffffffffffffffffffffff1663b3b28fac846040518263ffffffff1660e01b81526004016122ff9190613ba8565b602060405180830381600087803b15801561231957600080fd5b505af115801561232d573d6000803e3d6000fd5b505050506040513d601f19601f8201168201806040525061235191908101906132e1565b905061235b613033565b6123648461092b565b90506000816040015190506000826000015190503073ffffffffffffffffffffffffffffffffffffffff168573ffffffffffffffffffffffffffffffffffffffff16141580156123e15750600073ffffffffffffffffffffffffffffffffffffffff168573ffffffffffffffffffffffffffffffffffffffff1614155b156124d557600860009054906101000a900473ffffffffffffffffffffffffffffffffffffffff1673ffffffffffffffffffffffffffffffffffffffff1663d665f9dd876040518263ffffffff1660e01b81526004016124419190613ba8565b602060405180830381600087803b15801561245b57600080fd5b505af115801561246f573d6000803e3d6000fd5b505050506040513d601f19601f8201168201806040525061249391908101906132e1565b84106124d4576040517f08c379a00000000000000000000000000000000000000000000000000000000081526004016124cb90613ea2565b60405180910390fd5b5b813073ffffffffffffffffffffffffffffffffffffffff1631101561252f576040517f08c379a000000000000000000000000000000000000000000000000000000000815260040161252690613ca2565b60405180910390fd5b818410612571576040517f08c379a000000000000000000000000000000000000000000000000000000000815260040161256890613ce2565b60405180910390fd5b806125c783600460008a73ffffffffffffffffffffffffffffffffffffffff1673ffffffffffffffffffffffffffffffffffffffff16815260200190815260200160002060000154612e8f90919063ffffffff16565b1115612608576040517f08c379a00000000000000000000000000000000000000000000000000000000081526004016125ff90613e82565b60405180910390fd5b505050505050565b6000600860009054906101000a900473ffffffffffffffffffffffffffffffffffffffff1673ffffffffffffffffffffffffffffffffffffffff1663d47e9a57836040518263ffffffff1660e01b815260040161266d9190613ba8565b602060405180830381600087803b15801561268757600080fd5b505af115801561269b573d6000803e3d6000fd5b505050506040513d601f19601f820116820180604052506126bf91908101906132e1565b90506126c9613033565b6126d28361092b565b9050600081606001519050600082602001519050813073ffffffffffffffffffffffffffffffffffffffff16311015612740576040517f08c379a000000000000000000000000000000000000000000000000000000000815260040161273790613d42565b60405180910390fd5b818410612782576040517f08c379a000000000000000000000000000000000000000000000000000000000815260040161277990613c62565b60405180910390fd5b806127d883600460008973ffffffffffffffffffffffffffffffffffffffff1673ffffffffffffffffffffffffffffffffffffffff16815260200190815260200160002060010154612e8f90919063ffffffff16565b10612818576040517f08c379a000000000000000000000000000000000000000000000000000000000815260040161280f90613e42565b60405180910390fd5b5050505050565b612833816003612ee490919063ffffffff16565b8073ffffffffffffffffffffffffffffffffffffffff167f0a8eb35e5ca14b3d6f28e4abf2f128dbab231a58b56e89beb5d636115001e16560405160405180910390a250565b61288d816001612ee490919063ffffffff16565b8073ffffffffffffffffffffffffffffffffffffffff167fcd265ebaf09df2871cc7bd4133404a235ba12eff2041bb89d9c714a2621c7c7e60405160405180910390a250565b6128e7816003612f8b90919063ffffffff16565b8073ffffffffffffffffffffffffffffffffffffffff167f22380c05984257a1cb900161c713dd71d39e74820f1aea43bd3f1bdd2096129960405160405180910390a250565b6000808314156129405760009050612997565b600082840290508284828161295157fe5b0414612992576040517f08c379a000000000000000000000000000000000000000000000000000000000815260040161298990613d82565b60405180910390fd5b809150505b92915050565b6129b1816001612f8b90919063ffffffff16565b8073ffffffffffffffffffffffffffffffffffffffff167f6719d08c1888103bea251a4ed56406bd0c3e69723c8a1686e017e7bbe159b6f860405160405180910390a250565b6129ff613033565b612a088261092b565b9050600081604001519050600082608001519050600860009054906101000a900473ffffffffffffffffffffffffffffffffffffffff1673ffffffffffffffffffffffffffffffffffffffff16633e3e64288386846040518463ffffffff1660e01b8152600401612a7a929190613bde565b6000604051808303818588803b158015612a9357600080fd5b505af1158015612aa7573d6000803e3d6000fd5b5050505050612b0182600460008773ffffffffffffffffffffffffffffffffffffffff1673ffffffffffffffffffffffffffffffffffffffff16815260200190815260200160002060000154612e8f90919063ffffffff16565b600460008673ffffffffffffffffffffffffffffffffffffffff1673ffffffffffffffffffffffffffffffffffffffff168152602001908152602001600020600001819055508373ffffffffffffffffffffffffffffffffffffffff163373ffffffffffffffffffffffffffffffffffffffff167f0d517b7814d6361097aa44db26ae46a4e1244686721c5f28206a9605dc413c4a84604051612ba49190613f5d565b60405180910390a350505050565b612bba613033565b612bc38261092b565b9050600081606001519050600860009054906101000a900473ffffffffffffffffffffffffffffffffffffffff1673ffffffffffffffffffffffffffffffffffffffff1663e66c1bea82856040518363ffffffff1660e01b8152600401612c2a9190613ba8565b6000604051808303818588803b158015612c4357600080fd5b505af1158015612c57573d6000803e3d6000fd5b5050505050612cb181600460008673ffffffffffffffffffffffffffffffffffffffff1673ffffffffffffffffffffffffffffffffffffffff16815260200190815260200160002060010154612e8f90919063ffffffff16565b600460008573ffffffffffffffffffffffffffffffffffffffff1673ffffffffffffffffffffffffffffffffffffffff168152602001908152602001600020600101819055508273ffffffffffffffffffffffffffffffffffffffff163373ffffffffffffffffffffffffffffffffffffffff167f0d517b7814d6361097aa44db26ae46a4e1244686721c5f28206a9605dc413c4a83604051612d549190613f5d565b60405180910390a3505050565b600073ffffffffffffffffffffffffffffffffffffffff168173ffffffffffffffffffffffffffffffffffffffff161415612dd1576040517f08c379a0000000000000000000000000000000000000000000000000000000008152600401612dc890613cc2565b60405180910390fd5b8073ffffffffffffffffffffffffffffffffffffffff166000809054906101000a900473ffffffffffffffffffffffffffffffffffffffff1673ffffffffffffffffffffffffffffffffffffffff167f8be0079c531659141344cd1fd0a4f28419497f9722a3daafe3b4186f6b6457e060405160405180910390a3806000806101000a81548173ffffffffffffffffffffffffffffffffffffffff021916908373ffffffffffffffffffffffffffffffffffffffff16021790555050565b600080828401905083811015612eda576040517f08c379a0000000000000000000000000000000000000000000000000000000008152600401612ed190613d02565b60405180910390fd5b8091505092915050565b612eee8282611b81565b612f2d576040517f08c379a0000000000000000000000000000000000000000000000000000000008152600401612f2490613d62565b60405180910390fd5b60008260000160008373ffffffffffffffffffffffffffffffffffffffff1673ffffffffffffffffffffffffffffffffffffffff16815260200190815260200160002060006101000a81548160ff0219169083151502179055505050565b612f958282611b81565b15612fd5576040517f08c379a0000000000000000000000000000000000000000000000000000000008152600401612fcc90613c42565b60405180910390fd5b60018260000160008373ffffffffffffffffffffffffffffffffffffffff1673ffffffffffffffffffffffffffffffffffffffff16815260200190815260200160002060006101000a81548160ff0219169083151502179055505050565b6040518060a0016040528060008152602001600081526020016000815260200160008152602001600081525090565b600081359050613071816140a2565b92915050565b600081519050613086816140a2565b92915050565b60008135905061309b816140b9565b92915050565b600082601f8301126130b257600080fd5b81356130c56130c082613fce565b613fa1565b915081818352602084019350602081019050838560208402820111156130ea57600080fd5b60005b8381101561311a57816131008882613062565b8452602084019350602083019250506001810190506130ed565b5050505092915050565b600060a0828403121561313657600080fd5b61314060a0613fa1565b90506000613150848285016131ac565b6000830152506020613164848285016131ac565b6020830152506040613178848285016131ac565b604083015250606061318c848285016131ac565b60608301525060806131a0848285016131ac565b60808301525092915050565b6000813590506131bb816140d0565b92915050565b6000815190506131d0816140d0565b92915050565b6000602082840312156131e857600080fd5b60006131f684828501613062565b91505092915050565b60006020828403121561321157600080fd5b600061321f84828501613077565b91505092915050565b6000806040838503121561323b57600080fd5b60006132498582860161308c565b925050602061325a858286016131ac565b9150509250929050565b60008060c0838503121561327757600080fd5b600061328585828601613062565b925050602061329685828601613124565b9150509250929050565b6000602082840312156132b257600080fd5b600082013567ffffffffffffffff8111156132cc57600080fd5b6132d8848285016130a1565b91505092915050565b6000602082840312156132f357600080fd5b6000613301848285016131c1565b91505092915050565b6133138161406c565b82525050565b61332281614012565b82525050565b61333181614036565b82525050565b6000613344601483614001565b91507f5061757361626c653a206e6f74207061757365640000000000000000000000006000830152602082019050919050565b6000613384601f83614001565b91507f526f6c65733a206163636f756e7420616c72656164792068617320726f6c65006000830152602082019050919050565b60006133c4602683614001565b91507f4552524f525f434f4c4c41544552414c5f53504f4e534f5245445f46554e445f60008301527f554e5553454400000000000000000000000000000000000000000000000000006020830152604082019050919050565b600061342a603083614001565b91507f506175736572526f6c653a2063616c6c657220646f6573206e6f74206861766560008301527f207468652050617573657220726f6c65000000000000000000000000000000006020830152604082019050919050565b6000613490601d83614001565b91507f4552524f525f4741535f4641554345545f4f55545f4f465f4d4f4e45590000006000830152602082019050919050565b60006134d0602683614001565b91507f4f776e61626c653a206e6577206f776e657220697320746865207a65726f206160008301527f64647265737300000000000000000000000000000000000000000000000000006020830152604082019050919050565b6000613536601f83614001565b91507f4552524f525f4741535f53504f4e534f5245445f46554e445f554e55534544006000830152602082019050919050565b6000613576601b83614001565b91507f536166654d6174683a206164646974696f6e206f766572666c6f7700000000006000830152602082019050919050565b60006135b6601083614001565b91507f5061757361626c653a20706175736564000000000000000000000000000000006000830152602082019050919050565b60006135f6602483614001565b91507f4552524f525f434f4c4c41544552414c5f4641554345545f4f55545f4f465f4d60008301527f4f4e4559000000000000000000000000000000000000000000000000000000006020830152604082019050919050565b600061365c602183614001565b91507f526f6c65733a206163636f756e7420646f6573206e6f74206861766520726f6c60008301527f65000000000000000000000000000000000000000000000000000000000000006020830152604082019050919050565b60006136c2602183614001565b91507f536166654d6174683a206d756c7469706c69636174696f6e206f766572666c6f60008301527f77000000000000000000000000000000000000000000000000000000000000006020830152604082019050919050565b6000613728602083614001565b91507f4f776e61626c653a2063616c6c6572206973206e6f7420746865206f776e65726000830152602082019050919050565b6000613768602283614001565b91507f526f6c65733a206163636f756e7420697320746865207a65726f20616464726560008301527f73730000000000000000000000000000000000000000000000000000000000006020830152604082019050919050565b60006137ce600f83614001565b91507f616d6f756e7420746f6f206869676800000000000000000000000000000000006000830152602082019050919050565b600061380e604083614001565b91507f57686974656c69737441646d696e526f6c653a2063616c6c657220646f65732060008301527f6e6f742068617665207468652057686974656c69737441646d696e20726f6c656020830152604082019050919050565b6000613874601283614001565b91507f5245454e5452414e43595f494c4c4547414c00000000000000000000000000006000830152602082019050919050565b60006138b4602c83614001565b91507f4552524f525f434f4c4c41544552414c5f4f5645525f434f4c4c41544552414c60008301527f5f544f54414c5f4c494d495400000000000000000000000000000000000000006020830152604082019050919050565b600061391a600083613ff6565b9150600082019050919050565b6000613934601783614001565b91507f626f756e6420686967686572207468616e206c696d69740000000000000000006000830152602082019050919050565b6000613974601e83614001565b91507f4552524f525f4741535f4f5645525f4741535f544f54414c5f4c494d495400006000830152602082019050919050565b60006139b4602c83614001565b91507f4552524f525f4741535f43414e4e4f545f5245504c4143455f54484952445f5060008301527f415254595f53504f4e534f5200000000000000000000000000000000000000006020830152604082019050919050565b6000613a1a601d83614001565b91507f4552524f525f414444524553535f49535f4e4f545f434f4e54524143540000006000830152602082019050919050565b6000613a5a601f83614001565b91507f726573657276656420616464726573732063616e2774206265206164646564006000830152602082019050919050565b6000613a9a600f83614001565b91507f7769746864726177206661696c656400000000000000000000000000000000006000830152602082019050919050565b6000613ada601383614001565b91507f7570706572426f756e6420746f6f2068696768000000000000000000000000006000830152602082019050919050565b60a082016000820151613b236000850182613b75565b506020820151613b366020850182613b75565b506040820151613b496040850182613b75565b506060820151613b5c6060850182613b75565b506080820151613b6f6080850182613b75565b50505050565b613b7e81614062565b82525050565b613b8d81614062565b82525050565b6000613b9e8261390d565b9150819050919050565b6000602082019050613bbd6000830184613319565b92915050565b6000602082019050613bd8600083018461330a565b92915050565b6000604082019050613bf36000830185613319565b613c006020830184613b84565b9392505050565b6000602082019050613c1c6000830184613328565b92915050565b60006020820190508181036000830152613c3b81613337565b9050919050565b60006020820190508181036000830152613c5b81613377565b9050919050565b60006020820190508181036000830152613c7b816133b7565b9050919050565b60006020820190508181036000830152613c9b8161341d565b9050919050565b60006020820190508181036000830152613cbb81613483565b9050919050565b60006020820190508181036000830152613cdb816134c3565b9050919050565b60006020820190508181036000830152613cfb81613529565b9050919050565b60006020820190508181036000830152613d1b81613569565b9050919050565b60006020820190508181036000830152613d3b816135a9565b9050919050565b60006020820190508181036000830152613d5b816135e9565b9050919050565b60006020820190508181036000830152613d7b8161364f565b9050919050565b60006020820190508181036000830152613d9b816136b5565b9050919050565b60006020820190508181036000830152613dbb8161371b565b9050919050565b60006020820190508181036000830152613ddb8161375b565b9050919050565b60006020820190508181036000830152613dfb816137c1565b9050919050565b60006020820190508181036000830152613e1b81613801565b9050919050565b60006020820190508181036000830152613e3b81613867565b9050919050565b60006020820190508181036000830152613e5b816138a7565b9050919050565b60006020820190508181036000830152613e7b81613927565b9050919050565b60006020820190508181036000830152613e9b81613967565b9050919050565b60006020820190508181036000830152613ebb816139a7565b9050919050565b60006020820190508181036000830152613edb81613a0d565b9050919050565b60006020820190508181036000830152613efb81613a4d565b9050919050565b60006020820190508181036000830152613f1b81613a8d565b9050919050565b60006020820190508181036000830152613f3b81613acd565b9050919050565b600060a082019050613f576000830184613b0d565b92915050565b6000602082019050613f726000830184613b84565b92915050565b6000604082019050613f8d6000830185613b84565b613f9a6020830184613b84565b9392505050565b6000604051905081810181811067ffffffffffffffff82111715613fc457600080fd5b8060405250919050565b600067ffffffffffffffff821115613fe557600080fd5b602082029050602081019050919050565b600081905092915050565b600082825260208201905092915050565b600061401d82614042565b9050919050565b600061402f82614042565b9050919050565b60008115159050919050565b600073ffffffffffffffffffffffffffffffffffffffff82169050919050565b6000819050919050565b60006140778261407e565b9050919050565b600061408982614090565b9050919050565b600061409b82614042565b9050919050565b6140ab81614012565b81146140b657600080fd5b50565b6140c281614024565b81146140cd57600080fd5b50565b6140d981614062565b81146140e457600080fd5b5056fea365627a7a72315820042689a05811d182a721610c217ef1735ea5b7ce516ecb49816760f1c4c939d96c6578706572696d656e74616cf564736f6c634300050b0040",
  "source": "pragma solidity 0.5.11;\npragma experimental ABIEncoderV2;\n\nimport \"@openzeppelin/contracts/ownership/Ownable.sol\";\nimport \"@openzeppelin/contracts/lifecycle/Pausable.sol\";\nimport \"@openzeppelin/contracts/access/roles/WhitelistAdminRole.sol\";\nimport \"@openzeppelin/contracts/math/SafeMath.sol\";\nimport \"@openzeppelin/contracts/utils/Address.sol\";\nimport \"./Lib/ReentrancyGuard.sol\";\nimport \"./InternalContract.sol\";\n\ncontract SponsorFaucet is\n    Ownable,\n    Pausable,\n    ReentrancyGuard,\n    WhitelistAdminRole\n{\n    using SafeMath for uint256;\n    using Address for address;\n\n    struct Detail {\n        //current accumulated sponsored amout for gas\n        uint256 gas_amount_accumulated;\n        //current total sponsored amount for collateral\n        uint256 collateral_amount_accumulated;\n    }\n\n    struct Bounds {\n        //total sponsored limit\n        uint256 gas_total_limit;\n        uint256 collateral_total_limit;\n        //single sponsor bound\n        uint256 gas_bound;\n        uint256 collateral_bound;\n        //upper bound for single tx\n        uint256 upper_bound;\n    }\n\n    //constant address used as key for small and large\n    address constant small = 0x0000000000000000000000000000000000000000;\n    address constant large = 0x0000000000000000000000000000000000000001;\n\n    // for all contracts\n    mapping(address => Detail) public dapps;\n\n    // bounds for contracts\n    mapping(address => Bounds) private dapp_bounds;\n\n    mapping(address => bool) private large_contracts;\n    mapping(address => bool) private custom_contracts;\n\n    event applied(\n        address indexed applicant,\n        address indexed dapp,\n        uint256 amount\n    );\n\n    SponsorWhitelistControl internal_sponsor = SponsorWhitelistControl(\n        0x0888000000000000000000000000000000000001\n    );\n\n    constructor(Bounds memory smallBounds, Bounds memory largeBounds) public {\n        //rule by internal contract\n        require(\n            smallBounds.upper_bound.mul(1000) <= smallBounds.gas_bound,\n            \"upperBound too high\"\n        );\n        require(\n            largeBounds.upper_bound.mul(1000) <= largeBounds.gas_bound,\n            \"upperBound too high\"\n        );\n        //bound and limit check\n        require(\n            smallBounds.gas_bound <= smallBounds.gas_total_limit && \n            smallBounds.collateral_bound <= smallBounds.collateral_total_limit,\n            \"bound higher than limit\"\n        );\n        require(\n            largeBounds.gas_bound <= largeBounds.gas_total_limit && \n            largeBounds.collateral_bound <= largeBounds.collateral_total_limit,\n            \"bound higher than limit\"\n        );\n        dapp_bounds[small] = smallBounds;\n        dapp_bounds[large] = largeBounds;\n    }\n\n    /*** Dapp dev calls ***/\n    /**\n     * @dev apply gas and collateral for contract\n     * @param dapp contract address\n     */\n    function applyGasAndCollateral(address dapp)\n        public\n        nonReentrant\n        whenNotPaused\n    {\n        if (_isAppliableForGas(dapp)) _applyForGas(dapp);\n        if (_isAppliableForCollateral(dapp)) _applyForCollateral(dapp);\n    }\n\n    /**\n     * @dev check if a contract can be sponsored and if not throw error code\n     * @param dapp contract address\n     */\n    function isAppliable(address dapp) public returns (bool) {\n        if (_isAppliableForGas(dapp) || _isAppliableForCollateral(dapp))\n            return true;\n        require(dapp.isContract(), \"ERROR_ADDRESS_IS_NOT_CONTRACT\");\n        _validateApplyForGas(dapp);\n        _validateApplyForCollateral(dapp);\n    }\n\n    /**\n     * @dev accept sponsor's cfx\n     */\n    function() external payable {}\n\n    /**\n     * @dev withdraw to specific address by amount\n     * @param sponsor withdrawal refund address\n     * @param amount withdrawal amount\n     */\n    function withdraw(address payable sponsor, uint256 amount)\n        public\n        onlyOwner\n        nonReentrant\n    {\n        require(address(this).balance >= amount, \"amount too high\");\n        (bool success, ) = sponsor.call.value(amount)(\"\");\n        require(success, \"withdraw failed\");\n    }\n\n    /**\n     * @dev set bounds for sponsorship\n     * @param addr contract address to be sponsored, small => 0x0...0, large => 0x0...1, custom => contract address\n     * @param bounds structed bounds for contract\n     */\n    function setBounds(address addr, Bounds memory bounds) public onlyWhitelistAdmin {\n        if(addr != small && addr != large) {\n            require(addr.isContract(), \"ERROR_ADDRESS_IS_NOT_CONTRACT\");\n        }\n        //rule by internal contract\n        require(\n            bounds.upper_bound.mul(1000) <= bounds.gas_bound,\n            \"upperBound too high\"\n        );\n        //bound and limit check\n        require(\n            bounds.gas_bound <= bounds.gas_total_limit &&\n            bounds.collateral_bound <= bounds.collateral_total_limit,\n            \"bound higher than limit\"\n        );\n        dapp_bounds[addr] = bounds;\n    }\n\n    /**\n     * @dev get contract bounds\n     * @param dapp contract address\n     */\n    function getBounds(address dapp) public view returns (Bounds memory) {\n        if(isCustomContract(dapp)) return dapp_bounds[dapp];\n        if(isLargeContract(dapp)) return dapp_bounds[large];\n        return dapp_bounds[small];\n    } \n\n    /* ===== Public utility functions ===== */\n    /**\n     * @dev add contract addresses to large_contracts list\n     * @param addrList contract address list\n     */\n    function addLargeContracts(address[] memory addrList) public onlyWhitelistAdmin {\n        for (uint256 i = 0; i < addrList.length; i++) {\n            require(addrList[i] != small && addrList[i] != large, \"reserved address can't be added\");\n            require(addrList[i].isContract(), \"ERROR_ADDRESS_IS_NOT_CONTRACT\");\n            if(!large_contracts[addrList[i]]) large_contracts[addrList[i]] = true;\n            if (custom_contracts[addrList[i]]) {\n                delete dapp_bounds[addrList[i]];\n                custom_contracts[addrList[i]] = false;\n            }\n        }\n    }\n\n    /**\n     * @dev add contract address to custom_contracts list\n     * @param addr contract address\n     * @param bounds bounds\n     */\n    function addCustomContracts(\n        address addr,\n        Bounds memory bounds\n    ) public onlyWhitelistAdmin {\n        require(addr != small && addr != large, \"reserved address can't be added\");\n        require(addr.isContract(), \"ERROR_ADDRESS_IS_NOT_CONTRACT\");\n        if(!custom_contracts[addr]) custom_contracts[addr] = true;\n        if(large_contracts[addr]) large_contracts[addr] = false;\n        setBounds(addr, bounds);\n    }\n\n    /**\n     * @dev remove contract from large_contracts/custom_contracts list\n     * @param addrList contract address list\n     */\n    function removeContract(address[] memory addrList) public onlyWhitelistAdmin {\n        for (uint256 i = 0; i < addrList.length; i++) {\n            if(isLargeContract(addrList[i])) {\n                delete large_contracts[addrList[i]];\n            } else if (isCustomContract(addrList[i])) {\n                delete custom_contracts[addrList[i]];\n                delete dapp_bounds[addrList[i]];\n            }\n        }\n    }\n\n    /**\n     * @dev check if contract in large_contracts list\n     * @param dapp contract address\n     */\n    function isLargeContract(address dapp) public view returns (bool) {\n        return large_contracts[dapp];\n    }\n\n    /**\n     * @dev check if contract in custom_contracts list\n     * @param dapp contract address\n     */\n    function isCustomContract(address dapp) public view returns (bool) {\n        return custom_contracts[dapp];\n    }\n\n    /*** internal helper functions ***/\n\n    function _isAppliableForGas(address dapp) internal returns (bool) {\n        if (!dapp.isContract()) return false;\n        uint256 gas_balance = internal_sponsor.getSponsoredBalanceForGas(dapp);\n        address current_sponsor = internal_sponsor.getSponsorForGas(dapp);\n        Bounds memory current_bounds = getBounds(dapp);\n        uint256 contract_gas_bound = current_bounds.gas_bound;\n        uint256 contract_gas_total_limit = current_bounds.gas_total_limit; \n\n        if (\n            current_sponsor == address(this) ||\n            current_sponsor ==\n            address(0x0000000000000000000000000000000000000000)\n        ) {\n            return\n                address(this).balance >= contract_gas_bound &&\n                gas_balance < contract_gas_bound &&\n                dapps[dapp].gas_amount_accumulated.add(contract_gas_bound) <=\n                contract_gas_total_limit;\n        }\n\n        uint256 current_upper_bound = internal_sponsor\n            .getSponsoredGasFeeUpperBound(dapp);\n        return\n            gas_balance < current_upper_bound &&\n            address(this).balance >= contract_gas_bound &&\n            gas_balance < contract_gas_bound &&\n            dapps[dapp].gas_amount_accumulated.add(contract_gas_bound) <=\n            contract_gas_total_limit;\n    }\n\n    function _validateApplyForGas(address dapp) internal {\n        address current_sponsor = internal_sponsor.getSponsorForGas(dapp);\n        uint256 gas_balance = internal_sponsor.getSponsoredBalanceForGas(dapp);\n        Bounds memory current_bounds = getBounds(dapp);\n        uint256 contract_gas_bound = current_bounds.gas_bound;\n        uint256 contract_gas_total_limit = current_bounds.gas_total_limit;\n\n        if (\n            current_sponsor != address(this) &&\n            current_sponsor !=\n            address(0x0000000000000000000000000000000000000000)\n        ) {\n            require(\n                gas_balance <\n                    internal_sponsor.getSponsoredGasFeeUpperBound(dapp),\n                \"ERROR_GAS_CANNOT_REPLACE_THIRD_PARTY_SPONSOR\"\n            );\n        }\n        require(\n            address(this).balance >= contract_gas_bound,\n            \"ERROR_GAS_FAUCET_OUT_OF_MONEY\"\n        );\n        require(\n            gas_balance < contract_gas_bound,\n            \"ERROR_GAS_SPONSORED_FUND_UNUSED\"\n        );\n        require(\n            dapps[dapp].gas_amount_accumulated.add(contract_gas_bound) <=\n                contract_gas_total_limit,\n            \"ERROR_GAS_OVER_GAS_TOTAL_LIMIT\"\n        );\n    }\n\n    function _isAppliableForCollateral(address dapp) internal returns (bool) {\n        if (!dapp.isContract()) return false;\n        uint256 collateral_balance = internal_sponsor\n            .getSponsoredBalanceForCollateral(dapp);\n        Bounds memory current_bounds = getBounds(dapp);\n        uint256 contract_collateral_bound = current_bounds.collateral_bound;\n        uint256 contract_collateral_total_limit = current_bounds.collateral_total_limit;\n        \n        if (\n            address(this).balance >= contract_collateral_bound &&\n            collateral_balance < contract_collateral_bound &&\n            dapps[dapp].collateral_amount_accumulated.add(\n                contract_collateral_bound\n            ) <=\n            contract_collateral_total_limit\n        ) {\n            return true;\n        }\n    }\n\n    function _validateApplyForCollateral(address dapp) internal {\n        uint256 collateral_balance = internal_sponsor\n            .getSponsoredBalanceForCollateral(dapp);\n        Bounds memory current_bounds = getBounds(dapp);\n        uint256 contract_collateral_bound = current_bounds.collateral_bound;\n        uint256 contract_collateral_total_limit = current_bounds.collateral_total_limit;\n        \n        require(\n            address(this).balance >= contract_collateral_bound,\n            \"ERROR_COLLATERAL_FAUCET_OUT_OF_MONEY\"\n        );\n        require(\n            collateral_balance < contract_collateral_bound,\n            \"ERROR_COLLATERAL_SPONSORED_FUND_UNUSED\"\n        );\n        require(\n            dapps[dapp].collateral_amount_accumulated.add(\n                contract_collateral_bound\n            ) < contract_collateral_total_limit,\n            \"ERROR_COLLATERAL_OVER_COLLATERAL_TOTAL_LIMIT\"\n        );\n    }\n\n    function _applyForGas(address dapp) internal {\n        Bounds memory current_bounds = getBounds(dapp);\n        uint256 contract_gas_bound = current_bounds.gas_bound;\n        uint256 contract_upper_bound = current_bounds.upper_bound; \n        \n        internal_sponsor.setSponsorForGas.value(contract_gas_bound)(\n            dapp,\n            contract_upper_bound\n        );\n        dapps[dapp].gas_amount_accumulated = dapps[dapp]\n            .gas_amount_accumulated\n            .add(contract_gas_bound);\n        emit applied(msg.sender, dapp, contract_gas_bound);\n    }\n\n    function _applyForCollateral(address dapp) internal {\n        Bounds memory current_bounds = getBounds(dapp);\n        uint256 contract_collateral_bound = current_bounds.collateral_bound;\n        \n        internal_sponsor.setSponsorForCollateral.value(\n            contract_collateral_bound\n        )(dapp);\n        dapps[dapp].collateral_amount_accumulated = dapps[dapp]\n            .collateral_amount_accumulated\n            .add(contract_collateral_bound);\n        emit applied(msg.sender, dapp, contract_collateral_bound);\n    }\n}\n",
  "sourcePath": "/Users/xiongyu/conflux-sponsor-faucet/contracts/SponsorFaucet.sol",
  "compiler": {
    "name": "solc",
    "version": "0.5.11+commit.c082d0b4.Emscripten.clang"
  },
  "schemaVersion": "3.2.2",
  "updatedAt": "2020-12-02T03:35:09.624Z",
  "devdoc": {
    "methods": {
      "addCustomContracts(address,(uint256,uint256,uint256,uint256,uint256))": {
        "details": "add contract address to custom_contracts list",
        "params": {
          "addr": "contract address",
          "bounds": "bounds"
        }
      },
      "addLargeContracts(address[])": {
        "details": "add contract addresses to large_contracts list",
        "params": {
          "addrList": "contract address list"
        }
      },
      "applyGasAndCollateral(address)": {
        "details": "apply gas and collateral for contract",
        "params": {
          "dapp": "contract address"
        }
      },
      "getBounds(address)": {
        "details": "get contract bounds",
        "params": {
          "dapp": "contract address"
        }
      },
      "isAppliable(address)": {
        "details": "check if a contract can be sponsored and if not throw error code",
        "params": {
          "dapp": "contract address"
        }
      },
      "isCustomContract(address)": {
        "details": "check if contract in custom_contracts list",
        "params": {
          "dapp": "contract address"
        }
      },
      "isLargeContract(address)": {
        "details": "check if contract in large_contracts list",
        "params": {
          "dapp": "contract address"
        }
      },
      "isOwner()": {
        "details": "Returns true if the caller is the current owner."
      },
      "owner()": {
        "details": "Returns the address of the current owner."
      },
      "pause()": {
        "details": "Called by a pauser to pause, triggers stopped state."
      },
      "paused()": {
        "details": "Returns true if the contract is paused, and false otherwise."
      },
      "removeContract(address[])": {
        "details": "remove contract from large_contracts/custom_contracts list",
        "params": {
          "addrList": "contract address list"
        }
      },
      "renounceOwnership()": {
        "details": "Leaves the contract without owner. It will not be possible to call `onlyOwner` functions anymore. Can only be called by the current owner.     * NOTE: Renouncing ownership will leave the contract without an owner, thereby removing any functionality that is only available to the owner."
      },
      "setBounds(address,(uint256,uint256,uint256,uint256,uint256))": {
        "details": "set bounds for sponsorship",
        "params": {
          "addr": "contract address to be sponsored, small => 0x0...0, large => 0x0...1, custom => contract address",
          "bounds": "structed bounds for contract"
        }
      },
      "transferOwnership(address)": {
        "details": "Transfers ownership of the contract to a new account (`newOwner`). Can only be called by the current owner."
      },
      "unpause()": {
        "details": "Called by a pauser to unpause, returns to normal state."
      },
      "withdraw(address,uint256)": {
        "details": "withdraw to specific address by amount",
        "params": {
          "amount": "withdrawal amount",
          "sponsor": "withdrawal refund address"
        }
      }
    }
  },
  "userdoc": {
    "methods": {}
  }
}