{
  "contractName": "SponsorFaucet",
  "abi": [
    {
      "constant": false,
      "inputs": [],
      "name": "unpause",
      "outputs": [],
      "payable": false,
      "stateMutability": "nonpayable",
      "type": "function"
    },
    {
      "constant": true,
      "inputs": [
        {
          "internalType": "address",
          "name": "account",
          "type": "address"
        }
      ],
      "name": "isPauser",
      "outputs": [
        {
          "internalType": "bool",
          "name": "",
          "type": "bool"
        }
      ],
      "payable": false,
      "stateMutability": "view",
      "type": "function"
    },
    {
      "constant": true,
      "inputs": [
        {
          "internalType": "address",
          "name": "",
          "type": "address"
        }
      ],
      "name": "dapps",
      "outputs": [
        {
          "internalType": "uint256",
          "name": "gas_cnt",
          "type": "uint256"
        },
        {
          "internalType": "uint256",
          "name": "collateral_cnt",
          "type": "uint256"
        },
        {
          "internalType": "uint256",
          "name": "limit",
          "type": "uint256"
        }
      ],
      "payable": false,
      "stateMutability": "view",
      "type": "function"
    },
    {
      "constant": true,
      "inputs": [],
      "name": "paused",
      "outputs": [
        {
          "internalType": "bool",
          "name": "",
          "type": "bool"
        }
      ],
      "payable": false,
      "stateMutability": "view",
      "type": "function"
    },
    {
      "constant": false,
      "inputs": [],
      "name": "renouncePauser",
      "outputs": [],
      "payable": false,
      "stateMutability": "nonpayable",
      "type": "function"
    },
    {
      "constant": false,
      "inputs": [],
      "name": "renounceOwnership",
      "outputs": [],
      "payable": false,
      "stateMutability": "nonpayable",
      "type": "function"
    },
    {
      "constant": false,
      "inputs": [
        {
          "internalType": "address",
          "name": "account",
          "type": "address"
        }
      ],
      "name": "addPauser",
      "outputs": [],
      "payable": false,
      "stateMutability": "nonpayable",
      "type": "function"
    },
    {
      "constant": false,
      "inputs": [],
      "name": "pause",
      "outputs": [],
      "payable": false,
      "stateMutability": "nonpayable",
      "type": "function"
    },
    {
      "constant": true,
      "inputs": [],
      "name": "upper_bound",
      "outputs": [
        {
          "internalType": "uint256",
          "name": "",
          "type": "uint256"
        }
      ],
      "payable": false,
      "stateMutability": "view",
      "type": "function"
    },
    {
      "constant": true,
      "inputs": [],
      "name": "owner",
      "outputs": [
        {
          "internalType": "address",
          "name": "",
          "type": "address"
        }
      ],
      "payable": false,
      "stateMutability": "view",
      "type": "function"
    },
    {
      "constant": true,
      "inputs": [],
      "name": "isOwner",
      "outputs": [
        {
          "internalType": "bool",
          "name": "",
          "type": "bool"
        }
      ],
      "payable": false,
      "stateMutability": "view",
      "type": "function"
    },
    {
      "constant": true,
      "inputs": [],
      "name": "gas_bound",
      "outputs": [
        {
          "internalType": "uint256",
          "name": "",
          "type": "uint256"
        }
      ],
      "payable": false,
      "stateMutability": "view",
      "type": "function"
    },
    {
      "constant": true,
      "inputs": [],
      "name": "collateral_bound",
      "outputs": [
        {
          "internalType": "uint256",
          "name": "",
          "type": "uint256"
        }
      ],
      "payable": false,
      "stateMutability": "view",
      "type": "function"
    },
    {
      "constant": false,
      "inputs": [
        {
          "internalType": "address",
          "name": "newOwner",
          "type": "address"
        }
      ],
      "name": "transferOwnership",
      "outputs": [],
      "payable": false,
      "stateMutability": "nonpayable",
      "type": "function"
    },
    {
      "inputs": [
        {
          "internalType": "uint256",
          "name": "gasBound",
          "type": "uint256"
        },
        {
          "internalType": "uint256",
          "name": "collateralBound",
          "type": "uint256"
        },
        {
          "internalType": "uint256",
          "name": "upperBound",
          "type": "uint256"
        }
      ],
      "payable": false,
      "stateMutability": "nonpayable",
      "type": "constructor"
    },
    {
      "payable": true,
      "stateMutability": "payable",
      "type": "fallback"
    },
    {
      "anonymous": false,
      "inputs": [
        {
          "indexed": true,
          "internalType": "address",
          "name": "applicant",
          "type": "address"
        },
        {
          "indexed": true,
          "internalType": "address",
          "name": "dapp",
          "type": "address"
        },
        {
          "indexed": true,
          "internalType": "uint256",
          "name": "amount",
          "type": "uint256"
        }
      ],
      "name": "applied",
      "type": "event"
    },
    {
      "anonymous": false,
      "inputs": [
        {
          "indexed": false,
          "internalType": "address",
          "name": "account",
          "type": "address"
        }
      ],
      "name": "Paused",
      "type": "event"
    },
    {
      "anonymous": false,
      "inputs": [
        {
          "indexed": false,
          "internalType": "address",
          "name": "account",
          "type": "address"
        }
      ],
      "name": "Unpaused",
      "type": "event"
    },
    {
      "anonymous": false,
      "inputs": [
        {
          "indexed": true,
          "internalType": "address",
          "name": "account",
          "type": "address"
        }
      ],
      "name": "PauserAdded",
      "type": "event"
    },
    {
      "anonymous": false,
      "inputs": [
        {
          "indexed": true,
          "internalType": "address",
          "name": "account",
          "type": "address"
        }
      ],
      "name": "PauserRemoved",
      "type": "event"
    },
    {
      "anonymous": false,
      "inputs": [
        {
          "indexed": true,
          "internalType": "address",
          "name": "previousOwner",
          "type": "address"
        },
        {
          "indexed": true,
          "internalType": "address",
          "name": "newOwner",
          "type": "address"
        }
      ],
      "name": "OwnershipTransferred",
      "type": "event"
    },
    {
      "constant": false,
      "inputs": [
        {
          "internalType": "address",
          "name": "dapp",
          "type": "address"
        }
      ],
      "name": "applyFor",
      "outputs": [],
      "payable": false,
      "stateMutability": "nonpayable",
      "type": "function"
    },
    {
      "constant": false,
      "inputs": [
        {
          "internalType": "address",
          "name": "dapp",
          "type": "address"
        }
      ],
      "name": "applyForGas",
      "outputs": [],
      "payable": false,
      "stateMutability": "nonpayable",
      "type": "function"
    },
    {
      "constant": false,
      "inputs": [
        {
          "internalType": "address",
          "name": "dapp",
          "type": "address"
        }
      ],
      "name": "applyForCollateral",
      "outputs": [],
      "payable": false,
      "stateMutability": "nonpayable",
      "type": "function"
    },
    {
      "constant": false,
      "inputs": [
        {
          "internalType": "address payable",
          "name": "sponsor",
          "type": "address"
        },
        {
          "internalType": "uint256",
          "name": "amount",
          "type": "uint256"
        }
      ],
      "name": "withdraw",
      "outputs": [],
      "payable": false,
      "stateMutability": "nonpayable",
      "type": "function"
    },
    {
      "constant": false,
      "inputs": [
        {
          "internalType": "uint256",
          "name": "gasBound",
          "type": "uint256"
        },
        {
          "internalType": "uint256",
          "name": "collateralBound",
          "type": "uint256"
        },
        {
          "internalType": "uint256",
          "name": "upperBound",
          "type": "uint256"
        }
      ],
      "name": "setBound",
      "outputs": [],
      "payable": false,
      "stateMutability": "nonpayable",
      "type": "function"
    }
  ],
  "bytecode": "0x60806040526000600260016101000a81548160ff021916908315150217905550730888000000000000000000000000000000000001600760006101000a81548173ffffffffffffffffffffffffffffffffffffffff021916908373ffffffffffffffffffffffffffffffffffffffff1602179055503480156200008157600080fd5b5060405162002939380380620029398339818101604052620000a79190810190620004a0565b620000b76200022c60201b60201c565b6000806101000a81548173ffffffffffffffffffffffffffffffffffffffff021916908373ffffffffffffffffffffffffffffffffffffffff1602179055506000809054906101000a900473ffffffffffffffffffffffffffffffffffffffff1673ffffffffffffffffffffffffffffffffffffffff16600073ffffffffffffffffffffffffffffffffffffffff167f8be0079c531659141344cd1fd0a4f28419497f9722a3daafe3b4186f6b6457e060405160405180910390a362000192620001866200022c60201b60201c565b6200023460201b60201c565b6000600260006101000a81548160ff02191690831515021790555082620001ca6103e8836200029560201b620015d91790919060201c565b11156200020e576040517f08c379a00000000000000000000000000000000000000000000000000000000081526004016200020590620006b0565b60405180910390fd5b82600381905550816004819055508060058190555050505062000707565b600033905090565b6200024f8160016200030b60201b6200181e1790919060201c565b8073ffffffffffffffffffffffffffffffffffffffff167f6719d08c1888103bea251a4ed56406bd0c3e69723c8a1686e017e7bbe159b6f860405160405180910390a250565b600080831415620002aa576000905062000305565b6000828402905082848281620002bc57fe5b041462000300576040517f08c379a0000000000000000000000000000000000000000000000000000000008152600401620002f7906200066c565b60405180910390fd5b809150505b92915050565b6200031d8282620003be60201b60201c565b1562000360576040517f08c379a000000000000000000000000000000000000000000000000000000000815260040162000357906200064a565b60405180910390fd5b60018260000160008373ffffffffffffffffffffffffffffffffffffffff1673ffffffffffffffffffffffffffffffffffffffff16815260200190815260200160002060006101000a81548160ff0219169083151502179055505050565b60008073ffffffffffffffffffffffffffffffffffffffff168273ffffffffffffffffffffffffffffffffffffffff16141562000432576040517f08c379a000000000000000000000000000000000000000000000000000000000815260040162000429906200068e565b60405180910390fd5b8260000160008373ffffffffffffffffffffffffffffffffffffffff1673ffffffffffffffffffffffffffffffffffffffff16815260200190815260200160002060009054906101000a900460ff16905092915050565b6000815190506200049a81620006ed565b92915050565b600080600060608486031215620004b657600080fd5b6000620004c68682870162000489565b9350506020620004d98682870162000489565b9250506040620004ec8682870162000489565b9150509250925092565b600062000505601f83620006d2565b91507f526f6c65733a206163636f756e7420616c72656164792068617320726f6c65006000830152602082019050919050565b600062000547602183620006d2565b91507f536166654d6174683a206d756c7469706c69636174696f6e206f766572666c6f60008301527f77000000000000000000000000000000000000000000000000000000000000006020830152604082019050919050565b6000620005af602283620006d2565b91507f526f6c65733a206163636f756e7420697320746865207a65726f20616464726560008301527f73730000000000000000000000000000000000000000000000000000000000006020830152604082019050919050565b600062000617601383620006d2565b91507f7570706572426f756e6420746f6f2068696768000000000000000000000000006000830152602082019050919050565b600060208201905081810360008301526200066581620004f6565b9050919050565b60006020820190508181036000830152620006878162000538565b9050919050565b60006020820190508181036000830152620006a981620005a0565b9050919050565b60006020820190508181036000830152620006cb8162000608565b9050919050565b600082825260208201905092915050565b6000819050919050565b620006f881620006e3565b81146200070457600080fd5b50565b61222280620007176000396000f3fe6080604052600436106101145760003560e01c806385eb4dab116100a0578063d2fc61c611610064578063d2fc61c614610342578063e747e66c1461036b578063efb2adeb14610394578063f2fde38b146103bd578063f3fef3a3146103e657610114565b806385eb4dab1461026b5780638da5cb5b146102965780638f32d59b146102c15780639ca64c41146102ec578063ca9c8c371461031757610114565b80635c975abb116100e75780635c975abb146101d25780636ef8d66d146101fd578063715018a61461021457806382dc1ec41461022b5780638456cb591461025457610114565b806337ea0de2146101165780633f4ba83a1461013f57806346fbf68e1461015657806355670f3114610193575b005b34801561012257600080fd5b5061013d60048036036101389190810190611905565b61040f565b005b34801561014b57600080fd5b50610154610783565b005b34801561016257600080fd5b5061017d60048036036101789190810190611905565b61087c565b60405161018a9190611ec1565b60405180910390f35b34801561019f57600080fd5b506101ba60048036036101b59190810190611905565b610899565b6040516101c9939291906120b7565b60405180910390f35b3480156101de57600080fd5b506101e76108c3565b6040516101f49190611ec1565b60405180910390f35b34801561020957600080fd5b506102126108da565b005b34801561022057600080fd5b506102296108ec565b005b34801561023757600080fd5b50610252600480360361024d9190810190611905565b6109f2565b005b34801561026057600080fd5b50610269610a4d565b005b34801561027757600080fd5b50610280610b47565b60405161028d919061209c565b60405180910390f35b3480156102a257600080fd5b506102ab610b4d565b6040516102b89190611e62565b60405180910390f35b3480156102cd57600080fd5b506102d6610b76565b6040516102e39190611ec1565b60405180910390f35b3480156102f857600080fd5b50610301610bd4565b60405161030e919061209c565b60405180910390f35b34801561032357600080fd5b5061032c610bda565b604051610339919061209c565b60405180910390f35b34801561034e57600080fd5b5061036960048036036103649190810190611905565b610be0565b005b34801561037757600080fd5b50610392600480360361038d9190810190611905565b610e59565b005b3480156103a057600080fd5b506103bb60048036036103b6919081019061196a565b6110ce565b005b3480156103c957600080fd5b506103e460048036036103df9190810190611905565b611186565b005b3480156103f257600080fd5b5061040d6004803603610408919081019061192e565b6111d9565b005b600260019054906101000a900460ff161561045f576040517f08c379a00000000000000000000000000000000000000000000000000000000081526004016104569061203c565b60405180910390fd5b6001600260016101000a81548160ff021916908315150217905550600260009054906101000a900460ff16156104ca576040517f08c379a00000000000000000000000000000000000000000000000000000000081526004016104c190611f7c565b60405180910390fd5b600760009054906101000a900473ffffffffffffffffffffffffffffffffffffffff1673ffffffffffffffffffffffffffffffffffffffff16633e3e6428600354836005546040518463ffffffff1660e01b815260040161052c929190611e98565b6000604051808303818588803b15801561054557600080fd5b505af1158015610559573d6000803e3d6000fd5b5050505050600760009054906101000a900473ffffffffffffffffffffffffffffffffffffffff1673ffffffffffffffffffffffffffffffffffffffff1663e66c1bea600454836040518363ffffffff1660e01b81526004016105bc9190611e62565b6000604051808303818588803b1580156105d557600080fd5b505af11580156105e9573d6000803e3d6000fd5b50505050506106446001600660008473ffffffffffffffffffffffffffffffffffffffff1673ffffffffffffffffffffffffffffffffffffffff1681526020019081526020016000206000015461140090919063ffffffff16565b5061069b6001600660008473ffffffffffffffffffffffffffffffffffffffff1673ffffffffffffffffffffffffffffffffffffffff1681526020019081526020016000206001015461140090919063ffffffff16565b506107076106b660045460035461140090919063ffffffff16565b600660008473ffffffffffffffffffffffffffffffffffffffff1673ffffffffffffffffffffffffffffffffffffffff1681526020019081526020016000206002015461140090919063ffffffff16565b506005548173ffffffffffffffffffffffffffffffffffffffff163373ffffffffffffffffffffffffffffffffffffffff167f0d517b7814d6361097aa44db26ae46a4e1244686721c5f28206a9605dc413c4a60405160405180910390a46000600260016101000a81548160ff02191690831515021790555050565b61079361078e611455565b61087c565b6107d2576040517f08c379a00000000000000000000000000000000000000000000000000000000081526004016107c990611f1c565b60405180910390fd5b600260009054906101000a900460ff16610821576040517f08c379a000000000000000000000000000000000000000000000000000000000815260040161081890611edc565b60405180910390fd5b6000600260006101000a81548160ff0219169083151502179055507f5db9ee0a495bf2e6ff9c91a7834c1ba4fdd244a5e8aa4e537bd38aeae4b073aa610865611455565b6040516108729190611e7d565b60405180910390a1565b600061089282600161145d90919063ffffffff16565b9050919050565b60066020528060005260406000206000915090508060000154908060010154908060020154905083565b6000600260009054906101000a900460ff16905090565b6108ea6108e5611455565b611525565b565b6108f4610b76565b610933576040517f08c379a000000000000000000000000000000000000000000000000000000000815260040161092a90611fdc565b60405180910390fd5b600073ffffffffffffffffffffffffffffffffffffffff166000809054906101000a900473ffffffffffffffffffffffffffffffffffffffff1673ffffffffffffffffffffffffffffffffffffffff167f8be0079c531659141344cd1fd0a4f28419497f9722a3daafe3b4186f6b6457e060405160405180910390a360008060006101000a81548173ffffffffffffffffffffffffffffffffffffffff021916908373ffffffffffffffffffffffffffffffffffffffff160217905550565b610a026109fd611455565b61087c565b610a41576040517f08c379a0000000000000000000000000000000000000000000000000000000008152600401610a3890611f1c565b60405180910390fd5b610a4a8161157f565b50565b610a5d610a58611455565b61087c565b610a9c576040517f08c379a0000000000000000000000000000000000000000000000000000000008152600401610a9390611f1c565b60405180910390fd5b600260009054906101000a900460ff1615610aec576040517f08c379a0000000000000000000000000000000000000000000000000000000008152600401610ae390611f7c565b60405180910390fd5b6001600260006101000a81548160ff0219169083151502179055507f62e78cea01bee320cd4e420270b5ea74000d11b0c9f74754ebdbfc544b05a258610b30611455565b604051610b3d9190611e7d565b60405180910390a1565b60055481565b60008060009054906101000a900473ffffffffffffffffffffffffffffffffffffffff16905090565b60008060009054906101000a900473ffffffffffffffffffffffffffffffffffffffff1673ffffffffffffffffffffffffffffffffffffffff16610bb8611455565b73ffffffffffffffffffffffffffffffffffffffff1614905090565b60035481565b60045481565b600260019054906101000a900460ff1615610c30576040517f08c379a0000000000000000000000000000000000000000000000000000000008152600401610c279061203c565b60405180910390fd5b6001600260016101000a81548160ff021916908315150217905550600260009054906101000a900460ff1615610c9b576040517f08c379a0000000000000000000000000000000000000000000000000000000008152600401610c9290611f7c565b60405180910390fd5b600760009054906101000a900473ffffffffffffffffffffffffffffffffffffffff1673ffffffffffffffffffffffffffffffffffffffff16633e3e6428600354836005546040518463ffffffff1660e01b8152600401610cfd929190611e98565b6000604051808303818588803b158015610d1657600080fd5b505af1158015610d2a573d6000803e3d6000fd5b5050505050610d856001600660008473ffffffffffffffffffffffffffffffffffffffff1673ffffffffffffffffffffffffffffffffffffffff1681526020019081526020016000206000015461140090919063ffffffff16565b50610ddd600354600660008473ffffffffffffffffffffffffffffffffffffffff1673ffffffffffffffffffffffffffffffffffffffff1681526020019081526020016000206002015461140090919063ffffffff16565b506005548173ffffffffffffffffffffffffffffffffffffffff163373ffffffffffffffffffffffffffffffffffffffff167f0d517b7814d6361097aa44db26ae46a4e1244686721c5f28206a9605dc413c4a60405160405180910390a46000600260016101000a81548160ff02191690831515021790555050565b600260019054906101000a900460ff1615610ea9576040517f08c379a0000000000000000000000000000000000000000000000000000000008152600401610ea09061203c565b60405180910390fd5b6001600260016101000a81548160ff021916908315150217905550600260009054906101000a900460ff1615610f14576040517f08c379a0000000000000000000000000000000000000000000000000000000008152600401610f0b90611f7c565b60405180910390fd5b600760009054906101000a900473ffffffffffffffffffffffffffffffffffffffff1673ffffffffffffffffffffffffffffffffffffffff1663e66c1bea600454836040518363ffffffff1660e01b8152600401610f729190611e62565b6000604051808303818588803b158015610f8b57600080fd5b505af1158015610f9f573d6000803e3d6000fd5b5050505050610ffa6001600660008473ffffffffffffffffffffffffffffffffffffffff1673ffffffffffffffffffffffffffffffffffffffff1681526020019081526020016000206001015461140090919063ffffffff16565b50611052600454600660008473ffffffffffffffffffffffffffffffffffffffff1673ffffffffffffffffffffffffffffffffffffffff1681526020019081526020016000206002015461140090919063ffffffff16565b506004548173ffffffffffffffffffffffffffffffffffffffff163373ffffffffffffffffffffffffffffffffffffffff167f0d517b7814d6361097aa44db26ae46a4e1244686721c5f28206a9605dc413c4a60405160405180910390a46000600260016101000a81548160ff02191690831515021790555050565b6110d6610b76565b611115576040517f08c379a000000000000000000000000000000000000000000000000000000000815260040161110c90611fdc565b60405180910390fd5b8261112b6103e8836115d990919063ffffffff16565b111561116c576040517f08c379a00000000000000000000000000000000000000000000000000000000081526004016111639061207c565b60405180910390fd5b826003819055508160048190555080600581905550505050565b61118e610b76565b6111cd576040517f08c379a00000000000000000000000000000000000000000000000000000000081526004016111c490611fdc565b60405180910390fd5b6111d681611649565b50565b6111e1610b76565b611220576040517f08c379a000000000000000000000000000000000000000000000000000000000815260040161121790611fdc565b60405180910390fd5b600260019054906101000a900460ff1615611270576040517f08c379a00000000000000000000000000000000000000000000000000000000081526004016112679061203c565b60405180910390fd5b6001600260016101000a81548160ff021916908315150217905550600260009054906101000a900460ff166112da576040517f08c379a00000000000000000000000000000000000000000000000000000000081526004016112d190611edc565b60405180910390fd5b803073ffffffffffffffffffffffffffffffffffffffff16311015611334576040517f08c379a000000000000000000000000000000000000000000000000000000000815260040161132b9061201c565b60405180910390fd5b60008273ffffffffffffffffffffffffffffffffffffffff168260405161135a90611e4d565b60006040518083038185875af1925050503d8060008114611397576040519150601f19603f3d011682016040523d82523d6000602084013e61139c565b606091505b50509050806113e0576040517f08c379a00000000000000000000000000000000000000000000000000000000081526004016113d79061205c565b60405180910390fd5b506000600260016101000a81548160ff0219169083151502179055505050565b60008082840190508381101561144b576040517f08c379a000000000000000000000000000000000000000000000000000000000815260040161144290611f5c565b60405180910390fd5b8091505092915050565b600033905090565b60008073ffffffffffffffffffffffffffffffffffffffff168273ffffffffffffffffffffffffffffffffffffffff1614156114ce576040517f08c379a00000000000000000000000000000000000000000000000000000000081526004016114c590611ffc565b60405180910390fd5b8260000160008373ffffffffffffffffffffffffffffffffffffffff1673ffffffffffffffffffffffffffffffffffffffff16815260200190815260200160002060009054906101000a900460ff16905092915050565b61153981600161177790919063ffffffff16565b8073ffffffffffffffffffffffffffffffffffffffff167fcd265ebaf09df2871cc7bd4133404a235ba12eff2041bb89d9c714a2621c7c7e60405160405180910390a250565b61159381600161181e90919063ffffffff16565b8073ffffffffffffffffffffffffffffffffffffffff167f6719d08c1888103bea251a4ed56406bd0c3e69723c8a1686e017e7bbe159b6f860405160405180910390a250565b6000808314156115ec5760009050611643565b60008284029050828482816115fd57fe5b041461163e576040517f08c379a000000000000000000000000000000000000000000000000000000000815260040161163590611fbc565b60405180910390fd5b809150505b92915050565b600073ffffffffffffffffffffffffffffffffffffffff168173ffffffffffffffffffffffffffffffffffffffff1614156116b9576040517f08c379a00000000000000000000000000000000000000000000000000000000081526004016116b090611f3c565b60405180910390fd5b8073ffffffffffffffffffffffffffffffffffffffff166000809054906101000a900473ffffffffffffffffffffffffffffffffffffffff1673ffffffffffffffffffffffffffffffffffffffff167f8be0079c531659141344cd1fd0a4f28419497f9722a3daafe3b4186f6b6457e060405160405180910390a3806000806101000a81548173ffffffffffffffffffffffffffffffffffffffff021916908373ffffffffffffffffffffffffffffffffffffffff16021790555050565b611781828261145d565b6117c0576040517f08c379a00000000000000000000000000000000000000000000000000000000081526004016117b790611f9c565b60405180910390fd5b60008260000160008373ffffffffffffffffffffffffffffffffffffffff1673ffffffffffffffffffffffffffffffffffffffff16815260200190815260200160002060006101000a81548160ff0219169083151502179055505050565b611828828261145d565b15611868576040517f08c379a000000000000000000000000000000000000000000000000000000000815260040161185f90611efc565b60405180910390fd5b60018260000160008373ffffffffffffffffffffffffffffffffffffffff1673ffffffffffffffffffffffffffffffffffffffff16815260200190815260200160002060006101000a81548160ff0219169083151502179055505050565b6000813590506118d58161219a565b92915050565b6000813590506118ea816121b1565b92915050565b6000813590506118ff816121c8565b92915050565b60006020828403121561191757600080fd5b6000611925848285016118c6565b91505092915050565b6000806040838503121561194157600080fd5b600061194f858286016118db565b9250506020611960858286016118f0565b9150509250929050565b60008060006060848603121561197f57600080fd5b600061198d868287016118f0565b935050602061199e868287016118f0565b92505060406119af868287016118f0565b9150509250925092565b6119c281612164565b82525050565b6119d18161210a565b82525050565b6119e08161212e565b82525050565b60006119f36014836120f9565b91507f5061757361626c653a206e6f74207061757365640000000000000000000000006000830152602082019050919050565b6000611a33601f836120f9565b91507f526f6c65733a206163636f756e7420616c72656164792068617320726f6c65006000830152602082019050919050565b6000611a736030836120f9565b91507f506175736572526f6c653a2063616c6c657220646f6573206e6f74206861766560008301527f207468652050617573657220726f6c65000000000000000000000000000000006020830152604082019050919050565b6000611ad96026836120f9565b91507f4f776e61626c653a206e6577206f776e657220697320746865207a65726f206160008301527f64647265737300000000000000000000000000000000000000000000000000006020830152604082019050919050565b6000611b3f601b836120f9565b91507f536166654d6174683a206164646974696f6e206f766572666c6f7700000000006000830152602082019050919050565b6000611b7f6010836120f9565b91507f5061757361626c653a20706175736564000000000000000000000000000000006000830152602082019050919050565b6000611bbf6021836120f9565b91507f526f6c65733a206163636f756e7420646f6573206e6f74206861766520726f6c60008301527f65000000000000000000000000000000000000000000000000000000000000006020830152604082019050919050565b6000611c256021836120f9565b91507f536166654d6174683a206d756c7469706c69636174696f6e206f766572666c6f60008301527f77000000000000000000000000000000000000000000000000000000000000006020830152604082019050919050565b6000611c8b6020836120f9565b91507f4f776e61626c653a2063616c6c6572206973206e6f7420746865206f776e65726000830152602082019050919050565b6000611ccb6022836120f9565b91507f526f6c65733a206163636f756e7420697320746865207a65726f20616464726560008301527f73730000000000000000000000000000000000000000000000000000000000006020830152604082019050919050565b6000611d31600f836120f9565b91507f616d6f756e7420746f6f206869676800000000000000000000000000000000006000830152602082019050919050565b6000611d716012836120f9565b91507f5245454e5452414e43595f494c4c4547414c00000000000000000000000000006000830152602082019050919050565b6000611db16000836120ee565b9150600082019050919050565b6000611dcb600f836120f9565b91507f7769746864726177206661696c656400000000000000000000000000000000006000830152602082019050919050565b6000611e0b6013836120f9565b91507f7570706572426f756e6420746f6f2068696768000000000000000000000000006000830152602082019050919050565b611e478161215a565b82525050565b6000611e5882611da4565b9150819050919050565b6000602082019050611e7760008301846119c8565b92915050565b6000602082019050611e9260008301846119b9565b92915050565b6000604082019050611ead60008301856119c8565b611eba6020830184611e3e565b9392505050565b6000602082019050611ed660008301846119d7565b92915050565b60006020820190508181036000830152611ef5816119e6565b9050919050565b60006020820190508181036000830152611f1581611a26565b9050919050565b60006020820190508181036000830152611f3581611a66565b9050919050565b60006020820190508181036000830152611f5581611acc565b9050919050565b60006020820190508181036000830152611f7581611b32565b9050919050565b60006020820190508181036000830152611f9581611b72565b9050919050565b60006020820190508181036000830152611fb581611bb2565b9050919050565b60006020820190508181036000830152611fd581611c18565b9050919050565b60006020820190508181036000830152611ff581611c7e565b9050919050565b6000602082019050818103600083015261201581611cbe565b9050919050565b6000602082019050818103600083015261203581611d24565b9050919050565b6000602082019050818103600083015261205581611d64565b9050919050565b6000602082019050818103600083015261207581611dbe565b9050919050565b6000602082019050818103600083015261209581611dfe565b9050919050565b60006020820190506120b16000830184611e3e565b92915050565b60006060820190506120cc6000830186611e3e565b6120d96020830185611e3e565b6120e66040830184611e3e565b949350505050565b600081905092915050565b600082825260208201905092915050565b60006121158261213a565b9050919050565b60006121278261213a565b9050919050565b60008115159050919050565b600073ffffffffffffffffffffffffffffffffffffffff82169050919050565b6000819050919050565b600061216f82612176565b9050919050565b600061218182612188565b9050919050565b60006121938261213a565b9050919050565b6121a38161210a565b81146121ae57600080fd5b50565b6121ba8161211c565b81146121c557600080fd5b50565b6121d18161215a565b81146121dc57600080fd5b5056fea365627a7a72315820f4446baa35275bbf2138e5f87b993515469d06b7b527c9e07054188cfc9e023b6c6578706572696d656e74616cf564736f6c634300050b0040",
  "source": "pragma solidity 0.5.11;\npragma experimental ABIEncoderV2;\n\nimport \"@openzeppelin/contracts/ownership/Ownable.sol\";\nimport \"@openzeppelin/contracts/lifecycle/Pausable.sol\";\nimport \"@openzeppelin/contracts/math/SafeMath.sol\";\nimport \"./Lib/ReentrancyGuard.sol\";\nimport \"./InternalContract.sol\";\n\ncontract SponsorFaucet is Ownable, Pausable, ReentrancyGuard {\n    using SafeMath for uint256;\n    struct detail {\n        uint256 gas_cnt; //counter for gas application\n        uint256 collateral_cnt; //counter for collateral application\n        uint256 limit; //total applied amount\n    }\n\n    //single sponsor bound\n    uint256 public gas_bound;\n    uint256 public collateral_bound;\n    //upper bound for single tx\n    uint256 public upper_bound;\n    \n    mapping(address=>detail) public dapps;\n    \n    event applied(address indexed applicant, address indexed dapp, uint256 indexed amount);\n    \n    SponsorWhitelistControl cpc = SponsorWhitelistControl(0x0888000000000000000000000000000000000001);\n    \n    constructor(uint256 gasBound, uint256 collateralBound, uint256 upperBound) public {\n        require(upperBound.mul(1000) <= gasBound, 'upperBound too high');\n        gas_bound = gasBound;\n        collateral_bound = collateralBound;\n        upper_bound = upperBound;\n    }\n     \n    /*** Dapp dev calls ***/ \n    //apply cfx for gas & storage\n    function applyFor(address dapp) public nonReentrant whenNotPaused {\n        cpc.setSponsorForGas.value(gas_bound)(dapp, upper_bound);\n        cpc.setSponsorForCollateral.value(collateral_bound)(dapp);\n        dapps[dapp].gas_cnt.add(1);\n        dapps[dapp].collateral_cnt.add(1);\n        dapps[dapp].limit.add(gas_bound.add(collateral_bound));\n        emit applied(msg.sender, dapp, upper_bound);\n    }\n\n    function applyForGas(address dapp) public nonReentrant whenNotPaused {\n        cpc.setSponsorForGas.value(gas_bound)(dapp, upper_bound);\n        dapps[dapp].gas_cnt.add(1);\n        dapps[dapp].limit.add(gas_bound);\n        emit applied(msg.sender, dapp, upper_bound);\n    }\n\n    function applyForCollateral(address dapp) public nonReentrant whenNotPaused {\n        cpc.setSponsorForCollateral.value(collateral_bound)(dapp);\n        dapps[dapp].collateral_cnt.add(1);\n        dapps[dapp].limit.add(collateral_bound);\n        emit applied(msg.sender, dapp, collateral_bound);\n    }\n\n    //accept sponsor's cfx\n    function () external payable {\n    }\n\n    //withdraw to specific address by amount\n    function withdraw(address payable sponsor, uint256 amount) public onlyOwner nonReentrant whenPaused {\n        require(address(this).balance >= amount, \"amount too high\");\n        (bool success, ) = sponsor.call.value(amount)(\"\");\n        require(success, \"withdraw failed\");\n    }\n\n    function setBound(uint256 gasBound, uint256 collateralBound, uint256 upperBound) public onlyOwner {\n        require(upperBound.mul(1000) <= gasBound, 'upperBound too high');\n        gas_bound = gasBound;\n        collateral_bound = collateralBound;\n        upper_bound = upperBound;   \n    }\n}\n",
  "sourcePath": "/Users/xiongyu/conflux-sponsor-faucet/contracts/SponsorFaucet.sol",
  "compiler": {
    "name": "solc",
    "version": "0.5.11+commit.c082d0b4.Emscripten.clang"
  },
  "schemaVersion": "3.2.2",
  "updatedAt": "2020-09-28T14:56:38.990Z",
  "devdoc": {
    "methods": {
      "isOwner()": {
        "details": "Returns true if the caller is the current owner."
      },
      "owner()": {
        "details": "Returns the address of the current owner."
      },
      "pause()": {
        "details": "Called by a pauser to pause, triggers stopped state."
      },
      "paused()": {
        "details": "Returns true if the contract is paused, and false otherwise."
      },
      "renounceOwnership()": {
        "details": "Leaves the contract without owner. It will not be possible to call `onlyOwner` functions anymore. Can only be called by the current owner.     * NOTE: Renouncing ownership will leave the contract without an owner, thereby removing any functionality that is only available to the owner."
      },
      "transferOwnership(address)": {
        "details": "Transfers ownership of the contract to a new account (`newOwner`). Can only be called by the current owner."
      },
      "unpause()": {
        "details": "Called by a pauser to unpause, returns to normal state."
      }
    }
  },
  "userdoc": {
    "methods": {
      "applyFor(address)": {
        "notice": "* Dapp dev calls **"
      }
    }
  }
}