{
  "contractName": "SponsorFaucet",
  "abi": [
    {
      "constant": false,
      "inputs": [],
      "name": "unpause",
      "outputs": [],
      "payable": false,
      "stateMutability": "nonpayable",
      "type": "function"
    },
    {
      "constant": true,
      "inputs": [
        {
          "internalType": "address",
          "name": "account",
          "type": "address"
        }
      ],
      "name": "isPauser",
      "outputs": [
        {
          "internalType": "bool",
          "name": "",
          "type": "bool"
        }
      ],
      "payable": false,
      "stateMutability": "view",
      "type": "function"
    },
    {
      "constant": false,
      "inputs": [],
      "name": "renounceWhitelistAdmin",
      "outputs": [],
      "payable": false,
      "stateMutability": "nonpayable",
      "type": "function"
    },
    {
      "constant": true,
      "inputs": [
        {
          "internalType": "address",
          "name": "",
          "type": "address"
        }
      ],
      "name": "dapps",
      "outputs": [
        {
          "internalType": "uint256",
          "name": "gas_amount_accumulated",
          "type": "uint256"
        },
        {
          "internalType": "uint256",
          "name": "collateral_amount_accumulated",
          "type": "uint256"
        }
      ],
      "payable": false,
      "stateMutability": "view",
      "type": "function"
    },
    {
      "constant": true,
      "inputs": [
        {
          "internalType": "address",
          "name": "",
          "type": "address"
        }
      ],
      "name": "dapp_bounds",
      "outputs": [
        {
          "internalType": "uint256",
          "name": "gas_total_limit",
          "type": "uint256"
        },
        {
          "internalType": "uint256",
          "name": "collateral_total_limit",
          "type": "uint256"
        },
        {
          "internalType": "uint256",
          "name": "gas_bound",
          "type": "uint256"
        },
        {
          "internalType": "uint256",
          "name": "collateral_bound",
          "type": "uint256"
        },
        {
          "internalType": "uint256",
          "name": "upper_bound",
          "type": "uint256"
        }
      ],
      "payable": false,
      "stateMutability": "view",
      "type": "function"
    },
    {
      "constant": true,
      "inputs": [],
      "name": "paused",
      "outputs": [
        {
          "internalType": "bool",
          "name": "",
          "type": "bool"
        }
      ],
      "payable": false,
      "stateMutability": "view",
      "type": "function"
    },
    {
      "constant": false,
      "inputs": [],
      "name": "renouncePauser",
      "outputs": [],
      "payable": false,
      "stateMutability": "nonpayable",
      "type": "function"
    },
    {
      "constant": false,
      "inputs": [],
      "name": "renounceOwnership",
      "outputs": [],
      "payable": false,
      "stateMutability": "nonpayable",
      "type": "function"
    },
    {
      "constant": false,
      "inputs": [
        {
          "internalType": "address",
          "name": "account",
          "type": "address"
        }
      ],
      "name": "addWhitelistAdmin",
      "outputs": [],
      "payable": false,
      "stateMutability": "nonpayable",
      "type": "function"
    },
    {
      "constant": false,
      "inputs": [
        {
          "internalType": "address",
          "name": "account",
          "type": "address"
        }
      ],
      "name": "addPauser",
      "outputs": [],
      "payable": false,
      "stateMutability": "nonpayable",
      "type": "function"
    },
    {
      "constant": false,
      "inputs": [],
      "name": "pause",
      "outputs": [],
      "payable": false,
      "stateMutability": "nonpayable",
      "type": "function"
    },
    {
      "constant": true,
      "inputs": [],
      "name": "owner",
      "outputs": [
        {
          "internalType": "address",
          "name": "",
          "type": "address"
        }
      ],
      "payable": false,
      "stateMutability": "view",
      "type": "function"
    },
    {
      "constant": true,
      "inputs": [],
      "name": "isOwner",
      "outputs": [
        {
          "internalType": "bool",
          "name": "",
          "type": "bool"
        }
      ],
      "payable": false,
      "stateMutability": "view",
      "type": "function"
    },
    {
      "constant": true,
      "inputs": [
        {
          "internalType": "address",
          "name": "account",
          "type": "address"
        }
      ],
      "name": "isWhitelistAdmin",
      "outputs": [
        {
          "internalType": "bool",
          "name": "",
          "type": "bool"
        }
      ],
      "payable": false,
      "stateMutability": "view",
      "type": "function"
    },
    {
      "constant": false,
      "inputs": [
        {
          "internalType": "address",
          "name": "newOwner",
          "type": "address"
        }
      ],
      "name": "transferOwnership",
      "outputs": [],
      "payable": false,
      "stateMutability": "nonpayable",
      "type": "function"
    },
    {
      "inputs": [
        {
          "components": [
            {
              "internalType": "uint256",
              "name": "gas_total_limit",
              "type": "uint256"
            },
            {
              "internalType": "uint256",
              "name": "collateral_total_limit",
              "type": "uint256"
            },
            {
              "internalType": "uint256",
              "name": "gas_bound",
              "type": "uint256"
            },
            {
              "internalType": "uint256",
              "name": "collateral_bound",
              "type": "uint256"
            },
            {
              "internalType": "uint256",
              "name": "upper_bound",
              "type": "uint256"
            }
          ],
          "internalType": "struct SponsorFaucet.Bounds",
          "name": "smallBounds",
          "type": "tuple"
        },
        {
          "components": [
            {
              "internalType": "uint256",
              "name": "gas_total_limit",
              "type": "uint256"
            },
            {
              "internalType": "uint256",
              "name": "collateral_total_limit",
              "type": "uint256"
            },
            {
              "internalType": "uint256",
              "name": "gas_bound",
              "type": "uint256"
            },
            {
              "internalType": "uint256",
              "name": "collateral_bound",
              "type": "uint256"
            },
            {
              "internalType": "uint256",
              "name": "upper_bound",
              "type": "uint256"
            }
          ],
          "internalType": "struct SponsorFaucet.Bounds",
          "name": "largeBounds",
          "type": "tuple"
        }
      ],
      "payable": false,
      "stateMutability": "nonpayable",
      "type": "constructor"
    },
    {
      "payable": true,
      "stateMutability": "payable",
      "type": "fallback"
    },
    {
      "anonymous": false,
      "inputs": [
        {
          "indexed": true,
          "internalType": "address",
          "name": "applicant",
          "type": "address"
        },
        {
          "indexed": true,
          "internalType": "address",
          "name": "dapp",
          "type": "address"
        },
        {
          "indexed": false,
          "internalType": "uint256",
          "name": "amount",
          "type": "uint256"
        }
      ],
      "name": "applied",
      "type": "event"
    },
    {
      "anonymous": false,
      "inputs": [
        {
          "indexed": true,
          "internalType": "address",
          "name": "account",
          "type": "address"
        }
      ],
      "name": "WhitelistAdminAdded",
      "type": "event"
    },
    {
      "anonymous": false,
      "inputs": [
        {
          "indexed": true,
          "internalType": "address",
          "name": "account",
          "type": "address"
        }
      ],
      "name": "WhitelistAdminRemoved",
      "type": "event"
    },
    {
      "anonymous": false,
      "inputs": [
        {
          "indexed": false,
          "internalType": "address",
          "name": "account",
          "type": "address"
        }
      ],
      "name": "Paused",
      "type": "event"
    },
    {
      "anonymous": false,
      "inputs": [
        {
          "indexed": false,
          "internalType": "address",
          "name": "account",
          "type": "address"
        }
      ],
      "name": "Unpaused",
      "type": "event"
    },
    {
      "anonymous": false,
      "inputs": [
        {
          "indexed": true,
          "internalType": "address",
          "name": "account",
          "type": "address"
        }
      ],
      "name": "PauserAdded",
      "type": "event"
    },
    {
      "anonymous": false,
      "inputs": [
        {
          "indexed": true,
          "internalType": "address",
          "name": "account",
          "type": "address"
        }
      ],
      "name": "PauserRemoved",
      "type": "event"
    },
    {
      "anonymous": false,
      "inputs": [
        {
          "indexed": true,
          "internalType": "address",
          "name": "previousOwner",
          "type": "address"
        },
        {
          "indexed": true,
          "internalType": "address",
          "name": "newOwner",
          "type": "address"
        }
      ],
      "name": "OwnershipTransferred",
      "type": "event"
    },
    {
      "constant": false,
      "inputs": [
        {
          "internalType": "address",
          "name": "dapp",
          "type": "address"
        }
      ],
      "name": "applyGasAndCollateral",
      "outputs": [],
      "payable": false,
      "stateMutability": "nonpayable",
      "type": "function"
    },
    {
      "constant": false,
      "inputs": [
        {
          "internalType": "address",
          "name": "dapp",
          "type": "address"
        }
      ],
      "name": "isAppliable",
      "outputs": [
        {
          "internalType": "bool",
          "name": "",
          "type": "bool"
        }
      ],
      "payable": false,
      "stateMutability": "nonpayable",
      "type": "function"
    },
    {
      "constant": false,
      "inputs": [
        {
          "internalType": "address payable",
          "name": "sponsor",
          "type": "address"
        },
        {
          "internalType": "uint256",
          "name": "amount",
          "type": "uint256"
        }
      ],
      "name": "withdraw",
      "outputs": [],
      "payable": false,
      "stateMutability": "nonpayable",
      "type": "function"
    },
    {
      "constant": false,
      "inputs": [
        {
          "internalType": "address",
          "name": "addr",
          "type": "address"
        },
        {
          "components": [
            {
              "internalType": "uint256",
              "name": "gas_total_limit",
              "type": "uint256"
            },
            {
              "internalType": "uint256",
              "name": "collateral_total_limit",
              "type": "uint256"
            },
            {
              "internalType": "uint256",
              "name": "gas_bound",
              "type": "uint256"
            },
            {
              "internalType": "uint256",
              "name": "collateral_bound",
              "type": "uint256"
            },
            {
              "internalType": "uint256",
              "name": "upper_bound",
              "type": "uint256"
            }
          ],
          "internalType": "struct SponsorFaucet.Bounds",
          "name": "bounds",
          "type": "tuple"
        }
      ],
      "name": "setBounds",
      "outputs": [],
      "payable": false,
      "stateMutability": "nonpayable",
      "type": "function"
    },
    {
      "constant": false,
      "inputs": [
        {
          "internalType": "address[]",
          "name": "addrList",
          "type": "address[]"
        }
      ],
      "name": "addLargeContracts",
      "outputs": [],
      "payable": false,
      "stateMutability": "nonpayable",
      "type": "function"
    },
    {
      "constant": false,
      "inputs": [
        {
          "internalType": "address[]",
          "name": "addrList",
          "type": "address[]"
        },
        {
          "components": [
            {
              "internalType": "uint256",
              "name": "gas_total_limit",
              "type": "uint256"
            },
            {
              "internalType": "uint256",
              "name": "collateral_total_limit",
              "type": "uint256"
            },
            {
              "internalType": "uint256",
              "name": "gas_bound",
              "type": "uint256"
            },
            {
              "internalType": "uint256",
              "name": "collateral_bound",
              "type": "uint256"
            },
            {
              "internalType": "uint256",
              "name": "upper_bound",
              "type": "uint256"
            }
          ],
          "internalType": "struct SponsorFaucet.Bounds[]",
          "name": "boundsList",
          "type": "tuple[]"
        }
      ],
      "name": "addCustomContracts",
      "outputs": [],
      "payable": false,
      "stateMutability": "nonpayable",
      "type": "function"
    },
    {
      "constant": false,
      "inputs": [
        {
          "internalType": "address[]",
          "name": "addrList",
          "type": "address[]"
        }
      ],
      "name": "removeLargeContract",
      "outputs": [],
      "payable": false,
      "stateMutability": "nonpayable",
      "type": "function"
    },
    {
      "constant": false,
      "inputs": [
        {
          "internalType": "address[]",
          "name": "addrList",
          "type": "address[]"
        }
      ],
      "name": "removeCustomContract",
      "outputs": [],
      "payable": false,
      "stateMutability": "nonpayable",
      "type": "function"
    },
    {
      "constant": true,
      "inputs": [
        {
          "internalType": "address",
          "name": "dapp",
          "type": "address"
        }
      ],
      "name": "isLargeContract",
      "outputs": [
        {
          "internalType": "bool",
          "name": "",
          "type": "bool"
        }
      ],
      "payable": false,
      "stateMutability": "view",
      "type": "function"
    },
    {
      "constant": true,
      "inputs": [
        {
          "internalType": "address",
          "name": "dapp",
          "type": "address"
        }
      ],
      "name": "isCustomContract",
      "outputs": [
        {
          "internalType": "bool",
          "name": "",
          "type": "bool"
        }
      ],
      "payable": false,
      "stateMutability": "view",
      "type": "function"
    }
  ],
  "bytecode": "0x60806040526000600260016101000a81548160ff021916908315150217905550730888000000000000000000000000000000000001600860006101000a81548173ffffffffffffffffffffffffffffffffffffffff021916908373ffffffffffffffffffffffffffffffffffffffff1602179055503480156200008157600080fd5b5060405162004b3738038062004b378339818101604052620000a79190810190620006e1565b6000620000b96200037760201b60201c565b9050806000806101000a81548173ffffffffffffffffffffffffffffffffffffffff021916908373ffffffffffffffffffffffffffffffffffffffff1602179055508073ffffffffffffffffffffffffffffffffffffffff16600073ffffffffffffffffffffffffffffffffffffffff167f8be0079c531659141344cd1fd0a4f28419497f9722a3daafe3b4186f6b6457e060405160405180910390a350620001776200016b6200037760201b60201c565b6200037f60201b60201c565b6000600260006101000a81548160ff021916908315150217905550620001b2620001a66200037760201b60201c565b620003e060201b60201c565b8160400151620001d76103e884608001516200044160201b620026b91790919060201c565b11156200021b576040517f08c379a00000000000000000000000000000000000000000000000000000000081526004016200021290620008dd565b60405180910390fd5b8060400151620002406103e883608001516200044160201b620026b91790919060201c565b111562000284576040517f08c379a00000000000000000000000000000000000000000000000000000000081526004016200027b90620008dd565b60405180910390fd5b81600560008073ffffffffffffffffffffffffffffffffffffffff1673ffffffffffffffffffffffffffffffffffffffff16815260200190815260200160002060008201518160000155602082015181600101556040820151816002015560608201518160030155608082015181600401559050508060056000600173ffffffffffffffffffffffffffffffffffffffff1673ffffffffffffffffffffffffffffffffffffffff1681526020019081526020016000206000820151816000015560208201518160010155604082015181600201556060820151816003015560808201518160040155905050505062000962565b600033905090565b6200039a816001620004b760201b62002ec61790919060201c565b8073ffffffffffffffffffffffffffffffffffffffff167f6719d08c1888103bea251a4ed56406bd0c3e69723c8a1686e017e7bbe159b6f860405160405180910390a250565b620003fb816003620004b760201b62002ec61790919060201c565b8073ffffffffffffffffffffffffffffffffffffffff167f22380c05984257a1cb900161c713dd71d39e74820f1aea43bd3f1bdd2096129960405160405180910390a250565b600080831415620004565760009050620004b1565b60008284029050828482816200046857fe5b0414620004ac576040517f08c379a0000000000000000000000000000000000000000000000000000000008152600401620004a39062000899565b60405180910390fd5b809150505b92915050565b620004c982826200056a60201b60201c565b156200050c576040517f08c379a0000000000000000000000000000000000000000000000000000000008152600401620005039062000877565b60405180910390fd5b60018260000160008373ffffffffffffffffffffffffffffffffffffffff1673ffffffffffffffffffffffffffffffffffffffff16815260200190815260200160002060006101000a81548160ff0219169083151502179055505050565b60008073ffffffffffffffffffffffffffffffffffffffff168273ffffffffffffffffffffffffffffffffffffffff161415620005de576040517f08c379a0000000000000000000000000000000000000000000000000000000008152600401620005d590620008bb565b60405180910390fd5b8260000160008373ffffffffffffffffffffffffffffffffffffffff1673ffffffffffffffffffffffffffffffffffffffff16815260200190815260200160002060009054906101000a900460ff16905092915050565b600060a082840312156200064857600080fd5b6200065460a0620008ff565b905060006200066684828501620006ca565b60008301525060206200067c84828501620006ca565b60208301525060406200069284828501620006ca565b6040830152506060620006a884828501620006ca565b6060830152506080620006be84828501620006ca565b60808301525092915050565b600081519050620006db8162000948565b92915050565b6000806101408385031215620006f657600080fd5b6000620007068582860162000635565b92505060a0620007198582860162000635565b9150509250929050565b600062000732601f836200092d565b91507f526f6c65733a206163636f756e7420616c72656164792068617320726f6c65006000830152602082019050919050565b6000620007746021836200092d565b91507f536166654d6174683a206d756c7469706c69636174696f6e206f766572666c6f60008301527f77000000000000000000000000000000000000000000000000000000000000006020830152604082019050919050565b6000620007dc6022836200092d565b91507f526f6c65733a206163636f756e7420697320746865207a65726f20616464726560008301527f73730000000000000000000000000000000000000000000000000000000000006020830152604082019050919050565b6000620008446013836200092d565b91507f7570706572426f756e6420746f6f2068696768000000000000000000000000006000830152602082019050919050565b60006020820190508181036000830152620008928162000723565b9050919050565b60006020820190508181036000830152620008b48162000765565b9050919050565b60006020820190508181036000830152620008d681620007cd565b9050919050565b60006020820190508181036000830152620008f88162000835565b9050919050565b6000604051905081810181811067ffffffffffffffff821117156200092357600080fd5b8060405250919050565b600082825260208201905092915050565b6000819050919050565b62000953816200093e565b81146200095f57600080fd5b50565b6141c580620009726000396000f3fe6080604052600436106101665760003560e01c80636ef8d66d116100d15780638da5cb5b1161008a578063aa93748311610064578063aa937483146104da578063bb5f747b14610517578063f2fde38b14610554578063f3fef3a31461057d57610166565b80638da5cb5b1461045b5780638f32d59b146104865780639c27c7e1146104b157610166565b80636ef8d66d1461039b578063715018a6146103b25780637362d9c8146103c9578063740b49ad146103f257806382dc1ec41461041b5780638456cb591461044457610166565b80634c5a628c116101235780634c5a628c146102745780634f5f4c751461028b57806355670f31146102c857806358ba56c0146103065780635c3e9add146103475780635c975abb1461037057610166565b806321b5857c146101685780632eed0599146101915780633f4ba83a146101ba57806346fbf68e146101d157806348132bee1461020e5780634a3c65121461024b575b005b34801561017457600080fd5b5061018f600480360361018a91908101906132e6565b6105a6565b005b34801561019d57600080fd5b506101b860048036036101b391908101906132e6565b610902565b005b3480156101c657600080fd5b506101cf6109d3565b005b3480156101dd57600080fd5b506101f860048036036101f3919081019061321c565b610acc565b6040516102059190613c42565b60405180910390f35b34801561021a57600080fd5b506102356004803603610230919081019061321c565b610ae9565b6040516102429190613c42565b60405180910390f35b34801561025757600080fd5b50610272600480360361026d91908101906132e6565b610b88565b005b34801561028057600080fd5b50610289610cd6565b005b34801561029757600080fd5b506102b260048036036102ad919081019061321c565b610ce8565b6040516102bf9190613c42565b60405180910390f35b3480156102d457600080fd5b506102ef60048036036102ea919081019061321c565b610d3e565b6040516102fd929190613f98565b60405180910390f35b34801561031257600080fd5b5061032d6004803603610328919081019061321c565b610d62565b60405161033e959493929190613fc1565b60405180910390f35b34801561035357600080fd5b5061036e60048036036103699190810190613327565b610d98565b005b34801561037c57600080fd5b50610385611086565b6040516103929190613c42565b60405180910390f35b3480156103a757600080fd5b506103b061109d565b005b3480156103be57600080fd5b506103c76110af565b005b3480156103d557600080fd5b506103f060048036036103eb919081019061321c565b6111b5565b005b3480156103fe57600080fd5b50610419600480360361041491908101906132aa565b611210565b005b34801561042757600080fd5b50610442600480360361043d919081019061321c565b611337565b005b34801561045057600080fd5b50610459611392565b005b34801561046757600080fd5b5061047061148c565b60405161047d9190613be3565b60405180910390f35b34801561049257600080fd5b5061049b6114b5565b6040516104a89190613c42565b60405180910390f35b3480156104bd57600080fd5b506104d860048036036104d3919081019061321c565b611513565b005b3480156104e657600080fd5b5061050160048036036104fc919081019061321c565b61161c565b60405161050e9190613c42565b60405180910390f35b34801561052357600080fd5b5061053e6004803603610539919081019061321c565b611672565b60405161054b9190613c42565b60405180910390f35b34801561056057600080fd5b5061057b6004803603610576919081019061321c565b61168f565b005b34801561058957600080fd5b506105a4600480360361059f919081019061326e565b6116e2565b005b6105b66105b16118ba565b611672565b6105f5576040517f08c379a00000000000000000000000000000000000000000000000000000000081526004016105ec90613e3d565b60405180910390fd5b60008090505b81518110156108fe57600073ffffffffffffffffffffffffffffffffffffffff1682828151811061062857fe5b602002602001015173ffffffffffffffffffffffffffffffffffffffff16141580156106945750600173ffffffffffffffffffffffffffffffffffffffff1682828151811061067357fe5b602002602001015173ffffffffffffffffffffffffffffffffffffffff1614155b6106d3576040517f08c379a00000000000000000000000000000000000000000000000000000000081526004016106ca90613f1d565b60405180910390fd5b600660008383815181106106e357fe5b602002602001015173ffffffffffffffffffffffffffffffffffffffff1673ffffffffffffffffffffffffffffffffffffffff16815260200190815260200160002060009054906101000a900460ff166107a35760016006600084848151811061074957fe5b602002602001015173ffffffffffffffffffffffffffffffffffffffff1673ffffffffffffffffffffffffffffffffffffffff16815260200190815260200160002060006101000a81548160ff0219169083151502179055505b600760008383815181106107b357fe5b602002602001015173ffffffffffffffffffffffffffffffffffffffff1673ffffffffffffffffffffffffffffffffffffffff16815260200190815260200160002060009054906101000a900460ff16156108f1576005600083838151811061081857fe5b602002602001015173ffffffffffffffffffffffffffffffffffffffff1673ffffffffffffffffffffffffffffffffffffffff1681526020019081526020016000206000808201600090556001820160009055600282016000905560038201600090556004820160009055505060006007600084848151811061089757fe5b602002602001015173ffffffffffffffffffffffffffffffffffffffff1673ffffffffffffffffffffffffffffffffffffffff16815260200190815260200160002060006101000a81548160ff0219169083151502179055505b80806001019150506105fb565b5050565b61091261090d6118ba565b611672565b610951576040517f08c379a000000000000000000000000000000000000000000000000000000000815260040161094890613e3d565b60405180910390fd5b60008090505b81518110156109cf576006600083838151811061097057fe5b602002602001015173ffffffffffffffffffffffffffffffffffffffff1673ffffffffffffffffffffffffffffffffffffffff16815260200190815260200160002060006101000a81549060ff02191690558080600101915050610957565b5050565b6109e36109de6118ba565b610acc565b610a22576040517f08c379a0000000000000000000000000000000000000000000000000000000008152600401610a1990613cbd565b60405180910390fd5b600260009054906101000a900460ff16610a71576040517f08c379a0000000000000000000000000000000000000000000000000000000008152600401610a6890613c5d565b60405180910390fd5b6000600260006101000a81548160ff0219169083151502179055507f5db9ee0a495bf2e6ff9c91a7834c1ba4fdd244a5e8aa4e537bd38aeae4b073aa610ab56118ba565b604051610ac29190613bfe565b60405180910390a1565b6000610ae28260016118c290919063ffffffff16565b9050919050565b6000610af48261198a565b80610b045750610b0382611d8c565b5b15610b125760019050610b83565b610b318273ffffffffffffffffffffffffffffffffffffffff16611f32565b610b70576040517f08c379a0000000000000000000000000000000000000000000000000000000008152600401610b6790613efd565b60405180910390fd5b610b7982611f7d565b610b828261239c565b5b919050565b610b98610b936118ba565b611672565b610bd7576040517f08c379a0000000000000000000000000000000000000000000000000000000008152600401610bce90613e3d565b60405180910390fd5b60008090505b8151811015610cd25760076000838381518110610bf657fe5b602002602001015173ffffffffffffffffffffffffffffffffffffffff1673ffffffffffffffffffffffffffffffffffffffff16815260200190815260200160002060006101000a81549060ff021916905560056000838381518110610c5857fe5b602002602001015173ffffffffffffffffffffffffffffffffffffffff1673ffffffffffffffffffffffffffffffffffffffff168152602001908152602001600020600080820160009055600182016000905560028201600090556003820160009055600482016000905550508080600101915050610bdd565b5050565b610ce6610ce16118ba565b6125ab565b565b6000600660008373ffffffffffffffffffffffffffffffffffffffff1673ffffffffffffffffffffffffffffffffffffffff16815260200190815260200160002060009054906101000a900460ff169050919050565b60046020528060005260406000206000915090508060000154908060010154905082565b60056020528060005260406000206000915090508060000154908060010154908060020154908060030154908060040154905085565b610da8610da36118ba565b611672565b610de7576040517f08c379a0000000000000000000000000000000000000000000000000000000008152600401610dde90613e3d565b60405180910390fd5b8051825114610e2b576040517f08c379a0000000000000000000000000000000000000000000000000000000008152600401610e2290613e9d565b60405180910390fd5b60008090505b825181101561108157600073ffffffffffffffffffffffffffffffffffffffff16838281518110610e5e57fe5b602002602001015173ffffffffffffffffffffffffffffffffffffffff1614158015610eca5750600173ffffffffffffffffffffffffffffffffffffffff16838281518110610ea957fe5b602002602001015173ffffffffffffffffffffffffffffffffffffffff1614155b610f09576040517f08c379a0000000000000000000000000000000000000000000000000000000008152600401610f0090613f1d565b60405180910390fd5b60076000848381518110610f1957fe5b602002602001015173ffffffffffffffffffffffffffffffffffffffff1673ffffffffffffffffffffffffffffffffffffffff16815260200190815260200160002060009054906101000a900460ff16610fd957600160076000858481518110610f7f57fe5b602002602001015173ffffffffffffffffffffffffffffffffffffffff1673ffffffffffffffffffffffffffffffffffffffff16815260200190815260200160002060006101000a81548160ff0219169083151502179055505b600060066000858481518110610feb57fe5b602002602001015173ffffffffffffffffffffffffffffffffffffffff1673ffffffffffffffffffffffffffffffffffffffff16815260200190815260200160002060006101000a81548160ff02191690831515021790555061107483828151811061105357fe5b602002602001015183838151811061106757fe5b6020026020010151611210565b8080600101915050610e31565b505050565b6000600260009054906101000a900460ff16905090565b6110ad6110a86118ba565b612605565b565b6110b76114b5565b6110f6576040517f08c379a00000000000000000000000000000000000000000000000000000000081526004016110ed90613ddd565b60405180910390fd5b600073ffffffffffffffffffffffffffffffffffffffff166000809054906101000a900473ffffffffffffffffffffffffffffffffffffffff1673ffffffffffffffffffffffffffffffffffffffff167f8be0079c531659141344cd1fd0a4f28419497f9722a3daafe3b4186f6b6457e060405160405180910390a360008060006101000a81548173ffffffffffffffffffffffffffffffffffffffff021916908373ffffffffffffffffffffffffffffffffffffffff160217905550565b6111c56111c06118ba565b611672565b611204576040517f08c379a00000000000000000000000000000000000000000000000000000000081526004016111fb90613e3d565b60405180910390fd5b61120d8161265f565b50565b61122061121b6118ba565b611672565b61125f576040517f08c379a000000000000000000000000000000000000000000000000000000000815260040161125690613e3d565b60405180910390fd5b806040015161127d6103e883608001516126b990919063ffffffff16565b11156112be576040517f08c379a00000000000000000000000000000000000000000000000000000000081526004016112b590613f5d565b60405180910390fd5b80600560008473ffffffffffffffffffffffffffffffffffffffff1673ffffffffffffffffffffffffffffffffffffffff16815260200190815260200160002060008201518160000155602082015181600101556040820151816002015560608201518160030155608082015181600401559050505050565b6113476113426118ba565b610acc565b611386576040517f08c379a000000000000000000000000000000000000000000000000000000000815260040161137d90613cbd565b60405180910390fd5b61138f81612729565b50565b6113a261139d6118ba565b610acc565b6113e1576040517f08c379a00000000000000000000000000000000000000000000000000000000081526004016113d890613cbd565b60405180910390fd5b600260009054906101000a900460ff1615611431576040517f08c379a000000000000000000000000000000000000000000000000000000000815260040161142890613d5d565b60405180910390fd5b6001600260006101000a81548160ff0219169083151502179055507f62e78cea01bee320cd4e420270b5ea74000d11b0c9f74754ebdbfc544b05a2586114756118ba565b6040516114829190613bfe565b60405180910390a1565b60008060009054906101000a900473ffffffffffffffffffffffffffffffffffffffff16905090565b60008060009054906101000a900473ffffffffffffffffffffffffffffffffffffffff1673ffffffffffffffffffffffffffffffffffffffff166114f76118ba565b73ffffffffffffffffffffffffffffffffffffffff1614905090565b600260019054906101000a900460ff1615611563576040517f08c379a000000000000000000000000000000000000000000000000000000000815260040161155a90613e5d565b60405180910390fd5b6001600260016101000a81548160ff021916908315150217905550600260009054906101000a900460ff16156115ce576040517f08c379a00000000000000000000000000000000000000000000000000000000081526004016115c590613d5d565b60405180910390fd5b6115d78161198a565b156115e6576115e581612783565b5b6115ef81611d8c565b156115fe576115fd8161293e565b5b6000600260016101000a81548160ff02191690831515021790555050565b6000600760008373ffffffffffffffffffffffffffffffffffffffff1673ffffffffffffffffffffffffffffffffffffffff16815260200190815260200160002060009054906101000a900460ff169050919050565b60006116888260036118c290919063ffffffff16565b9050919050565b6116976114b5565b6116d6576040517f08c379a00000000000000000000000000000000000000000000000000000000081526004016116cd90613ddd565b60405180910390fd5b6116df81612aed565b50565b6116ea6114b5565b611729576040517f08c379a000000000000000000000000000000000000000000000000000000000815260040161172090613ddd565b60405180910390fd5b600260019054906101000a900460ff1615611779576040517f08c379a000000000000000000000000000000000000000000000000000000000815260040161177090613e5d565b60405180910390fd5b6001600260016101000a81548160ff021916908315150217905550803073ffffffffffffffffffffffffffffffffffffffff163110156117ee576040517f08c379a00000000000000000000000000000000000000000000000000000000081526004016117e590613e1d565b60405180910390fd5b60008273ffffffffffffffffffffffffffffffffffffffff168260405161181490613bce565b60006040518083038185875af1925050503d8060008114611851576040519150601f19603f3d011682016040523d82523d6000602084013e611856565b606091505b505090508061189a576040517f08c379a000000000000000000000000000000000000000000000000000000000815260040161189190613f3d565b60405180910390fd5b506000600260016101000a81548160ff0219169083151502179055505050565b600033905090565b60008073ffffffffffffffffffffffffffffffffffffffff168273ffffffffffffffffffffffffffffffffffffffff161415611933576040517f08c379a000000000000000000000000000000000000000000000000000000000815260040161192a90613dfd565b60405180910390fd5b8260000160008373ffffffffffffffffffffffffffffffffffffffff1673ffffffffffffffffffffffffffffffffffffffff16815260200190815260200160002060009054906101000a900460ff16905092915050565b60006119ab8273ffffffffffffffffffffffffffffffffffffffff16611f32565b6119b85760009050611d87565b6000600860009054906101000a900473ffffffffffffffffffffffffffffffffffffffff1673ffffffffffffffffffffffffffffffffffffffff1663b3b28fac846040518263ffffffff1660e01b8152600401611a159190613be3565b602060405180830381600087803b158015611a2f57600080fd5b505af1158015611a43573d6000803e3d6000fd5b505050506040513d601f19601f82011682018060405250611a679190810190613393565b90506000600860009054906101000a900473ffffffffffffffffffffffffffffffffffffffff1673ffffffffffffffffffffffffffffffffffffffff166333a1af31856040518263ffffffff1660e01b8152600401611ac69190613be3565b602060405180830381600087803b158015611ae057600080fd5b505af1158015611af4573d6000803e3d6000fd5b505050506040513d601f19601f82011682018060405250611b189190810190613245565b9050611b22612f6e565b611b2b85612c1b565b90506000816040015190506000826000015190503073ffffffffffffffffffffffffffffffffffffffff168473ffffffffffffffffffffffffffffffffffffffff161480611ba55750600073ffffffffffffffffffffffffffffffffffffffff168473ffffffffffffffffffffffffffffffffffffffff16145b15611c3c57813073ffffffffffffffffffffffffffffffffffffffff163110158015611bd057508185105b8015611c30575080611c2d83600460008b73ffffffffffffffffffffffffffffffffffffffff1673ffffffffffffffffffffffffffffffffffffffff16815260200190815260200160002060000154612dca90919063ffffffff16565b11155b95505050505050611d87565b6000600860009054906101000a900473ffffffffffffffffffffffffffffffffffffffff1673ffffffffffffffffffffffffffffffffffffffff1663d665f9dd896040518263ffffffff1660e01b8152600401611c999190613be3565b602060405180830381600087803b158015611cb357600080fd5b505af1158015611cc7573d6000803e3d6000fd5b505050506040513d601f19601f82011682018060405250611ceb9190810190613393565b90508086108015611d135750823073ffffffffffffffffffffffffffffffffffffffff163110155b8015611d1e57508286105b8015611d7e575081611d7b84600460008c73ffffffffffffffffffffffffffffffffffffffff1673ffffffffffffffffffffffffffffffffffffffff16815260200190815260200160002060000154612dca90919063ffffffff16565b11155b96505050505050505b919050565b6000611dad8273ffffffffffffffffffffffffffffffffffffffff16611f32565b611dba5760009050611f2d565b6000600860009054906101000a900473ffffffffffffffffffffffffffffffffffffffff1673ffffffffffffffffffffffffffffffffffffffff1663d47e9a57846040518263ffffffff1660e01b8152600401611e179190613be3565b602060405180830381600087803b158015611e3157600080fd5b505af1158015611e45573d6000803e3d6000fd5b505050506040513d601f19601f82011682018060405250611e699190810190613393565b9050611e73612f6e565b611e7c84612c1b565b9050600081606001519050600082602001519050813073ffffffffffffffffffffffffffffffffffffffff163110158015611eb657508184105b8015611f16575080611f1383600460008a73ffffffffffffffffffffffffffffffffffffffff1673ffffffffffffffffffffffffffffffffffffffff16815260200190815260200160002060010154612dca90919063ffffffff16565b11155b15611f28576001945050505050611f2d565b505050505b919050565b60008060007fc5d2460186f7233c927e7db2dcc703c0e500b653ca82273b7bfad8045d85a47060001b9050833f9150808214158015611f7457506000801b8214155b92505050919050565b6000600860009054906101000a900473ffffffffffffffffffffffffffffffffffffffff1673ffffffffffffffffffffffffffffffffffffffff166333a1af31836040518263ffffffff1660e01b8152600401611fda9190613be3565b602060405180830381600087803b158015611ff457600080fd5b505af1158015612008573d6000803e3d6000fd5b505050506040513d601f19601f8201168201806040525061202c9190810190613245565b90506000600860009054906101000a900473ffffffffffffffffffffffffffffffffffffffff1673ffffffffffffffffffffffffffffffffffffffff1663b3b28fac846040518263ffffffff1660e01b815260040161208b9190613be3565b602060405180830381600087803b1580156120a557600080fd5b505af11580156120b9573d6000803e3d6000fd5b505050506040513d601f19601f820116820180604052506120dd9190810190613393565b90506120e7612f6e565b6120f084612c1b565b90506000816040015190506000826000015190503073ffffffffffffffffffffffffffffffffffffffff168573ffffffffffffffffffffffffffffffffffffffff161415801561216d5750600073ffffffffffffffffffffffffffffffffffffffff168573ffffffffffffffffffffffffffffffffffffffff1614155b1561226157600860009054906101000a900473ffffffffffffffffffffffffffffffffffffffff1673ffffffffffffffffffffffffffffffffffffffff1663d665f9dd876040518263ffffffff1660e01b81526004016121cd9190613be3565b602060405180830381600087803b1580156121e757600080fd5b505af11580156121fb573d6000803e3d6000fd5b505050506040513d601f19601f8201168201806040525061221f9190810190613393565b8410612260576040517f08c379a000000000000000000000000000000000000000000000000000000000815260040161225790613edd565b60405180910390fd5b5b813073ffffffffffffffffffffffffffffffffffffffff163110156122bb576040517f08c379a00000000000000000000000000000000000000000000000000000000081526004016122b290613cdd565b60405180910390fd5b8184106122fd576040517f08c379a00000000000000000000000000000000000000000000000000000000081526004016122f490613d1d565b60405180910390fd5b8061235383600460008a73ffffffffffffffffffffffffffffffffffffffff1673ffffffffffffffffffffffffffffffffffffffff16815260200190815260200160002060000154612dca90919063ffffffff16565b1115612394576040517f08c379a000000000000000000000000000000000000000000000000000000000815260040161238b90613ebd565b60405180910390fd5b505050505050565b6000600860009054906101000a900473ffffffffffffffffffffffffffffffffffffffff1673ffffffffffffffffffffffffffffffffffffffff1663d47e9a57836040518263ffffffff1660e01b81526004016123f99190613be3565b602060405180830381600087803b15801561241357600080fd5b505af1158015612427573d6000803e3d6000fd5b505050506040513d601f19601f8201168201806040525061244b9190810190613393565b9050612455612f6e565b61245e83612c1b565b9050600081606001519050600082602001519050813073ffffffffffffffffffffffffffffffffffffffff163110156124cc576040517f08c379a00000000000000000000000000000000000000000000000000000000081526004016124c390613d7d565b60405180910390fd5b81841061250e576040517f08c379a000000000000000000000000000000000000000000000000000000000815260040161250590613c9d565b60405180910390fd5b8061256483600460008973ffffffffffffffffffffffffffffffffffffffff1673ffffffffffffffffffffffffffffffffffffffff16815260200190815260200160002060010154612dca90919063ffffffff16565b106125a4576040517f08c379a000000000000000000000000000000000000000000000000000000000815260040161259b90613e7d565b60405180910390fd5b5050505050565b6125bf816003612e1f90919063ffffffff16565b8073ffffffffffffffffffffffffffffffffffffffff167f0a8eb35e5ca14b3d6f28e4abf2f128dbab231a58b56e89beb5d636115001e16560405160405180910390a250565b612619816001612e1f90919063ffffffff16565b8073ffffffffffffffffffffffffffffffffffffffff167fcd265ebaf09df2871cc7bd4133404a235ba12eff2041bb89d9c714a2621c7c7e60405160405180910390a250565b612673816003612ec690919063ffffffff16565b8073ffffffffffffffffffffffffffffffffffffffff167f22380c05984257a1cb900161c713dd71d39e74820f1aea43bd3f1bdd2096129960405160405180910390a250565b6000808314156126cc5760009050612723565b60008284029050828482816126dd57fe5b041461271e576040517f08c379a000000000000000000000000000000000000000000000000000000000815260040161271590613dbd565b60405180910390fd5b809150505b92915050565b61273d816001612ec690919063ffffffff16565b8073ffffffffffffffffffffffffffffffffffffffff167f6719d08c1888103bea251a4ed56406bd0c3e69723c8a1686e017e7bbe159b6f860405160405180910390a250565b61278b612f6e565b61279482612c1b565b9050600081604001519050600082608001519050600860009054906101000a900473ffffffffffffffffffffffffffffffffffffffff1673ffffffffffffffffffffffffffffffffffffffff16633e3e64288386846040518463ffffffff1660e01b8152600401612806929190613c19565b6000604051808303818588803b15801561281f57600080fd5b505af1158015612833573d6000803e3d6000fd5b505050505061288d82600460008773ffffffffffffffffffffffffffffffffffffffff1673ffffffffffffffffffffffffffffffffffffffff16815260200190815260200160002060000154612dca90919063ffffffff16565b600460008673ffffffffffffffffffffffffffffffffffffffff1673ffffffffffffffffffffffffffffffffffffffff168152602001908152602001600020600001819055508373ffffffffffffffffffffffffffffffffffffffff163373ffffffffffffffffffffffffffffffffffffffff167f0d517b7814d6361097aa44db26ae46a4e1244686721c5f28206a9605dc413c4a846040516129309190613f7d565b60405180910390a350505050565b612946612f6e565b61294f82612c1b565b9050600081606001519050600860009054906101000a900473ffffffffffffffffffffffffffffffffffffffff1673ffffffffffffffffffffffffffffffffffffffff1663e66c1bea82856040518363ffffffff1660e01b81526004016129b69190613be3565b6000604051808303818588803b1580156129cf57600080fd5b505af11580156129e3573d6000803e3d6000fd5b5050505050612a3d81600460008673ffffffffffffffffffffffffffffffffffffffff1673ffffffffffffffffffffffffffffffffffffffff16815260200190815260200160002060010154612dca90919063ffffffff16565b600460008573ffffffffffffffffffffffffffffffffffffffff1673ffffffffffffffffffffffffffffffffffffffff168152602001908152602001600020600101819055508273ffffffffffffffffffffffffffffffffffffffff163373ffffffffffffffffffffffffffffffffffffffff167f0d517b7814d6361097aa44db26ae46a4e1244686721c5f28206a9605dc413c4a83604051612ae09190613f7d565b60405180910390a3505050565b600073ffffffffffffffffffffffffffffffffffffffff168173ffffffffffffffffffffffffffffffffffffffff161415612b5d576040517f08c379a0000000000000000000000000000000000000000000000000000000008152600401612b5490613cfd565b60405180910390fd5b8073ffffffffffffffffffffffffffffffffffffffff166000809054906101000a900473ffffffffffffffffffffffffffffffffffffffff1673ffffffffffffffffffffffffffffffffffffffff167f8be0079c531659141344cd1fd0a4f28419497f9722a3daafe3b4186f6b6457e060405160405180910390a3806000806101000a81548173ffffffffffffffffffffffffffffffffffffffff021916908373ffffffffffffffffffffffffffffffffffffffff16021790555050565b612c23612f6e565b612c2c8261161c565b15612cb457600560008373ffffffffffffffffffffffffffffffffffffffff1673ffffffffffffffffffffffffffffffffffffffff1681526020019081526020016000206040518060a0016040529081600082015481526020016001820154815260200160028201548152602001600382015481526020016004820154815250509050612dc5565b612cbd82610ce8565b15612d465760056000600173ffffffffffffffffffffffffffffffffffffffff1673ffffffffffffffffffffffffffffffffffffffff1681526020019081526020016000206040518060a0016040529081600082015481526020016001820154815260200160028201548152602001600382015481526020016004820154815250509050612dc5565b600560008073ffffffffffffffffffffffffffffffffffffffff1673ffffffffffffffffffffffffffffffffffffffff1681526020019081526020016000206040518060a00160405290816000820154815260200160018201548152602001600282015481526020016003820154815260200160048201548152505090505b919050565b600080828401905083811015612e15576040517f08c379a0000000000000000000000000000000000000000000000000000000008152600401612e0c90613d3d565b60405180910390fd5b8091505092915050565b612e2982826118c2565b612e68576040517f08c379a0000000000000000000000000000000000000000000000000000000008152600401612e5f90613d9d565b60405180910390fd5b60008260000160008373ffffffffffffffffffffffffffffffffffffffff1673ffffffffffffffffffffffffffffffffffffffff16815260200190815260200160002060006101000a81548160ff0219169083151502179055505050565b612ed082826118c2565b15612f10576040517f08c379a0000000000000000000000000000000000000000000000000000000008152600401612f0790613c7d565b60405180910390fd5b60018260000160008373ffffffffffffffffffffffffffffffffffffffff1673ffffffffffffffffffffffffffffffffffffffff16815260200190815260200160002060006101000a81548160ff0219169083151502179055505050565b6040518060a0016040528060008152602001600081526020016000815260200160008152602001600081525090565b600081359050612fac8161413d565b92915050565b600081519050612fc18161413d565b92915050565b600081359050612fd681614154565b92915050565b600082601f830112612fed57600080fd5b8135613000612ffb82614041565b614014565b9150818183526020840193506020810190508385602084028201111561302557600080fd5b60005b83811015613055578161303b8882612f9d565b845260208401935060208301925050600181019050613028565b5050505092915050565b600082601f83011261307057600080fd5b813561308361307e82614069565b614014565b915081818352602084019350602081019050838560a08402820111156130a857600080fd5b60005b838110156130d857816130be88826130e2565b845260208401935060a083019250506001810190506130ab565b5050505092915050565b600060a082840312156130f457600080fd5b6130fe60a0614014565b9050600061310e848285016131f2565b6000830152506020613122848285016131f2565b6020830152506040613136848285016131f2565b604083015250606061314a848285016131f2565b606083015250608061315e848285016131f2565b60808301525092915050565b600060a0828403121561317c57600080fd5b61318660a0614014565b90506000613196848285016131f2565b60008301525060206131aa848285016131f2565b60208301525060406131be848285016131f2565b60408301525060606131d2848285016131f2565b60608301525060806131e6848285016131f2565b60808301525092915050565b6000813590506132018161416b565b92915050565b6000815190506132168161416b565b92915050565b60006020828403121561322e57600080fd5b600061323c84828501612f9d565b91505092915050565b60006020828403121561325757600080fd5b600061326584828501612fb2565b91505092915050565b6000806040838503121561328157600080fd5b600061328f85828601612fc7565b92505060206132a0858286016131f2565b9150509250929050565b60008060c083850312156132bd57600080fd5b60006132cb85828601612f9d565b92505060206132dc8582860161316a565b9150509250929050565b6000602082840312156132f857600080fd5b600082013567ffffffffffffffff81111561331257600080fd5b61331e84828501612fdc565b91505092915050565b6000806040838503121561333a57600080fd5b600083013567ffffffffffffffff81111561335457600080fd5b61336085828601612fdc565b925050602083013567ffffffffffffffff81111561337d57600080fd5b6133898582860161305f565b9150509250929050565b6000602082840312156133a557600080fd5b60006133b384828501613207565b91505092915050565b6133c581614107565b82525050565b6133d4816140ad565b82525050565b6133e3816140d1565b82525050565b60006133f660148361409c565b91507f5061757361626c653a206e6f74207061757365640000000000000000000000006000830152602082019050919050565b6000613436601f8361409c565b91507f526f6c65733a206163636f756e7420616c72656164792068617320726f6c65006000830152602082019050919050565b600061347660268361409c565b91507f4552524f525f434f4c4c41544552414c5f53504f4e534f5245445f46554e445f60008301527f554e5553454400000000000000000000000000000000000000000000000000006020830152604082019050919050565b60006134dc60308361409c565b91507f506175736572526f6c653a2063616c6c657220646f6573206e6f74206861766560008301527f207468652050617573657220726f6c65000000000000000000000000000000006020830152604082019050919050565b6000613542601d8361409c565b91507f4552524f525f4741535f4641554345545f4f55545f4f465f4d4f4e45590000006000830152602082019050919050565b600061358260268361409c565b91507f4f776e61626c653a206e6577206f776e657220697320746865207a65726f206160008301527f64647265737300000000000000000000000000000000000000000000000000006020830152604082019050919050565b60006135e8601f8361409c565b91507f4552524f525f4741535f53504f4e534f5245445f46554e445f554e55534544006000830152602082019050919050565b6000613628601b8361409c565b91507f536166654d6174683a206164646974696f6e206f766572666c6f7700000000006000830152602082019050919050565b600061366860108361409c565b91507f5061757361626c653a20706175736564000000000000000000000000000000006000830152602082019050919050565b60006136a860248361409c565b91507f4552524f525f434f4c4c41544552414c5f4641554345545f4f55545f4f465f4d60008301527f4f4e4559000000000000000000000000000000000000000000000000000000006020830152604082019050919050565b600061370e60218361409c565b91507f526f6c65733a206163636f756e7420646f6573206e6f74206861766520726f6c60008301527f65000000000000000000000000000000000000000000000000000000000000006020830152604082019050919050565b600061377460218361409c565b91507f536166654d6174683a206d756c7469706c69636174696f6e206f766572666c6f60008301527f77000000000000000000000000000000000000000000000000000000000000006020830152604082019050919050565b60006137da60208361409c565b91507f4f776e61626c653a2063616c6c6572206973206e6f7420746865206f776e65726000830152602082019050919050565b600061381a60228361409c565b91507f526f6c65733a206163636f756e7420697320746865207a65726f20616464726560008301527f73730000000000000000000000000000000000000000000000000000000000006020830152604082019050919050565b6000613880600f8361409c565b91507f616d6f756e7420746f6f206869676800000000000000000000000000000000006000830152602082019050919050565b60006138c060408361409c565b91507f57686974656c69737441646d696e526f6c653a2063616c6c657220646f65732060008301527f6e6f742068617665207468652057686974656c69737441646d696e20726f6c656020830152604082019050919050565b600061392660128361409c565b91507f5245454e5452414e43595f494c4c4547414c00000000000000000000000000006000830152602082019050919050565b6000613966602c8361409c565b91507f4552524f525f434f4c4c41544552414c5f4f5645525f434f4c4c41544552414c60008301527f5f544f54414c5f4c494d495400000000000000000000000000000000000000006020830152604082019050919050565b60006139cc600083614091565b9150600082019050919050565b60006139e660108361409c565b91507f6c656e677468206e6f74206d61746368000000000000000000000000000000006000830152602082019050919050565b6000613a26601e8361409c565b91507f4552524f525f4741535f4f5645525f4741535f544f54414c5f4c494d495400006000830152602082019050919050565b6000613a66602c8361409c565b91507f4552524f525f4741535f43414e4e4f545f5245504c4143455f54484952445f5060008301527f415254595f53504f4e534f5200000000000000000000000000000000000000006020830152604082019050919050565b6000613acc601d8361409c565b91507f4552524f525f414444524553535f49535f4e4f545f434f4e54524143540000006000830152602082019050919050565b6000613b0c601f8361409c565b91507f726573657276656420616464726573732063616e2774206265206164646564006000830152602082019050919050565b6000613b4c600f8361409c565b91507f7769746864726177206661696c656400000000000000000000000000000000006000830152602082019050919050565b6000613b8c60138361409c565b91507f7570706572426f756e6420746f6f2068696768000000000000000000000000006000830152602082019050919050565b613bc8816140fd565b82525050565b6000613bd9826139bf565b9150819050919050565b6000602082019050613bf860008301846133cb565b92915050565b6000602082019050613c1360008301846133bc565b92915050565b6000604082019050613c2e60008301856133cb565b613c3b6020830184613bbf565b9392505050565b6000602082019050613c5760008301846133da565b92915050565b60006020820190508181036000830152613c76816133e9565b9050919050565b60006020820190508181036000830152613c9681613429565b9050919050565b60006020820190508181036000830152613cb681613469565b9050919050565b60006020820190508181036000830152613cd6816134cf565b9050919050565b60006020820190508181036000830152613cf681613535565b9050919050565b60006020820190508181036000830152613d1681613575565b9050919050565b60006020820190508181036000830152613d36816135db565b9050919050565b60006020820190508181036000830152613d568161361b565b9050919050565b60006020820190508181036000830152613d768161365b565b9050919050565b60006020820190508181036000830152613d968161369b565b9050919050565b60006020820190508181036000830152613db681613701565b9050919050565b60006020820190508181036000830152613dd681613767565b9050919050565b60006020820190508181036000830152613df6816137cd565b9050919050565b60006020820190508181036000830152613e168161380d565b9050919050565b60006020820190508181036000830152613e3681613873565b9050919050565b60006020820190508181036000830152613e56816138b3565b9050919050565b60006020820190508181036000830152613e7681613919565b9050919050565b60006020820190508181036000830152613e9681613959565b9050919050565b60006020820190508181036000830152613eb6816139d9565b9050919050565b60006020820190508181036000830152613ed681613a19565b9050919050565b60006020820190508181036000830152613ef681613a59565b9050919050565b60006020820190508181036000830152613f1681613abf565b9050919050565b60006020820190508181036000830152613f3681613aff565b9050919050565b60006020820190508181036000830152613f5681613b3f565b9050919050565b60006020820190508181036000830152613f7681613b7f565b9050919050565b6000602082019050613f926000830184613bbf565b92915050565b6000604082019050613fad6000830185613bbf565b613fba6020830184613bbf565b9392505050565b600060a082019050613fd66000830188613bbf565b613fe36020830187613bbf565b613ff06040830186613bbf565b613ffd6060830185613bbf565b61400a6080830184613bbf565b9695505050505050565b6000604051905081810181811067ffffffffffffffff8211171561403757600080fd5b8060405250919050565b600067ffffffffffffffff82111561405857600080fd5b602082029050602081019050919050565b600067ffffffffffffffff82111561408057600080fd5b602082029050602081019050919050565b600081905092915050565b600082825260208201905092915050565b60006140b8826140dd565b9050919050565b60006140ca826140dd565b9050919050565b60008115159050919050565b600073ffffffffffffffffffffffffffffffffffffffff82169050919050565b6000819050919050565b600061411282614119565b9050919050565b60006141248261412b565b9050919050565b6000614136826140dd565b9050919050565b614146816140ad565b811461415157600080fd5b50565b61415d816140bf565b811461416857600080fd5b50565b614174816140fd565b811461417f57600080fd5b5056fea365627a7a7231582087d40fb4dbcb35aeaaa460a7cde4a31f5cb250d839c2b7b8e67bf729910fe4416c6578706572696d656e74616cf564736f6c634300050b0040",
  "source": "pragma solidity 0.5.11;\npragma experimental ABIEncoderV2;\n\nimport \"@openzeppelin/contracts/ownership/Ownable.sol\";\nimport \"@openzeppelin/contracts/lifecycle/Pausable.sol\";\nimport \"@openzeppelin/contracts/access/roles/WhitelistAdminRole.sol\";\nimport \"@openzeppelin/contracts/math/SafeMath.sol\";\nimport \"@openzeppelin/contracts/utils/Address.sol\";\nimport \"./Lib/ReentrancyGuard.sol\";\nimport \"./InternalContract.sol\";\n\ncontract SponsorFaucet is\n    Ownable,\n    Pausable,\n    ReentrancyGuard,\n    WhitelistAdminRole\n{\n    using SafeMath for uint256;\n    using Address for address;\n\n    struct Detail {\n        //current accumulated sponsored amout for gas\n        uint256 gas_amount_accumulated;\n        //current total sponsored amount for collateral\n        uint256 collateral_amount_accumulated;\n    }\n\n    struct Bounds {\n        //total sponsored limit\n        uint256 gas_total_limit;\n        uint256 collateral_total_limit;\n        //single sponsor bound\n        uint256 gas_bound;\n        uint256 collateral_bound;\n        //upper bound for single tx\n        uint256 upper_bound;\n    }\n\n    //constant address used as key for small and large\n    address constant small = 0x0000000000000000000000000000000000000000;\n    address constant large = 0x0000000000000000000000000000000000000001;\n\n    // for all contracts\n    mapping(address => Detail) public dapps;\n\n    // bounds for contracts\n    mapping(address => Bounds) public dapp_bounds;\n\n    mapping(address => bool) private large_contracts;\n    mapping(address => bool) private custom_contracts;\n\n    event applied(\n        address indexed applicant,\n        address indexed dapp,\n        uint256 amount\n    );\n\n    SponsorWhitelistControl internal_sponsor = SponsorWhitelistControl(\n        0x0888000000000000000000000000000000000001\n    );\n\n    constructor(Bounds memory smallBounds, Bounds memory largeBounds) public {\n        //rule by internal contract\n        require(\n            smallBounds.upper_bound.mul(1000) <= smallBounds.gas_bound,\n            \"upperBound too high\"\n        );\n        require(\n            largeBounds.upper_bound.mul(1000) <= largeBounds.gas_bound,\n            \"upperBound too high\"\n        );\n        dapp_bounds[small] = smallBounds;\n        dapp_bounds[large] = largeBounds;\n    }\n\n    /*** Dapp dev calls ***/\n    /**\n     * @dev apply gas and collateral for contract\n     * @param dapp contract address\n     */\n    function applyGasAndCollateral(address dapp)\n        public\n        nonReentrant\n        whenNotPaused\n    {\n        if (_isAppliableForGas(dapp)) _applyForGas(dapp);\n        if (_isAppliableForCollateral(dapp)) _applyForCollateral(dapp);\n    }\n\n    /**\n     * @dev check if a contract can be sponsored and if not throw error code\n     * @param dapp contract address\n     */\n    function isAppliable(address dapp) public returns (bool) {\n        if (_isAppliableForGas(dapp) || _isAppliableForCollateral(dapp))\n            return true;\n        require(dapp.isContract(), \"ERROR_ADDRESS_IS_NOT_CONTRACT\");\n        _validateApplyForGas(dapp);\n        _validateApplyForCollateral(dapp);\n    }\n\n    /**\n     * @dev accept sponsor's cfx\n     */\n    function() external payable {}\n\n    /**\n     * @dev withdraw to specific address by amount\n     * @param sponsor withdrawal refund address\n     * @param amount withdrawal amount\n     */\n    function withdraw(address payable sponsor, uint256 amount)\n        public\n        onlyOwner\n        nonReentrant\n    {\n        require(address(this).balance >= amount, \"amount too high\");\n        (bool success, ) = sponsor.call.value(amount)(\"\");\n        require(success, \"withdraw failed\");\n    }\n\n    /**\n     * @dev set bounds for sponsorship\n     * @param addr contract address to be sponsored, small => 0x0...0, large => 0x0...1, custom => contract address\n     * @param bounds structed bounds for contract\n     */\n    function setBounds(address addr, Bounds memory bounds) public onlyWhitelistAdmin {\n        //rule by internal contract\n        require(\n            bounds.upper_bound.mul(1000) <= bounds.gas_bound,\n            \"upperBound too high\"\n        );\n        dapp_bounds[addr] = bounds;\n    }\n\n    /* ===== Public utility functions ===== */\n    /**\n     * @dev add contract addresses to large_contracts list\n     * @param addrList contract address list\n     */\n    function addLargeContracts(address[] memory addrList) public onlyWhitelistAdmin {\n        for (uint256 i = 0; i < addrList.length; i++) {\n            require(addrList[i] != small && addrList[i] != large, \"reserved address can't be added\");\n            if(!large_contracts[addrList[i]]) large_contracts[addrList[i]] = true;\n            if (custom_contracts[addrList[i]]) {\n                delete dapp_bounds[addrList[i]];\n                custom_contracts[addrList[i]] = false;\n            }\n        }\n    }\n\n    /**\n     * @dev add contract addresses to custom_contracts list\n     * @param addrList contract address list\n     * @param boundsList bounds list\n     */\n    function addCustomContracts(\n        address[] memory addrList,\n        Bounds[] memory boundsList\n    ) public onlyWhitelistAdmin {\n        require(addrList.length == boundsList.length, \"length not match\");\n        for (uint256 i = 0; i < addrList.length; i++) {\n            require(addrList[i] != small && addrList[i] != large, \"reserved address can't be added\");\n            if(!custom_contracts[addrList[i]]) custom_contracts[addrList[i]] = true;\n            large_contracts[addrList[i]] = false;\n            setBounds(addrList[i], boundsList[i]);\n        }\n    }\n\n    /**\n     * @dev remove contract from large_contracts list\n     * @param addrList contract address list\n     */\n    function removeLargeContract(address[] memory addrList) public onlyWhitelistAdmin { \n        for (uint256 i = 0; i < addrList.length; i++) {\n            delete large_contracts[addrList[i]];\n        }\n    }\n\n    /**\n     * @dev remove contract from custom_contracts list\n     * @param addrList contract address list\n     */\n    function removeCustomContract(address[] memory addrList) public onlyWhitelistAdmin {\n        for (uint256 i = 0; i < addrList.length; i++) {\n            delete custom_contracts[addrList[i]];\n            delete dapp_bounds[addrList[i]];\n        }\n    }\n\n    /**\n     * @dev check if contract in large_contracts list\n     * @param dapp contract address\n     */\n    function isLargeContract(address dapp) public view returns (bool) {\n        return large_contracts[dapp];\n    }\n\n    /**\n     * @dev check if contract in custom_contracts list\n     * @param dapp contract address\n     */\n    function isCustomContract(address dapp) public view returns (bool) {\n        return custom_contracts[dapp];\n    }\n\n    /*** internal helper functions ***/\n\n    function _isAppliableForGas(address dapp) internal returns (bool) {\n        if (!dapp.isContract()) return false;\n        uint256 gas_balance = internal_sponsor.getSponsoredBalanceForGas(dapp);\n        address current_sponsor = internal_sponsor.getSponsorForGas(dapp);\n        Bounds memory current_bounds = _getBounds(dapp);\n        uint256 contract_gas_bound = current_bounds.gas_bound;\n        uint256 contract_gas_total_limit = current_bounds.gas_total_limit; \n\n        if (\n            current_sponsor == address(this) ||\n            current_sponsor ==\n            address(0x0000000000000000000000000000000000000000)\n        ) {\n            return\n                address(this).balance >= contract_gas_bound &&\n                gas_balance < contract_gas_bound &&\n                dapps[dapp].gas_amount_accumulated.add(contract_gas_bound) <=\n                contract_gas_total_limit;\n        }\n\n        uint256 current_upper_bound = internal_sponsor\n            .getSponsoredGasFeeUpperBound(dapp);\n        return\n            gas_balance < current_upper_bound &&\n            address(this).balance >= contract_gas_bound &&\n            gas_balance < contract_gas_bound &&\n            dapps[dapp].gas_amount_accumulated.add(contract_gas_bound) <=\n            contract_gas_total_limit;\n    }\n\n    function _validateApplyForGas(address dapp) internal {\n        address current_sponsor = internal_sponsor.getSponsorForGas(dapp);\n        uint256 gas_balance = internal_sponsor.getSponsoredBalanceForGas(dapp);\n        Bounds memory current_bounds = _getBounds(dapp);\n        uint256 contract_gas_bound = current_bounds.gas_bound;\n        uint256 contract_gas_total_limit = current_bounds.gas_total_limit;\n\n        if (\n            current_sponsor != address(this) &&\n            current_sponsor !=\n            address(0x0000000000000000000000000000000000000000)\n        ) {\n            require(\n                gas_balance <\n                    internal_sponsor.getSponsoredGasFeeUpperBound(dapp),\n                \"ERROR_GAS_CANNOT_REPLACE_THIRD_PARTY_SPONSOR\"\n            );\n        }\n        require(\n            address(this).balance >= contract_gas_bound,\n            \"ERROR_GAS_FAUCET_OUT_OF_MONEY\"\n        );\n        require(\n            gas_balance < contract_gas_bound,\n            \"ERROR_GAS_SPONSORED_FUND_UNUSED\"\n        );\n        require(\n            dapps[dapp].gas_amount_accumulated.add(contract_gas_bound) <=\n                contract_gas_total_limit,\n            \"ERROR_GAS_OVER_GAS_TOTAL_LIMIT\"\n        );\n    }\n\n    function _isAppliableForCollateral(address dapp) internal returns (bool) {\n        if (!dapp.isContract()) return false;\n        uint256 collateral_balance = internal_sponsor\n            .getSponsoredBalanceForCollateral(dapp);\n        Bounds memory current_bounds = _getBounds(dapp);\n        uint256 contract_collateral_bound = current_bounds.collateral_bound;\n        uint256 contract_collateral_total_limit = current_bounds.collateral_total_limit;\n        \n        if (\n            address(this).balance >= contract_collateral_bound &&\n            collateral_balance < contract_collateral_bound &&\n            dapps[dapp].collateral_amount_accumulated.add(\n                contract_collateral_bound\n            ) <=\n            contract_collateral_total_limit\n        ) {\n            return true;\n        }\n    }\n\n    function _validateApplyForCollateral(address dapp) internal {\n        uint256 collateral_balance = internal_sponsor\n            .getSponsoredBalanceForCollateral(dapp);\n        Bounds memory current_bounds = _getBounds(dapp);\n        uint256 contract_collateral_bound = current_bounds.collateral_bound;\n        uint256 contract_collateral_total_limit = current_bounds.collateral_total_limit;\n        \n        require(\n            address(this).balance >= contract_collateral_bound,\n            \"ERROR_COLLATERAL_FAUCET_OUT_OF_MONEY\"\n        );\n        require(\n            collateral_balance < contract_collateral_bound,\n            \"ERROR_COLLATERAL_SPONSORED_FUND_UNUSED\"\n        );\n        require(\n            dapps[dapp].collateral_amount_accumulated.add(\n                contract_collateral_bound\n            ) < contract_collateral_total_limit,\n            \"ERROR_COLLATERAL_OVER_COLLATERAL_TOTAL_LIMIT\"\n        );\n    }\n\n    function _applyForGas(address dapp) internal {\n        Bounds memory current_bounds = _getBounds(dapp);\n        uint256 contract_gas_bound = current_bounds.gas_bound;\n        uint256 contract_upper_bound = current_bounds.upper_bound; \n        \n        internal_sponsor.setSponsorForGas.value(contract_gas_bound)(\n            dapp,\n            contract_upper_bound\n        );\n        dapps[dapp].gas_amount_accumulated = dapps[dapp]\n            .gas_amount_accumulated\n            .add(contract_gas_bound);\n        emit applied(msg.sender, dapp, contract_gas_bound);\n    }\n\n    function _applyForCollateral(address dapp) internal {\n        Bounds memory current_bounds = _getBounds(dapp);\n        uint256 contract_collateral_bound = current_bounds.collateral_bound;\n        \n        internal_sponsor.setSponsorForCollateral.value(\n            contract_collateral_bound\n        )(dapp);\n        dapps[dapp].collateral_amount_accumulated = dapps[dapp]\n            .collateral_amount_accumulated\n            .add(contract_collateral_bound);\n        emit applied(msg.sender, dapp, contract_collateral_bound);\n    }\n\n    function _getBounds(address dapp) internal view returns (Bounds memory) {\n        if(isCustomContract(dapp)) return dapp_bounds[dapp];\n        if(isLargeContract(dapp)) return dapp_bounds[large];\n        return dapp_bounds[small];\n    } \n}\n",
  "sourcePath": "/Users/xiongyu/conflux-sponsor-faucet/contracts/SponsorFaucet.sol",
  "compiler": {
    "name": "solc",
    "version": "0.5.11+commit.c082d0b4.Emscripten.clang"
  },
  "schemaVersion": "3.2.2",
  "updatedAt": "2020-11-26T03:48:39.961Z",
  "devdoc": {
    "methods": {
      "addCustomContracts(address[],(uint256,uint256,uint256,uint256,uint256)[])": {
        "details": "add contract addresses to custom_contracts list",
        "params": {
          "addrList": "contract address list",
          "boundsList": "bounds list"
        }
      },
      "addLargeContracts(address[])": {
        "details": "add contract addresses to large_contracts list",
        "params": {
          "addrList": "contract address list"
        }
      },
      "applyGasAndCollateral(address)": {
        "details": "apply gas and collateral for contract",
        "params": {
          "dapp": "contract address"
        }
      },
      "isAppliable(address)": {
        "details": "check if a contract can be sponsored and if not throw error code",
        "params": {
          "dapp": "contract address"
        }
      },
      "isCustomContract(address)": {
        "details": "check if contract in custom_contracts list",
        "params": {
          "dapp": "contract address"
        }
      },
      "isLargeContract(address)": {
        "details": "check if contract in large_contracts list",
        "params": {
          "dapp": "contract address"
        }
      },
      "isOwner()": {
        "details": "Returns true if the caller is the current owner."
      },
      "owner()": {
        "details": "Returns the address of the current owner."
      },
      "pause()": {
        "details": "Called by a pauser to pause, triggers stopped state."
      },
      "paused()": {
        "details": "Returns true if the contract is paused, and false otherwise."
      },
      "removeCustomContract(address[])": {
        "details": "remove contract from custom_contracts list",
        "params": {
          "addrList": "contract address list"
        }
      },
      "removeLargeContract(address[])": {
        "details": "remove contract from large_contracts list",
        "params": {
          "addrList": "contract address list"
        }
      },
      "renounceOwnership()": {
        "details": "Leaves the contract without owner. It will not be possible to call `onlyOwner` functions anymore. Can only be called by the current owner.     * NOTE: Renouncing ownership will leave the contract without an owner, thereby removing any functionality that is only available to the owner."
      },
      "setBounds(address,(uint256,uint256,uint256,uint256,uint256))": {
        "details": "set bounds for sponsorship",
        "params": {
          "addr": "contract address to be sponsored, small => 0x0...0, large => 0x0...1, custom => contract address",
          "bounds": "structed bounds for contract"
        }
      },
      "transferOwnership(address)": {
        "details": "Transfers ownership of the contract to a new account (`newOwner`). Can only be called by the current owner."
      },
      "unpause()": {
        "details": "Called by a pauser to unpause, returns to normal state."
      },
      "withdraw(address,uint256)": {
        "details": "withdraw to specific address by amount",
        "params": {
          "amount": "withdrawal amount",
          "sponsor": "withdrawal refund address"
        }
      }
    }
  },
  "userdoc": {
    "methods": {}
  }
}