{
  "contractName": "SponsorFaucet",
  "abi": [
    {
      "constant": false,
      "inputs": [],
      "name": "unpause",
      "outputs": [],
      "payable": false,
      "stateMutability": "nonpayable",
      "type": "function"
    },
    {
      "constant": true,
      "inputs": [
        {
          "internalType": "address",
          "name": "account",
          "type": "address"
        }
      ],
      "name": "isPauser",
      "outputs": [
        {
          "internalType": "bool",
          "name": "",
          "type": "bool"
        }
      ],
      "payable": false,
      "stateMutability": "view",
      "type": "function"
    },
    {
      "constant": true,
      "inputs": [
        {
          "internalType": "address",
          "name": "",
          "type": "address"
        }
      ],
      "name": "dapps",
      "outputs": [
        {
          "internalType": "uint256",
          "name": "gas_amount_accumulated",
          "type": "uint256"
        },
        {
          "internalType": "uint256",
          "name": "collateral_amount_accumulated",
          "type": "uint256"
        }
      ],
      "payable": false,
      "stateMutability": "view",
      "type": "function"
    },
    {
      "constant": true,
      "inputs": [],
      "name": "collateral_total_limit",
      "outputs": [
        {
          "internalType": "uint256",
          "name": "",
          "type": "uint256"
        }
      ],
      "payable": false,
      "stateMutability": "view",
      "type": "function"
    },
    {
      "constant": true,
      "inputs": [],
      "name": "paused",
      "outputs": [
        {
          "internalType": "bool",
          "name": "",
          "type": "bool"
        }
      ],
      "payable": false,
      "stateMutability": "view",
      "type": "function"
    },
    {
      "constant": true,
      "inputs": [],
      "name": "gas_total_limit",
      "outputs": [
        {
          "internalType": "uint256",
          "name": "",
          "type": "uint256"
        }
      ],
      "payable": false,
      "stateMutability": "view",
      "type": "function"
    },
    {
      "constant": false,
      "inputs": [],
      "name": "renouncePauser",
      "outputs": [],
      "payable": false,
      "stateMutability": "nonpayable",
      "type": "function"
    },
    {
      "constant": false,
      "inputs": [],
      "name": "renounceOwnership",
      "outputs": [],
      "payable": false,
      "stateMutability": "nonpayable",
      "type": "function"
    },
    {
      "constant": false,
      "inputs": [
        {
          "internalType": "address",
          "name": "account",
          "type": "address"
        }
      ],
      "name": "addPauser",
      "outputs": [],
      "payable": false,
      "stateMutability": "nonpayable",
      "type": "function"
    },
    {
      "constant": false,
      "inputs": [],
      "name": "pause",
      "outputs": [],
      "payable": false,
      "stateMutability": "nonpayable",
      "type": "function"
    },
    {
      "constant": true,
      "inputs": [],
      "name": "upper_bound",
      "outputs": [
        {
          "internalType": "uint256",
          "name": "",
          "type": "uint256"
        }
      ],
      "payable": false,
      "stateMutability": "view",
      "type": "function"
    },
    {
      "constant": true,
      "inputs": [],
      "name": "owner",
      "outputs": [
        {
          "internalType": "address",
          "name": "",
          "type": "address"
        }
      ],
      "payable": false,
      "stateMutability": "view",
      "type": "function"
    },
    {
      "constant": true,
      "inputs": [],
      "name": "isOwner",
      "outputs": [
        {
          "internalType": "bool",
          "name": "",
          "type": "bool"
        }
      ],
      "payable": false,
      "stateMutability": "view",
      "type": "function"
    },
    {
      "constant": true,
      "inputs": [],
      "name": "gas_bound",
      "outputs": [
        {
          "internalType": "uint256",
          "name": "",
          "type": "uint256"
        }
      ],
      "payable": false,
      "stateMutability": "view",
      "type": "function"
    },
    {
      "constant": true,
      "inputs": [],
      "name": "collateral_bound",
      "outputs": [
        {
          "internalType": "uint256",
          "name": "",
          "type": "uint256"
        }
      ],
      "payable": false,
      "stateMutability": "view",
      "type": "function"
    },
    {
      "constant": false,
      "inputs": [
        {
          "internalType": "address",
          "name": "newOwner",
          "type": "address"
        }
      ],
      "name": "transferOwnership",
      "outputs": [],
      "payable": false,
      "stateMutability": "nonpayable",
      "type": "function"
    },
    {
      "inputs": [
        {
          "internalType": "uint256",
          "name": "gasTotalLimit",
          "type": "uint256"
        },
        {
          "internalType": "uint256",
          "name": "collateralTotalLimit",
          "type": "uint256"
        },
        {
          "internalType": "uint256",
          "name": "gasBound",
          "type": "uint256"
        },
        {
          "internalType": "uint256",
          "name": "collateralBound",
          "type": "uint256"
        },
        {
          "internalType": "uint256",
          "name": "upperBound",
          "type": "uint256"
        }
      ],
      "payable": false,
      "stateMutability": "nonpayable",
      "type": "constructor"
    },
    {
      "payable": true,
      "stateMutability": "payable",
      "type": "fallback"
    },
    {
      "anonymous": false,
      "inputs": [
        {
          "indexed": true,
          "internalType": "address",
          "name": "applicant",
          "type": "address"
        },
        {
          "indexed": true,
          "internalType": "address",
          "name": "dapp",
          "type": "address"
        },
        {
          "indexed": false,
          "internalType": "uint256",
          "name": "amount",
          "type": "uint256"
        }
      ],
      "name": "applied",
      "type": "event"
    },
    {
      "anonymous": false,
      "inputs": [
        {
          "indexed": false,
          "internalType": "address",
          "name": "account",
          "type": "address"
        }
      ],
      "name": "Paused",
      "type": "event"
    },
    {
      "anonymous": false,
      "inputs": [
        {
          "indexed": false,
          "internalType": "address",
          "name": "account",
          "type": "address"
        }
      ],
      "name": "Unpaused",
      "type": "event"
    },
    {
      "anonymous": false,
      "inputs": [
        {
          "indexed": true,
          "internalType": "address",
          "name": "account",
          "type": "address"
        }
      ],
      "name": "PauserAdded",
      "type": "event"
    },
    {
      "anonymous": false,
      "inputs": [
        {
          "indexed": true,
          "internalType": "address",
          "name": "account",
          "type": "address"
        }
      ],
      "name": "PauserRemoved",
      "type": "event"
    },
    {
      "anonymous": false,
      "inputs": [
        {
          "indexed": true,
          "internalType": "address",
          "name": "previousOwner",
          "type": "address"
        },
        {
          "indexed": true,
          "internalType": "address",
          "name": "newOwner",
          "type": "address"
        }
      ],
      "name": "OwnershipTransferred",
      "type": "event"
    },
    {
      "constant": false,
      "inputs": [
        {
          "internalType": "address",
          "name": "dapp",
          "type": "address"
        }
      ],
      "name": "applyGasAndCollateral",
      "outputs": [],
      "payable": false,
      "stateMutability": "nonpayable",
      "type": "function"
    },
    {
      "constant": false,
      "inputs": [
        {
          "internalType": "address",
          "name": "dapp",
          "type": "address"
        }
      ],
      "name": "isAppliable",
      "outputs": [
        {
          "internalType": "bool",
          "name": "",
          "type": "bool"
        }
      ],
      "payable": false,
      "stateMutability": "nonpayable",
      "type": "function"
    },
    {
      "constant": false,
      "inputs": [
        {
          "internalType": "address payable",
          "name": "sponsor",
          "type": "address"
        },
        {
          "internalType": "uint256",
          "name": "amount",
          "type": "uint256"
        }
      ],
      "name": "withdraw",
      "outputs": [],
      "payable": false,
      "stateMutability": "nonpayable",
      "type": "function"
    },
    {
      "constant": false,
      "inputs": [
        {
          "internalType": "uint256",
          "name": "gasTotalLimit",
          "type": "uint256"
        },
        {
          "internalType": "uint256",
          "name": "collateralTotalLimit",
          "type": "uint256"
        },
        {
          "internalType": "uint256",
          "name": "gasBound",
          "type": "uint256"
        },
        {
          "internalType": "uint256",
          "name": "collateralBound",
          "type": "uint256"
        },
        {
          "internalType": "uint256",
          "name": "upperBound",
          "type": "uint256"
        }
      ],
      "name": "setBounds",
      "outputs": [],
      "payable": false,
      "stateMutability": "nonpayable",
      "type": "function"
    }
  ],
  "bytecode": "0x60806040526000600260016101000a81548160ff021916908315150217905550730888000000000000000000000000000000000001600960006101000a81548173ffffffffffffffffffffffffffffffffffffffff021916908373ffffffffffffffffffffffffffffffffffffffff1602179055503480156200008157600080fd5b50604051620030ed380380620030ed833981810160405260a0811015620000a757600080fd5b8101908080519060200190929190805190602001909291908051906020019092919080519060200190929190805190602001909291905050506000620000f26200028b60201b60201c565b9050806000806101000a81548173ffffffffffffffffffffffffffffffffffffffff021916908373ffffffffffffffffffffffffffffffffffffffff1602179055508073ffffffffffffffffffffffffffffffffffffffff16600073ffffffffffffffffffffffffffffffffffffffff167f8be0079c531659141344cd1fd0a4f28419497f9722a3daafe3b4186f6b6457e060405160405180910390a350620001b0620001a46200028b60201b60201c565b6200029360201b60201c565b6000600260006101000a81548160ff02191690831515021790555082620001e86103e883620002f460201b620021981790919060201c565b11156200025d576040517f08c379a00000000000000000000000000000000000000000000000000000000081526004018080602001828103825260138152602001807f7570706572426f756e6420746f6f20686967680000000000000000000000000081525060200191505060405180910390fd5b8460038190555083600481905550826005819055508160068190555080600781905550505050505062000543565b600033905090565b620002ae8160016200037f60201b620028eb1790919060201c565b8073ffffffffffffffffffffffffffffffffffffffff167f6719d08c1888103bea251a4ed56406bd0c3e69723c8a1686e017e7bbe159b6f860405160405180910390a250565b60008083141562000309576000905062000379565b60008284029050828482816200031b57fe5b041462000374576040517f08c379a0000000000000000000000000000000000000000000000000000000008152600401808060200182810382526021815260200180620030aa6021913960400191505060405180910390fd5b809150505b92915050565b6200039182826200046360201b60201c565b1562000405576040517f08c379a000000000000000000000000000000000000000000000000000000000815260040180806020018281038252601f8152602001807f526f6c65733a206163636f756e7420616c72656164792068617320726f6c650081525060200191505060405180910390fd5b60018260000160008373ffffffffffffffffffffffffffffffffffffffff1673ffffffffffffffffffffffffffffffffffffffff16815260200190815260200160002060006101000a81548160ff0219169083151502179055505050565b60008073ffffffffffffffffffffffffffffffffffffffff168273ffffffffffffffffffffffffffffffffffffffff161415620004ec576040517f08c379a0000000000000000000000000000000000000000000000000000000008152600401808060200182810382526022815260200180620030cb6022913960400191505060405180910390fd5b8260000160008373ffffffffffffffffffffffffffffffffffffffff1673ffffffffffffffffffffffffffffffffffffffff16815260200190815260200160002060009054906101000a900460ff16905092915050565b612b5780620005536000396000f3fe60806040526004361061011f5760003560e01c806382dc1ec4116100a05780639c27c7e1116100645780639c27c7e1146104a55780639ca64c41146104f6578063ca9c8c3714610521578063f2fde38b1461054c578063f3fef3a31461059d5761011f565b806382dc1ec41461038c5780638456cb59146103dd57806385eb4dab146103f45780638da5cb5b1461041f5780638f32d59b146104765761011f565b80635607a2c4116100e75780635607a2c4146102d95780635c975abb146103045780635f929b7b146103335780636ef8d66d1461035e578063715018a6146103755761011f565b80633f4ba83a1461012157806346fbf68e1461013857806348132bee146101a157806351f347031461020a57806355670f311461026d575b005b34801561012d57600080fd5b506101366105f8565b005b34801561014457600080fd5b506101876004803603602081101561015b57600080fd5b81019080803573ffffffffffffffffffffffffffffffffffffffff169060200190929190505050610766565b604051808215151515815260200191505060405180910390f35b3480156101ad57600080fd5b506101f0600480360360208110156101c457600080fd5b81019080803573ffffffffffffffffffffffffffffffffffffffff169060200190929190505050610783565b604051808215151515815260200191505060405180910390f35b34801561021657600080fd5b5061026b600480360360a081101561022d57600080fd5b810190808035906020019092919080359060200190929190803590602001909291908035906020019092919080359060200190929190505050610855565b005b34801561027957600080fd5b506102bc6004803603602081101561029057600080fd5b81019080803573ffffffffffffffffffffffffffffffffffffffff169060200190929190505050610983565b604051808381526020018281526020019250505060405180910390f35b3480156102e557600080fd5b506102ee6109a7565b6040518082815260200191505060405180910390f35b34801561031057600080fd5b506103196109ad565b604051808215151515815260200191505060405180910390f35b34801561033f57600080fd5b506103486109c4565b6040518082815260200191505060405180910390f35b34801561036a57600080fd5b506103736109ca565b005b34801561038157600080fd5b5061038a6109dc565b005b34801561039857600080fd5b506103db600480360360208110156103af57600080fd5b81019080803573ffffffffffffffffffffffffffffffffffffffff169060200190929190505050610b15565b005b3480156103e957600080fd5b506103f2610b86565b005b34801561040057600080fd5b50610409610cf5565b6040518082815260200191505060405180910390f35b34801561042b57600080fd5b50610434610cfb565b604051808273ffffffffffffffffffffffffffffffffffffffff1673ffffffffffffffffffffffffffffffffffffffff16815260200191505060405180910390f35b34801561048257600080fd5b5061048b610d24565b604051808215151515815260200191505060405180910390f35b3480156104b157600080fd5b506104f4600480360360208110156104c857600080fd5b81019080803573ffffffffffffffffffffffffffffffffffffffff169060200190929190505050610d82565b005b34801561050257600080fd5b5061050b610ef1565b6040518082815260200191505060405180910390f35b34801561052d57600080fd5b50610536610ef7565b6040518082815260200191505060405180910390f35b34801561055857600080fd5b5061059b6004803603602081101561056f57600080fd5b81019080803573ffffffffffffffffffffffffffffffffffffffff169060200190929190505050610efd565b005b3480156105a957600080fd5b506105f6600480360360408110156105c057600080fd5b81019080803573ffffffffffffffffffffffffffffffffffffffff16906020019092919080359060200190929190505050610f83565b005b6106086106036112a6565b610766565b61065d576040517f08c379a00000000000000000000000000000000000000000000000000000000081526004018080602001828103825260308152602001806129ed6030913960400191505060405180910390fd5b600260009054906101000a900460ff166106df576040517f08c379a00000000000000000000000000000000000000000000000000000000081526004018080602001828103825260148152602001807f5061757361626c653a206e6f742070617573656400000000000000000000000081525060200191505060405180910390fd5b6000600260006101000a81548160ff0219169083151502179055507f5db9ee0a495bf2e6ff9c91a7834c1ba4fdd244a5e8aa4e537bd38aeae4b073aa6107236112a6565b604051808273ffffffffffffffffffffffffffffffffffffffff1673ffffffffffffffffffffffffffffffffffffffff16815260200191505060405180910390a1565b600061077c8260016112ae90919063ffffffff16565b9050919050565b600061078e8261138c565b8061079e575061079d82611800565b5b156107ac5760019050610850565b6107cb8273ffffffffffffffffffffffffffffffffffffffff166119b2565b61083d576040517f08c379a000000000000000000000000000000000000000000000000000000000815260040180806020018281038252601d8152602001807f4552524f525f414444524553535f49535f4e4f545f434f4e545241435400000081525060200191505060405180910390fd5b610846826119fd565b61084f82611f38565b5b919050565b61085d610d24565b6108cf576040517f08c379a00000000000000000000000000000000000000000000000000000000081526004018080602001828103825260208152602001807f4f776e61626c653a2063616c6c6572206973206e6f7420746865206f776e657281525060200191505060405180910390fd5b826108e56103e88361219890919063ffffffff16565b1115610959576040517f08c379a00000000000000000000000000000000000000000000000000000000081526004018080602001828103825260138152602001807f7570706572426f756e6420746f6f20686967680000000000000000000000000081525060200191505060405180910390fd5b84600381905550836004819055508260058190555081600681905550806007819055505050505050565b60086020528060005260406000206000915090508060000154908060010154905082565b60045481565b6000600260009054906101000a900460ff16905090565b60035481565b6109da6109d56112a6565b61221e565b565b6109e4610d24565b610a56576040517f08c379a00000000000000000000000000000000000000000000000000000000081526004018080602001828103825260208152602001807f4f776e61626c653a2063616c6c6572206973206e6f7420746865206f776e657281525060200191505060405180910390fd5b600073ffffffffffffffffffffffffffffffffffffffff166000809054906101000a900473ffffffffffffffffffffffffffffffffffffffff1673ffffffffffffffffffffffffffffffffffffffff167f8be0079c531659141344cd1fd0a4f28419497f9722a3daafe3b4186f6b6457e060405160405180910390a360008060006101000a81548173ffffffffffffffffffffffffffffffffffffffff021916908373ffffffffffffffffffffffffffffffffffffffff160217905550565b610b25610b206112a6565b610766565b610b7a576040517f08c379a00000000000000000000000000000000000000000000000000000000081526004018080602001828103825260308152602001806129ed6030913960400191505060405180910390fd5b610b8381612278565b50565b610b96610b916112a6565b610766565b610beb576040517f08c379a00000000000000000000000000000000000000000000000000000000081526004018080602001828103825260308152602001806129ed6030913960400191505060405180910390fd5b600260009054906101000a900460ff1615610c6e576040517f08c379a00000000000000000000000000000000000000000000000000000000081526004018080602001828103825260108152602001807f5061757361626c653a207061757365640000000000000000000000000000000081525060200191505060405180910390fd5b6001600260006101000a81548160ff0219169083151502179055507f62e78cea01bee320cd4e420270b5ea74000d11b0c9f74754ebdbfc544b05a258610cb26112a6565b604051808273ffffffffffffffffffffffffffffffffffffffff1673ffffffffffffffffffffffffffffffffffffffff16815260200191505060405180910390a1565b60075481565b60008060009054906101000a900473ffffffffffffffffffffffffffffffffffffffff16905090565b60008060009054906101000a900473ffffffffffffffffffffffffffffffffffffffff1673ffffffffffffffffffffffffffffffffffffffff16610d666112a6565b73ffffffffffffffffffffffffffffffffffffffff1614905090565b600260019054906101000a900460ff1615610e05576040517f08c379a00000000000000000000000000000000000000000000000000000000081526004018080602001828103825260128152602001807f5245454e5452414e43595f494c4c4547414c000000000000000000000000000081525060200191505060405180910390fd5b6001600260016101000a81548160ff021916908315150217905550600260009054906101000a900460ff1615610ea3576040517f08c379a00000000000000000000000000000000000000000000000000000000081526004018080602001828103825260108152602001807f5061757361626c653a207061757365640000000000000000000000000000000081525060200191505060405180910390fd5b610eac8161138c565b15610ebb57610eba816122d2565b5b610ec481611800565b15610ed357610ed28161249f565b5b6000600260016101000a81548160ff02191690831515021790555050565b60055481565b60065481565b610f05610d24565b610f77576040517f08c379a00000000000000000000000000000000000000000000000000000000081526004018080602001828103825260208152602001807f4f776e61626c653a2063616c6c6572206973206e6f7420746865206f776e657281525060200191505060405180910390fd5b610f8081612662565b50565b610f8b610d24565b610ffd576040517f08c379a00000000000000000000000000000000000000000000000000000000081526004018080602001828103825260208152602001807f4f776e61626c653a2063616c6c6572206973206e6f7420746865206f776e657281525060200191505060405180910390fd5b600260019054906101000a900460ff1615611080576040517f08c379a00000000000000000000000000000000000000000000000000000000081526004018080602001828103825260128152602001807f5245454e5452414e43595f494c4c4547414c000000000000000000000000000081525060200191505060405180910390fd5b6001600260016101000a81548160ff021916908315150217905550600260009054906101000a900460ff1661111d576040517f08c379a00000000000000000000000000000000000000000000000000000000081526004018080602001828103825260148152602001807f5061757361626c653a206e6f742070617573656400000000000000000000000081525060200191505060405180910390fd5b803073ffffffffffffffffffffffffffffffffffffffff163110156111aa576040517f08c379a000000000000000000000000000000000000000000000000000000000815260040180806020018281038252600f8152602001807f616d6f756e7420746f6f2068696768000000000000000000000000000000000081525060200191505060405180910390fd5b60008273ffffffffffffffffffffffffffffffffffffffff168260405180600001905060006040518083038185875af1925050503d806000811461120a576040519150601f19603f3d011682016040523d82523d6000602084013e61120f565b606091505b5050905080611286576040517f08c379a000000000000000000000000000000000000000000000000000000000815260040180806020018281038252600f8152602001807f7769746864726177206661696c6564000000000000000000000000000000000081525060200191505060405180910390fd5b506000600260016101000a81548160ff0219169083151502179055505050565b600033905090565b60008073ffffffffffffffffffffffffffffffffffffffff168273ffffffffffffffffffffffffffffffffffffffff161415611335576040517f08c379a0000000000000000000000000000000000000000000000000000000008152600401808060200182810382526022815260200180612aa96022913960400191505060405180910390fd5b8260000160008373ffffffffffffffffffffffffffffffffffffffff1673ffffffffffffffffffffffffffffffffffffffff16815260200190815260200160002060009054906101000a900460ff16905092915050565b60006113ad8273ffffffffffffffffffffffffffffffffffffffff166119b2565b6113ba57600090506117fb565b6000600960009054906101000a900473ffffffffffffffffffffffffffffffffffffffff1673ffffffffffffffffffffffffffffffffffffffff1663b3b28fac846040518263ffffffff1660e01b8152600401808273ffffffffffffffffffffffffffffffffffffffff1673ffffffffffffffffffffffffffffffffffffffff168152602001915050602060405180830381600087803b15801561145d57600080fd5b505af1158015611471573d6000803e3d6000fd5b505050506040513d602081101561148757600080fd5b810190808051906020019092919050505090506000600960009054906101000a900473ffffffffffffffffffffffffffffffffffffffff1673ffffffffffffffffffffffffffffffffffffffff166333a1af31856040518263ffffffff1660e01b8152600401808273ffffffffffffffffffffffffffffffffffffffff1673ffffffffffffffffffffffffffffffffffffffff168152602001915050602060405180830381600087803b15801561153d57600080fd5b505af1158015611551573d6000803e3d6000fd5b505050506040513d602081101561156757600080fd5b810190808051906020019092919050505090503073ffffffffffffffffffffffffffffffffffffffff168173ffffffffffffffffffffffffffffffffffffffff1614806115e05750600073ffffffffffffffffffffffffffffffffffffffff168173ffffffffffffffffffffffffffffffffffffffff16145b1561167c576005543073ffffffffffffffffffffffffffffffffffffffff16311015801561160f575060055482105b80156116735750600354611670600554600860008873ffffffffffffffffffffffffffffffffffffffff1673ffffffffffffffffffffffffffffffffffffffff168152602001908152602001600020600001546127a690919063ffffffff16565b11155b925050506117fb565b6000600960009054906101000a900473ffffffffffffffffffffffffffffffffffffffff1673ffffffffffffffffffffffffffffffffffffffff1663d665f9dd866040518263ffffffff1660e01b8152600401808273ffffffffffffffffffffffffffffffffffffffff1673ffffffffffffffffffffffffffffffffffffffff168152602001915050602060405180830381600087803b15801561171f57600080fd5b505af1158015611733573d6000803e3d6000fd5b505050506040513d602081101561174957600080fd5b81019080805190602001909291905050509050808310801561178457506005543073ffffffffffffffffffffffffffffffffffffffff163110155b8015611791575060055483105b80156117f557506003546117f2600554600860008973ffffffffffffffffffffffffffffffffffffffff1673ffffffffffffffffffffffffffffffffffffffff168152602001908152602001600020600001546127a690919063ffffffff16565b11155b93505050505b919050565b60006118218273ffffffffffffffffffffffffffffffffffffffff166119b2565b61182e57600090506119ad565b6000600960009054906101000a900473ffffffffffffffffffffffffffffffffffffffff1673ffffffffffffffffffffffffffffffffffffffff1663d47e9a57846040518263ffffffff1660e01b8152600401808273ffffffffffffffffffffffffffffffffffffffff1673ffffffffffffffffffffffffffffffffffffffff168152602001915050602060405180830381600087803b1580156118d157600080fd5b505af11580156118e5573d6000803e3d6000fd5b505050506040513d60208110156118fb57600080fd5b810190808051906020019092919050505090506006543073ffffffffffffffffffffffffffffffffffffffff163110158015611938575060065481105b801561199c5750600454611999600654600860008773ffffffffffffffffffffffffffffffffffffffff1673ffffffffffffffffffffffffffffffffffffffff168152602001908152602001600020600101546127a690919063ffffffff16565b11155b156119ab5760019150506119ad565b505b919050565b60008060007fc5d2460186f7233c927e7db2dcc703c0e500b653ca82273b7bfad8045d85a47060001b9050833f91508082141580156119f457506000801b8214155b92505050919050565b6000600960009054906101000a900473ffffffffffffffffffffffffffffffffffffffff1673ffffffffffffffffffffffffffffffffffffffff166333a1af31836040518263ffffffff1660e01b8152600401808273ffffffffffffffffffffffffffffffffffffffff1673ffffffffffffffffffffffffffffffffffffffff168152602001915050602060405180830381600087803b158015611aa057600080fd5b505af1158015611ab4573d6000803e3d6000fd5b505050506040513d6020811015611aca57600080fd5b810190808051906020019092919050505090506000600960009054906101000a900473ffffffffffffffffffffffffffffffffffffffff1673ffffffffffffffffffffffffffffffffffffffff1663b3b28fac846040518263ffffffff1660e01b8152600401808273ffffffffffffffffffffffffffffffffffffffff1673ffffffffffffffffffffffffffffffffffffffff168152602001915050602060405180830381600087803b158015611b8057600080fd5b505af1158015611b94573d6000803e3d6000fd5b505050506040513d6020811015611baa57600080fd5b810190808051906020019092919050505090503073ffffffffffffffffffffffffffffffffffffffff168273ffffffffffffffffffffffffffffffffffffffff1614158015611c265750600073ffffffffffffffffffffffffffffffffffffffff168273ffffffffffffffffffffffffffffffffffffffff1614155b15611d5f57600960009054906101000a900473ffffffffffffffffffffffffffffffffffffffff1673ffffffffffffffffffffffffffffffffffffffff1663d665f9dd846040518263ffffffff1660e01b8152600401808273ffffffffffffffffffffffffffffffffffffffff1673ffffffffffffffffffffffffffffffffffffffff168152602001915050602060405180830381600087803b158015611ccc57600080fd5b505af1158015611ce0573d6000803e3d6000fd5b505050506040513d6020811015611cf657600080fd5b81019080805190602001909291905050508110611d5e576040517f08c379a000000000000000000000000000000000000000000000000000000000815260040180806020018281038252602c815260200180612af7602c913960400191505060405180910390fd5b5b6005543073ffffffffffffffffffffffffffffffffffffffff16311015611dee576040517f08c379a000000000000000000000000000000000000000000000000000000000815260040180806020018281038252601d8152602001807f4552524f525f4741535f4641554345545f4f55545f4f465f4d4f4e455900000081525060200191505060405180910390fd5b6005548110611e65576040517f08c379a000000000000000000000000000000000000000000000000000000000815260040180806020018281038252601f8152602001807f4552524f525f4741535f53504f4e534f5245445f46554e445f554e555345440081525060200191505060405180910390fd5b600354611ebf600554600860008773ffffffffffffffffffffffffffffffffffffffff1673ffffffffffffffffffffffffffffffffffffffff168152602001908152602001600020600001546127a690919063ffffffff16565b1115611f33576040517f08c379a000000000000000000000000000000000000000000000000000000000815260040180806020018281038252601e8152602001807f4552524f525f4741535f4f5645525f4741535f544f54414c5f4c494d4954000081525060200191505060405180910390fd5b505050565b6006543073ffffffffffffffffffffffffffffffffffffffff16311015611faa576040517f08c379a0000000000000000000000000000000000000000000000000000000008152600401808060200182810382526024815260200180612a436024913960400191505060405180910390fd5b6000600960009054906101000a900473ffffffffffffffffffffffffffffffffffffffff1673ffffffffffffffffffffffffffffffffffffffff1663d47e9a57836040518263ffffffff1660e01b8152600401808273ffffffffffffffffffffffffffffffffffffffff1673ffffffffffffffffffffffffffffffffffffffff168152602001915050602060405180830381600087803b15801561204d57600080fd5b505af1158015612061573d6000803e3d6000fd5b505050506040513d602081101561207757600080fd5b8101908080519060200190929190505050905060065481106120e4576040517f08c379a00000000000000000000000000000000000000000000000000000000081526004018080602001828103825260268152602001806129c76026913960400191505060405180910390fd5b60045461213e600654600860008673ffffffffffffffffffffffffffffffffffffffff1673ffffffffffffffffffffffffffffffffffffffff168152602001908152602001600020600101546127a690919063ffffffff16565b10612194576040517f08c379a000000000000000000000000000000000000000000000000000000000815260040180806020018281038252602c815260200180612acb602c913960400191505060405180910390fd5b5050565b6000808314156121ab5760009050612218565b60008284029050828482816121bc57fe5b0414612213576040517f08c379a0000000000000000000000000000000000000000000000000000000008152600401808060200182810382526021815260200180612a886021913960400191505060405180910390fd5b809150505b92915050565b61223281600161282e90919063ffffffff16565b8073ffffffffffffffffffffffffffffffffffffffff167fcd265ebaf09df2871cc7bd4133404a235ba12eff2041bb89d9c714a2621c7c7e60405160405180910390a250565b61228c8160016128eb90919063ffffffff16565b8073ffffffffffffffffffffffffffffffffffffffff167f6719d08c1888103bea251a4ed56406bd0c3e69723c8a1686e017e7bbe159b6f860405160405180910390a250565b600960009054906101000a900473ffffffffffffffffffffffffffffffffffffffff1673ffffffffffffffffffffffffffffffffffffffff16633e3e6428600554836007546040518463ffffffff1660e01b8152600401808373ffffffffffffffffffffffffffffffffffffffff1673ffffffffffffffffffffffffffffffffffffffff168152602001828152602001925050506000604051808303818588803b15801561237f57600080fd5b505af1158015612393573d6000803e3d6000fd5b50505050506123ef600554600860008473ffffffffffffffffffffffffffffffffffffffff1673ffffffffffffffffffffffffffffffffffffffff168152602001908152602001600020600001546127a690919063ffffffff16565b600860008373ffffffffffffffffffffffffffffffffffffffff1673ffffffffffffffffffffffffffffffffffffffff168152602001908152602001600020600001819055508073ffffffffffffffffffffffffffffffffffffffff163373ffffffffffffffffffffffffffffffffffffffff167f0d517b7814d6361097aa44db26ae46a4e1244686721c5f28206a9605dc413c4a6005546040518082815260200191505060405180910390a350565b600960009054906101000a900473ffffffffffffffffffffffffffffffffffffffff1673ffffffffffffffffffffffffffffffffffffffff1663e66c1bea600654836040518363ffffffff1660e01b8152600401808273ffffffffffffffffffffffffffffffffffffffff1673ffffffffffffffffffffffffffffffffffffffff1681526020019150506000604051808303818588803b15801561254257600080fd5b505af1158015612556573d6000803e3d6000fd5b50505050506125b2600654600860008473ffffffffffffffffffffffffffffffffffffffff1673ffffffffffffffffffffffffffffffffffffffff168152602001908152602001600020600101546127a690919063ffffffff16565b600860008373ffffffffffffffffffffffffffffffffffffffff1673ffffffffffffffffffffffffffffffffffffffff168152602001908152602001600020600101819055508073ffffffffffffffffffffffffffffffffffffffff163373ffffffffffffffffffffffffffffffffffffffff167f0d517b7814d6361097aa44db26ae46a4e1244686721c5f28206a9605dc413c4a6006546040518082815260200191505060405180910390a350565b600073ffffffffffffffffffffffffffffffffffffffff168173ffffffffffffffffffffffffffffffffffffffff1614156126e8576040517f08c379a0000000000000000000000000000000000000000000000000000000008152600401808060200182810382526026815260200180612a1d6026913960400191505060405180910390fd5b8073ffffffffffffffffffffffffffffffffffffffff166000809054906101000a900473ffffffffffffffffffffffffffffffffffffffff1673ffffffffffffffffffffffffffffffffffffffff167f8be0079c531659141344cd1fd0a4f28419497f9722a3daafe3b4186f6b6457e060405160405180910390a3806000806101000a81548173ffffffffffffffffffffffffffffffffffffffff021916908373ffffffffffffffffffffffffffffffffffffffff16021790555050565b600080828401905083811015612824576040517f08c379a000000000000000000000000000000000000000000000000000000000815260040180806020018281038252601b8152602001807f536166654d6174683a206164646974696f6e206f766572666c6f77000000000081525060200191505060405180910390fd5b8091505092915050565b61283882826112ae565b61288d576040517f08c379a0000000000000000000000000000000000000000000000000000000008152600401808060200182810382526021815260200180612a676021913960400191505060405180910390fd5b60008260000160008373ffffffffffffffffffffffffffffffffffffffff1673ffffffffffffffffffffffffffffffffffffffff16815260200190815260200160002060006101000a81548160ff0219169083151502179055505050565b6128f582826112ae565b15612968576040517f08c379a000000000000000000000000000000000000000000000000000000000815260040180806020018281038252601f8152602001807f526f6c65733a206163636f756e7420616c72656164792068617320726f6c650081525060200191505060405180910390fd5b60018260000160008373ffffffffffffffffffffffffffffffffffffffff1673ffffffffffffffffffffffffffffffffffffffff16815260200190815260200160002060006101000a81548160ff021916908315150217905550505056fe4552524f525f434f4c4c41544552414c5f53504f4e534f5245445f46554e445f554e55534544506175736572526f6c653a2063616c6c657220646f6573206e6f742068617665207468652050617573657220726f6c654f776e61626c653a206e6577206f776e657220697320746865207a65726f20616464726573734552524f525f434f4c4c41544552414c5f4641554345545f4f55545f4f465f4d4f4e4559526f6c65733a206163636f756e7420646f6573206e6f74206861766520726f6c65536166654d6174683a206d756c7469706c69636174696f6e206f766572666c6f77526f6c65733a206163636f756e7420697320746865207a65726f20616464726573734552524f525f434f4c4c41544552414c5f4f5645525f434f4c4c41544552414c5f544f54414c5f4c494d49544552524f525f4741535f43414e4e4f545f5245504c4143455f54484952445f50415254595f53504f4e534f52a265627a7a723158207079bf8b4cbbb51d00c7c6eeaeb9afd1f3af7870047752b6201364079739b3e164736f6c634300050b0032536166654d6174683a206d756c7469706c69636174696f6e206f766572666c6f77526f6c65733a206163636f756e7420697320746865207a65726f2061646472657373",
  "source": "pragma solidity 0.5.11;\n\nimport \"@openzeppelin/contracts/ownership/Ownable.sol\";\nimport \"@openzeppelin/contracts/lifecycle/Pausable.sol\";\nimport \"@openzeppelin/contracts/math/SafeMath.sol\";\nimport \"@openzeppelin/contracts/utils/Address.sol\";\nimport \"./Lib/ReentrancyGuard.sol\";\nimport \"./InternalContract.sol\";\n\ncontract SponsorFaucet is Ownable, Pausable, ReentrancyGuard {\n    using SafeMath for uint256;\n    using Address for address;\n\n    struct detail {\n        uint256 gas_amount_accumulated; //current accumulated sponsored amout for gas\n        uint256 collateral_amount_accumulated; //current total sponsored amount for collateral\n    }\n\n    /*** bounds set by foundation ***/\n    //total sponsored limit\n    uint256 public gas_total_limit;\n    uint256 public collateral_total_limit;\n    //single sponsor bound\n    uint256 public gas_bound;\n    uint256 public collateral_bound;\n    //upper bound for single tx\n    uint256 public upper_bound;\n\n    mapping(address => detail) public dapps;\n\n    event applied(\n        address indexed applicant,\n        address indexed dapp,\n        uint256 amount\n    );\n\n    SponsorWhitelistControl internal_sponsor = SponsorWhitelistControl(\n        0x0888000000000000000000000000000000000001\n    );\n\n    constructor(\n        uint256 gasTotalLimit,\n        uint256 collateralTotalLimit,\n        uint256 gasBound,\n        uint256 collateralBound,\n        uint256 upperBound\n    ) public {\n        //rule by internal contract\n        require(upperBound.mul(1000) <= gasBound, \"upperBound too high\");\n        gas_total_limit = gasTotalLimit;\n        collateral_total_limit = collateralTotalLimit;\n        gas_bound = gasBound;\n        collateral_bound = collateralBound;\n        upper_bound = upperBound;\n    }\n\n    /*** Dapp dev calls ***/\n    function applyGasAndCollateral(address dapp)\n        public\n        nonReentrant\n        whenNotPaused\n    {\n        if (_isAppliableForGas(dapp)) _applyForGas(dapp);\n        if (_isAppliableForCollateral(dapp)) _applyForCollateral(dapp);\n    }\n\n    function isAppliable(address dapp) public returns (bool) {\n        if (_isAppliableForGas(dapp) || _isAppliableForCollateral(dapp))\n            return true;\n        require(dapp.isContract(), \"ERROR_ADDRESS_IS_NOT_CONTRACT\");\n        _validateApplyForGas(dapp);\n        _validateApplyForCollateral(dapp);\n    }\n\n    function _isAppliableForGas(address dapp) internal returns (bool) {\n        if(!dapp.isContract()) return false;\n        uint256 gas_balance = internal_sponsor.getSponsoredBalanceForGas(dapp);\n        address current_sponsor = internal_sponsor.getSponsorForGas(dapp);\n        if (\n            current_sponsor == address(this) ||\n            current_sponsor ==\n            address(0x0000000000000000000000000000000000000000)\n        ) {\n            return\n                address(this).balance >= gas_bound &&\n                gas_balance < gas_bound &&\n                dapps[dapp].gas_amount_accumulated.add(gas_bound) <=\n                gas_total_limit;\n        }\n\n        uint256 current_upper_bound = internal_sponsor\n            .getSponsoredGasFeeUpperBound(dapp);\n        return\n            gas_balance < current_upper_bound &&\n            address(this).balance >= gas_bound &&\n            gas_balance < gas_bound &&\n            dapps[dapp].gas_amount_accumulated.add(gas_bound) <=\n            gas_total_limit;\n    }\n\n    function _validateApplyForGas(address dapp) internal {\n        address current_sponsor = internal_sponsor.getSponsorForGas(dapp);\n        uint256 gas_balance = internal_sponsor.getSponsoredBalanceForGas(dapp);\n        if (\n            current_sponsor != address(this) &&\n            current_sponsor !=\n            address(0x0000000000000000000000000000000000000000)\n        ) {\n            require(\n                gas_balance <\n                    internal_sponsor.getSponsoredGasFeeUpperBound(dapp),\n                \"ERROR_GAS_CANNOT_REPLACE_THIRD_PARTY_SPONSOR\"\n            );\n        }\n        require(address(this).balance >= gas_bound, \"ERROR_GAS_FAUCET_OUT_OF_MONEY\");\n        require(gas_balance < gas_bound, \"ERROR_GAS_SPONSORED_FUND_UNUSED\");\n        require(\n            dapps[dapp].gas_amount_accumulated.add(gas_bound) <=\n                gas_total_limit,\n            \"ERROR_GAS_OVER_GAS_TOTAL_LIMIT\"\n        );\n    }\n\n    function _isAppliableForCollateral(address dapp) internal returns (bool) {\n        if(!dapp.isContract()) return false;\n        uint256 collateral_balance = internal_sponsor\n            .getSponsoredBalanceForCollateral(dapp);\n        if (\n            address(this).balance >= collateral_bound &&\n            collateral_balance < collateral_bound &&\n            dapps[dapp].collateral_amount_accumulated.add(collateral_bound) <=\n            collateral_total_limit\n        ) {\n            return true;\n        }\n    }\n\n    function _validateApplyForCollateral(address dapp) internal {\n        require(\n            address(this).balance >= collateral_bound,\n            \"ERROR_COLLATERAL_FAUCET_OUT_OF_MONEY\"\n        );\n        uint256 collateral_balance = internal_sponsor\n            .getSponsoredBalanceForCollateral(dapp);\n        require(collateral_balance < collateral_bound, \"ERROR_COLLATERAL_SPONSORED_FUND_UNUSED\");\n        require(\n            dapps[dapp].collateral_amount_accumulated.add(collateral_bound) <\n                collateral_total_limit,\n            \"ERROR_COLLATERAL_OVER_COLLATERAL_TOTAL_LIMIT\"\n        );\n    }\n\n    function _applyForGas(address dapp) internal {\n        internal_sponsor.setSponsorForGas.value(gas_bound)(dapp, upper_bound);\n        dapps[dapp].gas_amount_accumulated = dapps[dapp]\n            .gas_amount_accumulated\n            .add(gas_bound);\n        emit applied(msg.sender, dapp, gas_bound);\n    }\n\n    function _applyForCollateral(address dapp) internal {\n        internal_sponsor.setSponsorForCollateral.value(collateral_bound)(dapp);\n        dapps[dapp].collateral_amount_accumulated = dapps[dapp]\n            .collateral_amount_accumulated\n            .add(collateral_bound);\n        emit applied(msg.sender, dapp, collateral_bound);\n    }\n\n    //accept sponsor's cfx\n    function() external payable {}\n\n    //withdraw to specific address by amount\n    function withdraw(address payable sponsor, uint256 amount)\n        public\n        onlyOwner\n        nonReentrant\n        whenPaused\n    {\n        require(address(this).balance >= amount, \"amount too high\");\n        (bool success, ) = sponsor.call.value(amount)(\"\");\n        require(success, \"withdraw failed\");\n    }\n\n    //set bounds for sponsorship\n    function setBounds(\n        uint256 gasTotalLimit,\n        uint256 collateralTotalLimit,\n        uint256 gasBound,\n        uint256 collateralBound,\n        uint256 upperBound\n    ) public onlyOwner {\n        //rule by internal contract\n        require(upperBound.mul(1000) <= gasBound, \"upperBound too high\");\n        gas_total_limit = gasTotalLimit;\n        collateral_total_limit = collateralTotalLimit;\n        gas_bound = gasBound;\n        collateral_bound = collateralBound;\n        upper_bound = upperBound;\n    }\n}\n",
  "sourcePath": "/Users/xiongyu/conflux-sponsor-faucet/contracts/SponsorFaucet.sol",
  "compiler": {
    "name": "solc",
    "version": "0.5.11+commit.c082d0b4.Emscripten.clang"
  },
  "schemaVersion": "3.2.2",
  "updatedAt": "2020-10-24T12:17:31.571Z",
  "devdoc": {
    "methods": {
      "isOwner()": {
        "details": "Returns true if the caller is the current owner."
      },
      "owner()": {
        "details": "Returns the address of the current owner."
      },
      "pause()": {
        "details": "Called by a pauser to pause, triggers stopped state."
      },
      "paused()": {
        "details": "Returns true if the contract is paused, and false otherwise."
      },
      "renounceOwnership()": {
        "details": "Leaves the contract without owner. It will not be possible to call `onlyOwner` functions anymore. Can only be called by the current owner.     * NOTE: Renouncing ownership will leave the contract without an owner, thereby removing any functionality that is only available to the owner."
      },
      "transferOwnership(address)": {
        "details": "Transfers ownership of the contract to a new account (`newOwner`). Can only be called by the current owner."
      },
      "unpause()": {
        "details": "Called by a pauser to unpause, returns to normal state."
      }
    }
  },
  "userdoc": {
    "methods": {
      "applyGasAndCollateral(address)": {
        "notice": "* Dapp dev calls **"
      }
    }
  }
}