{
  "contractName": "SponsorFaucet",
  "abi": [
    {
      "constant": false,
      "inputs": [],
      "name": "unpause",
      "outputs": [],
      "payable": false,
      "stateMutability": "nonpayable",
      "type": "function"
    },
    {
      "constant": true,
      "inputs": [
        {
          "internalType": "address",
          "name": "account",
          "type": "address"
        }
      ],
      "name": "isPauser",
      "outputs": [
        {
          "internalType": "bool",
          "name": "",
          "type": "bool"
        }
      ],
      "payable": false,
      "stateMutability": "view",
      "type": "function"
    },
    {
      "constant": true,
      "inputs": [],
      "name": "storage_bound",
      "outputs": [
        {
          "internalType": "uint256",
          "name": "",
          "type": "uint256"
        }
      ],
      "payable": false,
      "stateMutability": "view",
      "type": "function"
    },
    {
      "constant": true,
      "inputs": [
        {
          "internalType": "address",
          "name": "",
          "type": "address"
        }
      ],
      "name": "dapps",
      "outputs": [
        {
          "internalType": "uint256",
          "name": "cnt",
          "type": "uint256"
        },
        {
          "internalType": "uint256",
          "name": "limit",
          "type": "uint256"
        }
      ],
      "payable": false,
      "stateMutability": "view",
      "type": "function"
    },
    {
      "constant": true,
      "inputs": [],
      "name": "paused",
      "outputs": [
        {
          "internalType": "bool",
          "name": "",
          "type": "bool"
        }
      ],
      "payable": false,
      "stateMutability": "view",
      "type": "function"
    },
    {
      "constant": false,
      "inputs": [],
      "name": "renouncePauser",
      "outputs": [],
      "payable": false,
      "stateMutability": "nonpayable",
      "type": "function"
    },
    {
      "constant": false,
      "inputs": [],
      "name": "renounceOwnership",
      "outputs": [],
      "payable": false,
      "stateMutability": "nonpayable",
      "type": "function"
    },
    {
      "constant": false,
      "inputs": [
        {
          "internalType": "address",
          "name": "account",
          "type": "address"
        }
      ],
      "name": "addPauser",
      "outputs": [],
      "payable": false,
      "stateMutability": "nonpayable",
      "type": "function"
    },
    {
      "constant": false,
      "inputs": [],
      "name": "pause",
      "outputs": [],
      "payable": false,
      "stateMutability": "nonpayable",
      "type": "function"
    },
    {
      "constant": true,
      "inputs": [],
      "name": "owner",
      "outputs": [
        {
          "internalType": "address",
          "name": "",
          "type": "address"
        }
      ],
      "payable": false,
      "stateMutability": "view",
      "type": "function"
    },
    {
      "constant": true,
      "inputs": [],
      "name": "isOwner",
      "outputs": [
        {
          "internalType": "bool",
          "name": "",
          "type": "bool"
        }
      ],
      "payable": false,
      "stateMutability": "view",
      "type": "function"
    },
    {
      "constant": true,
      "inputs": [],
      "name": "gas_bound",
      "outputs": [
        {
          "internalType": "uint256",
          "name": "",
          "type": "uint256"
        }
      ],
      "payable": false,
      "stateMutability": "view",
      "type": "function"
    },
    {
      "constant": true,
      "inputs": [
        {
          "internalType": "address",
          "name": "",
          "type": "address"
        }
      ],
      "name": "sponsors",
      "outputs": [
        {
          "internalType": "uint256",
          "name": "",
          "type": "uint256"
        }
      ],
      "payable": false,
      "stateMutability": "view",
      "type": "function"
    },
    {
      "constant": false,
      "inputs": [
        {
          "internalType": "address",
          "name": "newOwner",
          "type": "address"
        }
      ],
      "name": "transferOwnership",
      "outputs": [],
      "payable": false,
      "stateMutability": "nonpayable",
      "type": "function"
    },
    {
      "inputs": [
        {
          "internalType": "uint256",
          "name": "bound",
          "type": "uint256"
        },
        {
          "internalType": "uint256",
          "name": "s_bound",
          "type": "uint256"
        }
      ],
      "payable": false,
      "stateMutability": "nonpayable",
      "type": "constructor"
    },
    {
      "payable": true,
      "stateMutability": "payable",
      "type": "fallback"
    },
    {
      "anonymous": false,
      "inputs": [
        {
          "indexed": false,
          "internalType": "address",
          "name": "dapp",
          "type": "address"
        }
      ],
      "name": "applied",
      "type": "event"
    },
    {
      "anonymous": false,
      "inputs": [
        {
          "indexed": false,
          "internalType": "address",
          "name": "sponsor",
          "type": "address"
        },
        {
          "indexed": false,
          "internalType": "uint256",
          "name": "amount",
          "type": "uint256"
        }
      ],
      "name": "receieved",
      "type": "event"
    },
    {
      "anonymous": false,
      "inputs": [
        {
          "indexed": false,
          "internalType": "address",
          "name": "account",
          "type": "address"
        }
      ],
      "name": "Paused",
      "type": "event"
    },
    {
      "anonymous": false,
      "inputs": [
        {
          "indexed": false,
          "internalType": "address",
          "name": "account",
          "type": "address"
        }
      ],
      "name": "Unpaused",
      "type": "event"
    },
    {
      "anonymous": false,
      "inputs": [
        {
          "indexed": true,
          "internalType": "address",
          "name": "account",
          "type": "address"
        }
      ],
      "name": "PauserAdded",
      "type": "event"
    },
    {
      "anonymous": false,
      "inputs": [
        {
          "indexed": true,
          "internalType": "address",
          "name": "account",
          "type": "address"
        }
      ],
      "name": "PauserRemoved",
      "type": "event"
    },
    {
      "anonymous": false,
      "inputs": [
        {
          "indexed": true,
          "internalType": "address",
          "name": "previousOwner",
          "type": "address"
        },
        {
          "indexed": true,
          "internalType": "address",
          "name": "newOwner",
          "type": "address"
        }
      ],
      "name": "OwnershipTransferred",
      "type": "event"
    },
    {
      "constant": false,
      "inputs": [
        {
          "internalType": "address",
          "name": "dapp",
          "type": "address"
        }
      ],
      "name": "applyFor",
      "outputs": [],
      "payable": false,
      "stateMutability": "nonpayable",
      "type": "function"
    },
    {
      "constant": false,
      "inputs": [],
      "name": "getBalance",
      "outputs": [
        {
          "internalType": "uint256",
          "name": "",
          "type": "uint256"
        }
      ],
      "payable": false,
      "stateMutability": "nonpayable",
      "type": "function"
    },
    {
      "constant": false,
      "inputs": [
        {
          "internalType": "address payable",
          "name": "sponsor",
          "type": "address"
        }
      ],
      "name": "withdraw",
      "outputs": [],
      "payable": false,
      "stateMutability": "nonpayable",
      "type": "function"
    },
    {
      "constant": false,
      "inputs": [
        {
          "internalType": "uint256",
          "name": "gasBound",
          "type": "uint256"
        },
        {
          "internalType": "uint256",
          "name": "storageBound",
          "type": "uint256"
        }
      ],
      "name": "setBound",
      "outputs": [],
      "payable": false,
      "stateMutability": "nonpayable",
      "type": "function"
    }
  ],
  "bytecode": "0x6080604052730888000000000000000000000000000000000001600760006101000a81548173ffffffffffffffffffffffffffffffffffffffff021916908373ffffffffffffffffffffffffffffffffffffffff1602179055503480156200006657600080fd5b5060405162001cab38038062001cab83398181016040526200008c9190810190620003a6565b6200009c620001a860201b60201c565b6000806101000a81548173ffffffffffffffffffffffffffffffffffffffff021916908373ffffffffffffffffffffffffffffffffffffffff1602179055506000809054906101000a900473ffffffffffffffffffffffffffffffffffffffff1673ffffffffffffffffffffffffffffffffffffffff16600073ffffffffffffffffffffffffffffffffffffffff167f8be0079c531659141344cd1fd0a4f28419497f9722a3daafe3b4186f6b6457e060405160405180910390a3620001776200016b620001a860201b60201c565b620001b060201b60201c565b6000600260006101000a81548160ff021916908315150217905550816003819055508060048190555050506200050a565b600033905090565b620001cb8160016200021160201b620010611790919060201c565b8073ffffffffffffffffffffffffffffffffffffffff167f6719d08c1888103bea251a4ed56406bd0c3e69723c8a1686e017e7bbe159b6f860405160405180910390a250565b620002238282620002c460201b60201c565b1562000266576040517f08c379a00000000000000000000000000000000000000000000000000000000081526004016200025d9062000491565b60405180910390fd5b60018260000160008373ffffffffffffffffffffffffffffffffffffffff1673ffffffffffffffffffffffffffffffffffffffff16815260200190815260200160002060006101000a81548160ff0219169083151502179055505050565b60008073ffffffffffffffffffffffffffffffffffffffff168273ffffffffffffffffffffffffffffffffffffffff16141562000338576040517f08c379a00000000000000000000000000000000000000000000000000000000081526004016200032f90620004b3565b60405180910390fd5b8260000160008373ffffffffffffffffffffffffffffffffffffffff1673ffffffffffffffffffffffffffffffffffffffff16815260200190815260200160002060009054906101000a900460ff16905092915050565b600081519050620003a081620004f0565b92915050565b60008060408385031215620003ba57600080fd5b6000620003ca858286016200038f565b9250506020620003dd858286016200038f565b9150509250929050565b6000620003f6601f83620004d5565b91507f526f6c65733a206163636f756e7420616c72656164792068617320726f6c65006000830152602082019050919050565b600062000438602283620004d5565b91507f526f6c65733a206163636f756e7420697320746865207a65726f20616464726560008301527f73730000000000000000000000000000000000000000000000000000000000006020830152604082019050919050565b60006020820190508181036000830152620004ac81620003e7565b9050919050565b60006020820190508181036000830152620004ce8162000429565b9050919050565b600082825260208201905092915050565b6000819050919050565b620004fb81620004e6565b81146200050757600080fd5b50565b611791806200051a6000396000f3fe6080604052600436106101095760003560e01c8063715018a6116100955780638da5cb5b116100645780638da5cb5b146103625780638f32d59b1461038d5780639ca64c41146103b8578063d35590c2146103e3578063f2fde38b1461042057610109565b8063715018a6146102e257806378cb2005146102f957806382dc1ec4146103225780638456cb591461034b57610109565b806350e07aec116100dc57806350e07aec1461020e57806351cff8d91461023957806355670f31146102625780635c975abb146102a05780636ef8d66d146102cb57610109565b806312065fe01461016657806337ea0de2146101915780633f4ba83a146101ba57806346fbf68e146101d1575b600034141561011757600080fd5b34600660003373ffffffffffffffffffffffffffffffffffffffff1673ffffffffffffffffffffffffffffffffffffffff16815260200190815260200160002060008282540192505081905550005b34801561017257600080fd5b5061017b610449565b6040516101889190611624565b60405180910390f35b34801561019d57600080fd5b506101b860048036036101b39190810190611148565b610468565b005b3480156101c657600080fd5b506101cf610705565b005b3480156101dd57600080fd5b506101f860048036036101f39190810190611148565b6107fe565b6040516102059190611509565b60405180910390f35b34801561021a57600080fd5b5061022361081b565b6040516102309190611624565b60405180910390f35b34801561024557600080fd5b50610260600480360361025b9190810190611171565b610821565b005b34801561026e57600080fd5b5061028960048036036102849190810190611148565b61090f565b60405161029792919061163f565b60405180910390f35b3480156102ac57600080fd5b506102b5610933565b6040516102c29190611509565b60405180910390f35b3480156102d757600080fd5b506102e061094a565b005b3480156102ee57600080fd5b506102f761095c565b005b34801561030557600080fd5b50610320600480360361031b919081019061119a565b610a62565b005b34801561032e57600080fd5b5061034960048036036103449190810190611148565b610abb565b005b34801561035757600080fd5b50610360610b16565b005b34801561036e57600080fd5b50610377610c10565b60405161038491906114aa565b60405180910390f35b34801561039957600080fd5b506103a2610c39565b6040516103af9190611509565b60405180910390f35b3480156103c457600080fd5b506103cd610c97565b6040516103da9190611624565b60405180910390f35b3480156103ef57600080fd5b5061040a60048036036104059190810190611148565b610c9d565b6040516104179190611624565b60405180910390f35b34801561042c57600080fd5b5061044760048036036104429190810190611148565b610cb5565b005b60003073ffffffffffffffffffffffffffffffffffffffff1631905090565b610470610c39565b6104af576040517f08c379a00000000000000000000000000000000000000000000000000000000081526004016104a6906115e4565b60405180910390fd5b600260009054906101000a900460ff16156104ff576040517f08c379a00000000000000000000000000000000000000000000000000000000081526004016104f6906115a4565b60405180910390fd5b600760009054906101000a900473ffffffffffffffffffffffffffffffffffffffff1673ffffffffffffffffffffffffffffffffffffffff1663e9ac3d4a600354836003546040518463ffffffff1660e01b81526004016105619291906114e0565b6000604051808303818588803b15801561057a57600080fd5b505af115801561058e573d6000803e3d6000fd5b5050505050600760009054906101000a900473ffffffffffffffffffffffffffffffffffffffff1673ffffffffffffffffffffffffffffffffffffffff16630862bf68600454836040518363ffffffff1660e01b81526004016105f191906114aa565b6000604051808303818588803b15801561060a57600080fd5b505af115801561061e573d6000803e3d6000fd5b5050505050600560008273ffffffffffffffffffffffffffffffffffffffff1673ffffffffffffffffffffffffffffffffffffffff1681526020019081526020016000206000016000815480929190600101919050555060045460035401600560008373ffffffffffffffffffffffffffffffffffffffff1673ffffffffffffffffffffffffffffffffffffffff168152602001908152602001600020600101600082825401925050819055507f2a623296979246cc57deb32d9f5219c091bfa1a559d3214c9aabbaf4d24e0fb0816040516106fa91906114aa565b60405180910390a150565b610715610710610d08565b6107fe565b610754576040517f08c379a000000000000000000000000000000000000000000000000000000000815260040161074b90611564565b60405180910390fd5b600260009054906101000a900460ff166107a3576040517f08c379a000000000000000000000000000000000000000000000000000000000815260040161079a90611524565b60405180910390fd5b6000600260006101000a81548160ff0219169083151502179055507f5db9ee0a495bf2e6ff9c91a7834c1ba4fdd244a5e8aa4e537bd38aeae4b073aa6107e7610d08565b6040516107f491906114c5565b60405180910390a1565b6000610814826001610d1090919063ffffffff16565b9050919050565b60045481565b610829610c39565b610868576040517f08c379a000000000000000000000000000000000000000000000000000000000815260040161085f906115e4565b60405180910390fd5b600260009054906101000a900460ff166108b7576040517f08c379a00000000000000000000000000000000000000000000000000000000081526004016108ae90611524565b60405180910390fd5b8073ffffffffffffffffffffffffffffffffffffffff166108fc3073ffffffffffffffffffffffffffffffffffffffff16319081150290604051600060405180830381858888f1935050505061090c57600080fd5b50565b60056020528060005260406000206000915090508060000154908060010154905082565b6000600260009054906101000a900460ff16905090565b61095a610955610d08565b610dd8565b565b610964610c39565b6109a3576040517f08c379a000000000000000000000000000000000000000000000000000000000815260040161099a906115e4565b60405180910390fd5b600073ffffffffffffffffffffffffffffffffffffffff166000809054906101000a900473ffffffffffffffffffffffffffffffffffffffff1673ffffffffffffffffffffffffffffffffffffffff167f8be0079c531659141344cd1fd0a4f28419497f9722a3daafe3b4186f6b6457e060405160405180910390a360008060006101000a81548173ffffffffffffffffffffffffffffffffffffffff021916908373ffffffffffffffffffffffffffffffffffffffff160217905550565b610a6a610c39565b610aa9576040517f08c379a0000000000000000000000000000000000000000000000000000000008152600401610aa0906115e4565b60405180910390fd5b81600381905550806004819055505050565b610acb610ac6610d08565b6107fe565b610b0a576040517f08c379a0000000000000000000000000000000000000000000000000000000008152600401610b0190611564565b60405180910390fd5b610b1381610e32565b50565b610b26610b21610d08565b6107fe565b610b65576040517f08c379a0000000000000000000000000000000000000000000000000000000008152600401610b5c90611564565b60405180910390fd5b600260009054906101000a900460ff1615610bb5576040517f08c379a0000000000000000000000000000000000000000000000000000000008152600401610bac906115a4565b60405180910390fd5b6001600260006101000a81548160ff0219169083151502179055507f62e78cea01bee320cd4e420270b5ea74000d11b0c9f74754ebdbfc544b05a258610bf9610d08565b604051610c0691906114c5565b60405180910390a1565b60008060009054906101000a900473ffffffffffffffffffffffffffffffffffffffff16905090565b60008060009054906101000a900473ffffffffffffffffffffffffffffffffffffffff1673ffffffffffffffffffffffffffffffffffffffff16610c7b610d08565b73ffffffffffffffffffffffffffffffffffffffff1614905090565b60035481565b60066020528060005260406000206000915090505481565b610cbd610c39565b610cfc576040517f08c379a0000000000000000000000000000000000000000000000000000000008152600401610cf3906115e4565b60405180910390fd5b610d0581610e8c565b50565b600033905090565b60008073ffffffffffffffffffffffffffffffffffffffff168273ffffffffffffffffffffffffffffffffffffffff161415610d81576040517f08c379a0000000000000000000000000000000000000000000000000000000008152600401610d7890611604565b60405180910390fd5b8260000160008373ffffffffffffffffffffffffffffffffffffffff1673ffffffffffffffffffffffffffffffffffffffff16815260200190815260200160002060009054906101000a900460ff16905092915050565b610dec816001610fba90919063ffffffff16565b8073ffffffffffffffffffffffffffffffffffffffff167fcd265ebaf09df2871cc7bd4133404a235ba12eff2041bb89d9c714a2621c7c7e60405160405180910390a250565b610e4681600161106190919063ffffffff16565b8073ffffffffffffffffffffffffffffffffffffffff167f6719d08c1888103bea251a4ed56406bd0c3e69723c8a1686e017e7bbe159b6f860405160405180910390a250565b600073ffffffffffffffffffffffffffffffffffffffff168173ffffffffffffffffffffffffffffffffffffffff161415610efc576040517f08c379a0000000000000000000000000000000000000000000000000000000008152600401610ef390611584565b60405180910390fd5b8073ffffffffffffffffffffffffffffffffffffffff166000809054906101000a900473ffffffffffffffffffffffffffffffffffffffff1673ffffffffffffffffffffffffffffffffffffffff167f8be0079c531659141344cd1fd0a4f28419497f9722a3daafe3b4186f6b6457e060405160405180910390a3806000806101000a81548173ffffffffffffffffffffffffffffffffffffffff021916908373ffffffffffffffffffffffffffffffffffffffff16021790555050565b610fc48282610d10565b611003576040517f08c379a0000000000000000000000000000000000000000000000000000000008152600401610ffa906115c4565b60405180910390fd5b60008260000160008373ffffffffffffffffffffffffffffffffffffffff1673ffffffffffffffffffffffffffffffffffffffff16815260200190815260200160002060006101000a81548160ff0219169083151502179055505050565b61106b8282610d10565b156110ab576040517f08c379a00000000000000000000000000000000000000000000000000000000081526004016110a290611544565b60405180910390fd5b60018260000160008373ffffffffffffffffffffffffffffffffffffffff1673ffffffffffffffffffffffffffffffffffffffff16815260200190815260200160002060006101000a81548160ff0219169083151502179055505050565b60008135905061111881611709565b92915050565b60008135905061112d81611720565b92915050565b60008135905061114281611737565b92915050565b60006020828403121561115a57600080fd5b600061116884828501611109565b91505092915050565b60006020828403121561118357600080fd5b60006111918482850161111e565b91505092915050565b600080604083850312156111ad57600080fd5b60006111bb85828601611133565b92505060206111cc85828601611133565b9150509250929050565b6111df816116d3565b82525050565b6111ee81611679565b82525050565b6111fd8161169d565b82525050565b6000611210601483611668565b91507f5061757361626c653a206e6f74207061757365640000000000000000000000006000830152602082019050919050565b6000611250601f83611668565b91507f526f6c65733a206163636f756e7420616c72656164792068617320726f6c65006000830152602082019050919050565b6000611290603083611668565b91507f506175736572526f6c653a2063616c6c657220646f6573206e6f74206861766560008301527f207468652050617573657220726f6c65000000000000000000000000000000006020830152604082019050919050565b60006112f6602683611668565b91507f4f776e61626c653a206e6577206f776e657220697320746865207a65726f206160008301527f64647265737300000000000000000000000000000000000000000000000000006020830152604082019050919050565b600061135c601083611668565b91507f5061757361626c653a20706175736564000000000000000000000000000000006000830152602082019050919050565b600061139c602183611668565b91507f526f6c65733a206163636f756e7420646f6573206e6f74206861766520726f6c60008301527f65000000000000000000000000000000000000000000000000000000000000006020830152604082019050919050565b6000611402602083611668565b91507f4f776e61626c653a2063616c6c6572206973206e6f7420746865206f776e65726000830152602082019050919050565b6000611442602283611668565b91507f526f6c65733a206163636f756e7420697320746865207a65726f20616464726560008301527f73730000000000000000000000000000000000000000000000000000000000006020830152604082019050919050565b6114a4816116c9565b82525050565b60006020820190506114bf60008301846111e5565b92915050565b60006020820190506114da60008301846111d6565b92915050565b60006040820190506114f560008301856111e5565b611502602083018461149b565b9392505050565b600060208201905061151e60008301846111f4565b92915050565b6000602082019050818103600083015261153d81611203565b9050919050565b6000602082019050818103600083015261155d81611243565b9050919050565b6000602082019050818103600083015261157d81611283565b9050919050565b6000602082019050818103600083015261159d816112e9565b9050919050565b600060208201905081810360008301526115bd8161134f565b9050919050565b600060208201905081810360008301526115dd8161138f565b9050919050565b600060208201905081810360008301526115fd816113f5565b9050919050565b6000602082019050818103600083015261161d81611435565b9050919050565b6000602082019050611639600083018461149b565b92915050565b6000604082019050611654600083018561149b565b611661602083018461149b565b9392505050565b600082825260208201905092915050565b6000611684826116a9565b9050919050565b6000611696826116a9565b9050919050565b60008115159050919050565b600073ffffffffffffffffffffffffffffffffffffffff82169050919050565b6000819050919050565b60006116de826116e5565b9050919050565b60006116f0826116f7565b9050919050565b6000611702826116a9565b9050919050565b61171281611679565b811461171d57600080fd5b50565b6117298161168b565b811461173457600080fd5b50565b611740816116c9565b811461174b57600080fd5b5056fea365627a7a723158206fb748b69a8bc94a591ecea95764b8549929b2aa79a4393ba4c126f4cc503f006c6578706572696d656e74616cf564736f6c634300050b0040",
  "source": "pragma solidity 0.5.11;\npragma experimental ABIEncoderV2;\n\nimport \"@openzeppelin/contracts/ownership/Ownable.sol\";\nimport \"@openzeppelin/contracts/lifecycle/Pausable.sol\";\n/*\ninterface SponsorWhitelistControl {\n    // ------------------------------------------------------------------------\n    // Someone will sponsor the gas cost for contract `contract_addr` with an\n    // `upper_bound` for a single transaction.\n    // ------------------------------------------------------------------------\n    function set_sponsor_for_gas(address contract_addr, uint upper_bound) external payable;\n\n    // ------------------------------------------------------------------------\n    // Someone will sponsor the storage collateral for contract `contract_addr`.\n    // ------------------------------------------------------------------------\n    function set_sponsor_for_collateral(address contract_addr) external payable;\n\n    // ------------------------------------------------------------------------\n    // Add commission privilege for address `user` to some contract.\n    // ------------------------------------------------------------------------\n    function add_privilege(address[] calldata) external;\n\n    // ------------------------------------------------------------------------\n    // Remove commission privilege for address `user` from some contract.\n    // ------------------------------------------------------------------------\n    function remove_privilege(address[] calldata) external;\n}\n*/\ncontract SponsorWhitelistControl {\n    // ------------------------------------------------------------------------\n    // Someone will sponsor the gas cost for contract `contract_addr` with an\n    // `upper_bound` for a single transaction.\n    // ------------------------------------------------------------------------\n    function set_sponsor_for_gas(address contract_addr, uint upper_bound) public payable {\n    }\n\n    // ------------------------------------------------------------------------\n    // Someone will sponsor the storage collateral for contract `contract_addr`.\n    // ------------------------------------------------------------------------\n    function set_sponsor_for_collateral(address contract_addr) public payable {\n    }\n\n    // ------------------------------------------------------------------------\n    // Add commission privilege for address `user` to some contract.\n    // ------------------------------------------------------------------------\n    function add_privilege(address[] memory) public {\n    }\n\n    // ------------------------------------------------------------------------\n    // Remove commission privilege for address `user` from some contract.\n    // ------------------------------------------------------------------------\n    function remove_privilege(address[] memory) public {\n    }\n}\n\ncontract SponsorFaucet is Ownable, Pausable {\n    struct detail {\n        uint256 cnt;\n        uint256 limit;\n    }\n\n    uint256 public gas_bound;\n    uint256 public storage_bound;\n    mapping(address=>detail) public dapps;\n    mapping(address=>uint256) public sponsors;\n    \n    event applied(address dapp);\n    event receieved(address sponsor, uint256 amount);\n\n    SponsorWhitelistControl cpc = SponsorWhitelistControl(0x0888000000000000000000000000000000000001);\n    \n    constructor(uint256 bound, uint256 s_bound) public {\n        gas_bound = bound;\n        storage_bound = s_bound;\n    }\n    \n    /*** Dapp dev calls ***/ \n    //apply cfx for gas & storage\n    function applyFor(address dapp) public onlyOwner whenNotPaused {\n        cpc.set_sponsor_for_gas.value(gas_bound)(dapp, gas_bound);\n        cpc.set_sponsor_for_collateral.value(storage_bound)(dapp);\n        dapps[dapp].cnt++;\n        dapps[dapp].limit += (gas_bound+storage_bound);\n        emit applied(dapp);\n    }\n\n    //accept sponsor's cfx\n    function () external payable {\n        require(msg.value != 0);\n        sponsors[msg.sender] += msg.value;\n    }\n\n    //balance of sponsor\n    function getBalance() public returns(uint256) {\n        return address(this).balance;\n    }\n\n    //withdraw to specific address\n    function withdraw(address payable sponsor) public onlyOwner whenPaused {\n        require(sponsor.send(address(this).balance));\n    }\n\n    function setBound(uint256 gasBound, uint256 storageBound) public onlyOwner {\n        gas_bound = gasBound;\n        storage_bound = storageBound;    \n    }\n}\n",
  "sourcePath": "/Users/xiongyu/SponsorFaucet/contracts/SponsorFaucet.sol",
  "compiler": {
    "name": "solc",
    "version": "0.5.11+commit.c082d0b4.Emscripten.clang"
  },
  "schemaVersion": "3.2.2",
  "updatedAt": "2020-08-11T10:16:38.965Z",
  "devdoc": {
    "methods": {
      "isOwner()": {
        "details": "Returns true if the caller is the current owner."
      },
      "owner()": {
        "details": "Returns the address of the current owner."
      },
      "pause()": {
        "details": "Called by a pauser to pause, triggers stopped state."
      },
      "paused()": {
        "details": "Returns true if the contract is paused, and false otherwise."
      },
      "renounceOwnership()": {
        "details": "Leaves the contract without owner. It will not be possible to call `onlyOwner` functions anymore. Can only be called by the current owner.     * NOTE: Renouncing ownership will leave the contract without an owner, thereby removing any functionality that is only available to the owner."
      },
      "transferOwnership(address)": {
        "details": "Transfers ownership of the contract to a new account (`newOwner`). Can only be called by the current owner."
      },
      "unpause()": {
        "details": "Called by a pauser to unpause, returns to normal state."
      }
    }
  },
  "userdoc": {
    "methods": {
      "applyFor(address)": {
        "notice": "* Dapp dev calls **"
      }
    }
  }
}