{
  "contractName": "SponsorFaucet",
  "abi": [
    {
      "constant": false,
      "inputs": [],
      "name": "unpause",
      "outputs": [],
      "payable": false,
      "stateMutability": "nonpayable",
      "type": "function"
    },
    {
      "constant": true,
      "inputs": [
        {
          "internalType": "address",
          "name": "account",
          "type": "address"
        }
      ],
      "name": "isPauser",
      "outputs": [
        {
          "internalType": "bool",
          "name": "",
          "type": "bool"
        }
      ],
      "payable": false,
      "stateMutability": "view",
      "type": "function"
    },
    {
      "constant": true,
      "inputs": [
        {
          "internalType": "address",
          "name": "",
          "type": "address"
        }
      ],
      "name": "dapps",
      "outputs": [
        {
          "internalType": "uint256",
          "name": "cnt",
          "type": "uint256"
        },
        {
          "internalType": "uint256",
          "name": "limit",
          "type": "uint256"
        }
      ],
      "payable": false,
      "stateMutability": "view",
      "type": "function"
    },
    {
      "constant": true,
      "inputs": [],
      "name": "paused",
      "outputs": [
        {
          "internalType": "bool",
          "name": "",
          "type": "bool"
        }
      ],
      "payable": false,
      "stateMutability": "view",
      "type": "function"
    },
    {
      "constant": false,
      "inputs": [],
      "name": "renouncePauser",
      "outputs": [],
      "payable": false,
      "stateMutability": "nonpayable",
      "type": "function"
    },
    {
      "constant": false,
      "inputs": [],
      "name": "renounceOwnership",
      "outputs": [],
      "payable": false,
      "stateMutability": "nonpayable",
      "type": "function"
    },
    {
      "constant": false,
      "inputs": [
        {
          "internalType": "address",
          "name": "account",
          "type": "address"
        }
      ],
      "name": "addPauser",
      "outputs": [],
      "payable": false,
      "stateMutability": "nonpayable",
      "type": "function"
    },
    {
      "constant": false,
      "inputs": [],
      "name": "pause",
      "outputs": [],
      "payable": false,
      "stateMutability": "nonpayable",
      "type": "function"
    },
    {
      "constant": true,
      "inputs": [],
      "name": "owner",
      "outputs": [
        {
          "internalType": "address",
          "name": "",
          "type": "address"
        }
      ],
      "payable": false,
      "stateMutability": "view",
      "type": "function"
    },
    {
      "constant": true,
      "inputs": [],
      "name": "isOwner",
      "outputs": [
        {
          "internalType": "bool",
          "name": "",
          "type": "bool"
        }
      ],
      "payable": false,
      "stateMutability": "view",
      "type": "function"
    },
    {
      "constant": true,
      "inputs": [],
      "name": "gas_bound",
      "outputs": [
        {
          "internalType": "uint256",
          "name": "",
          "type": "uint256"
        }
      ],
      "payable": false,
      "stateMutability": "view",
      "type": "function"
    },
    {
      "constant": true,
      "inputs": [],
      "name": "collateral_bound",
      "outputs": [
        {
          "internalType": "uint256",
          "name": "",
          "type": "uint256"
        }
      ],
      "payable": false,
      "stateMutability": "view",
      "type": "function"
    },
    {
      "constant": false,
      "inputs": [
        {
          "internalType": "address",
          "name": "newOwner",
          "type": "address"
        }
      ],
      "name": "transferOwnership",
      "outputs": [],
      "payable": false,
      "stateMutability": "nonpayable",
      "type": "function"
    },
    {
      "inputs": [
        {
          "internalType": "uint256",
          "name": "gasBound",
          "type": "uint256"
        },
        {
          "internalType": "uint256",
          "name": "collateralBound",
          "type": "uint256"
        }
      ],
      "payable": false,
      "stateMutability": "nonpayable",
      "type": "constructor"
    },
    {
      "payable": true,
      "stateMutability": "payable",
      "type": "fallback"
    },
    {
      "anonymous": false,
      "inputs": [
        {
          "indexed": true,
          "internalType": "address",
          "name": "dapp",
          "type": "address"
        }
      ],
      "name": "applied",
      "type": "event"
    },
    {
      "anonymous": false,
      "inputs": [
        {
          "indexed": false,
          "internalType": "address",
          "name": "account",
          "type": "address"
        }
      ],
      "name": "Paused",
      "type": "event"
    },
    {
      "anonymous": false,
      "inputs": [
        {
          "indexed": false,
          "internalType": "address",
          "name": "account",
          "type": "address"
        }
      ],
      "name": "Unpaused",
      "type": "event"
    },
    {
      "anonymous": false,
      "inputs": [
        {
          "indexed": true,
          "internalType": "address",
          "name": "account",
          "type": "address"
        }
      ],
      "name": "PauserAdded",
      "type": "event"
    },
    {
      "anonymous": false,
      "inputs": [
        {
          "indexed": true,
          "internalType": "address",
          "name": "account",
          "type": "address"
        }
      ],
      "name": "PauserRemoved",
      "type": "event"
    },
    {
      "anonymous": false,
      "inputs": [
        {
          "indexed": true,
          "internalType": "address",
          "name": "previousOwner",
          "type": "address"
        },
        {
          "indexed": true,
          "internalType": "address",
          "name": "newOwner",
          "type": "address"
        }
      ],
      "name": "OwnershipTransferred",
      "type": "event"
    },
    {
      "constant": false,
      "inputs": [
        {
          "internalType": "address",
          "name": "dapp",
          "type": "address"
        }
      ],
      "name": "applyFor",
      "outputs": [],
      "payable": false,
      "stateMutability": "nonpayable",
      "type": "function"
    },
    {
      "constant": true,
      "inputs": [
        {
          "internalType": "address",
          "name": "dapp",
          "type": "address"
        }
      ],
      "name": "getDappGas",
      "outputs": [
        {
          "internalType": "uint256",
          "name": "",
          "type": "uint256"
        }
      ],
      "payable": false,
      "stateMutability": "view",
      "type": "function"
    },
    {
      "constant": true,
      "inputs": [
        {
          "internalType": "address",
          "name": "dapp",
          "type": "address"
        }
      ],
      "name": "getDappCollateral",
      "outputs": [
        {
          "internalType": "uint256",
          "name": "",
          "type": "uint256"
        }
      ],
      "payable": false,
      "stateMutability": "view",
      "type": "function"
    },
    {
      "constant": false,
      "inputs": [
        {
          "internalType": "address payable",
          "name": "sponsor",
          "type": "address"
        },
        {
          "internalType": "uint256",
          "name": "amount",
          "type": "uint256"
        }
      ],
      "name": "withdraw",
      "outputs": [],
      "payable": false,
      "stateMutability": "nonpayable",
      "type": "function"
    },
    {
      "constant": false,
      "inputs": [
        {
          "internalType": "uint256",
          "name": "gasBound",
          "type": "uint256"
        },
        {
          "internalType": "uint256",
          "name": "collateralBound",
          "type": "uint256"
        }
      ],
      "name": "setBound",
      "outputs": [],
      "payable": false,
      "stateMutability": "nonpayable",
      "type": "function"
    }
  ],
  "bytecode": "0x60806040526000600260016101000a81548160ff021916908315150217905550730888000000000000000000000000000000000001600660006101000a81548173ffffffffffffffffffffffffffffffffffffffff021916908373ffffffffffffffffffffffffffffffffffffffff1602179055503480156200008157600080fd5b506040516200210a3803806200210a8339818101604052620000a79190810190620003c1565b620000b7620001c360201b60201c565b6000806101000a81548173ffffffffffffffffffffffffffffffffffffffff021916908373ffffffffffffffffffffffffffffffffffffffff1602179055506000809054906101000a900473ffffffffffffffffffffffffffffffffffffffff1673ffffffffffffffffffffffffffffffffffffffff16600073ffffffffffffffffffffffffffffffffffffffff167f8be0079c531659141344cd1fd0a4f28419497f9722a3daafe3b4186f6b6457e060405160405180910390a36200019262000186620001c360201b60201c565b620001cb60201b60201c565b6000600260006101000a81548160ff0219169083151502179055508160038190555080600481905550505062000525565b600033905090565b620001e68160016200022c60201b620012681790919060201c565b8073ffffffffffffffffffffffffffffffffffffffff167f6719d08c1888103bea251a4ed56406bd0c3e69723c8a1686e017e7bbe159b6f860405160405180910390a250565b6200023e8282620002df60201b60201c565b1562000281576040517f08c379a00000000000000000000000000000000000000000000000000000000081526004016200027890620004ac565b60405180910390fd5b60018260000160008373ffffffffffffffffffffffffffffffffffffffff1673ffffffffffffffffffffffffffffffffffffffff16815260200190815260200160002060006101000a81548160ff0219169083151502179055505050565b60008073ffffffffffffffffffffffffffffffffffffffff168273ffffffffffffffffffffffffffffffffffffffff16141562000353576040517f08c379a00000000000000000000000000000000000000000000000000000000081526004016200034a90620004ce565b60405180910390fd5b8260000160008373ffffffffffffffffffffffffffffffffffffffff1673ffffffffffffffffffffffffffffffffffffffff16815260200190815260200160002060009054906101000a900460ff16905092915050565b600081519050620003bb816200050b565b92915050565b60008060408385031215620003d557600080fd5b6000620003e585828601620003aa565b9250506020620003f885828601620003aa565b9150509250929050565b600062000411601f83620004f0565b91507f526f6c65733a206163636f756e7420616c72656164792068617320726f6c65006000830152602082019050919050565b600062000453602283620004f0565b91507f526f6c65733a206163636f756e7420697320746865207a65726f20616464726560008301527f73730000000000000000000000000000000000000000000000000000000000006020830152604082019050919050565b60006020820190508181036000830152620004c78162000402565b9050919050565b60006020820190508181036000830152620004e98162000444565b9050919050565b600082825260208201905092915050565b6000819050919050565b620005168162000501565b81146200052257600080fd5b50565b611bd580620005356000396000f3fe6080604052600436106101095760003560e01c806378cb2005116100955780638f32d59b116100645780638f32d59b1461032d5780639ca64c4114610358578063ca9c8c3714610383578063f2fde38b146103ae578063f3fef3a3146103d757610109565b806378cb20051461029957806382dc1ec4146102c25780638456cb59146102eb5780638da5cb5b1461030257610109565b806355670f31116100dc57806355670f31146101c55780635b07b5ef146102035780635c975abb146102405780636ef8d66d1461026b578063715018a61461028257610109565b806337ea0de21461010b5780633f4ba83a1461013457806346fbf68e1461014b57806350bf190414610188575b005b34801561011757600080fd5b50610132600480360361012d919081019061134f565b610400565b005b34801561014057600080fd5b50610149610717565b005b34801561015757600080fd5b50610172600480360361016d919081019061134f565b610810565b60405161017f919061185c565b60405180910390f35b34801561019457600080fd5b506101af60048036036101aa919081019061134f565b61082d565b6040516101bc9190611a19565b60405180910390f35b3480156101d157600080fd5b506101ec60048036036101e7919081019061134f565b610834565b6040516101fa929190611a34565b60405180910390f35b34801561020f57600080fd5b5061022a6004803603610225919081019061134f565b610858565b6040516102379190611a19565b60405180910390f35b34801561024c57600080fd5b5061025561085f565b604051610262919061185c565b60405180910390f35b34801561027757600080fd5b50610280610876565b005b34801561028e57600080fd5b50610297610888565b005b3480156102a557600080fd5b506102c060048036036102bb91908101906113b4565b61098e565b005b3480156102ce57600080fd5b506102e960048036036102e4919081019061134f565b6109e7565b005b3480156102f757600080fd5b50610300610a42565b005b34801561030e57600080fd5b50610317610b3c565b60405161032491906117fd565b60405180910390f35b34801561033957600080fd5b50610342610b65565b60405161034f919061185c565b60405180910390f35b34801561036457600080fd5b5061036d610bc3565b60405161037a9190611a19565b60405180910390f35b34801561038f57600080fd5b50610398610bc9565b6040516103a59190611a19565b60405180910390f35b3480156103ba57600080fd5b506103d560048036036103d0919081019061134f565b610bcf565b005b3480156103e357600080fd5b506103fe60048036036103f99190810190611378565b610c22565b005b600260019054906101000a900460ff1615610450576040517f08c379a0000000000000000000000000000000000000000000000000000000008152600401610447906119f9565b60405180910390fd5b6001600260016101000a81548160ff021916908315150217905550600260009054906101000a900460ff16156104bb576040517f08c379a00000000000000000000000000000000000000000000000000000000081526004016104b290611939565b60405180910390fd5b600660009054906101000a900473ffffffffffffffffffffffffffffffffffffffff1673ffffffffffffffffffffffffffffffffffffffff1663e9ac3d4a600354836105146103e8600354610e0f90919063ffffffff16565b6040518463ffffffff1660e01b8152600401610531929190611833565b6000604051808303818588803b15801561054a57600080fd5b505af115801561055e573d6000803e3d6000fd5b5050505050600660009054906101000a900473ffffffffffffffffffffffffffffffffffffffff1673ffffffffffffffffffffffffffffffffffffffff16630862bf68600454836040518363ffffffff1660e01b81526004016105c191906117fd565b6000604051808303818588803b1580156105da57600080fd5b505af11580156105ee573d6000803e3d6000fd5b50505050506106496001600560008473ffffffffffffffffffffffffffffffffffffffff1673ffffffffffffffffffffffffffffffffffffffff16815260200190815260200160002060000154610e5990919063ffffffff16565b506106b5610664600454600354610e5990919063ffffffff16565b600560008473ffffffffffffffffffffffffffffffffffffffff1673ffffffffffffffffffffffffffffffffffffffff16815260200190815260200160002060010154610e5990919063ffffffff16565b508073ffffffffffffffffffffffffffffffffffffffff167f2a623296979246cc57deb32d9f5219c091bfa1a559d3214c9aabbaf4d24e0fb060405160405180910390a26000600260016101000a81548160ff02191690831515021790555050565b610727610722610eae565b610810565b610766576040517f08c379a000000000000000000000000000000000000000000000000000000000815260040161075d906118d9565b60405180910390fd5b600260009054906101000a900460ff166107b5576040517f08c379a00000000000000000000000000000000000000000000000000000000081526004016107ac90611899565b60405180910390fd5b6000600260006101000a81548160ff0219169083151502179055507f5db9ee0a495bf2e6ff9c91a7834c1ba4fdd244a5e8aa4e537bd38aeae4b073aa6107f9610eae565b6040516108069190611818565b60405180910390a1565b6000610826826001610eb690919063ffffffff16565b9050919050565b6000919050565b60056020528060005260406000206000915090508060000154908060010154905082565b6000919050565b6000600260009054906101000a900460ff16905090565b610886610881610eae565b610f7e565b565b610890610b65565b6108cf576040517f08c379a00000000000000000000000000000000000000000000000000000000081526004016108c690611979565b60405180910390fd5b600073ffffffffffffffffffffffffffffffffffffffff166000809054906101000a900473ffffffffffffffffffffffffffffffffffffffff1673ffffffffffffffffffffffffffffffffffffffff167f8be0079c531659141344cd1fd0a4f28419497f9722a3daafe3b4186f6b6457e060405160405180910390a360008060006101000a81548173ffffffffffffffffffffffffffffffffffffffff021916908373ffffffffffffffffffffffffffffffffffffffff160217905550565b610996610b65565b6109d5576040517f08c379a00000000000000000000000000000000000000000000000000000000081526004016109cc90611979565b60405180910390fd5b81600381905550806004819055505050565b6109f76109f2610eae565b610810565b610a36576040517f08c379a0000000000000000000000000000000000000000000000000000000008152600401610a2d906118d9565b60405180910390fd5b610a3f81610fd8565b50565b610a52610a4d610eae565b610810565b610a91576040517f08c379a0000000000000000000000000000000000000000000000000000000008152600401610a88906118d9565b60405180910390fd5b600260009054906101000a900460ff1615610ae1576040517f08c379a0000000000000000000000000000000000000000000000000000000008152600401610ad890611939565b60405180910390fd5b6001600260006101000a81548160ff0219169083151502179055507f62e78cea01bee320cd4e420270b5ea74000d11b0c9f74754ebdbfc544b05a258610b25610eae565b604051610b329190611818565b60405180910390a1565b60008060009054906101000a900473ffffffffffffffffffffffffffffffffffffffff16905090565b60008060009054906101000a900473ffffffffffffffffffffffffffffffffffffffff1673ffffffffffffffffffffffffffffffffffffffff16610ba7610eae565b73ffffffffffffffffffffffffffffffffffffffff1614905090565b60035481565b60045481565b610bd7610b65565b610c16576040517f08c379a0000000000000000000000000000000000000000000000000000000008152600401610c0d90611979565b60405180910390fd5b610c1f81611032565b50565b610c2a610b65565b610c69576040517f08c379a0000000000000000000000000000000000000000000000000000000008152600401610c6090611979565b60405180910390fd5b600260019054906101000a900460ff1615610cb9576040517f08c379a0000000000000000000000000000000000000000000000000000000008152600401610cb0906119f9565b60405180910390fd5b6001600260016101000a81548160ff021916908315150217905550600260009054906101000a900460ff16610d23576040517f08c379a0000000000000000000000000000000000000000000000000000000008152600401610d1a90611899565b60405180910390fd5b803073ffffffffffffffffffffffffffffffffffffffff163111610d7c576040517f08c379a0000000000000000000000000000000000000000000000000000000008152600401610d73906119b9565b60405180910390fd5b8173ffffffffffffffffffffffffffffffffffffffff166108fc829081150290604051600060405180830381858888f19350505050610df0576040517f08c379a0000000000000000000000000000000000000000000000000000000008152600401610de7906119d9565b60405180910390fd5b6000600260016101000a81548160ff0219169083151502179055505050565b6000610e5183836040518060400160405280601a81526020017f536166654d6174683a206469766973696f6e206279207a65726f000000000000815250611160565b905092915050565b600080828401905083811015610ea4576040517f08c379a0000000000000000000000000000000000000000000000000000000008152600401610e9b90611919565b60405180910390fd5b8091505092915050565b600033905090565b60008073ffffffffffffffffffffffffffffffffffffffff168273ffffffffffffffffffffffffffffffffffffffff161415610f27576040517f08c379a0000000000000000000000000000000000000000000000000000000008152600401610f1e90611999565b60405180910390fd5b8260000160008373ffffffffffffffffffffffffffffffffffffffff1673ffffffffffffffffffffffffffffffffffffffff16815260200190815260200160002060009054906101000a900460ff16905092915050565b610f928160016111c190919063ffffffff16565b8073ffffffffffffffffffffffffffffffffffffffff167fcd265ebaf09df2871cc7bd4133404a235ba12eff2041bb89d9c714a2621c7c7e60405160405180910390a250565b610fec81600161126890919063ffffffff16565b8073ffffffffffffffffffffffffffffffffffffffff167f6719d08c1888103bea251a4ed56406bd0c3e69723c8a1686e017e7bbe159b6f860405160405180910390a250565b600073ffffffffffffffffffffffffffffffffffffffff168173ffffffffffffffffffffffffffffffffffffffff1614156110a2576040517f08c379a0000000000000000000000000000000000000000000000000000000008152600401611099906118f9565b60405180910390fd5b8073ffffffffffffffffffffffffffffffffffffffff166000809054906101000a900473ffffffffffffffffffffffffffffffffffffffff1673ffffffffffffffffffffffffffffffffffffffff167f8be0079c531659141344cd1fd0a4f28419497f9722a3daafe3b4186f6b6457e060405160405180910390a3806000806101000a81548173ffffffffffffffffffffffffffffffffffffffff021916908373ffffffffffffffffffffffffffffffffffffffff16021790555050565b600080831182906111a7576040517f08c379a000000000000000000000000000000000000000000000000000000000815260040161119e9190611877565b60405180910390fd5b5060008385816111b357fe5b049050809150509392505050565b6111cb8282610eb6565b61120a576040517f08c379a000000000000000000000000000000000000000000000000000000000815260040161120190611959565b60405180910390fd5b60008260000160008373ffffffffffffffffffffffffffffffffffffffff1673ffffffffffffffffffffffffffffffffffffffff16815260200190815260200160002060006101000a81548160ff0219169083151502179055505050565b6112728282610eb6565b156112b2576040517f08c379a00000000000000000000000000000000000000000000000000000000081526004016112a9906118b9565b60405180910390fd5b60018260000160008373ffffffffffffffffffffffffffffffffffffffff1673ffffffffffffffffffffffffffffffffffffffff16815260200190815260200160002060006101000a81548160ff0219169083151502179055505050565b60008135905061131f81611b4d565b92915050565b60008135905061133481611b64565b92915050565b60008135905061134981611b7b565b92915050565b60006020828403121561136157600080fd5b600061136f84828501611310565b91505092915050565b6000806040838503121561138b57600080fd5b600061139985828601611325565b92505060206113aa8582860161133a565b9150509250929050565b600080604083850312156113c757600080fd5b60006113d58582860161133a565b92505060206113e68582860161133a565b9150509250929050565b6113f981611ad3565b82525050565b61140881611a79565b82525050565b61141781611a9d565b82525050565b600061142882611a5d565b6114328185611a68565b9350611442818560208601611b09565b61144b81611b3c565b840191505092915050565b6000611463601483611a68565b91507f5061757361626c653a206e6f74207061757365640000000000000000000000006000830152602082019050919050565b60006114a3601f83611a68565b91507f526f6c65733a206163636f756e7420616c72656164792068617320726f6c65006000830152602082019050919050565b60006114e3603083611a68565b91507f506175736572526f6c653a2063616c6c657220646f6573206e6f74206861766560008301527f207468652050617573657220726f6c65000000000000000000000000000000006020830152604082019050919050565b6000611549602683611a68565b91507f4f776e61626c653a206e6577206f776e657220697320746865207a65726f206160008301527f64647265737300000000000000000000000000000000000000000000000000006020830152604082019050919050565b60006115af601b83611a68565b91507f536166654d6174683a206164646974696f6e206f766572666c6f7700000000006000830152602082019050919050565b60006115ef601083611a68565b91507f5061757361626c653a20706175736564000000000000000000000000000000006000830152602082019050919050565b600061162f602183611a68565b91507f526f6c65733a206163636f756e7420646f6573206e6f74206861766520726f6c60008301527f65000000000000000000000000000000000000000000000000000000000000006020830152604082019050919050565b6000611695602083611a68565b91507f4f776e61626c653a2063616c6c6572206973206e6f7420746865206f776e65726000830152602082019050919050565b60006116d5602283611a68565b91507f526f6c65733a206163636f756e7420697320746865207a65726f20616464726560008301527f73730000000000000000000000000000000000000000000000000000000000006020830152604082019050919050565b600061173b600f83611a68565b91507f616d6f756e7420746f6f206869676800000000000000000000000000000000006000830152602082019050919050565b600061177b600e83611a68565b91507f7769746864726177206661696c640000000000000000000000000000000000006000830152602082019050919050565b60006117bb601283611a68565b91507f5245454e5452414e43595f494c4c4547414c00000000000000000000000000006000830152602082019050919050565b6117f781611ac9565b82525050565b600060208201905061181260008301846113ff565b92915050565b600060208201905061182d60008301846113f0565b92915050565b600060408201905061184860008301856113ff565b61185560208301846117ee565b9392505050565b6000602082019050611871600083018461140e565b92915050565b60006020820190508181036000830152611891818461141d565b905092915050565b600060208201905081810360008301526118b281611456565b9050919050565b600060208201905081810360008301526118d281611496565b9050919050565b600060208201905081810360008301526118f2816114d6565b9050919050565b600060208201905081810360008301526119128161153c565b9050919050565b60006020820190508181036000830152611932816115a2565b9050919050565b60006020820190508181036000830152611952816115e2565b9050919050565b6000602082019050818103600083015261197281611622565b9050919050565b6000602082019050818103600083015261199281611688565b9050919050565b600060208201905081810360008301526119b2816116c8565b9050919050565b600060208201905081810360008301526119d28161172e565b9050919050565b600060208201905081810360008301526119f28161176e565b9050919050565b60006020820190508181036000830152611a12816117ae565b9050919050565b6000602082019050611a2e60008301846117ee565b92915050565b6000604082019050611a4960008301856117ee565b611a5660208301846117ee565b9392505050565b600081519050919050565b600082825260208201905092915050565b6000611a8482611aa9565b9050919050565b6000611a9682611aa9565b9050919050565b60008115159050919050565b600073ffffffffffffffffffffffffffffffffffffffff82169050919050565b6000819050919050565b6000611ade82611ae5565b9050919050565b6000611af082611af7565b9050919050565b6000611b0282611aa9565b9050919050565b60005b83811015611b27578082015181840152602081019050611b0c565b83811115611b36576000848401525b50505050565b6000601f19601f8301169050919050565b611b5681611a79565b8114611b6157600080fd5b50565b611b6d81611a8b565b8114611b7857600080fd5b50565b611b8481611ac9565b8114611b8f57600080fd5b5056fea365627a7a723158208afdcbf8378136599643c6e8afa9f42a436a589173216be0e6242d9647ce56586c6578706572696d656e74616cf564736f6c634300050b0040",
  "source": "pragma solidity 0.5.11;\npragma experimental ABIEncoderV2;\n\nimport \"@openzeppelin/contracts/ownership/Ownable.sol\";\nimport \"@openzeppelin/contracts/lifecycle/Pausable.sol\";\nimport \"@openzeppelin/contracts/math/SafeMath.sol\";\nimport \"./Lib/ReentrancyGuard.sol\";\nimport \"./InternalContract.sol\";\n\ncontract SponsorFaucet is Ownable, Pausable, ReentrancyGuard {\n    using SafeMath for uint256;\n    struct detail {\n        uint256 cnt;\n        uint256 limit;\n    }\n\n    uint256 public gas_bound;\n    uint256 public collateral_bound;\n    mapping(address=>detail) public dapps;\n    \n    event applied(address indexed dapp);\n    \n    SponsorWhitelistControl cpc = SponsorWhitelistControl(0x0888000000000000000000000000000000000001);\n    \n    constructor(uint256 gasBound, uint256 collateralBound) public {\n        gas_bound = gasBound;\n        collateral_bound = collateralBound;\n    }\n    \n    /*** Dapp dev calls ***/ \n    //apply cfx for gas & storage\n    function applyFor(address dapp) public nonReentrant whenNotPaused {\n        cpc.set_sponsor_for_gas.value(gas_bound)(dapp, gas_bound.div(1000));\n        cpc.set_sponsor_for_collateral.value(collateral_bound)(dapp);\n        dapps[dapp].cnt.add(1);\n        dapps[dapp].limit.add(gas_bound.add(collateral_bound));\n        emit applied(dapp);\n    }\n\n    //accept sponsor's cfx\n    function () external payable {\n    }\n\n    //get dapp sponsored balance\n    // todo: add internal contract getMethod\n    function getDappGas(address dapp) public view returns(uint256){\n        \n    }\n\n    function getDappCollateral(address dapp) public view returns(uint256){\n\n    }\n\n    //withdraw to specific address by amount\n    function withdraw(address payable sponsor, uint256 amount) public onlyOwner nonReentrant whenPaused {\n        require(address(this).balance > amount, \"amount too high\");\n        require(sponsor.send(amount), \"withdraw faild\");\n    }\n\n    function setBound(uint256 gasBound, uint256 collateralBound) public onlyOwner {\n        gas_bound = gasBound;\n        collateral_bound = collateralBound;    \n    }\n}\n",
  "sourcePath": "/Users/xiongyu/conflux-sponsor-faucet/contracts/SponsorFaucet.sol",
  "compiler": {
    "name": "solc",
    "version": "0.5.11+commit.c082d0b4.Emscripten.clang"
  },
  "schemaVersion": "3.2.2",
  "updatedAt": "2020-08-13T09:39:36.307Z",
  "devdoc": {
    "methods": {
      "isOwner()": {
        "details": "Returns true if the caller is the current owner."
      },
      "owner()": {
        "details": "Returns the address of the current owner."
      },
      "pause()": {
        "details": "Called by a pauser to pause, triggers stopped state."
      },
      "paused()": {
        "details": "Returns true if the contract is paused, and false otherwise."
      },
      "renounceOwnership()": {
        "details": "Leaves the contract without owner. It will not be possible to call `onlyOwner` functions anymore. Can only be called by the current owner.     * NOTE: Renouncing ownership will leave the contract without an owner, thereby removing any functionality that is only available to the owner."
      },
      "transferOwnership(address)": {
        "details": "Transfers ownership of the contract to a new account (`newOwner`). Can only be called by the current owner."
      },
      "unpause()": {
        "details": "Called by a pauser to unpause, returns to normal state."
      }
    }
  },
  "userdoc": {
    "methods": {
      "applyFor(address)": {
        "notice": "* Dapp dev calls **"
      }
    }
  }
}