{
  "contractName": "SponsorWhitelistControl",
  "abi": [
    {
      "constant": false,
      "inputs": [
        {
          "internalType": "address",
          "name": "contract_addr",
          "type": "address"
        },
        {
          "internalType": "uint256",
          "name": "upper_bound",
          "type": "uint256"
        }
      ],
      "name": "set_sponsor_for_gas",
      "outputs": [],
      "payable": true,
      "stateMutability": "payable",
      "type": "function"
    },
    {
      "constant": false,
      "inputs": [
        {
          "internalType": "address",
          "name": "contract_addr",
          "type": "address"
        }
      ],
      "name": "set_sponsor_for_collateral",
      "outputs": [],
      "payable": true,
      "stateMutability": "payable",
      "type": "function"
    },
    {
      "constant": false,
      "inputs": [
        {
          "internalType": "address[]",
          "name": "",
          "type": "address[]"
        }
      ],
      "name": "add_privilege",
      "outputs": [],
      "payable": false,
      "stateMutability": "nonpayable",
      "type": "function"
    },
    {
      "constant": false,
      "inputs": [
        {
          "internalType": "address[]",
          "name": "",
          "type": "address[]"
        }
      ],
      "name": "remove_privilege",
      "outputs": [],
      "payable": false,
      "stateMutability": "nonpayable",
      "type": "function"
    }
  ],
  "bytecode": "0x608060405234801561001057600080fd5b50610330806100206000396000f3fe60806040526004361061003f5760003560e01c80630862bf681461004457806344c0bd2114610060578063e9ac3d4a14610089578063fe15156c146100a5575b600080fd5b61005e60048036036100599190810190610188565b6100ce565b005b34801561006c57600080fd5b50610087600480360361008291908101906101ed565b6100d1565b005b6100a3600480360361009e91908101906101b1565b6100d4565b005b3480156100b157600080fd5b506100cc60048036036100c791908101906101ed565b6100d8565b005b50565b50565b5050565b50565b6000813590506100ea816102bf565b92915050565b600082601f83011261010157600080fd5b813561011461010f8261025b565b61022e565b9150818183526020840193506020810190508385602084028201111561013957600080fd5b60005b83811015610169578161014f88826100db565b84526020840193506020830192505060018101905061013c565b5050505092915050565b600081359050610182816102d6565b92915050565b60006020828403121561019a57600080fd5b60006101a8848285016100db565b91505092915050565b600080604083850312156101c457600080fd5b60006101d2858286016100db565b92505060206101e385828601610173565b9150509250929050565b6000602082840312156101ff57600080fd5b600082013567ffffffffffffffff81111561021957600080fd5b610225848285016100f0565b91505092915050565b6000604051905081810181811067ffffffffffffffff8211171561025157600080fd5b8060405250919050565b600067ffffffffffffffff82111561027257600080fd5b602082029050602081019050919050565b600061028e82610295565b9050919050565b600073ffffffffffffffffffffffffffffffffffffffff82169050919050565b6000819050919050565b6102c881610283565b81146102d357600080fd5b50565b6102df816102b5565b81146102ea57600080fd5b5056fea365627a7a723158203020a16f560370c3f5ce0fb49450adcf0f6932faa2954205ddaab1be3476cb306c6578706572696d656e74616cf564736f6c634300050b0040",
  "source": "pragma solidity 0.5.11;\npragma experimental ABIEncoderV2;\n\nimport \"@openzeppelin/contracts/ownership/Ownable.sol\";\nimport \"@openzeppelin/contracts/lifecycle/Pausable.sol\";\nimport \"./Lib/ReentrancyGuard.sol\";\n\ncontract SponsorWhitelistControl {\n    // ------------------------------------------------------------------------\n    // Someone will sponsor the gas cost for contract `contract_addr` with an\n    // `upper_bound` for a single transaction.\n    // ------------------------------------------------------------------------\n    function set_sponsor_for_gas(address contract_addr, uint upper_bound) public payable {\n    }\n\n    // ------------------------------------------------------------------------\n    // Someone will sponsor the storage collateral for contract `contract_addr`.\n    // ------------------------------------------------------------------------\n    function set_sponsor_for_collateral(address contract_addr) public payable {\n    }\n\n    // ------------------------------------------------------------------------\n    // Add commission privilege for address `user` to some contract.\n    // ------------------------------------------------------------------------\n    function add_privilege(address[] memory) public {\n    }\n\n    // ------------------------------------------------------------------------\n    // Remove commission privilege for address `user` from some contract.\n    // ------------------------------------------------------------------------\n    function remove_privilege(address[] memory) public {\n    }\n}\n\ncontract SponsorFaucet is Ownable, Pausable, ReentrancyGuard {\n    struct detail {\n        uint256 cnt;\n        uint256 limit;\n    }\n\n    uint256 public gas_bound;\n    uint256 public storage_bound;\n    mapping(address=>detail) public dapps;\n    mapping(address=>uint256) public sponsors;\n    \n    event applied(address dapp);\n    event receieved(address sponsor, uint256 amount);\n\n    SponsorWhitelistControl cpc = SponsorWhitelistControl(0x0888000000000000000000000000000000000001);\n    \n    constructor(uint256 bound, uint256 s_bound) public {\n        gas_bound = bound;\n        storage_bound = s_bound;\n    }\n    \n    /*** Dapp dev calls ***/ \n    //apply cfx for gas & storage\n    function applyFor(address dapp) public onlyOwner nonReentrant whenNotPaused {\n        cpc.set_sponsor_for_gas.value(gas_bound)(dapp, gas_bound);\n        cpc.set_sponsor_for_collateral.value(storage_bound)(dapp);\n        dapps[dapp].cnt++;\n        dapps[dapp].limit += (gas_bound+storage_bound);\n        emit applied(dapp);\n    }\n\n    //accept sponsor's cfx\n    function () external payable {\n        sponsors[msg.sender] += msg.value;\n    }\n\n    //balance of sponsor\n    function getBalance() public returns(uint256) {\n        return address(this).balance;\n    }\n\n    //withdraw to specific address\n    function withdraw(address payable sponsor) public onlyOwner nonReentrant whenPaused {\n        require(address(this).balance > 1);\n        require(sponsor.send(address(this).balance-1));\n    }\n\n    function setBound(uint256 gasBound, uint256 storageBound) public onlyOwner {\n        gas_bound = gasBound;\n        storage_bound = storageBound;    \n    }\n}\n",
  "sourcePath": "/Users/xiongyu/conflux-sponsor-faucet/contracts/SponsorFaucet.sol",
  "compiler": {
    "name": "solc",
    "version": "0.5.11+commit.c082d0b4.Emscripten.clang"
  },
  "schemaVersion": "3.2.2",
  "updatedAt": "2020-08-13T03:20:38.563Z",
  "devdoc": {
    "methods": {}
  },
  "userdoc": {
    "methods": {}
  }
}