{
  "contractName": "SponsorFaucet",
  "abi": [
    {
      "constant": false,
      "inputs": [],
      "name": "unpause",
      "outputs": [],
      "payable": false,
      "stateMutability": "nonpayable",
      "type": "function"
    },
    {
      "constant": true,
      "inputs": [
        {
          "internalType": "address",
          "name": "account",
          "type": "address"
        }
      ],
      "name": "isPauser",
      "outputs": [
        {
          "internalType": "bool",
          "name": "",
          "type": "bool"
        }
      ],
      "payable": false,
      "stateMutability": "view",
      "type": "function"
    },
    {
      "constant": true,
      "inputs": [
        {
          "internalType": "address",
          "name": "",
          "type": "address"
        }
      ],
      "name": "dapps",
      "outputs": [
        {
          "internalType": "uint256",
          "name": "cnt",
          "type": "uint256"
        },
        {
          "internalType": "uint256",
          "name": "limit",
          "type": "uint256"
        }
      ],
      "payable": false,
      "stateMutability": "view",
      "type": "function"
    },
    {
      "constant": true,
      "inputs": [],
      "name": "paused",
      "outputs": [
        {
          "internalType": "bool",
          "name": "",
          "type": "bool"
        }
      ],
      "payable": false,
      "stateMutability": "view",
      "type": "function"
    },
    {
      "constant": false,
      "inputs": [],
      "name": "renouncePauser",
      "outputs": [],
      "payable": false,
      "stateMutability": "nonpayable",
      "type": "function"
    },
    {
      "constant": false,
      "inputs": [],
      "name": "renounceOwnership",
      "outputs": [],
      "payable": false,
      "stateMutability": "nonpayable",
      "type": "function"
    },
    {
      "constant": false,
      "inputs": [
        {
          "internalType": "address",
          "name": "account",
          "type": "address"
        }
      ],
      "name": "addPauser",
      "outputs": [],
      "payable": false,
      "stateMutability": "nonpayable",
      "type": "function"
    },
    {
      "constant": false,
      "inputs": [],
      "name": "pause",
      "outputs": [],
      "payable": false,
      "stateMutability": "nonpayable",
      "type": "function"
    },
    {
      "constant": true,
      "inputs": [],
      "name": "upper_bound",
      "outputs": [
        {
          "internalType": "uint256",
          "name": "",
          "type": "uint256"
        }
      ],
      "payable": false,
      "stateMutability": "view",
      "type": "function"
    },
    {
      "constant": true,
      "inputs": [],
      "name": "owner",
      "outputs": [
        {
          "internalType": "address",
          "name": "",
          "type": "address"
        }
      ],
      "payable": false,
      "stateMutability": "view",
      "type": "function"
    },
    {
      "constant": true,
      "inputs": [],
      "name": "isOwner",
      "outputs": [
        {
          "internalType": "bool",
          "name": "",
          "type": "bool"
        }
      ],
      "payable": false,
      "stateMutability": "view",
      "type": "function"
    },
    {
      "constant": true,
      "inputs": [],
      "name": "gas_bound",
      "outputs": [
        {
          "internalType": "uint256",
          "name": "",
          "type": "uint256"
        }
      ],
      "payable": false,
      "stateMutability": "view",
      "type": "function"
    },
    {
      "constant": true,
      "inputs": [],
      "name": "collateral_bound",
      "outputs": [
        {
          "internalType": "uint256",
          "name": "",
          "type": "uint256"
        }
      ],
      "payable": false,
      "stateMutability": "view",
      "type": "function"
    },
    {
      "constant": false,
      "inputs": [
        {
          "internalType": "address",
          "name": "newOwner",
          "type": "address"
        }
      ],
      "name": "transferOwnership",
      "outputs": [],
      "payable": false,
      "stateMutability": "nonpayable",
      "type": "function"
    },
    {
      "inputs": [
        {
          "internalType": "uint256",
          "name": "gasBound",
          "type": "uint256"
        },
        {
          "internalType": "uint256",
          "name": "collateralBound",
          "type": "uint256"
        },
        {
          "internalType": "uint256",
          "name": "upperBound",
          "type": "uint256"
        }
      ],
      "payable": false,
      "stateMutability": "nonpayable",
      "type": "constructor"
    },
    {
      "payable": true,
      "stateMutability": "payable",
      "type": "fallback"
    },
    {
      "anonymous": false,
      "inputs": [
        {
          "indexed": true,
          "internalType": "address",
          "name": "applicant",
          "type": "address"
        },
        {
          "indexed": true,
          "internalType": "address",
          "name": "dapp",
          "type": "address"
        },
        {
          "indexed": true,
          "internalType": "uint256",
          "name": "upper_bound",
          "type": "uint256"
        }
      ],
      "name": "applied",
      "type": "event"
    },
    {
      "anonymous": false,
      "inputs": [
        {
          "indexed": false,
          "internalType": "address",
          "name": "account",
          "type": "address"
        }
      ],
      "name": "Paused",
      "type": "event"
    },
    {
      "anonymous": false,
      "inputs": [
        {
          "indexed": false,
          "internalType": "address",
          "name": "account",
          "type": "address"
        }
      ],
      "name": "Unpaused",
      "type": "event"
    },
    {
      "anonymous": false,
      "inputs": [
        {
          "indexed": true,
          "internalType": "address",
          "name": "account",
          "type": "address"
        }
      ],
      "name": "PauserAdded",
      "type": "event"
    },
    {
      "anonymous": false,
      "inputs": [
        {
          "indexed": true,
          "internalType": "address",
          "name": "account",
          "type": "address"
        }
      ],
      "name": "PauserRemoved",
      "type": "event"
    },
    {
      "anonymous": false,
      "inputs": [
        {
          "indexed": true,
          "internalType": "address",
          "name": "previousOwner",
          "type": "address"
        },
        {
          "indexed": true,
          "internalType": "address",
          "name": "newOwner",
          "type": "address"
        }
      ],
      "name": "OwnershipTransferred",
      "type": "event"
    },
    {
      "constant": false,
      "inputs": [
        {
          "internalType": "address",
          "name": "dapp",
          "type": "address"
        }
      ],
      "name": "applyFor",
      "outputs": [],
      "payable": false,
      "stateMutability": "nonpayable",
      "type": "function"
    },
    {
      "constant": true,
      "inputs": [
        {
          "internalType": "address",
          "name": "dapp",
          "type": "address"
        }
      ],
      "name": "getGasBalance",
      "outputs": [
        {
          "internalType": "uint256",
          "name": "",
          "type": "uint256"
        }
      ],
      "payable": false,
      "stateMutability": "view",
      "type": "function"
    },
    {
      "constant": true,
      "inputs": [
        {
          "internalType": "address",
          "name": "dapp",
          "type": "address"
        }
      ],
      "name": "getCollateralBalance",
      "outputs": [
        {
          "internalType": "uint256",
          "name": "",
          "type": "uint256"
        }
      ],
      "payable": false,
      "stateMutability": "view",
      "type": "function"
    },
    {
      "constant": false,
      "inputs": [
        {
          "internalType": "address payable",
          "name": "sponsor",
          "type": "address"
        },
        {
          "internalType": "uint256",
          "name": "amount",
          "type": "uint256"
        }
      ],
      "name": "withdraw",
      "outputs": [],
      "payable": false,
      "stateMutability": "nonpayable",
      "type": "function"
    },
    {
      "constant": false,
      "inputs": [
        {
          "internalType": "uint256",
          "name": "gasBound",
          "type": "uint256"
        },
        {
          "internalType": "uint256",
          "name": "collateralBound",
          "type": "uint256"
        },
        {
          "internalType": "uint256",
          "name": "upperBound",
          "type": "uint256"
        }
      ],
      "name": "setBound",
      "outputs": [],
      "payable": false,
      "stateMutability": "nonpayable",
      "type": "function"
    }
  ],
  "bytecode": "0x60806040526000600260016101000a81548160ff021916908315150217905550730888000000000000000000000000000000000001600760006101000a81548173ffffffffffffffffffffffffffffffffffffffff021916908373ffffffffffffffffffffffffffffffffffffffff1602179055503480156200008157600080fd5b5060405162002415380380620024158339818101604052620000a79190810190620004a0565b620000b76200022c60201b60201c565b6000806101000a81548173ffffffffffffffffffffffffffffffffffffffff021916908373ffffffffffffffffffffffffffffffffffffffff1602179055506000809054906101000a900473ffffffffffffffffffffffffffffffffffffffff1673ffffffffffffffffffffffffffffffffffffffff16600073ffffffffffffffffffffffffffffffffffffffff167f8be0079c531659141344cd1fd0a4f28419497f9722a3daafe3b4186f6b6457e060405160405180910390a362000192620001866200022c60201b60201c565b6200023460201b60201c565b6000600260006101000a81548160ff02191690831515021790555082620001ca6103e8836200029560201b620010c31790919060201c565b11156200020e576040517f08c379a00000000000000000000000000000000000000000000000000000000081526004016200020590620006b0565b60405180910390fd5b82600381905550816004819055508060058190555050505062000707565b600033905090565b6200024f8160016200030b60201b620013081790919060201c565b8073ffffffffffffffffffffffffffffffffffffffff167f6719d08c1888103bea251a4ed56406bd0c3e69723c8a1686e017e7bbe159b6f860405160405180910390a250565b600080831415620002aa576000905062000305565b6000828402905082848281620002bc57fe5b041462000300576040517f08c379a0000000000000000000000000000000000000000000000000000000008152600401620002f7906200066c565b60405180910390fd5b809150505b92915050565b6200031d8282620003be60201b60201c565b1562000360576040517f08c379a000000000000000000000000000000000000000000000000000000000815260040162000357906200064a565b60405180910390fd5b60018260000160008373ffffffffffffffffffffffffffffffffffffffff1673ffffffffffffffffffffffffffffffffffffffff16815260200190815260200160002060006101000a81548160ff0219169083151502179055505050565b60008073ffffffffffffffffffffffffffffffffffffffff168273ffffffffffffffffffffffffffffffffffffffff16141562000432576040517f08c379a000000000000000000000000000000000000000000000000000000000815260040162000429906200068e565b60405180910390fd5b8260000160008373ffffffffffffffffffffffffffffffffffffffff1673ffffffffffffffffffffffffffffffffffffffff16815260200190815260200160002060009054906101000a900460ff16905092915050565b6000815190506200049a81620006ed565b92915050565b600080600060608486031215620004b657600080fd5b6000620004c68682870162000489565b9350506020620004d98682870162000489565b9250506040620004ec8682870162000489565b9150509250925092565b600062000505601f83620006d2565b91507f526f6c65733a206163636f756e7420616c72656164792068617320726f6c65006000830152602082019050919050565b600062000547602183620006d2565b91507f536166654d6174683a206d756c7469706c69636174696f6e206f766572666c6f60008301527f77000000000000000000000000000000000000000000000000000000000000006020830152604082019050919050565b6000620005af602283620006d2565b91507f526f6c65733a206163636f756e7420697320746865207a65726f20616464726560008301527f73730000000000000000000000000000000000000000000000000000000000006020830152604082019050919050565b600062000617601383620006d2565b91507f7570706572426f756e6420746f6f2068696768000000000000000000000000006000830152602082019050919050565b600060208201905081810360008301526200066581620004f6565b9050919050565b60006020820190508181036000830152620006878162000538565b9050919050565b60006020820190508181036000830152620006a981620005a0565b9050919050565b60006020820190508181036000830152620006cb8162000608565b9050919050565b600082825260208201905092915050565b6000819050919050565b620006f881620006e3565b81146200070457600080fd5b50565b611cfe80620007176000396000f3fe6080604052600436106101145760003560e01c80638456cb59116100a0578063ca9c8c3711610064578063ca9c8c3714610353578063db51cd661461037e578063efb2adeb146103bb578063f2fde38b146103e4578063f3fef3a31461040d57610114565b80638456cb591461029057806385eb4dab146102a75780638da5cb5b146102d25780638f32d59b146102fd5780639ca64c411461032857610114565b806355670f31116100e757806355670f31146101d05780635c975abb1461020e5780636ef8d66d14610239578063715018a61461025057806382dc1ec41461026757610114565b80632703ee851461011657806337ea0de2146101535780633f4ba83a1461017c57806346fbf68e14610193575b005b34801561012257600080fd5b5061013d600480360361013891908101906113ef565b610436565b60405161014a9190611b86565b60405180910390f35b34801561015f57600080fd5b5061017a600480360361017591908101906113ef565b61043d565b005b34801561018857600080fd5b5061019161075a565b005b34801561019f57600080fd5b506101ba60048036036101b591908101906113ef565b610853565b6040516101c791906119ab565b60405180910390f35b3480156101dc57600080fd5b506101f760048036036101f291908101906113ef565b610870565b604051610205929190611ba1565b60405180910390f35b34801561021a57600080fd5b50610223610894565b60405161023091906119ab565b60405180910390f35b34801561024557600080fd5b5061024e6108ab565b005b34801561025c57600080fd5b506102656108bd565b005b34801561027357600080fd5b5061028e600480360361028991908101906113ef565b6109c3565b005b34801561029c57600080fd5b506102a5610a1e565b005b3480156102b357600080fd5b506102bc610b18565b6040516102c99190611b86565b60405180910390f35b3480156102de57600080fd5b506102e7610b1e565b6040516102f4919061194c565b60405180910390f35b34801561030957600080fd5b50610312610b47565b60405161031f91906119ab565b60405180910390f35b34801561033457600080fd5b5061033d610ba5565b60405161034a9190611b86565b60405180910390f35b34801561035f57600080fd5b50610368610bab565b6040516103759190611b86565b60405180910390f35b34801561038a57600080fd5b506103a560048036036103a091908101906113ef565b610bb1565b6040516103b29190611b86565b60405180910390f35b3480156103c757600080fd5b506103e260048036036103dd9190810190611454565b610bb8565b005b3480156103f057600080fd5b5061040b600480360361040691908101906113ef565b610c70565b005b34801561041957600080fd5b50610434600480360361042f9190810190611418565b610cc3565b005b6000919050565b600260019054906101000a900460ff161561048d576040517f08c379a000000000000000000000000000000000000000000000000000000000815260040161048490611b26565b60405180910390fd5b6001600260016101000a81548160ff021916908315150217905550600260009054906101000a900460ff16156104f8576040517f08c379a00000000000000000000000000000000000000000000000000000000081526004016104ef90611a66565b60405180910390fd5b600760009054906101000a900473ffffffffffffffffffffffffffffffffffffffff1673ffffffffffffffffffffffffffffffffffffffff1663e9ac3d4a600354836005546040518463ffffffff1660e01b815260040161055a929190611982565b6000604051808303818588803b15801561057357600080fd5b505af1158015610587573d6000803e3d6000fd5b5050505050600760009054906101000a900473ffffffffffffffffffffffffffffffffffffffff1673ffffffffffffffffffffffffffffffffffffffff16630862bf68600454836040518363ffffffff1660e01b81526004016105ea919061194c565b6000604051808303818588803b15801561060357600080fd5b505af1158015610617573d6000803e3d6000fd5b50505050506106726001600660008473ffffffffffffffffffffffffffffffffffffffff1673ffffffffffffffffffffffffffffffffffffffff16815260200190815260200160002060000154610eea90919063ffffffff16565b506106de61068d600454600354610eea90919063ffffffff16565b600660008473ffffffffffffffffffffffffffffffffffffffff1673ffffffffffffffffffffffffffffffffffffffff16815260200190815260200160002060010154610eea90919063ffffffff16565b506005548173ffffffffffffffffffffffffffffffffffffffff163373ffffffffffffffffffffffffffffffffffffffff167f0d517b7814d6361097aa44db26ae46a4e1244686721c5f28206a9605dc413c4a60405160405180910390a46000600260016101000a81548160ff02191690831515021790555050565b61076a610765610f3f565b610853565b6107a9576040517f08c379a00000000000000000000000000000000000000000000000000000000081526004016107a090611a06565b60405180910390fd5b600260009054906101000a900460ff166107f8576040517f08c379a00000000000000000000000000000000000000000000000000000000081526004016107ef906119c6565b60405180910390fd5b6000600260006101000a81548160ff0219169083151502179055507f5db9ee0a495bf2e6ff9c91a7834c1ba4fdd244a5e8aa4e537bd38aeae4b073aa61083c610f3f565b6040516108499190611967565b60405180910390a1565b6000610869826001610f4790919063ffffffff16565b9050919050565b60066020528060005260406000206000915090508060000154908060010154905082565b6000600260009054906101000a900460ff16905090565b6108bb6108b6610f3f565b61100f565b565b6108c5610b47565b610904576040517f08c379a00000000000000000000000000000000000000000000000000000000081526004016108fb90611ac6565b60405180910390fd5b600073ffffffffffffffffffffffffffffffffffffffff166000809054906101000a900473ffffffffffffffffffffffffffffffffffffffff1673ffffffffffffffffffffffffffffffffffffffff167f8be0079c531659141344cd1fd0a4f28419497f9722a3daafe3b4186f6b6457e060405160405180910390a360008060006101000a81548173ffffffffffffffffffffffffffffffffffffffff021916908373ffffffffffffffffffffffffffffffffffffffff160217905550565b6109d36109ce610f3f565b610853565b610a12576040517f08c379a0000000000000000000000000000000000000000000000000000000008152600401610a0990611a06565b60405180910390fd5b610a1b81611069565b50565b610a2e610a29610f3f565b610853565b610a6d576040517f08c379a0000000000000000000000000000000000000000000000000000000008152600401610a6490611a06565b60405180910390fd5b600260009054906101000a900460ff1615610abd576040517f08c379a0000000000000000000000000000000000000000000000000000000008152600401610ab490611a66565b60405180910390fd5b6001600260006101000a81548160ff0219169083151502179055507f62e78cea01bee320cd4e420270b5ea74000d11b0c9f74754ebdbfc544b05a258610b01610f3f565b604051610b0e9190611967565b60405180910390a1565b60055481565b60008060009054906101000a900473ffffffffffffffffffffffffffffffffffffffff16905090565b60008060009054906101000a900473ffffffffffffffffffffffffffffffffffffffff1673ffffffffffffffffffffffffffffffffffffffff16610b89610f3f565b73ffffffffffffffffffffffffffffffffffffffff1614905090565b60035481565b60045481565b6000919050565b610bc0610b47565b610bff576040517f08c379a0000000000000000000000000000000000000000000000000000000008152600401610bf690611ac6565b60405180910390fd5b82610c156103e8836110c390919063ffffffff16565b1115610c56576040517f08c379a0000000000000000000000000000000000000000000000000000000008152600401610c4d90611b66565b60405180910390fd5b826003819055508160048190555080600581905550505050565b610c78610b47565b610cb7576040517f08c379a0000000000000000000000000000000000000000000000000000000008152600401610cae90611ac6565b60405180910390fd5b610cc081611133565b50565b610ccb610b47565b610d0a576040517f08c379a0000000000000000000000000000000000000000000000000000000008152600401610d0190611ac6565b60405180910390fd5b600260019054906101000a900460ff1615610d5a576040517f08c379a0000000000000000000000000000000000000000000000000000000008152600401610d5190611b26565b60405180910390fd5b6001600260016101000a81548160ff021916908315150217905550600260009054906101000a900460ff16610dc4576040517f08c379a0000000000000000000000000000000000000000000000000000000008152600401610dbb906119c6565b60405180910390fd5b803073ffffffffffffffffffffffffffffffffffffffff16311015610e1e576040517f08c379a0000000000000000000000000000000000000000000000000000000008152600401610e1590611b06565b60405180910390fd5b60008273ffffffffffffffffffffffffffffffffffffffff1682604051610e4490611937565b60006040518083038185875af1925050503d8060008114610e81576040519150601f19603f3d011682016040523d82523d6000602084013e610e86565b606091505b5050905080610eca576040517f08c379a0000000000000000000000000000000000000000000000000000000008152600401610ec190611b46565b60405180910390fd5b506000600260016101000a81548160ff0219169083151502179055505050565b600080828401905083811015610f35576040517f08c379a0000000000000000000000000000000000000000000000000000000008152600401610f2c90611a46565b60405180910390fd5b8091505092915050565b600033905090565b60008073ffffffffffffffffffffffffffffffffffffffff168273ffffffffffffffffffffffffffffffffffffffff161415610fb8576040517f08c379a0000000000000000000000000000000000000000000000000000000008152600401610faf90611ae6565b60405180910390fd5b8260000160008373ffffffffffffffffffffffffffffffffffffffff1673ffffffffffffffffffffffffffffffffffffffff16815260200190815260200160002060009054906101000a900460ff16905092915050565b61102381600161126190919063ffffffff16565b8073ffffffffffffffffffffffffffffffffffffffff167fcd265ebaf09df2871cc7bd4133404a235ba12eff2041bb89d9c714a2621c7c7e60405160405180910390a250565b61107d81600161130890919063ffffffff16565b8073ffffffffffffffffffffffffffffffffffffffff167f6719d08c1888103bea251a4ed56406bd0c3e69723c8a1686e017e7bbe159b6f860405160405180910390a250565b6000808314156110d6576000905061112d565b60008284029050828482816110e757fe5b0414611128576040517f08c379a000000000000000000000000000000000000000000000000000000000815260040161111f90611aa6565b60405180910390fd5b809150505b92915050565b600073ffffffffffffffffffffffffffffffffffffffff168173ffffffffffffffffffffffffffffffffffffffff1614156111a3576040517f08c379a000000000000000000000000000000000000000000000000000000000815260040161119a90611a26565b60405180910390fd5b8073ffffffffffffffffffffffffffffffffffffffff166000809054906101000a900473ffffffffffffffffffffffffffffffffffffffff1673ffffffffffffffffffffffffffffffffffffffff167f8be0079c531659141344cd1fd0a4f28419497f9722a3daafe3b4186f6b6457e060405160405180910390a3806000806101000a81548173ffffffffffffffffffffffffffffffffffffffff021916908373ffffffffffffffffffffffffffffffffffffffff16021790555050565b61126b8282610f47565b6112aa576040517f08c379a00000000000000000000000000000000000000000000000000000000081526004016112a190611a86565b60405180910390fd5b60008260000160008373ffffffffffffffffffffffffffffffffffffffff1673ffffffffffffffffffffffffffffffffffffffff16815260200190815260200160002060006101000a81548160ff0219169083151502179055505050565b6113128282610f47565b15611352576040517f08c379a0000000000000000000000000000000000000000000000000000000008152600401611349906119e6565b60405180910390fd5b60018260000160008373ffffffffffffffffffffffffffffffffffffffff1673ffffffffffffffffffffffffffffffffffffffff16815260200190815260200160002060006101000a81548160ff0219169083151502179055505050565b6000813590506113bf81611c76565b92915050565b6000813590506113d481611c8d565b92915050565b6000813590506113e981611ca4565b92915050565b60006020828403121561140157600080fd5b600061140f848285016113b0565b91505092915050565b6000806040838503121561142b57600080fd5b6000611439858286016113c5565b925050602061144a858286016113da565b9150509250929050565b60008060006060848603121561146957600080fd5b6000611477868287016113da565b9350506020611488868287016113da565b9250506040611499868287016113da565b9150509250925092565b6114ac81611c40565b82525050565b6114bb81611be6565b82525050565b6114ca81611c0a565b82525050565b60006114dd601483611bd5565b91507f5061757361626c653a206e6f74207061757365640000000000000000000000006000830152602082019050919050565b600061151d601f83611bd5565b91507f526f6c65733a206163636f756e7420616c72656164792068617320726f6c65006000830152602082019050919050565b600061155d603083611bd5565b91507f506175736572526f6c653a2063616c6c657220646f6573206e6f74206861766560008301527f207468652050617573657220726f6c65000000000000000000000000000000006020830152604082019050919050565b60006115c3602683611bd5565b91507f4f776e61626c653a206e6577206f776e657220697320746865207a65726f206160008301527f64647265737300000000000000000000000000000000000000000000000000006020830152604082019050919050565b6000611629601b83611bd5565b91507f536166654d6174683a206164646974696f6e206f766572666c6f7700000000006000830152602082019050919050565b6000611669601083611bd5565b91507f5061757361626c653a20706175736564000000000000000000000000000000006000830152602082019050919050565b60006116a9602183611bd5565b91507f526f6c65733a206163636f756e7420646f6573206e6f74206861766520726f6c60008301527f65000000000000000000000000000000000000000000000000000000000000006020830152604082019050919050565b600061170f602183611bd5565b91507f536166654d6174683a206d756c7469706c69636174696f6e206f766572666c6f60008301527f77000000000000000000000000000000000000000000000000000000000000006020830152604082019050919050565b6000611775602083611bd5565b91507f4f776e61626c653a2063616c6c6572206973206e6f7420746865206f776e65726000830152602082019050919050565b60006117b5602283611bd5565b91507f526f6c65733a206163636f756e7420697320746865207a65726f20616464726560008301527f73730000000000000000000000000000000000000000000000000000000000006020830152604082019050919050565b600061181b600f83611bd5565b91507f616d6f756e7420746f6f206869676800000000000000000000000000000000006000830152602082019050919050565b600061185b601283611bd5565b91507f5245454e5452414e43595f494c4c4547414c00000000000000000000000000006000830152602082019050919050565b600061189b600083611bca565b9150600082019050919050565b60006118b5600f83611bd5565b91507f7769746864726177206661696c656400000000000000000000000000000000006000830152602082019050919050565b60006118f5601383611bd5565b91507f7570706572426f756e6420746f6f2068696768000000000000000000000000006000830152602082019050919050565b61193181611c36565b82525050565b60006119428261188e565b9150819050919050565b600060208201905061196160008301846114b2565b92915050565b600060208201905061197c60008301846114a3565b92915050565b600060408201905061199760008301856114b2565b6119a46020830184611928565b9392505050565b60006020820190506119c060008301846114c1565b92915050565b600060208201905081810360008301526119df816114d0565b9050919050565b600060208201905081810360008301526119ff81611510565b9050919050565b60006020820190508181036000830152611a1f81611550565b9050919050565b60006020820190508181036000830152611a3f816115b6565b9050919050565b60006020820190508181036000830152611a5f8161161c565b9050919050565b60006020820190508181036000830152611a7f8161165c565b9050919050565b60006020820190508181036000830152611a9f8161169c565b9050919050565b60006020820190508181036000830152611abf81611702565b9050919050565b60006020820190508181036000830152611adf81611768565b9050919050565b60006020820190508181036000830152611aff816117a8565b9050919050565b60006020820190508181036000830152611b1f8161180e565b9050919050565b60006020820190508181036000830152611b3f8161184e565b9050919050565b60006020820190508181036000830152611b5f816118a8565b9050919050565b60006020820190508181036000830152611b7f816118e8565b9050919050565b6000602082019050611b9b6000830184611928565b92915050565b6000604082019050611bb66000830185611928565b611bc36020830184611928565b9392505050565b600081905092915050565b600082825260208201905092915050565b6000611bf182611c16565b9050919050565b6000611c0382611c16565b9050919050565b60008115159050919050565b600073ffffffffffffffffffffffffffffffffffffffff82169050919050565b6000819050919050565b6000611c4b82611c52565b9050919050565b6000611c5d82611c64565b9050919050565b6000611c6f82611c16565b9050919050565b611c7f81611be6565b8114611c8a57600080fd5b50565b611c9681611bf8565b8114611ca157600080fd5b50565b611cad81611c36565b8114611cb857600080fd5b5056fea365627a7a7231582051bae2b7e640b96047a64b0329a64828f0f0c0bdfcdcd4bdda44e2f387c924736c6578706572696d656e74616cf564736f6c634300050b0040",
  "source": "pragma solidity 0.5.11;\npragma experimental ABIEncoderV2;\n\nimport \"@openzeppelin/contracts/ownership/Ownable.sol\";\nimport \"@openzeppelin/contracts/lifecycle/Pausable.sol\";\nimport \"@openzeppelin/contracts/math/SafeMath.sol\";\nimport \"./Lib/ReentrancyGuard.sol\";\nimport \"./InternalContract.sol\";\n\ncontract SponsorFaucet is Ownable, Pausable, ReentrancyGuard {\n    using SafeMath for uint256;\n    struct detail {\n        uint256 cnt;\n        uint256 limit;\n    }\n\n    //single sponsor bound\n    uint256 public gas_bound;\n    uint256 public collateral_bound;\n    //upper bound for single tx\n    uint256 public upper_bound;\n    mapping(address=>detail) public dapps;\n    \n    event applied(address indexed applicant, address indexed dapp, uint256 indexed upper_bound);\n    \n    SponsorWhitelistControl cpc = SponsorWhitelistControl(0x0888000000000000000000000000000000000001);\n    \n    constructor(uint256 gasBound, uint256 collateralBound, uint256 upperBound) public {\n        require(upperBound.mul(1000) <= gasBound, 'upperBound too high');\n        gas_bound = gasBound;\n        collateral_bound = collateralBound;\n        upper_bound = upperBound;\n    }\n    \n    /*** Dapp dev calls ***/ \n    //apply cfx for gas & storage\n    function applyFor(address dapp) public nonReentrant whenNotPaused {\n        //todo: internal contract require check\n        cpc.set_sponsor_for_gas.value(gas_bound)(dapp, upper_bound);\n        cpc.set_sponsor_for_collateral.value(collateral_bound)(dapp);\n        dapps[dapp].cnt.add(1);\n        dapps[dapp].limit.add(gas_bound.add(collateral_bound));\n        emit applied(msg.sender, dapp, upper_bound);\n    }\n\n    //accept sponsor's cfx\n    function () external payable {\n    }\n\n    //get dapp sponsored balance\n    // todo: add internal contract getMethod\n    function getGasBalance(address dapp) public view returns(uint256){\n        \n    }\n\n    function getCollateralBalance(address dapp) public view returns(uint256){\n\n    }\n\n    //withdraw to specific address by amount\n    function withdraw(address payable sponsor, uint256 amount) public onlyOwner nonReentrant whenPaused {\n        require(address(this).balance >= amount, \"amount too high\");\n        //require(sponsor.send(amount), \"withdraw failed\");\n        (bool success, ) = sponsor.call.value(amount)(\"\");\n        require(success, \"withdraw failed\");\n    }\n\n    function setBound(uint256 gasBound, uint256 collateralBound, uint256 upperBound) public onlyOwner {\n        require(upperBound.mul(1000) <= gasBound, 'upperBound too high');\n        gas_bound = gasBound;\n        collateral_bound = collateralBound;\n        upper_bound = upperBound;   \n    }\n}\n",
  "sourcePath": "/Users/xiongyu/conflux-sponsor-faucet/contracts/SponsorFaucet.sol",
  "compiler": {
    "name": "solc",
    "version": "0.5.11+commit.c082d0b4.Emscripten.clang"
  },
  "schemaVersion": "3.2.2",
  "updatedAt": "2020-08-21T03:45:42.493Z",
  "devdoc": {
    "methods": {
      "isOwner()": {
        "details": "Returns true if the caller is the current owner."
      },
      "owner()": {
        "details": "Returns the address of the current owner."
      },
      "pause()": {
        "details": "Called by a pauser to pause, triggers stopped state."
      },
      "paused()": {
        "details": "Returns true if the contract is paused, and false otherwise."
      },
      "renounceOwnership()": {
        "details": "Leaves the contract without owner. It will not be possible to call `onlyOwner` functions anymore. Can only be called by the current owner.     * NOTE: Renouncing ownership will leave the contract without an owner, thereby removing any functionality that is only available to the owner."
      },
      "transferOwnership(address)": {
        "details": "Transfers ownership of the contract to a new account (`newOwner`). Can only be called by the current owner."
      },
      "unpause()": {
        "details": "Called by a pauser to unpause, returns to normal state."
      }
    }
  },
  "userdoc": {
    "methods": {
      "applyFor(address)": {
        "notice": "* Dapp dev calls **"
      }
    }
  }
}