{
  "contractName": "SponsorFaucet",
  "abi": [
    {
      "constant": false,
      "inputs": [],
      "name": "unpause",
      "outputs": [],
      "payable": false,
      "stateMutability": "nonpayable",
      "type": "function"
    },
    {
      "constant": true,
      "inputs": [
        {
          "internalType": "address",
          "name": "account",
          "type": "address"
        }
      ],
      "name": "isPauser",
      "outputs": [
        {
          "internalType": "bool",
          "name": "",
          "type": "bool"
        }
      ],
      "payable": false,
      "stateMutability": "view",
      "type": "function"
    },
    {
      "constant": true,
      "inputs": [
        {
          "internalType": "address",
          "name": "",
          "type": "address"
        }
      ],
      "name": "dapps",
      "outputs": [
        {
          "internalType": "uint256",
          "name": "cnt",
          "type": "uint256"
        },
        {
          "internalType": "uint256",
          "name": "limit",
          "type": "uint256"
        }
      ],
      "payable": false,
      "stateMutability": "view",
      "type": "function"
    },
    {
      "constant": true,
      "inputs": [],
      "name": "paused",
      "outputs": [
        {
          "internalType": "bool",
          "name": "",
          "type": "bool"
        }
      ],
      "payable": false,
      "stateMutability": "view",
      "type": "function"
    },
    {
      "constant": false,
      "inputs": [],
      "name": "renouncePauser",
      "outputs": [],
      "payable": false,
      "stateMutability": "nonpayable",
      "type": "function"
    },
    {
      "constant": false,
      "inputs": [],
      "name": "renounceOwnership",
      "outputs": [],
      "payable": false,
      "stateMutability": "nonpayable",
      "type": "function"
    },
    {
      "constant": false,
      "inputs": [
        {
          "internalType": "address",
          "name": "account",
          "type": "address"
        }
      ],
      "name": "addPauser",
      "outputs": [],
      "payable": false,
      "stateMutability": "nonpayable",
      "type": "function"
    },
    {
      "constant": false,
      "inputs": [],
      "name": "pause",
      "outputs": [],
      "payable": false,
      "stateMutability": "nonpayable",
      "type": "function"
    },
    {
      "constant": true,
      "inputs": [],
      "name": "owner",
      "outputs": [
        {
          "internalType": "address",
          "name": "",
          "type": "address"
        }
      ],
      "payable": false,
      "stateMutability": "view",
      "type": "function"
    },
    {
      "constant": true,
      "inputs": [],
      "name": "isOwner",
      "outputs": [
        {
          "internalType": "bool",
          "name": "",
          "type": "bool"
        }
      ],
      "payable": false,
      "stateMutability": "view",
      "type": "function"
    },
    {
      "constant": true,
      "inputs": [],
      "name": "gas_bound",
      "outputs": [
        {
          "internalType": "uint256",
          "name": "",
          "type": "uint256"
        }
      ],
      "payable": false,
      "stateMutability": "view",
      "type": "function"
    },
    {
      "constant": true,
      "inputs": [],
      "name": "collateral_bound",
      "outputs": [
        {
          "internalType": "uint256",
          "name": "",
          "type": "uint256"
        }
      ],
      "payable": false,
      "stateMutability": "view",
      "type": "function"
    },
    {
      "constant": false,
      "inputs": [
        {
          "internalType": "address",
          "name": "newOwner",
          "type": "address"
        }
      ],
      "name": "transferOwnership",
      "outputs": [],
      "payable": false,
      "stateMutability": "nonpayable",
      "type": "function"
    },
    {
      "inputs": [
        {
          "internalType": "uint256",
          "name": "gasBound",
          "type": "uint256"
        },
        {
          "internalType": "uint256",
          "name": "collateralBound",
          "type": "uint256"
        }
      ],
      "payable": false,
      "stateMutability": "nonpayable",
      "type": "constructor"
    },
    {
      "payable": true,
      "stateMutability": "payable",
      "type": "fallback"
    },
    {
      "anonymous": false,
      "inputs": [
        {
          "indexed": true,
          "internalType": "address",
          "name": "dapp",
          "type": "address"
        }
      ],
      "name": "applied",
      "type": "event"
    },
    {
      "anonymous": false,
      "inputs": [
        {
          "indexed": false,
          "internalType": "address",
          "name": "account",
          "type": "address"
        }
      ],
      "name": "Paused",
      "type": "event"
    },
    {
      "anonymous": false,
      "inputs": [
        {
          "indexed": false,
          "internalType": "address",
          "name": "account",
          "type": "address"
        }
      ],
      "name": "Unpaused",
      "type": "event"
    },
    {
      "anonymous": false,
      "inputs": [
        {
          "indexed": true,
          "internalType": "address",
          "name": "account",
          "type": "address"
        }
      ],
      "name": "PauserAdded",
      "type": "event"
    },
    {
      "anonymous": false,
      "inputs": [
        {
          "indexed": true,
          "internalType": "address",
          "name": "account",
          "type": "address"
        }
      ],
      "name": "PauserRemoved",
      "type": "event"
    },
    {
      "anonymous": false,
      "inputs": [
        {
          "indexed": true,
          "internalType": "address",
          "name": "previousOwner",
          "type": "address"
        },
        {
          "indexed": true,
          "internalType": "address",
          "name": "newOwner",
          "type": "address"
        }
      ],
      "name": "OwnershipTransferred",
      "type": "event"
    },
    {
      "constant": false,
      "inputs": [
        {
          "internalType": "address",
          "name": "dapp",
          "type": "address"
        }
      ],
      "name": "applyFor",
      "outputs": [],
      "payable": false,
      "stateMutability": "nonpayable",
      "type": "function"
    },
    {
      "constant": true,
      "inputs": [
        {
          "internalType": "address",
          "name": "dapp",
          "type": "address"
        }
      ],
      "name": "getDappBalance",
      "outputs": [
        {
          "internalType": "uint256",
          "name": "",
          "type": "uint256"
        }
      ],
      "payable": false,
      "stateMutability": "view",
      "type": "function"
    },
    {
      "constant": false,
      "inputs": [
        {
          "internalType": "address payable",
          "name": "sponsor",
          "type": "address"
        },
        {
          "internalType": "uint256",
          "name": "amount",
          "type": "uint256"
        }
      ],
      "name": "withdraw",
      "outputs": [],
      "payable": false,
      "stateMutability": "nonpayable",
      "type": "function"
    },
    {
      "constant": false,
      "inputs": [
        {
          "internalType": "uint256",
          "name": "gasBound",
          "type": "uint256"
        },
        {
          "internalType": "uint256",
          "name": "collateralBound",
          "type": "uint256"
        }
      ],
      "name": "setBound",
      "outputs": [],
      "payable": false,
      "stateMutability": "nonpayable",
      "type": "function"
    }
  ],
  "bytecode": "0x60806040526000600260016101000a81548160ff021916908315150217905550730888000000000000000000000000000000000001600660006101000a81548173ffffffffffffffffffffffffffffffffffffffff021916908373ffffffffffffffffffffffffffffffffffffffff1602179055503480156200008157600080fd5b5060405162002102380380620021028339818101604052620000a79190810190620003c1565b620000b7620001c360201b60201c565b6000806101000a81548173ffffffffffffffffffffffffffffffffffffffff021916908373ffffffffffffffffffffffffffffffffffffffff1602179055506000809054906101000a900473ffffffffffffffffffffffffffffffffffffffff1673ffffffffffffffffffffffffffffffffffffffff16600073ffffffffffffffffffffffffffffffffffffffff167f8be0079c531659141344cd1fd0a4f28419497f9722a3daafe3b4186f6b6457e060405160405180910390a36200019262000186620001c360201b60201c565b620001cb60201b60201c565b6000600260006101000a81548160ff0219169083151502179055508160038190555080600481905550505062000525565b600033905090565b620001e68160016200022c60201b620012601790919060201c565b8073ffffffffffffffffffffffffffffffffffffffff167f6719d08c1888103bea251a4ed56406bd0c3e69723c8a1686e017e7bbe159b6f860405160405180910390a250565b6200023e8282620002df60201b60201c565b1562000281576040517f08c379a00000000000000000000000000000000000000000000000000000000081526004016200027890620004ac565b60405180910390fd5b60018260000160008373ffffffffffffffffffffffffffffffffffffffff1673ffffffffffffffffffffffffffffffffffffffff16815260200190815260200160002060006101000a81548160ff0219169083151502179055505050565b60008073ffffffffffffffffffffffffffffffffffffffff168273ffffffffffffffffffffffffffffffffffffffff16141562000353576040517f08c379a00000000000000000000000000000000000000000000000000000000081526004016200034a90620004ce565b60405180910390fd5b8260000160008373ffffffffffffffffffffffffffffffffffffffff1673ffffffffffffffffffffffffffffffffffffffff16815260200190815260200160002060009054906101000a900460ff16905092915050565b600081519050620003bb816200050b565b92915050565b60008060408385031215620003d557600080fd5b6000620003e585828601620003aa565b9250506020620003f885828601620003aa565b9150509250929050565b600062000411601f83620004f0565b91507f526f6c65733a206163636f756e7420616c72656164792068617320726f6c65006000830152602082019050919050565b600062000453602283620004f0565b91507f526f6c65733a206163636f756e7420697320746865207a65726f20616464726560008301527f73730000000000000000000000000000000000000000000000000000000000006020830152604082019050919050565b60006020820190508181036000830152620004c78162000402565b9050919050565b60006020820190508181036000830152620004e98162000444565b9050919050565b600082825260208201905092915050565b6000819050919050565b620005168162000501565b81146200052257600080fd5b50565b611bcd80620005356000396000f3fe6080604052600436106100fe5760003560e01c806382dc1ec4116100955780639ca64c41116100645780639ca64c41146102d3578063ca9c8c37146102fe578063f2b48d4514610329578063f2fde38b14610366578063f3fef3a31461038f576100fe565b806382dc1ec41461023d5780638456cb59146102665780638da5cb5b1461027d5780638f32d59b146102a8576100fe565b80635c975abb116100d15780635c975abb146101bb5780636ef8d66d146101e6578063715018a6146101fd57806378cb200514610214576100fe565b806337ea0de2146101005780633f4ba83a1461012957806346fbf68e1461014057806355670f311461017d575b005b34801561010c57600080fd5b5061012760048036036101229190810190611347565b6103b8565b005b34801561013557600080fd5b5061013e610716565b005b34801561014c57600080fd5b5061016760048036036101629190810190611347565b61080f565b6040516101749190611854565b60405180910390f35b34801561018957600080fd5b506101a4600480360361019f9190810190611347565b61082c565b6040516101b2929190611a2c565b60405180910390f35b3480156101c757600080fd5b506101d0610850565b6040516101dd9190611854565b60405180910390f35b3480156101f257600080fd5b506101fb610867565b005b34801561020957600080fd5b50610212610879565b005b34801561022057600080fd5b5061023b600480360361023691908101906113ac565b61097f565b005b34801561024957600080fd5b50610264600480360361025f9190810190611347565b6109d8565b005b34801561027257600080fd5b5061027b610a33565b005b34801561028957600080fd5b50610292610b2d565b60405161029f91906117f5565b60405180910390f35b3480156102b457600080fd5b506102bd610b56565b6040516102ca9190611854565b60405180910390f35b3480156102df57600080fd5b506102e8610bb4565b6040516102f59190611a11565b60405180910390f35b34801561030a57600080fd5b50610313610bba565b6040516103209190611a11565b60405180910390f35b34801561033557600080fd5b50610350600480360361034b9190810190611347565b610bc0565b60405161035d9190611a11565b60405180910390f35b34801561037257600080fd5b5061038d60048036036103889190810190611347565b610bc7565b005b34801561039b57600080fd5b506103b660048036036103b19190810190611370565b610c1a565b005b6103c0610b56565b6103ff576040517f08c379a00000000000000000000000000000000000000000000000000000000081526004016103f690611971565b60405180910390fd5b600260019054906101000a900460ff161561044f576040517f08c379a0000000000000000000000000000000000000000000000000000000008152600401610446906119f1565b60405180910390fd5b6001600260016101000a81548160ff021916908315150217905550600260009054906101000a900460ff16156104ba576040517f08c379a00000000000000000000000000000000000000000000000000000000081526004016104b190611931565b60405180910390fd5b600660009054906101000a900473ffffffffffffffffffffffffffffffffffffffff1673ffffffffffffffffffffffffffffffffffffffff1663e9ac3d4a600354836105136103e8600354610e0790919063ffffffff16565b6040518463ffffffff1660e01b815260040161053092919061182b565b6000604051808303818588803b15801561054957600080fd5b505af115801561055d573d6000803e3d6000fd5b5050505050600660009054906101000a900473ffffffffffffffffffffffffffffffffffffffff1673ffffffffffffffffffffffffffffffffffffffff16630862bf68600454836040518363ffffffff1660e01b81526004016105c091906117f5565b6000604051808303818588803b1580156105d957600080fd5b505af11580156105ed573d6000803e3d6000fd5b50505050506106486001600560008473ffffffffffffffffffffffffffffffffffffffff1673ffffffffffffffffffffffffffffffffffffffff16815260200190815260200160002060000154610e5190919063ffffffff16565b506106b4610663600454600354610e5190919063ffffffff16565b600560008473ffffffffffffffffffffffffffffffffffffffff1673ffffffffffffffffffffffffffffffffffffffff16815260200190815260200160002060010154610e5190919063ffffffff16565b508073ffffffffffffffffffffffffffffffffffffffff167f2a623296979246cc57deb32d9f5219c091bfa1a559d3214c9aabbaf4d24e0fb060405160405180910390a26000600260016101000a81548160ff02191690831515021790555050565b610726610721610ea6565b61080f565b610765576040517f08c379a000000000000000000000000000000000000000000000000000000000815260040161075c906118d1565b60405180910390fd5b600260009054906101000a900460ff166107b4576040517f08c379a00000000000000000000000000000000000000000000000000000000081526004016107ab90611891565b60405180910390fd5b6000600260006101000a81548160ff0219169083151502179055507f5db9ee0a495bf2e6ff9c91a7834c1ba4fdd244a5e8aa4e537bd38aeae4b073aa6107f8610ea6565b6040516108059190611810565b60405180910390a1565b6000610825826001610eae90919063ffffffff16565b9050919050565b60056020528060005260406000206000915090508060000154908060010154905082565b6000600260009054906101000a900460ff16905090565b610877610872610ea6565b610f76565b565b610881610b56565b6108c0576040517f08c379a00000000000000000000000000000000000000000000000000000000081526004016108b790611971565b60405180910390fd5b600073ffffffffffffffffffffffffffffffffffffffff166000809054906101000a900473ffffffffffffffffffffffffffffffffffffffff1673ffffffffffffffffffffffffffffffffffffffff167f8be0079c531659141344cd1fd0a4f28419497f9722a3daafe3b4186f6b6457e060405160405180910390a360008060006101000a81548173ffffffffffffffffffffffffffffffffffffffff021916908373ffffffffffffffffffffffffffffffffffffffff160217905550565b610987610b56565b6109c6576040517f08c379a00000000000000000000000000000000000000000000000000000000081526004016109bd90611971565b60405180910390fd5b81600381905550806004819055505050565b6109e86109e3610ea6565b61080f565b610a27576040517f08c379a0000000000000000000000000000000000000000000000000000000008152600401610a1e906118d1565b60405180910390fd5b610a3081610fd0565b50565b610a43610a3e610ea6565b61080f565b610a82576040517f08c379a0000000000000000000000000000000000000000000000000000000008152600401610a79906118d1565b60405180910390fd5b600260009054906101000a900460ff1615610ad2576040517f08c379a0000000000000000000000000000000000000000000000000000000008152600401610ac990611931565b60405180910390fd5b6001600260006101000a81548160ff0219169083151502179055507f62e78cea01bee320cd4e420270b5ea74000d11b0c9f74754ebdbfc544b05a258610b16610ea6565b604051610b239190611810565b60405180910390a1565b60008060009054906101000a900473ffffffffffffffffffffffffffffffffffffffff16905090565b60008060009054906101000a900473ffffffffffffffffffffffffffffffffffffffff1673ffffffffffffffffffffffffffffffffffffffff16610b98610ea6565b73ffffffffffffffffffffffffffffffffffffffff1614905090565b60035481565b60045481565b6000919050565b610bcf610b56565b610c0e576040517f08c379a0000000000000000000000000000000000000000000000000000000008152600401610c0590611971565b60405180910390fd5b610c178161102a565b50565b610c22610b56565b610c61576040517f08c379a0000000000000000000000000000000000000000000000000000000008152600401610c5890611971565b60405180910390fd5b600260019054906101000a900460ff1615610cb1576040517f08c379a0000000000000000000000000000000000000000000000000000000008152600401610ca8906119f1565b60405180910390fd5b6001600260016101000a81548160ff021916908315150217905550600260009054906101000a900460ff16610d1b576040517f08c379a0000000000000000000000000000000000000000000000000000000008152600401610d1290611891565b60405180910390fd5b803073ffffffffffffffffffffffffffffffffffffffff163111610d74576040517f08c379a0000000000000000000000000000000000000000000000000000000008152600401610d6b906119b1565b60405180910390fd5b8173ffffffffffffffffffffffffffffffffffffffff166108fc829081150290604051600060405180830381858888f19350505050610de8576040517f08c379a0000000000000000000000000000000000000000000000000000000008152600401610ddf906119d1565b60405180910390fd5b6000600260016101000a81548160ff0219169083151502179055505050565b6000610e4983836040518060400160405280601a81526020017f536166654d6174683a206469766973696f6e206279207a65726f000000000000815250611158565b905092915050565b600080828401905083811015610e9c576040517f08c379a0000000000000000000000000000000000000000000000000000000008152600401610e9390611911565b60405180910390fd5b8091505092915050565b600033905090565b60008073ffffffffffffffffffffffffffffffffffffffff168273ffffffffffffffffffffffffffffffffffffffff161415610f1f576040517f08c379a0000000000000000000000000000000000000000000000000000000008152600401610f1690611991565b60405180910390fd5b8260000160008373ffffffffffffffffffffffffffffffffffffffff1673ffffffffffffffffffffffffffffffffffffffff16815260200190815260200160002060009054906101000a900460ff16905092915050565b610f8a8160016111b990919063ffffffff16565b8073ffffffffffffffffffffffffffffffffffffffff167fcd265ebaf09df2871cc7bd4133404a235ba12eff2041bb89d9c714a2621c7c7e60405160405180910390a250565b610fe481600161126090919063ffffffff16565b8073ffffffffffffffffffffffffffffffffffffffff167f6719d08c1888103bea251a4ed56406bd0c3e69723c8a1686e017e7bbe159b6f860405160405180910390a250565b600073ffffffffffffffffffffffffffffffffffffffff168173ffffffffffffffffffffffffffffffffffffffff16141561109a576040517f08c379a0000000000000000000000000000000000000000000000000000000008152600401611091906118f1565b60405180910390fd5b8073ffffffffffffffffffffffffffffffffffffffff166000809054906101000a900473ffffffffffffffffffffffffffffffffffffffff1673ffffffffffffffffffffffffffffffffffffffff167f8be0079c531659141344cd1fd0a4f28419497f9722a3daafe3b4186f6b6457e060405160405180910390a3806000806101000a81548173ffffffffffffffffffffffffffffffffffffffff021916908373ffffffffffffffffffffffffffffffffffffffff16021790555050565b6000808311829061119f576040517f08c379a0000000000000000000000000000000000000000000000000000000008152600401611196919061186f565b60405180910390fd5b5060008385816111ab57fe5b049050809150509392505050565b6111c38282610eae565b611202576040517f08c379a00000000000000000000000000000000000000000000000000000000081526004016111f990611951565b60405180910390fd5b60008260000160008373ffffffffffffffffffffffffffffffffffffffff1673ffffffffffffffffffffffffffffffffffffffff16815260200190815260200160002060006101000a81548160ff0219169083151502179055505050565b61126a8282610eae565b156112aa576040517f08c379a00000000000000000000000000000000000000000000000000000000081526004016112a1906118b1565b60405180910390fd5b60018260000160008373ffffffffffffffffffffffffffffffffffffffff1673ffffffffffffffffffffffffffffffffffffffff16815260200190815260200160002060006101000a81548160ff0219169083151502179055505050565b60008135905061131781611b45565b92915050565b60008135905061132c81611b5c565b92915050565b60008135905061134181611b73565b92915050565b60006020828403121561135957600080fd5b600061136784828501611308565b91505092915050565b6000806040838503121561138357600080fd5b60006113918582860161131d565b92505060206113a285828601611332565b9150509250929050565b600080604083850312156113bf57600080fd5b60006113cd85828601611332565b92505060206113de85828601611332565b9150509250929050565b6113f181611acb565b82525050565b61140081611a71565b82525050565b61140f81611a95565b82525050565b600061142082611a55565b61142a8185611a60565b935061143a818560208601611b01565b61144381611b34565b840191505092915050565b600061145b601483611a60565b91507f5061757361626c653a206e6f74207061757365640000000000000000000000006000830152602082019050919050565b600061149b601f83611a60565b91507f526f6c65733a206163636f756e7420616c72656164792068617320726f6c65006000830152602082019050919050565b60006114db603083611a60565b91507f506175736572526f6c653a2063616c6c657220646f6573206e6f74206861766560008301527f207468652050617573657220726f6c65000000000000000000000000000000006020830152604082019050919050565b6000611541602683611a60565b91507f4f776e61626c653a206e6577206f776e657220697320746865207a65726f206160008301527f64647265737300000000000000000000000000000000000000000000000000006020830152604082019050919050565b60006115a7601b83611a60565b91507f536166654d6174683a206164646974696f6e206f766572666c6f7700000000006000830152602082019050919050565b60006115e7601083611a60565b91507f5061757361626c653a20706175736564000000000000000000000000000000006000830152602082019050919050565b6000611627602183611a60565b91507f526f6c65733a206163636f756e7420646f6573206e6f74206861766520726f6c60008301527f65000000000000000000000000000000000000000000000000000000000000006020830152604082019050919050565b600061168d602083611a60565b91507f4f776e61626c653a2063616c6c6572206973206e6f7420746865206f776e65726000830152602082019050919050565b60006116cd602283611a60565b91507f526f6c65733a206163636f756e7420697320746865207a65726f20616464726560008301527f73730000000000000000000000000000000000000000000000000000000000006020830152604082019050919050565b6000611733600f83611a60565b91507f616d6f756e7420746f6f206869676800000000000000000000000000000000006000830152602082019050919050565b6000611773600e83611a60565b91507f7769746864726177206661696c640000000000000000000000000000000000006000830152602082019050919050565b60006117b3601283611a60565b91507f5245454e5452414e43595f494c4c4547414c00000000000000000000000000006000830152602082019050919050565b6117ef81611ac1565b82525050565b600060208201905061180a60008301846113f7565b92915050565b600060208201905061182560008301846113e8565b92915050565b600060408201905061184060008301856113f7565b61184d60208301846117e6565b9392505050565b60006020820190506118696000830184611406565b92915050565b600060208201905081810360008301526118898184611415565b905092915050565b600060208201905081810360008301526118aa8161144e565b9050919050565b600060208201905081810360008301526118ca8161148e565b9050919050565b600060208201905081810360008301526118ea816114ce565b9050919050565b6000602082019050818103600083015261190a81611534565b9050919050565b6000602082019050818103600083015261192a8161159a565b9050919050565b6000602082019050818103600083015261194a816115da565b9050919050565b6000602082019050818103600083015261196a8161161a565b9050919050565b6000602082019050818103600083015261198a81611680565b9050919050565b600060208201905081810360008301526119aa816116c0565b9050919050565b600060208201905081810360008301526119ca81611726565b9050919050565b600060208201905081810360008301526119ea81611766565b9050919050565b60006020820190508181036000830152611a0a816117a6565b9050919050565b6000602082019050611a2660008301846117e6565b92915050565b6000604082019050611a4160008301856117e6565b611a4e60208301846117e6565b9392505050565b600081519050919050565b600082825260208201905092915050565b6000611a7c82611aa1565b9050919050565b6000611a8e82611aa1565b9050919050565b60008115159050919050565b600073ffffffffffffffffffffffffffffffffffffffff82169050919050565b6000819050919050565b6000611ad682611add565b9050919050565b6000611ae882611aef565b9050919050565b6000611afa82611aa1565b9050919050565b60005b83811015611b1f578082015181840152602081019050611b04565b83811115611b2e576000848401525b50505050565b6000601f19601f8301169050919050565b611b4e81611a71565b8114611b5957600080fd5b50565b611b6581611a83565b8114611b7057600080fd5b50565b611b7c81611ac1565b8114611b8757600080fd5b5056fea365627a7a723158204cd7a6c198a4a6bfa77187aaa9bdf87b4a5218d1a9ab53a0e4e943cf5fcddece6c6578706572696d656e74616cf564736f6c634300050b0040",
  "source": "pragma solidity 0.5.11;\npragma experimental ABIEncoderV2;\n\nimport \"@openzeppelin/contracts/ownership/Ownable.sol\";\nimport \"@openzeppelin/contracts/lifecycle/Pausable.sol\";\nimport \"@openzeppelin/contracts/math/SafeMath.sol\";\nimport \"./Lib/ReentrancyGuard.sol\";\nimport \"./InternalContract.sol\";\n\ncontract SponsorFaucet is Ownable, Pausable, ReentrancyGuard {\n    using SafeMath for uint256;\n    struct detail {\n        uint256 cnt;\n        uint256 limit;\n    }\n\n    uint256 public gas_bound;\n    uint256 public collateral_bound;\n    mapping(address=>detail) public dapps;\n    \n    event applied(address indexed dapp);\n    \n    SponsorWhitelistControl cpc = SponsorWhitelistControl(0x0888000000000000000000000000000000000001);\n    \n    constructor(uint256 gasBound, uint256 collateralBound) public {\n        gas_bound = gasBound;\n        collateral_bound = collateralBound;\n    }\n    \n    /*** Dapp dev calls ***/ \n    //apply cfx for gas & storage\n    function applyFor(address dapp) public onlyOwner nonReentrant whenNotPaused {\n        cpc.set_sponsor_for_gas.value(gas_bound)(dapp, gas_bound.div(1000));\n        cpc.set_sponsor_for_collateral.value(collateral_bound)(dapp);\n        dapps[dapp].cnt.add(1);\n        dapps[dapp].limit.add(gas_bound.add(collateral_bound));\n        emit applied(dapp);\n    }\n\n    //accept sponsor's cfx\n    function () external payable {\n    }\n\n    //get dapp sponsored balance\n    // todo: add internal contract getMethod\n    function getDappBalance(address dapp) public view returns(uint256){\n    }\n\n    //withdraw to specific address\n    function withdraw(address payable sponsor, uint256 amount) public onlyOwner nonReentrant whenPaused {\n        require(address(this).balance > amount, \"amount too high\");\n        require(sponsor.send(amount), \"withdraw faild\");\n    }\n\n    function setBound(uint256 gasBound, uint256 collateralBound) public onlyOwner {\n        gas_bound = gasBound;\n        collateral_bound = collateralBound;    \n    }\n}\n",
  "sourcePath": "/Users/xiongyu/conflux-sponsor-faucet/contracts/SponsorFaucet.sol",
  "compiler": {
    "name": "solc",
    "version": "0.5.11+commit.c082d0b4.Emscripten.clang"
  },
  "schemaVersion": "3.2.2",
  "updatedAt": "2020-08-13T07:43:54.554Z",
  "devdoc": {
    "methods": {
      "isOwner()": {
        "details": "Returns true if the caller is the current owner."
      },
      "owner()": {
        "details": "Returns the address of the current owner."
      },
      "pause()": {
        "details": "Called by a pauser to pause, triggers stopped state."
      },
      "paused()": {
        "details": "Returns true if the contract is paused, and false otherwise."
      },
      "renounceOwnership()": {
        "details": "Leaves the contract without owner. It will not be possible to call `onlyOwner` functions anymore. Can only be called by the current owner.     * NOTE: Renouncing ownership will leave the contract without an owner, thereby removing any functionality that is only available to the owner."
      },
      "transferOwnership(address)": {
        "details": "Transfers ownership of the contract to a new account (`newOwner`). Can only be called by the current owner."
      },
      "unpause()": {
        "details": "Called by a pauser to unpause, returns to normal state."
      }
    }
  },
  "userdoc": {
    "methods": {
      "applyFor(address)": {
        "notice": "* Dapp dev calls **"
      }
    }
  }
}