{
  "contractName": "SponsorWhitelistControl",
  "abi": [
    {
      "constant": false,
      "inputs": [
        {
          "internalType": "address",
          "name": "contractAddr",
          "type": "address"
        }
      ],
      "name": "getSponsorForGas",
      "outputs": [
        {
          "internalType": "address",
          "name": "",
          "type": "address"
        }
      ],
      "payable": false,
      "stateMutability": "nonpayable",
      "type": "function"
    },
    {
      "constant": false,
      "inputs": [
        {
          "internalType": "address",
          "name": "contractAddr",
          "type": "address"
        }
      ],
      "name": "getSponsoredBalanceForGas",
      "outputs": [
        {
          "internalType": "uint256",
          "name": "",
          "type": "uint256"
        }
      ],
      "payable": false,
      "stateMutability": "nonpayable",
      "type": "function"
    },
    {
      "constant": false,
      "inputs": [
        {
          "internalType": "address",
          "name": "contractAddr",
          "type": "address"
        }
      ],
      "name": "getSponsoredGasFeeUpperBound",
      "outputs": [
        {
          "internalType": "uint256",
          "name": "",
          "type": "uint256"
        }
      ],
      "payable": false,
      "stateMutability": "nonpayable",
      "type": "function"
    },
    {
      "constant": false,
      "inputs": [
        {
          "internalType": "address",
          "name": "contractAddr",
          "type": "address"
        }
      ],
      "name": "getSponsorForCollateral",
      "outputs": [
        {
          "internalType": "address",
          "name": "",
          "type": "address"
        }
      ],
      "payable": false,
      "stateMutability": "nonpayable",
      "type": "function"
    },
    {
      "constant": false,
      "inputs": [
        {
          "internalType": "address",
          "name": "contractAddr",
          "type": "address"
        }
      ],
      "name": "getSponsoredBalanceForCollateral",
      "outputs": [
        {
          "internalType": "uint256",
          "name": "",
          "type": "uint256"
        }
      ],
      "payable": false,
      "stateMutability": "nonpayable",
      "type": "function"
    },
    {
      "constant": false,
      "inputs": [
        {
          "internalType": "address",
          "name": "contractAddr",
          "type": "address"
        },
        {
          "internalType": "address",
          "name": "user",
          "type": "address"
        }
      ],
      "name": "isWhitelisted",
      "outputs": [
        {
          "internalType": "bool",
          "name": "",
          "type": "bool"
        }
      ],
      "payable": false,
      "stateMutability": "nonpayable",
      "type": "function"
    },
    {
      "constant": false,
      "inputs": [
        {
          "internalType": "address",
          "name": "contractAddr",
          "type": "address"
        }
      ],
      "name": "isAllWhitelisted",
      "outputs": [
        {
          "internalType": "bool",
          "name": "",
          "type": "bool"
        }
      ],
      "payable": false,
      "stateMutability": "nonpayable",
      "type": "function"
    },
    {
      "constant": false,
      "inputs": [
        {
          "internalType": "address",
          "name": "contractAddr",
          "type": "address"
        },
        {
          "internalType": "address[]",
          "name": "addresses",
          "type": "address[]"
        }
      ],
      "name": "addPrivilegeByAdmin",
      "outputs": [],
      "payable": false,
      "stateMutability": "nonpayable",
      "type": "function"
    },
    {
      "constant": false,
      "inputs": [
        {
          "internalType": "address",
          "name": "contractAddr",
          "type": "address"
        },
        {
          "internalType": "address[]",
          "name": "addresses",
          "type": "address[]"
        }
      ],
      "name": "removePrivilegeByAdmin",
      "outputs": [],
      "payable": false,
      "stateMutability": "nonpayable",
      "type": "function"
    },
    {
      "constant": false,
      "inputs": [
        {
          "internalType": "address",
          "name": "contractAddr",
          "type": "address"
        },
        {
          "internalType": "uint256",
          "name": "upper_bound",
          "type": "uint256"
        }
      ],
      "name": "setSponsorForGas",
      "outputs": [],
      "payable": true,
      "stateMutability": "payable",
      "type": "function"
    },
    {
      "constant": false,
      "inputs": [
        {
          "internalType": "address",
          "name": "contractAddr",
          "type": "address"
        }
      ],
      "name": "setSponsorForCollateral",
      "outputs": [],
      "payable": true,
      "stateMutability": "payable",
      "type": "function"
    },
    {
      "constant": false,
      "inputs": [
        {
          "internalType": "address[]",
          "name": "",
          "type": "address[]"
        }
      ],
      "name": "addPrivilege",
      "outputs": [],
      "payable": false,
      "stateMutability": "nonpayable",
      "type": "function"
    },
    {
      "constant": false,
      "inputs": [
        {
          "internalType": "address[]",
          "name": "",
          "type": "address[]"
        }
      ],
      "name": "removePrivilege",
      "outputs": [],
      "payable": false,
      "stateMutability": "nonpayable",
      "type": "function"
    }
  ],
  "bytecode": "0x608060405234801561001057600080fd5b5061086c806100206000396000f3fe6080604052600436106100c25760003560e01c80638382c3a71161007f578063d2932db611610059578063d2932db61461061d578063d47e9a57146106e2578063d665f9dd14610747578063e66c1bea146107ac576100c2565b80638382c3a71461049e578063b3b28fac1461052f578063b6b3527214610594576100c2565b806310128d3e146100c7578063217e055b1461018c57806322effe841461027157806333a1af31146103565780633e3e6428146103e757806379b47faa14610435575b600080fd5b3480156100d357600080fd5b5061018a600480360360208110156100ea57600080fd5b810190808035906020019064010000000081111561010757600080fd5b82018360208201111561011957600080fd5b8035906020019184602083028401116401000000008311171561013b57600080fd5b919080806020026020016040519081016040528093929190818152602001838360200280828437600081840152601f19601f8201169050808301925050505050505091929192905050506107f0565b005b34801561019857600080fd5b5061026f600480360360408110156101af57600080fd5b81019080803573ffffffffffffffffffffffffffffffffffffffff169060200190929190803590602001906401000000008111156101ec57600080fd5b8201836020820111156101fe57600080fd5b8035906020019184602083028401116401000000008311171561022057600080fd5b919080806020026020016040519081016040528093929190818152602001838360200280828437600081840152601f19601f8201169050808301925050505050505091929192905050506107f3565b005b34801561027d57600080fd5b506103546004803603604081101561029457600080fd5b81019080803573ffffffffffffffffffffffffffffffffffffffff169060200190929190803590602001906401000000008111156102d157600080fd5b8201836020820111156102e357600080fd5b8035906020019184602083028401116401000000008311171561030557600080fd5b919080806020026020016040519081016040528093929190818152602001838360200280828437600081840152601f19601f8201169050808301925050505050505091929192905050506107f7565b005b34801561036257600080fd5b506103a56004803603602081101561037957600080fd5b81019080803573ffffffffffffffffffffffffffffffffffffffff1690602001909291905050506107fb565b604051808273ffffffffffffffffffffffffffffffffffffffff1673ffffffffffffffffffffffffffffffffffffffff16815260200191505060405180910390f35b610433600480360360408110156103fd57600080fd5b81019080803573ffffffffffffffffffffffffffffffffffffffff16906020019092919080359060200190929190505050610802565b005b34801561044157600080fd5b506104846004803603602081101561045857600080fd5b81019080803573ffffffffffffffffffffffffffffffffffffffff169060200190929190505050610806565b604051808215151515815260200191505060405180910390f35b3480156104aa57600080fd5b506104ed600480360360208110156104c157600080fd5b81019080803573ffffffffffffffffffffffffffffffffffffffff16906020019092919050505061080d565b604051808273ffffffffffffffffffffffffffffffffffffffff1673ffffffffffffffffffffffffffffffffffffffff16815260200191505060405180910390f35b34801561053b57600080fd5b5061057e6004803603602081101561055257600080fd5b81019080803573ffffffffffffffffffffffffffffffffffffffff169060200190929190505050610814565b6040518082815260200191505060405180910390f35b3480156105a057600080fd5b50610603600480360360408110156105b757600080fd5b81019080803573ffffffffffffffffffffffffffffffffffffffff169060200190929190803573ffffffffffffffffffffffffffffffffffffffff16906020019092919050505061081b565b604051808215151515815260200191505060405180910390f35b34801561062957600080fd5b506106e06004803603602081101561064057600080fd5b810190808035906020019064010000000081111561065d57600080fd5b82018360208201111561066f57600080fd5b8035906020019184602083028401116401000000008311171561069157600080fd5b919080806020026020016040519081016040528093929190818152602001838360200280828437600081840152601f19601f820116905080830192505050505050509192919290505050610823565b005b3480156106ee57600080fd5b506107316004803603602081101561070557600080fd5b81019080803573ffffffffffffffffffffffffffffffffffffffff169060200190929190505050610826565b6040518082815260200191505060405180910390f35b34801561075357600080fd5b506107966004803603602081101561076a57600080fd5b81019080803573ffffffffffffffffffffffffffffffffffffffff16906020019092919050505061082d565b6040518082815260200191505060405180910390f35b6107ee600480360360208110156107c257600080fd5b81019080803573ffffffffffffffffffffffffffffffffffffffff169060200190929190505050610834565b005b50565b5050565b5050565b6000919050565b5050565b6000919050565b6000919050565b6000919050565b600092915050565b50565b6000919050565b6000919050565b5056fea265627a7a72315820ced2c106c6de954270d28fbf548ca7a03395743c2527853882cc5b0e45c118e864736f6c634300050b0032",
  "source": "pragma solidity >=0.4.15;\n\ncontract SponsorWhitelistControl {\n    /*** Query Functions ***/\n    /**\n     * @dev get gas sponsor address of specific contract\n     * @param contractAddr The address of the sponsored contract\n     */\n    function getSponsorForGas(address contractAddr) public returns (address) {}\n\n    /**\n     * @dev get current Sponsored Balance for gas\n     * @param contractAddr The address of the sponsored contract\n     */\n    function getSponsoredBalanceForGas(address contractAddr)\n        public\n        returns (uint256)\n    {}\n\n    /**\n     * @dev get current Sponsored Gas fee upper bound\n     * @param contractAddr The address of the sponsored contract\n     */\n    function getSponsoredGasFeeUpperBound(address contractAddr)\n        public\n        returns (uint256)\n    {}\n\n    /**\n     * @dev get collateral sponsor address\n     * @param contractAddr The address of the sponsored contract\n     */\n    function getSponsorForCollateral(address contractAddr)\n        public\n        returns (address)\n    {}\n\n    /**\n     * @dev get current Sponsored Balance for collateral\n     * @param contractAddr The address of the sponsored contract\n     */\n    function getSponsoredBalanceForCollateral(address contractAddr)\n        public\n        returns (uint256)\n    {}\n\n    /**\n     * @dev check if a user is in a contract's whitelist\n     * @param contractAddr The address of the sponsored contract\n     * @param user The address of contract user\n     */\n    function isWhitelisted(address contractAddr, address user)\n        public\n        returns (bool)\n    {}\n\n    /**\n     * @dev check if all users are in a contract's whitelist\n     * @param contractAddr The address of the sponsored contract\n     */\n    function isAllWhitelisted(address contractAddr) public returns (bool) {}\n\n    /*** for contract admin only **/\n    /**\n     * @dev contract admin add user to whitelist\n     * @param contractAddr The address of the sponsored contract\n     * @param addresses The user address array\n     */\n    function addPrivilegeByAdmin(\n        address contractAddr,\n        address[] memory addresses\n    ) public {}\n\n    /**\n     * @dev contract admin remove user from whitelist\n     * @param contractAddr The address of the sponsored contract\n     * @param addresses The user address array\n     */\n    function removePrivilegeByAdmin(\n        address contractAddr,\n        address[] memory addresses\n    ) public {}\n\n    // ------------------------------------------------------------------------\n    // Someone will sponsor the gas cost for contract `contractAddr` with an\n    // `upper_bound` for a single transaction.\n    // ------------------------------------------------------------------------\n    function setSponsorForGas(address contractAddr, uint256 upper_bound)\n        public\n        payable\n    {}\n\n    // ------------------------------------------------------------------------\n    // Someone will sponsor the storage collateral for contract `contractAddr`.\n    // ------------------------------------------------------------------------\n    function setSponsorForCollateral(address contractAddr) public payable {}\n\n    // ------------------------------------------------------------------------\n    // Add commission privilege for address `user` to some contract.\n    // ------------------------------------------------------------------------\n    function addPrivilege(address[] memory) public {}\n\n    // ------------------------------------------------------------------------\n    // Remove commission privilege for address `user` from some contract.\n    // ------------------------------------------------------------------------\n    function removePrivilege(address[] memory) public {}\n}\n",
  "sourcePath": "/Users/xiongyu/conflux-sponsor-faucet/contracts/InternalContract.sol",
  "compiler": {
    "name": "solc",
    "version": "0.5.11+commit.c082d0b4.Emscripten.clang"
  },
  "schemaVersion": "3.2.2",
  "updatedAt": "2020-10-15T06:07:51.490Z",
  "devdoc": {
    "methods": {
      "addPrivilegeByAdmin(address,address[])": {
        "details": "contract admin add user to whitelist",
        "params": {
          "addresses": "The user address array",
          "contractAddr": "The address of the sponsored contract"
        }
      },
      "getSponsorForCollateral(address)": {
        "details": "get collateral sponsor address",
        "params": {
          "contractAddr": "The address of the sponsored contract"
        }
      },
      "getSponsorForGas(address)": {
        "details": "get gas sponsor address of specific contract",
        "params": {
          "contractAddr": "The address of the sponsored contract"
        }
      },
      "getSponsoredBalanceForCollateral(address)": {
        "details": "get current Sponsored Balance for collateral",
        "params": {
          "contractAddr": "The address of the sponsored contract"
        }
      },
      "getSponsoredBalanceForGas(address)": {
        "details": "get current Sponsored Balance for gas",
        "params": {
          "contractAddr": "The address of the sponsored contract"
        }
      },
      "getSponsoredGasFeeUpperBound(address)": {
        "details": "get current Sponsored Gas fee upper bound",
        "params": {
          "contractAddr": "The address of the sponsored contract"
        }
      },
      "isAllWhitelisted(address)": {
        "details": "check if all users are in a contract's whitelist",
        "params": {
          "contractAddr": "The address of the sponsored contract"
        }
      },
      "isWhitelisted(address,address)": {
        "details": "check if a user is in a contract's whitelist",
        "params": {
          "contractAddr": "The address of the sponsored contract",
          "user": "The address of contract user"
        }
      },
      "removePrivilegeByAdmin(address,address[])": {
        "details": "contract admin remove user from whitelist",
        "params": {
          "addresses": "The user address array",
          "contractAddr": "The address of the sponsored contract"
        }
      }
    }
  },
  "userdoc": {
    "methods": {}
  }
}