{
  "contractName": "SponsorFaucet",
  "abi": [
    {
      "constant": false,
      "inputs": [],
      "name": "unpause",
      "outputs": [],
      "payable": false,
      "stateMutability": "nonpayable",
      "type": "function"
    },
    {
      "constant": true,
      "inputs": [
        {
          "internalType": "address",
          "name": "account",
          "type": "address"
        }
      ],
      "name": "isPauser",
      "outputs": [
        {
          "internalType": "bool",
          "name": "",
          "type": "bool"
        }
      ],
      "payable": false,
      "stateMutability": "view",
      "type": "function"
    },
    {
      "constant": true,
      "inputs": [
        {
          "internalType": "address",
          "name": "",
          "type": "address"
        }
      ],
      "name": "dapps",
      "outputs": [
        {
          "internalType": "uint256",
          "name": "cnt",
          "type": "uint256"
        },
        {
          "internalType": "uint256",
          "name": "limit",
          "type": "uint256"
        }
      ],
      "payable": false,
      "stateMutability": "view",
      "type": "function"
    },
    {
      "constant": true,
      "inputs": [],
      "name": "paused",
      "outputs": [
        {
          "internalType": "bool",
          "name": "",
          "type": "bool"
        }
      ],
      "payable": false,
      "stateMutability": "view",
      "type": "function"
    },
    {
      "constant": false,
      "inputs": [],
      "name": "renouncePauser",
      "outputs": [],
      "payable": false,
      "stateMutability": "nonpayable",
      "type": "function"
    },
    {
      "constant": false,
      "inputs": [],
      "name": "renounceOwnership",
      "outputs": [],
      "payable": false,
      "stateMutability": "nonpayable",
      "type": "function"
    },
    {
      "constant": false,
      "inputs": [
        {
          "internalType": "address",
          "name": "account",
          "type": "address"
        }
      ],
      "name": "addPauser",
      "outputs": [],
      "payable": false,
      "stateMutability": "nonpayable",
      "type": "function"
    },
    {
      "constant": false,
      "inputs": [],
      "name": "pause",
      "outputs": [],
      "payable": false,
      "stateMutability": "nonpayable",
      "type": "function"
    },
    {
      "constant": true,
      "inputs": [],
      "name": "owner",
      "outputs": [
        {
          "internalType": "address",
          "name": "",
          "type": "address"
        }
      ],
      "payable": false,
      "stateMutability": "view",
      "type": "function"
    },
    {
      "constant": true,
      "inputs": [],
      "name": "isOwner",
      "outputs": [
        {
          "internalType": "bool",
          "name": "",
          "type": "bool"
        }
      ],
      "payable": false,
      "stateMutability": "view",
      "type": "function"
    },
    {
      "constant": true,
      "inputs": [],
      "name": "gas_bound",
      "outputs": [
        {
          "internalType": "uint256",
          "name": "",
          "type": "uint256"
        }
      ],
      "payable": false,
      "stateMutability": "view",
      "type": "function"
    },
    {
      "constant": true,
      "inputs": [],
      "name": "collateral_bound",
      "outputs": [
        {
          "internalType": "uint256",
          "name": "",
          "type": "uint256"
        }
      ],
      "payable": false,
      "stateMutability": "view",
      "type": "function"
    },
    {
      "constant": false,
      "inputs": [
        {
          "internalType": "address",
          "name": "newOwner",
          "type": "address"
        }
      ],
      "name": "transferOwnership",
      "outputs": [],
      "payable": false,
      "stateMutability": "nonpayable",
      "type": "function"
    },
    {
      "inputs": [
        {
          "internalType": "uint256",
          "name": "gasBound",
          "type": "uint256"
        },
        {
          "internalType": "uint256",
          "name": "collateralBound",
          "type": "uint256"
        }
      ],
      "payable": false,
      "stateMutability": "nonpayable",
      "type": "constructor"
    },
    {
      "payable": true,
      "stateMutability": "payable",
      "type": "fallback"
    },
    {
      "anonymous": false,
      "inputs": [
        {
          "indexed": true,
          "internalType": "address",
          "name": "applicant",
          "type": "address"
        },
        {
          "indexed": true,
          "internalType": "address",
          "name": "dapp",
          "type": "address"
        },
        {
          "indexed": true,
          "internalType": "uint256",
          "name": "upper_bound",
          "type": "uint256"
        }
      ],
      "name": "applied",
      "type": "event"
    },
    {
      "anonymous": false,
      "inputs": [
        {
          "indexed": false,
          "internalType": "address",
          "name": "account",
          "type": "address"
        }
      ],
      "name": "Paused",
      "type": "event"
    },
    {
      "anonymous": false,
      "inputs": [
        {
          "indexed": false,
          "internalType": "address",
          "name": "account",
          "type": "address"
        }
      ],
      "name": "Unpaused",
      "type": "event"
    },
    {
      "anonymous": false,
      "inputs": [
        {
          "indexed": true,
          "internalType": "address",
          "name": "account",
          "type": "address"
        }
      ],
      "name": "PauserAdded",
      "type": "event"
    },
    {
      "anonymous": false,
      "inputs": [
        {
          "indexed": true,
          "internalType": "address",
          "name": "account",
          "type": "address"
        }
      ],
      "name": "PauserRemoved",
      "type": "event"
    },
    {
      "anonymous": false,
      "inputs": [
        {
          "indexed": true,
          "internalType": "address",
          "name": "previousOwner",
          "type": "address"
        },
        {
          "indexed": true,
          "internalType": "address",
          "name": "newOwner",
          "type": "address"
        }
      ],
      "name": "OwnershipTransferred",
      "type": "event"
    },
    {
      "constant": false,
      "inputs": [
        {
          "internalType": "address",
          "name": "dapp",
          "type": "address"
        },
        {
          "internalType": "uint256",
          "name": "upper_bound",
          "type": "uint256"
        }
      ],
      "name": "applyFor",
      "outputs": [],
      "payable": false,
      "stateMutability": "nonpayable",
      "type": "function"
    },
    {
      "constant": true,
      "inputs": [
        {
          "internalType": "address",
          "name": "dapp",
          "type": "address"
        }
      ],
      "name": "getGasBalance",
      "outputs": [
        {
          "internalType": "uint256",
          "name": "",
          "type": "uint256"
        }
      ],
      "payable": false,
      "stateMutability": "view",
      "type": "function"
    },
    {
      "constant": true,
      "inputs": [
        {
          "internalType": "address",
          "name": "dapp",
          "type": "address"
        }
      ],
      "name": "getCollateralBalance",
      "outputs": [
        {
          "internalType": "uint256",
          "name": "",
          "type": "uint256"
        }
      ],
      "payable": false,
      "stateMutability": "view",
      "type": "function"
    },
    {
      "constant": false,
      "inputs": [
        {
          "internalType": "address payable",
          "name": "sponsor",
          "type": "address"
        },
        {
          "internalType": "uint256",
          "name": "amount",
          "type": "uint256"
        }
      ],
      "name": "withdraw",
      "outputs": [],
      "payable": false,
      "stateMutability": "nonpayable",
      "type": "function"
    },
    {
      "constant": false,
      "inputs": [
        {
          "internalType": "uint256",
          "name": "gasBound",
          "type": "uint256"
        },
        {
          "internalType": "uint256",
          "name": "collateralBound",
          "type": "uint256"
        }
      ],
      "name": "setBound",
      "outputs": [],
      "payable": false,
      "stateMutability": "nonpayable",
      "type": "function"
    }
  ],
  "bytecode": "0x60806040526000600260016101000a81548160ff021916908315150217905550730888000000000000000000000000000000000001600660006101000a81548173ffffffffffffffffffffffffffffffffffffffff021916908373ffffffffffffffffffffffffffffffffffffffff1602179055503480156200008157600080fd5b50604051620021a4380380620021a48339818101604052620000a79190810190620003c1565b620000b7620001c360201b60201c565b6000806101000a81548173ffffffffffffffffffffffffffffffffffffffff021916908373ffffffffffffffffffffffffffffffffffffffff1602179055506000809054906101000a900473ffffffffffffffffffffffffffffffffffffffff1673ffffffffffffffffffffffffffffffffffffffff16600073ffffffffffffffffffffffffffffffffffffffff167f8be0079c531659141344cd1fd0a4f28419497f9722a3daafe3b4186f6b6457e060405160405180910390a36200019262000186620001c360201b60201c565b620001cb60201b60201c565b6000600260006101000a81548160ff0219169083151502179055508160038190555080600481905550505062000525565b600033905090565b620001e68160016200022c60201b6200128a1790919060201c565b8073ffffffffffffffffffffffffffffffffffffffff167f6719d08c1888103bea251a4ed56406bd0c3e69723c8a1686e017e7bbe159b6f860405160405180910390a250565b6200023e8282620002df60201b60201c565b1562000281576040517f08c379a00000000000000000000000000000000000000000000000000000000081526004016200027890620004ac565b60405180910390fd5b60018260000160008373ffffffffffffffffffffffffffffffffffffffff1673ffffffffffffffffffffffffffffffffffffffff16815260200190815260200160002060006101000a81548160ff0219169083151502179055505050565b60008073ffffffffffffffffffffffffffffffffffffffff168273ffffffffffffffffffffffffffffffffffffffff16141562000353576040517f08c379a00000000000000000000000000000000000000000000000000000000081526004016200034a90620004ce565b60405180910390fd5b8260000160008373ffffffffffffffffffffffffffffffffffffffff1673ffffffffffffffffffffffffffffffffffffffff16815260200190815260200160002060009054906101000a900460ff16905092915050565b600081519050620003bb816200050b565b92915050565b60008060408385031215620003d557600080fd5b6000620003e585828601620003aa565b9250506020620003f885828601620003aa565b9150509250929050565b600062000411601f83620004f0565b91507f526f6c65733a206163636f756e7420616c72656164792068617320726f6c65006000830152602082019050919050565b600062000453602283620004f0565b91507f526f6c65733a206163636f756e7420697320746865207a65726f20616464726560008301527f73730000000000000000000000000000000000000000000000000000000000006020830152604082019050919050565b60006020820190508181036000830152620004c78162000402565b9050919050565b60006020820190508181036000830152620004e98162000444565b9050919050565b600082825260208201905092915050565b6000819050919050565b620005168162000501565b81146200052257600080fd5b50565b611c6f80620005356000396000f3fe6080604052600436106101095760003560e01c806382dc1ec4116100955780639ca64c41116100645780639ca64c411461031b578063ca9c8c3714610346578063db51cd6614610371578063f2fde38b146103ae578063f3fef3a3146103d757610109565b806382dc1ec4146102855780638456cb59146102ae5780638da5cb5b146102c55780638f32d59b146102f057610109565b806355670f31116100dc57806355670f31146101c55780635c975abb146102035780636ef8d66d1461022e578063715018a61461024557806378cb20051461025c57610109565b806304b54dab1461010b5780632703ee85146101345780633f4ba83a1461017157806346fbf68e14610188575b005b34801561011757600080fd5b50610132600480360361012d91908101906113d6565b610400565b005b34801561014057600080fd5b5061015b60048036036101569190810190611371565b610773565b6040516101689190611b02565b60405180910390f35b34801561017d57600080fd5b5061018661077a565b005b34801561019457600080fd5b506101af60048036036101aa9190810190611371565b610873565b6040516101bc9190611927565b60405180910390f35b3480156101d157600080fd5b506101ec60048036036101e79190810190611371565b610890565b6040516101fa929190611b1d565b60405180910390f35b34801561020f57600080fd5b506102186108b4565b6040516102259190611927565b60405180910390f35b34801561023a57600080fd5b506102436108cb565b005b34801561025157600080fd5b5061025a6108dd565b005b34801561026857600080fd5b50610283600480360361027e9190810190611412565b6109e3565b005b34801561029157600080fd5b506102ac60048036036102a79190810190611371565b610a3c565b005b3480156102ba57600080fd5b506102c3610a97565b005b3480156102d157600080fd5b506102da610b91565b6040516102e791906118c8565b60405180910390f35b3480156102fc57600080fd5b50610305610bba565b6040516103129190611927565b60405180910390f35b34801561032757600080fd5b50610330610c18565b60405161033d9190611b02565b60405180910390f35b34801561035257600080fd5b5061035b610c1e565b6040516103689190611b02565b60405180910390f35b34801561037d57600080fd5b5061039860048036036103939190810190611371565b610c24565b6040516103a59190611b02565b60405180910390f35b3480156103ba57600080fd5b506103d560048036036103d09190810190611371565b610c2b565b005b3480156103e357600080fd5b506103fe60048036036103f9919081019061139a565b610c7e565b005b600260019054906101000a900460ff1615610450576040517f08c379a000000000000000000000000000000000000000000000000000000000815260040161044790611ac2565b60405180910390fd5b6001600260016101000a81548160ff021916908315150217905550600260009054906101000a900460ff16156104bb576040517f08c379a00000000000000000000000000000000000000000000000000000000081526004016104b2906119e2565b60405180910390fd5b6003546104d36103e883610e6c90919063ffffffff16565b1115610514576040517f08c379a000000000000000000000000000000000000000000000000000000000815260040161050b90611ae2565b60405180910390fd5b600660009054906101000a900473ffffffffffffffffffffffffffffffffffffffff1673ffffffffffffffffffffffffffffffffffffffff1663e9ac3d4a60035484846040518463ffffffff1660e01b81526004016105749291906118fe565b6000604051808303818588803b15801561058d57600080fd5b505af11580156105a1573d6000803e3d6000fd5b5050505050600660009054906101000a900473ffffffffffffffffffffffffffffffffffffffff1673ffffffffffffffffffffffffffffffffffffffff16630862bf68600454846040518363ffffffff1660e01b815260040161060491906118c8565b6000604051808303818588803b15801561061d57600080fd5b505af1158015610631573d6000803e3d6000fd5b505050505061068c6001600560008573ffffffffffffffffffffffffffffffffffffffff1673ffffffffffffffffffffffffffffffffffffffff16815260200190815260200160002060000154610edc90919063ffffffff16565b506106f86106a7600454600354610edc90919063ffffffff16565b600560008573ffffffffffffffffffffffffffffffffffffffff1673ffffffffffffffffffffffffffffffffffffffff16815260200190815260200160002060010154610edc90919063ffffffff16565b50808273ffffffffffffffffffffffffffffffffffffffff163373ffffffffffffffffffffffffffffffffffffffff167f0d517b7814d6361097aa44db26ae46a4e1244686721c5f28206a9605dc413c4a60405160405180910390a46000600260016101000a81548160ff0219169083151502179055505050565b6000919050565b61078a610785610f31565b610873565b6107c9576040517f08c379a00000000000000000000000000000000000000000000000000000000081526004016107c090611982565b60405180910390fd5b600260009054906101000a900460ff16610818576040517f08c379a000000000000000000000000000000000000000000000000000000000815260040161080f90611942565b60405180910390fd5b6000600260006101000a81548160ff0219169083151502179055507f5db9ee0a495bf2e6ff9c91a7834c1ba4fdd244a5e8aa4e537bd38aeae4b073aa61085c610f31565b60405161086991906118e3565b60405180910390a1565b6000610889826001610f3990919063ffffffff16565b9050919050565b60056020528060005260406000206000915090508060000154908060010154905082565b6000600260009054906101000a900460ff16905090565b6108db6108d6610f31565b611001565b565b6108e5610bba565b610924576040517f08c379a000000000000000000000000000000000000000000000000000000000815260040161091b90611a42565b60405180910390fd5b600073ffffffffffffffffffffffffffffffffffffffff166000809054906101000a900473ffffffffffffffffffffffffffffffffffffffff1673ffffffffffffffffffffffffffffffffffffffff167f8be0079c531659141344cd1fd0a4f28419497f9722a3daafe3b4186f6b6457e060405160405180910390a360008060006101000a81548173ffffffffffffffffffffffffffffffffffffffff021916908373ffffffffffffffffffffffffffffffffffffffff160217905550565b6109eb610bba565b610a2a576040517f08c379a0000000000000000000000000000000000000000000000000000000008152600401610a2190611a42565b60405180910390fd5b81600381905550806004819055505050565b610a4c610a47610f31565b610873565b610a8b576040517f08c379a0000000000000000000000000000000000000000000000000000000008152600401610a8290611982565b60405180910390fd5b610a948161105b565b50565b610aa7610aa2610f31565b610873565b610ae6576040517f08c379a0000000000000000000000000000000000000000000000000000000008152600401610add90611982565b60405180910390fd5b600260009054906101000a900460ff1615610b36576040517f08c379a0000000000000000000000000000000000000000000000000000000008152600401610b2d906119e2565b60405180910390fd5b6001600260006101000a81548160ff0219169083151502179055507f62e78cea01bee320cd4e420270b5ea74000d11b0c9f74754ebdbfc544b05a258610b7a610f31565b604051610b8791906118e3565b60405180910390a1565b60008060009054906101000a900473ffffffffffffffffffffffffffffffffffffffff16905090565b60008060009054906101000a900473ffffffffffffffffffffffffffffffffffffffff1673ffffffffffffffffffffffffffffffffffffffff16610bfc610f31565b73ffffffffffffffffffffffffffffffffffffffff1614905090565b60035481565b60045481565b6000919050565b610c33610bba565b610c72576040517f08c379a0000000000000000000000000000000000000000000000000000000008152600401610c6990611a42565b60405180910390fd5b610c7b816110b5565b50565b610c86610bba565b610cc5576040517f08c379a0000000000000000000000000000000000000000000000000000000008152600401610cbc90611a42565b60405180910390fd5b600260019054906101000a900460ff1615610d15576040517f08c379a0000000000000000000000000000000000000000000000000000000008152600401610d0c90611ac2565b60405180910390fd5b6001600260016101000a81548160ff021916908315150217905550600260009054906101000a900460ff16610d7f576040517f08c379a0000000000000000000000000000000000000000000000000000000008152600401610d7690611942565b60405180910390fd5b803073ffffffffffffffffffffffffffffffffffffffff16311015610dd9576040517f08c379a0000000000000000000000000000000000000000000000000000000008152600401610dd090611a82565b60405180910390fd5b8173ffffffffffffffffffffffffffffffffffffffff166108fc829081150290604051600060405180830381858888f19350505050610e4d576040517f08c379a0000000000000000000000000000000000000000000000000000000008152600401610e4490611aa2565b60405180910390fd5b6000600260016101000a81548160ff0219169083151502179055505050565b600080831415610e7f5760009050610ed6565b6000828402905082848281610e9057fe5b0414610ed1576040517f08c379a0000000000000000000000000000000000000000000000000000000008152600401610ec890611a22565b60405180910390fd5b809150505b92915050565b600080828401905083811015610f27576040517f08c379a0000000000000000000000000000000000000000000000000000000008152600401610f1e906119c2565b60405180910390fd5b8091505092915050565b600033905090565b60008073ffffffffffffffffffffffffffffffffffffffff168273ffffffffffffffffffffffffffffffffffffffff161415610faa576040517f08c379a0000000000000000000000000000000000000000000000000000000008152600401610fa190611a62565b60405180910390fd5b8260000160008373ffffffffffffffffffffffffffffffffffffffff1673ffffffffffffffffffffffffffffffffffffffff16815260200190815260200160002060009054906101000a900460ff16905092915050565b6110158160016111e390919063ffffffff16565b8073ffffffffffffffffffffffffffffffffffffffff167fcd265ebaf09df2871cc7bd4133404a235ba12eff2041bb89d9c714a2621c7c7e60405160405180910390a250565b61106f81600161128a90919063ffffffff16565b8073ffffffffffffffffffffffffffffffffffffffff167f6719d08c1888103bea251a4ed56406bd0c3e69723c8a1686e017e7bbe159b6f860405160405180910390a250565b600073ffffffffffffffffffffffffffffffffffffffff168173ffffffffffffffffffffffffffffffffffffffff161415611125576040517f08c379a000000000000000000000000000000000000000000000000000000000815260040161111c906119a2565b60405180910390fd5b8073ffffffffffffffffffffffffffffffffffffffff166000809054906101000a900473ffffffffffffffffffffffffffffffffffffffff1673ffffffffffffffffffffffffffffffffffffffff167f8be0079c531659141344cd1fd0a4f28419497f9722a3daafe3b4186f6b6457e060405160405180910390a3806000806101000a81548173ffffffffffffffffffffffffffffffffffffffff021916908373ffffffffffffffffffffffffffffffffffffffff16021790555050565b6111ed8282610f39565b61122c576040517f08c379a000000000000000000000000000000000000000000000000000000000815260040161122390611a02565b60405180910390fd5b60008260000160008373ffffffffffffffffffffffffffffffffffffffff1673ffffffffffffffffffffffffffffffffffffffff16815260200190815260200160002060006101000a81548160ff0219169083151502179055505050565b6112948282610f39565b156112d4576040517f08c379a00000000000000000000000000000000000000000000000000000000081526004016112cb90611962565b60405180910390fd5b60018260000160008373ffffffffffffffffffffffffffffffffffffffff1673ffffffffffffffffffffffffffffffffffffffff16815260200190815260200160002060006101000a81548160ff0219169083151502179055505050565b60008135905061134181611be7565b92915050565b60008135905061135681611bfe565b92915050565b60008135905061136b81611c15565b92915050565b60006020828403121561138357600080fd5b600061139184828501611332565b91505092915050565b600080604083850312156113ad57600080fd5b60006113bb85828601611347565b92505060206113cc8582860161135c565b9150509250929050565b600080604083850312156113e957600080fd5b60006113f785828601611332565b92505060206114088582860161135c565b9150509250929050565b6000806040838503121561142557600080fd5b60006114338582860161135c565b92505060206114448582860161135c565b9150509250929050565b61145781611bb1565b82525050565b61146681611b57565b82525050565b61147581611b7b565b82525050565b6000611488601483611b46565b91507f5061757361626c653a206e6f74207061757365640000000000000000000000006000830152602082019050919050565b60006114c8601f83611b46565b91507f526f6c65733a206163636f756e7420616c72656164792068617320726f6c65006000830152602082019050919050565b6000611508603083611b46565b91507f506175736572526f6c653a2063616c6c657220646f6573206e6f74206861766560008301527f207468652050617573657220726f6c65000000000000000000000000000000006020830152604082019050919050565b600061156e602683611b46565b91507f4f776e61626c653a206e6577206f776e657220697320746865207a65726f206160008301527f64647265737300000000000000000000000000000000000000000000000000006020830152604082019050919050565b60006115d4601b83611b46565b91507f536166654d6174683a206164646974696f6e206f766572666c6f7700000000006000830152602082019050919050565b6000611614601083611b46565b91507f5061757361626c653a20706175736564000000000000000000000000000000006000830152602082019050919050565b6000611654602183611b46565b91507f526f6c65733a206163636f756e7420646f6573206e6f74206861766520726f6c60008301527f65000000000000000000000000000000000000000000000000000000000000006020830152604082019050919050565b60006116ba602183611b46565b91507f536166654d6174683a206d756c7469706c69636174696f6e206f766572666c6f60008301527f77000000000000000000000000000000000000000000000000000000000000006020830152604082019050919050565b6000611720602083611b46565b91507f4f776e61626c653a2063616c6c6572206973206e6f7420746865206f776e65726000830152602082019050919050565b6000611760602283611b46565b91507f526f6c65733a206163636f756e7420697320746865207a65726f20616464726560008301527f73730000000000000000000000000000000000000000000000000000000000006020830152604082019050919050565b60006117c6600f83611b46565b91507f616d6f756e7420746f6f206869676800000000000000000000000000000000006000830152602082019050919050565b6000611806600e83611b46565b91507f7769746864726177206661696c640000000000000000000000000000000000006000830152602082019050919050565b6000611846601283611b46565b91507f5245454e5452414e43595f494c4c4547414c00000000000000000000000000006000830152602082019050919050565b6000611886601483611b46565b91507f75707065725f626f756e6420746f6f20686967680000000000000000000000006000830152602082019050919050565b6118c281611ba7565b82525050565b60006020820190506118dd600083018461145d565b92915050565b60006020820190506118f8600083018461144e565b92915050565b6000604082019050611913600083018561145d565b61192060208301846118b9565b9392505050565b600060208201905061193c600083018461146c565b92915050565b6000602082019050818103600083015261195b8161147b565b9050919050565b6000602082019050818103600083015261197b816114bb565b9050919050565b6000602082019050818103600083015261199b816114fb565b9050919050565b600060208201905081810360008301526119bb81611561565b9050919050565b600060208201905081810360008301526119db816115c7565b9050919050565b600060208201905081810360008301526119fb81611607565b9050919050565b60006020820190508181036000830152611a1b81611647565b9050919050565b60006020820190508181036000830152611a3b816116ad565b9050919050565b60006020820190508181036000830152611a5b81611713565b9050919050565b60006020820190508181036000830152611a7b81611753565b9050919050565b60006020820190508181036000830152611a9b816117b9565b9050919050565b60006020820190508181036000830152611abb816117f9565b9050919050565b60006020820190508181036000830152611adb81611839565b9050919050565b60006020820190508181036000830152611afb81611879565b9050919050565b6000602082019050611b1760008301846118b9565b92915050565b6000604082019050611b3260008301856118b9565b611b3f60208301846118b9565b9392505050565b600082825260208201905092915050565b6000611b6282611b87565b9050919050565b6000611b7482611b87565b9050919050565b60008115159050919050565b600073ffffffffffffffffffffffffffffffffffffffff82169050919050565b6000819050919050565b6000611bbc82611bc3565b9050919050565b6000611bce82611bd5565b9050919050565b6000611be082611b87565b9050919050565b611bf081611b57565b8114611bfb57600080fd5b50565b611c0781611b69565b8114611c1257600080fd5b50565b611c1e81611ba7565b8114611c2957600080fd5b5056fea365627a7a72315820405bdfbbd483854efe3cf4fc7ba036667437f356cea09bab004f480bd1c2d9666c6578706572696d656e74616cf564736f6c634300050b0040",
  "source": "pragma solidity 0.5.11;\npragma experimental ABIEncoderV2;\n\nimport \"@openzeppelin/contracts/ownership/Ownable.sol\";\nimport \"@openzeppelin/contracts/lifecycle/Pausable.sol\";\nimport \"@openzeppelin/contracts/math/SafeMath.sol\";\nimport \"./Lib/ReentrancyGuard.sol\";\nimport \"./InternalContract.sol\";\n\ncontract SponsorFaucet is Ownable, Pausable, ReentrancyGuard {\n    using SafeMath for uint256;\n    struct detail {\n        uint256 cnt;\n        uint256 limit;\n    }\n\n    //single sponsor bound\n    uint256 public gas_bound;\n    uint256 public collateral_bound;\n    mapping(address=>detail) public dapps;\n    \n    event applied(address indexed applicant, address indexed dapp, uint256 indexed upper_bound);\n    \n    SponsorWhitelistControl cpc = SponsorWhitelistControl(0x0888000000000000000000000000000000000001);\n    \n    constructor(uint256 gasBound, uint256 collateralBound) public {\n        gas_bound = gasBound;\n        collateral_bound = collateralBound;\n    }\n    \n    /*** Dapp dev calls ***/ \n    //apply cfx for gas & storage\n    function applyFor(address dapp, uint256 upper_bound) public nonReentrant whenNotPaused {\n        //todo: internal contract require check\n        require(upper_bound.mul(1000) <= gas_bound, 'upper_bound too high');\n        cpc.set_sponsor_for_gas.value(gas_bound)(dapp, upper_bound);\n        cpc.set_sponsor_for_collateral.value(collateral_bound)(dapp);\n        dapps[dapp].cnt.add(1);\n        dapps[dapp].limit.add(gas_bound.add(collateral_bound));\n        emit applied(msg.sender, dapp, upper_bound);\n    }\n\n    //accept sponsor's cfx\n    function () external payable {\n    }\n\n    //get dapp sponsored balance\n    // todo: add internal contract getMethod\n    function getGasBalance(address dapp) public view returns(uint256){\n        \n    }\n\n    function getCollateralBalance(address dapp) public view returns(uint256){\n\n    }\n\n    //withdraw to specific address by amount\n    function withdraw(address payable sponsor, uint256 amount) public onlyOwner nonReentrant whenPaused {\n        require(address(this).balance >= amount, \"amount too high\");\n        require(sponsor.send(amount), \"withdraw faild\");\n    }\n\n    function setBound(uint256 gasBound, uint256 collateralBound) public onlyOwner {\n        gas_bound = gasBound;\n        collateral_bound = collateralBound;    \n    }\n}\n",
  "sourcePath": "/Users/xiongyu/conflux-sponsor-faucet/contracts/SponsorFaucet.sol",
  "compiler": {
    "name": "solc",
    "version": "0.5.11+commit.c082d0b4.Emscripten.clang"
  },
  "schemaVersion": "3.2.2",
  "updatedAt": "2020-08-14T09:58:37.276Z",
  "devdoc": {
    "methods": {
      "isOwner()": {
        "details": "Returns true if the caller is the current owner."
      },
      "owner()": {
        "details": "Returns the address of the current owner."
      },
      "pause()": {
        "details": "Called by a pauser to pause, triggers stopped state."
      },
      "paused()": {
        "details": "Returns true if the contract is paused, and false otherwise."
      },
      "renounceOwnership()": {
        "details": "Leaves the contract without owner. It will not be possible to call `onlyOwner` functions anymore. Can only be called by the current owner.     * NOTE: Renouncing ownership will leave the contract without an owner, thereby removing any functionality that is only available to the owner."
      },
      "transferOwnership(address)": {
        "details": "Transfers ownership of the contract to a new account (`newOwner`). Can only be called by the current owner."
      },
      "unpause()": {
        "details": "Called by a pauser to unpause, returns to normal state."
      }
    }
  },
  "userdoc": {
    "methods": {
      "applyFor(address,uint256)": {
        "notice": "* Dapp dev calls **"
      }
    }
  }
}