{
  "contractName": "SponsorFaucet",
  "abi": [
    {
      "constant": false,
      "inputs": [],
      "name": "unpause",
      "outputs": [],
      "payable": false,
      "stateMutability": "nonpayable",
      "type": "function"
    },
    {
      "constant": true,
      "inputs": [
        {
          "internalType": "address",
          "name": "account",
          "type": "address"
        }
      ],
      "name": "isPauser",
      "outputs": [
        {
          "internalType": "bool",
          "name": "",
          "type": "bool"
        }
      ],
      "payable": false,
      "stateMutability": "view",
      "type": "function"
    },
    {
      "constant": true,
      "inputs": [],
      "name": "storage_bound",
      "outputs": [
        {
          "internalType": "uint256",
          "name": "",
          "type": "uint256"
        }
      ],
      "payable": false,
      "stateMutability": "view",
      "type": "function"
    },
    {
      "constant": true,
      "inputs": [
        {
          "internalType": "address",
          "name": "",
          "type": "address"
        }
      ],
      "name": "dapps",
      "outputs": [
        {
          "internalType": "uint256",
          "name": "cnt",
          "type": "uint256"
        },
        {
          "internalType": "uint256",
          "name": "limit",
          "type": "uint256"
        }
      ],
      "payable": false,
      "stateMutability": "view",
      "type": "function"
    },
    {
      "constant": true,
      "inputs": [],
      "name": "paused",
      "outputs": [
        {
          "internalType": "bool",
          "name": "",
          "type": "bool"
        }
      ],
      "payable": false,
      "stateMutability": "view",
      "type": "function"
    },
    {
      "constant": false,
      "inputs": [],
      "name": "renouncePauser",
      "outputs": [],
      "payable": false,
      "stateMutability": "nonpayable",
      "type": "function"
    },
    {
      "constant": false,
      "inputs": [],
      "name": "renounceOwnership",
      "outputs": [],
      "payable": false,
      "stateMutability": "nonpayable",
      "type": "function"
    },
    {
      "constant": false,
      "inputs": [
        {
          "internalType": "address",
          "name": "account",
          "type": "address"
        }
      ],
      "name": "addPauser",
      "outputs": [],
      "payable": false,
      "stateMutability": "nonpayable",
      "type": "function"
    },
    {
      "constant": false,
      "inputs": [],
      "name": "pause",
      "outputs": [],
      "payable": false,
      "stateMutability": "nonpayable",
      "type": "function"
    },
    {
      "constant": true,
      "inputs": [],
      "name": "owner",
      "outputs": [
        {
          "internalType": "address",
          "name": "",
          "type": "address"
        }
      ],
      "payable": false,
      "stateMutability": "view",
      "type": "function"
    },
    {
      "constant": true,
      "inputs": [],
      "name": "isOwner",
      "outputs": [
        {
          "internalType": "bool",
          "name": "",
          "type": "bool"
        }
      ],
      "payable": false,
      "stateMutability": "view",
      "type": "function"
    },
    {
      "constant": true,
      "inputs": [],
      "name": "gas_bound",
      "outputs": [
        {
          "internalType": "uint256",
          "name": "",
          "type": "uint256"
        }
      ],
      "payable": false,
      "stateMutability": "view",
      "type": "function"
    },
    {
      "constant": true,
      "inputs": [
        {
          "internalType": "address",
          "name": "",
          "type": "address"
        }
      ],
      "name": "sponsors",
      "outputs": [
        {
          "internalType": "uint256",
          "name": "",
          "type": "uint256"
        }
      ],
      "payable": false,
      "stateMutability": "view",
      "type": "function"
    },
    {
      "constant": false,
      "inputs": [
        {
          "internalType": "address",
          "name": "newOwner",
          "type": "address"
        }
      ],
      "name": "transferOwnership",
      "outputs": [],
      "payable": false,
      "stateMutability": "nonpayable",
      "type": "function"
    },
    {
      "inputs": [
        {
          "internalType": "uint256",
          "name": "bound",
          "type": "uint256"
        },
        {
          "internalType": "uint256",
          "name": "s_bound",
          "type": "uint256"
        }
      ],
      "payable": false,
      "stateMutability": "nonpayable",
      "type": "constructor"
    },
    {
      "payable": true,
      "stateMutability": "payable",
      "type": "fallback"
    },
    {
      "anonymous": false,
      "inputs": [
        {
          "indexed": false,
          "internalType": "address",
          "name": "dapp",
          "type": "address"
        }
      ],
      "name": "applied",
      "type": "event"
    },
    {
      "anonymous": false,
      "inputs": [
        {
          "indexed": false,
          "internalType": "address",
          "name": "sponsor",
          "type": "address"
        },
        {
          "indexed": false,
          "internalType": "uint256",
          "name": "amount",
          "type": "uint256"
        }
      ],
      "name": "receieved",
      "type": "event"
    },
    {
      "anonymous": false,
      "inputs": [
        {
          "indexed": false,
          "internalType": "address",
          "name": "account",
          "type": "address"
        }
      ],
      "name": "Paused",
      "type": "event"
    },
    {
      "anonymous": false,
      "inputs": [
        {
          "indexed": false,
          "internalType": "address",
          "name": "account",
          "type": "address"
        }
      ],
      "name": "Unpaused",
      "type": "event"
    },
    {
      "anonymous": false,
      "inputs": [
        {
          "indexed": true,
          "internalType": "address",
          "name": "account",
          "type": "address"
        }
      ],
      "name": "PauserAdded",
      "type": "event"
    },
    {
      "anonymous": false,
      "inputs": [
        {
          "indexed": true,
          "internalType": "address",
          "name": "account",
          "type": "address"
        }
      ],
      "name": "PauserRemoved",
      "type": "event"
    },
    {
      "anonymous": false,
      "inputs": [
        {
          "indexed": true,
          "internalType": "address",
          "name": "previousOwner",
          "type": "address"
        },
        {
          "indexed": true,
          "internalType": "address",
          "name": "newOwner",
          "type": "address"
        }
      ],
      "name": "OwnershipTransferred",
      "type": "event"
    },
    {
      "constant": false,
      "inputs": [
        {
          "internalType": "address",
          "name": "dapp",
          "type": "address"
        }
      ],
      "name": "applyFor",
      "outputs": [],
      "payable": false,
      "stateMutability": "nonpayable",
      "type": "function"
    },
    {
      "constant": false,
      "inputs": [],
      "name": "getBalance",
      "outputs": [
        {
          "internalType": "uint256",
          "name": "",
          "type": "uint256"
        }
      ],
      "payable": false,
      "stateMutability": "nonpayable",
      "type": "function"
    },
    {
      "constant": false,
      "inputs": [
        {
          "internalType": "address payable",
          "name": "sponsor",
          "type": "address"
        }
      ],
      "name": "withdraw",
      "outputs": [],
      "payable": false,
      "stateMutability": "nonpayable",
      "type": "function"
    },
    {
      "constant": false,
      "inputs": [
        {
          "internalType": "uint256",
          "name": "gasBound",
          "type": "uint256"
        },
        {
          "internalType": "uint256",
          "name": "storageBound",
          "type": "uint256"
        }
      ],
      "name": "setBound",
      "outputs": [],
      "payable": false,
      "stateMutability": "nonpayable",
      "type": "function"
    }
  ],
  "bytecode": "0x60806040526000600260016101000a81548160ff021916908315150217905550730888000000000000000000000000000000000001600760006101000a81548173ffffffffffffffffffffffffffffffffffffffff021916908373ffffffffffffffffffffffffffffffffffffffff1602179055503480156200008157600080fd5b5060405162001e4b38038062001e4b8339818101604052620000a79190810190620003c1565b620000b7620001c360201b60201c565b6000806101000a81548173ffffffffffffffffffffffffffffffffffffffff021916908373ffffffffffffffffffffffffffffffffffffffff1602179055506000809054906101000a900473ffffffffffffffffffffffffffffffffffffffff1673ffffffffffffffffffffffffffffffffffffffff16600073ffffffffffffffffffffffffffffffffffffffff167f8be0079c531659141344cd1fd0a4f28419497f9722a3daafe3b4186f6b6457e060405160405180910390a36200019262000186620001c360201b60201c565b620001cb60201b60201c565b6000600260006101000a81548160ff0219169083151502179055508160038190555080600481905550505062000525565b600033905090565b620001e68160016200022c60201b620011861790919060201c565b8073ffffffffffffffffffffffffffffffffffffffff167f6719d08c1888103bea251a4ed56406bd0c3e69723c8a1686e017e7bbe159b6f860405160405180910390a250565b6200023e8282620002df60201b60201c565b1562000281576040517f08c379a00000000000000000000000000000000000000000000000000000000081526004016200027890620004ac565b60405180910390fd5b60018260000160008373ffffffffffffffffffffffffffffffffffffffff1673ffffffffffffffffffffffffffffffffffffffff16815260200190815260200160002060006101000a81548160ff0219169083151502179055505050565b60008073ffffffffffffffffffffffffffffffffffffffff168273ffffffffffffffffffffffffffffffffffffffff16141562000353576040517f08c379a00000000000000000000000000000000000000000000000000000000081526004016200034a90620004ce565b60405180910390fd5b8260000160008373ffffffffffffffffffffffffffffffffffffffff1673ffffffffffffffffffffffffffffffffffffffff16815260200190815260200160002060009054906101000a900460ff16905092915050565b600081519050620003bb816200050b565b92915050565b60008060408385031215620003d557600080fd5b6000620003e585828601620003aa565b9250506020620003f885828601620003aa565b9150509250929050565b600062000411601f83620004f0565b91507f526f6c65733a206163636f756e7420616c72656164792068617320726f6c65006000830152602082019050919050565b600062000453602283620004f0565b91507f526f6c65733a206163636f756e7420697320746865207a65726f20616464726560008301527f73730000000000000000000000000000000000000000000000000000000000006020830152604082019050919050565b60006020820190508181036000830152620004c78162000402565b9050919050565b60006020820190508181036000830152620004e98162000444565b9050919050565b600082825260208201905092915050565b6000819050919050565b620005168162000501565b81146200052257600080fd5b50565b61191680620005356000396000f3fe6080604052600436106101095760003560e01c8063715018a6116100955780638da5cb5b116100645780638da5cb5b146103545780638f32d59b1461037f5780639ca64c41146103aa578063d35590c2146103d5578063f2fde38b1461041257610109565b8063715018a6146102d457806378cb2005146102eb57806382dc1ec4146103145780638456cb591461033d57610109565b806350e07aec116100dc57806350e07aec1461020057806351cff8d91461022b57806355670f31146102545780635c975abb146102925780636ef8d66d146102bd57610109565b806312065fe01461015857806337ea0de2146101835780633f4ba83a146101ac57806346fbf68e146101c3575b34600660003373ffffffffffffffffffffffffffffffffffffffff1673ffffffffffffffffffffffffffffffffffffffff16815260200190815260200160002060008282540192505081905550005b34801561016457600080fd5b5061016d61043b565b60405161017a91906117a9565b60405180910390f35b34801561018f57600080fd5b506101aa60048036036101a5919081019061126d565b61045a565b005b3480156101b857600080fd5b506101c161077d565b005b3480156101cf57600080fd5b506101ea60048036036101e5919081019061126d565b610876565b6040516101f7919061166e565b60405180910390f35b34801561020c57600080fd5b50610215610893565b60405161022291906117a9565b60405180910390f35b34801561023757600080fd5b50610252600480360361024d9190810190611296565b610899565b005b34801561026057600080fd5b5061027b6004803603610276919081019061126d565b610a34565b6040516102899291906117c4565b60405180910390f35b34801561029e57600080fd5b506102a7610a58565b6040516102b4919061166e565b60405180910390f35b3480156102c957600080fd5b506102d2610a6f565b005b3480156102e057600080fd5b506102e9610a81565b005b3480156102f757600080fd5b50610312600480360361030d91908101906112bf565b610b87565b005b34801561032057600080fd5b5061033b6004803603610336919081019061126d565b610be0565b005b34801561034957600080fd5b50610352610c3b565b005b34801561036057600080fd5b50610369610d35565b604051610376919061160f565b60405180910390f35b34801561038b57600080fd5b50610394610d5e565b6040516103a1919061166e565b60405180910390f35b3480156103b657600080fd5b506103bf610dbc565b6040516103cc91906117a9565b60405180910390f35b3480156103e157600080fd5b506103fc60048036036103f7919081019061126d565b610dc2565b60405161040991906117a9565b60405180910390f35b34801561041e57600080fd5b506104396004803603610434919081019061126d565b610dda565b005b60003073ffffffffffffffffffffffffffffffffffffffff1631905090565b610462610d5e565b6104a1576040517f08c379a000000000000000000000000000000000000000000000000000000000815260040161049890611749565b60405180910390fd5b600260019054906101000a900460ff16156104f1576040517f08c379a00000000000000000000000000000000000000000000000000000000081526004016104e890611789565b60405180910390fd5b6001600260016101000a81548160ff021916908315150217905550600260009054906101000a900460ff161561055c576040517f08c379a000000000000000000000000000000000000000000000000000000000815260040161055390611709565b60405180910390fd5b600760009054906101000a900473ffffffffffffffffffffffffffffffffffffffff1673ffffffffffffffffffffffffffffffffffffffff1663e9ac3d4a600354836003546040518463ffffffff1660e01b81526004016105be929190611645565b6000604051808303818588803b1580156105d757600080fd5b505af11580156105eb573d6000803e3d6000fd5b5050505050600760009054906101000a900473ffffffffffffffffffffffffffffffffffffffff1673ffffffffffffffffffffffffffffffffffffffff16630862bf68600454836040518363ffffffff1660e01b815260040161064e919061160f565b6000604051808303818588803b15801561066757600080fd5b505af115801561067b573d6000803e3d6000fd5b5050505050600560008273ffffffffffffffffffffffffffffffffffffffff1673ffffffffffffffffffffffffffffffffffffffff1681526020019081526020016000206000016000815480929190600101919050555060045460035401600560008373ffffffffffffffffffffffffffffffffffffffff1673ffffffffffffffffffffffffffffffffffffffff168152602001908152602001600020600101600082825401925050819055507f2a623296979246cc57deb32d9f5219c091bfa1a559d3214c9aabbaf4d24e0fb081604051610757919061160f565b60405180910390a16000600260016101000a81548160ff02191690831515021790555050565b61078d610788610e2d565b610876565b6107cc576040517f08c379a00000000000000000000000000000000000000000000000000000000081526004016107c3906116c9565b60405180910390fd5b600260009054906101000a900460ff1661081b576040517f08c379a000000000000000000000000000000000000000000000000000000000815260040161081290611689565b60405180910390fd5b6000600260006101000a81548160ff0219169083151502179055507f5db9ee0a495bf2e6ff9c91a7834c1ba4fdd244a5e8aa4e537bd38aeae4b073aa61085f610e2d565b60405161086c919061162a565b60405180910390a1565b600061088c826001610e3590919063ffffffff16565b9050919050565b60045481565b6108a1610d5e565b6108e0576040517f08c379a00000000000000000000000000000000000000000000000000000000081526004016108d790611749565b60405180910390fd5b600260019054906101000a900460ff1615610930576040517f08c379a000000000000000000000000000000000000000000000000000000000815260040161092790611789565b60405180910390fd5b6001600260016101000a81548160ff021916908315150217905550600260009054906101000a900460ff1661099a576040517f08c379a000000000000000000000000000000000000000000000000000000000815260040161099190611689565b60405180910390fd5b60013073ffffffffffffffffffffffffffffffffffffffff1631116109be57600080fd5b8073ffffffffffffffffffffffffffffffffffffffff166108fc60013073ffffffffffffffffffffffffffffffffffffffff1631039081150290604051600060405180830381858888f19350505050610a1657600080fd5b6000600260016101000a81548160ff02191690831515021790555050565b60056020528060005260406000206000915090508060000154908060010154905082565b6000600260009054906101000a900460ff16905090565b610a7f610a7a610e2d565b610efd565b565b610a89610d5e565b610ac8576040517f08c379a0000000000000000000000000000000000000000000000000000000008152600401610abf90611749565b60405180910390fd5b600073ffffffffffffffffffffffffffffffffffffffff166000809054906101000a900473ffffffffffffffffffffffffffffffffffffffff1673ffffffffffffffffffffffffffffffffffffffff167f8be0079c531659141344cd1fd0a4f28419497f9722a3daafe3b4186f6b6457e060405160405180910390a360008060006101000a81548173ffffffffffffffffffffffffffffffffffffffff021916908373ffffffffffffffffffffffffffffffffffffffff160217905550565b610b8f610d5e565b610bce576040517f08c379a0000000000000000000000000000000000000000000000000000000008152600401610bc590611749565b60405180910390fd5b81600381905550806004819055505050565b610bf0610beb610e2d565b610876565b610c2f576040517f08c379a0000000000000000000000000000000000000000000000000000000008152600401610c26906116c9565b60405180910390fd5b610c3881610f57565b50565b610c4b610c46610e2d565b610876565b610c8a576040517f08c379a0000000000000000000000000000000000000000000000000000000008152600401610c81906116c9565b60405180910390fd5b600260009054906101000a900460ff1615610cda576040517f08c379a0000000000000000000000000000000000000000000000000000000008152600401610cd190611709565b60405180910390fd5b6001600260006101000a81548160ff0219169083151502179055507f62e78cea01bee320cd4e420270b5ea74000d11b0c9f74754ebdbfc544b05a258610d1e610e2d565b604051610d2b919061162a565b60405180910390a1565b60008060009054906101000a900473ffffffffffffffffffffffffffffffffffffffff16905090565b60008060009054906101000a900473ffffffffffffffffffffffffffffffffffffffff1673ffffffffffffffffffffffffffffffffffffffff16610da0610e2d565b73ffffffffffffffffffffffffffffffffffffffff1614905090565b60035481565b60066020528060005260406000206000915090505481565b610de2610d5e565b610e21576040517f08c379a0000000000000000000000000000000000000000000000000000000008152600401610e1890611749565b60405180910390fd5b610e2a81610fb1565b50565b600033905090565b60008073ffffffffffffffffffffffffffffffffffffffff168273ffffffffffffffffffffffffffffffffffffffff161415610ea6576040517f08c379a0000000000000000000000000000000000000000000000000000000008152600401610e9d90611769565b60405180910390fd5b8260000160008373ffffffffffffffffffffffffffffffffffffffff1673ffffffffffffffffffffffffffffffffffffffff16815260200190815260200160002060009054906101000a900460ff16905092915050565b610f118160016110df90919063ffffffff16565b8073ffffffffffffffffffffffffffffffffffffffff167fcd265ebaf09df2871cc7bd4133404a235ba12eff2041bb89d9c714a2621c7c7e60405160405180910390a250565b610f6b81600161118690919063ffffffff16565b8073ffffffffffffffffffffffffffffffffffffffff167f6719d08c1888103bea251a4ed56406bd0c3e69723c8a1686e017e7bbe159b6f860405160405180910390a250565b600073ffffffffffffffffffffffffffffffffffffffff168173ffffffffffffffffffffffffffffffffffffffff161415611021576040517f08c379a0000000000000000000000000000000000000000000000000000000008152600401611018906116e9565b60405180910390fd5b8073ffffffffffffffffffffffffffffffffffffffff166000809054906101000a900473ffffffffffffffffffffffffffffffffffffffff1673ffffffffffffffffffffffffffffffffffffffff167f8be0079c531659141344cd1fd0a4f28419497f9722a3daafe3b4186f6b6457e060405160405180910390a3806000806101000a81548173ffffffffffffffffffffffffffffffffffffffff021916908373ffffffffffffffffffffffffffffffffffffffff16021790555050565b6110e98282610e35565b611128576040517f08c379a000000000000000000000000000000000000000000000000000000000815260040161111f90611729565b60405180910390fd5b60008260000160008373ffffffffffffffffffffffffffffffffffffffff1673ffffffffffffffffffffffffffffffffffffffff16815260200190815260200160002060006101000a81548160ff0219169083151502179055505050565b6111908282610e35565b156111d0576040517f08c379a00000000000000000000000000000000000000000000000000000000081526004016111c7906116a9565b60405180910390fd5b60018260000160008373ffffffffffffffffffffffffffffffffffffffff1673ffffffffffffffffffffffffffffffffffffffff16815260200190815260200160002060006101000a81548160ff0219169083151502179055505050565b60008135905061123d8161188e565b92915050565b600081359050611252816118a5565b92915050565b600081359050611267816118bc565b92915050565b60006020828403121561127f57600080fd5b600061128d8482850161122e565b91505092915050565b6000602082840312156112a857600080fd5b60006112b684828501611243565b91505092915050565b600080604083850312156112d257600080fd5b60006112e085828601611258565b92505060206112f185828601611258565b9150509250929050565b61130481611858565b82525050565b611313816117fe565b82525050565b61132281611822565b82525050565b60006113356014836117ed565b91507f5061757361626c653a206e6f74207061757365640000000000000000000000006000830152602082019050919050565b6000611375601f836117ed565b91507f526f6c65733a206163636f756e7420616c72656164792068617320726f6c65006000830152602082019050919050565b60006113b56030836117ed565b91507f506175736572526f6c653a2063616c6c657220646f6573206e6f74206861766560008301527f207468652050617573657220726f6c65000000000000000000000000000000006020830152604082019050919050565b600061141b6026836117ed565b91507f4f776e61626c653a206e6577206f776e657220697320746865207a65726f206160008301527f64647265737300000000000000000000000000000000000000000000000000006020830152604082019050919050565b60006114816010836117ed565b91507f5061757361626c653a20706175736564000000000000000000000000000000006000830152602082019050919050565b60006114c16021836117ed565b91507f526f6c65733a206163636f756e7420646f6573206e6f74206861766520726f6c60008301527f65000000000000000000000000000000000000000000000000000000000000006020830152604082019050919050565b60006115276020836117ed565b91507f4f776e61626c653a2063616c6c6572206973206e6f7420746865206f776e65726000830152602082019050919050565b60006115676022836117ed565b91507f526f6c65733a206163636f756e7420697320746865207a65726f20616464726560008301527f73730000000000000000000000000000000000000000000000000000000000006020830152604082019050919050565b60006115cd6012836117ed565b91507f5245454e5452414e43595f494c4c4547414c00000000000000000000000000006000830152602082019050919050565b6116098161184e565b82525050565b6000602082019050611624600083018461130a565b92915050565b600060208201905061163f60008301846112fb565b92915050565b600060408201905061165a600083018561130a565b6116676020830184611600565b9392505050565b60006020820190506116836000830184611319565b92915050565b600060208201905081810360008301526116a281611328565b9050919050565b600060208201905081810360008301526116c281611368565b9050919050565b600060208201905081810360008301526116e2816113a8565b9050919050565b600060208201905081810360008301526117028161140e565b9050919050565b6000602082019050818103600083015261172281611474565b9050919050565b60006020820190508181036000830152611742816114b4565b9050919050565b600060208201905081810360008301526117628161151a565b9050919050565b600060208201905081810360008301526117828161155a565b9050919050565b600060208201905081810360008301526117a2816115c0565b9050919050565b60006020820190506117be6000830184611600565b92915050565b60006040820190506117d96000830185611600565b6117e66020830184611600565b9392505050565b600082825260208201905092915050565b60006118098261182e565b9050919050565b600061181b8261182e565b9050919050565b60008115159050919050565b600073ffffffffffffffffffffffffffffffffffffffff82169050919050565b6000819050919050565b60006118638261186a565b9050919050565b60006118758261187c565b9050919050565b60006118878261182e565b9050919050565b611897816117fe565b81146118a257600080fd5b50565b6118ae81611810565b81146118b957600080fd5b50565b6118c58161184e565b81146118d057600080fd5b5056fea365627a7a72315820b426b91a6c5ed079d87bef5f6445d45d8f5af507c3c9c8292409865228e131826c6578706572696d656e74616cf564736f6c634300050b0040",
  "source": "pragma solidity 0.5.11;\npragma experimental ABIEncoderV2;\n\nimport \"@openzeppelin/contracts/ownership/Ownable.sol\";\nimport \"@openzeppelin/contracts/lifecycle/Pausable.sol\";\nimport \"./Lib/ReentrancyGuard.sol\";\n\ncontract SponsorWhitelistControl {\n    // ------------------------------------------------------------------------\n    // Someone will sponsor the gas cost for contract `contract_addr` with an\n    // `upper_bound` for a single transaction.\n    // ------------------------------------------------------------------------\n    function set_sponsor_for_gas(address contract_addr, uint upper_bound) public payable {\n    }\n\n    // ------------------------------------------------------------------------\n    // Someone will sponsor the storage collateral for contract `contract_addr`.\n    // ------------------------------------------------------------------------\n    function set_sponsor_for_collateral(address contract_addr) public payable {\n    }\n\n    // ------------------------------------------------------------------------\n    // Add commission privilege for address `user` to some contract.\n    // ------------------------------------------------------------------------\n    function add_privilege(address[] memory) public {\n    }\n\n    // ------------------------------------------------------------------------\n    // Remove commission privilege for address `user` from some contract.\n    // ------------------------------------------------------------------------\n    function remove_privilege(address[] memory) public {\n    }\n}\n\ncontract SponsorFaucet is Ownable, Pausable, ReentrancyGuard {\n    struct detail {\n        uint256 cnt;\n        uint256 limit;\n    }\n\n    uint256 public gas_bound;\n    uint256 public storage_bound;\n    mapping(address=>detail) public dapps;\n    mapping(address=>uint256) public sponsors;\n    \n    event applied(address dapp);\n    event receieved(address sponsor, uint256 amount);\n\n    SponsorWhitelistControl cpc = SponsorWhitelistControl(0x0888000000000000000000000000000000000001);\n    \n    constructor(uint256 bound, uint256 s_bound) public {\n        gas_bound = bound;\n        storage_bound = s_bound;\n    }\n    \n    /*** Dapp dev calls ***/ \n    //apply cfx for gas & storage\n    function applyFor(address dapp) public onlyOwner nonReentrant whenNotPaused {\n        cpc.set_sponsor_for_gas.value(gas_bound)(dapp, gas_bound);\n        cpc.set_sponsor_for_collateral.value(storage_bound)(dapp);\n        dapps[dapp].cnt++;\n        dapps[dapp].limit += (gas_bound+storage_bound);\n        emit applied(dapp);\n    }\n\n    //accept sponsor's cfx\n    function () external payable {\n        sponsors[msg.sender] += msg.value;\n    }\n\n    //balance of sponsor\n    function getBalance() public returns(uint256) {\n        return address(this).balance;\n    }\n\n    //withdraw to specific address\n    function withdraw(address payable sponsor) public onlyOwner nonReentrant whenPaused {\n        require(address(this).balance > 1);\n        require(sponsor.send(address(this).balance-1));\n    }\n\n    function setBound(uint256 gasBound, uint256 storageBound) public onlyOwner {\n        gas_bound = gasBound;\n        storage_bound = storageBound;    \n    }\n}\n",
  "sourcePath": "/Users/xiongyu/conflux-sponsor-faucet/contracts/SponsorFaucet.sol",
  "compiler": {
    "name": "solc",
    "version": "0.5.11+commit.c082d0b4.Emscripten.clang"
  },
  "schemaVersion": "3.2.2",
  "updatedAt": "2020-08-13T03:20:38.566Z",
  "devdoc": {
    "methods": {
      "isOwner()": {
        "details": "Returns true if the caller is the current owner."
      },
      "owner()": {
        "details": "Returns the address of the current owner."
      },
      "pause()": {
        "details": "Called by a pauser to pause, triggers stopped state."
      },
      "paused()": {
        "details": "Returns true if the contract is paused, and false otherwise."
      },
      "renounceOwnership()": {
        "details": "Leaves the contract without owner. It will not be possible to call `onlyOwner` functions anymore. Can only be called by the current owner.     * NOTE: Renouncing ownership will leave the contract without an owner, thereby removing any functionality that is only available to the owner."
      },
      "transferOwnership(address)": {
        "details": "Transfers ownership of the contract to a new account (`newOwner`). Can only be called by the current owner."
      },
      "unpause()": {
        "details": "Called by a pauser to unpause, returns to normal state."
      }
    }
  },
  "userdoc": {
    "methods": {
      "applyFor(address)": {
        "notice": "* Dapp dev calls **"
      }
    }
  }
}