{
  "contractName": "Test",
  "abi": [
    {
      "constant": true,
      "inputs": [
        {
          "internalType": "address",
          "name": "",
          "type": "address"
        }
      ],
      "name": "dapps",
      "outputs": [
        {
          "internalType": "uint256",
          "name": "a",
          "type": "uint256"
        },
        {
          "internalType": "uint256",
          "name": "b",
          "type": "uint256"
        }
      ],
      "payable": false,
      "stateMutability": "view",
      "type": "function"
    },
    {
      "inputs": [],
      "payable": false,
      "stateMutability": "nonpayable",
      "type": "constructor"
    }
  ],
  "bytecode": "0x608060405234801561001057600080fd5b5060016000807313f4a74368695b86bf02205a4080e799dfbd406173ffffffffffffffffffffffffffffffffffffffff1673ffffffffffffffffffffffffffffffffffffffff1681526020019081526020016000206000018190555060026000807313f4a74368695b86bf02205a4080e799dfbd406173ffffffffffffffffffffffffffffffffffffffff1673ffffffffffffffffffffffffffffffffffffffff16815260200190815260200160002060010181905550610191806100d66000396000f3fe608060405234801561001057600080fd5b506004361061002b5760003560e01c806355670f3114610030575b600080fd5b61004a6004803603610045919081019061009a565b610061565b6040516100589291906100d2565b60405180910390f35b60006020528060005260406000206000915090508060000154908060010154905082565b60008135905061009481610137565b92915050565b6000602082840312156100ac57600080fd5b60006100ba84828501610085565b91505092915050565b6100cc8161012d565b82525050565b60006040820190506100e760008301856100c3565b6100f460208301846100c3565b9392505050565b60006101068261010d565b9050919050565b600073ffffffffffffffffffffffffffffffffffffffff82169050919050565b6000819050919050565b610140816100fb565b811461014b57600080fd5b5056fea365627a7a72315820ed06d3aa14eaa4f16bb9fd076734470177185117fbc2b2036dafda8fa00279fa6c6578706572696d656e74616cf564736f6c634300050b0040",
  "source": "pragma solidity 0.5.11;\npragma experimental ABIEncoderV2;\n\ncontract Test {\n    struct detail {\n        uint256 a;\n        uint256 b;\n    }\n\n    mapping(address => detail) public dapps;\n\n    constructor() public {\n        dapps[address(0x13f4A74368695B86BF02205a4080e799DfbD4061)].a = 1;\n        dapps[address(0x13f4A74368695B86BF02205a4080e799DfbD4061)].b = 2;\n    }\n}\n",
  "sourcePath": "/Users/xiongyu/conflux-sponsor-faucet/contracts/test.sol",
  "compiler": {
    "name": "solc",
    "version": "0.5.11+commit.c082d0b4.Emscripten.clang"
  },
  "schemaVersion": "3.2.2",
  "updatedAt": "2020-10-15T06:07:51.504Z",
  "devdoc": {
    "methods": {}
  },
  "userdoc": {
    "methods": {}
  }
}