{
  "contractName": "testFaucet",
  "abi": [
    {
      "inputs": [],
      "payable": true,
      "stateMutability": "payable",
      "type": "constructor"
    },
    {
      "constant": false,
      "inputs": [
        {
          "internalType": "address",
          "name": "dapp",
          "type": "address"
        }
      ],
      "name": "applyGC",
      "outputs": [],
      "payable": false,
      "stateMutability": "nonpayable",
      "type": "function"
    },
    {
      "constant": false,
      "inputs": [
        {
          "internalType": "address",
          "name": "dapp",
          "type": "address"
        }
      ],
      "name": "applyCG",
      "outputs": [],
      "payable": false,
      "stateMutability": "nonpayable",
      "type": "function"
    },
    {
      "constant": false,
      "inputs": [
        {
          "internalType": "address",
          "name": "dapp",
          "type": "address"
        }
      ],
      "name": "applyForGas",
      "outputs": [
        {
          "internalType": "uint256",
          "name": "",
          "type": "uint256"
        }
      ],
      "payable": false,
      "stateMutability": "nonpayable",
      "type": "function"
    },
    {
      "constant": false,
      "inputs": [
        {
          "internalType": "address",
          "name": "dapp",
          "type": "address"
        }
      ],
      "name": "applyForCollateral",
      "outputs": [
        {
          "internalType": "uint256",
          "name": "",
          "type": "uint256"
        }
      ],
      "payable": false,
      "stateMutability": "nonpayable",
      "type": "function"
    }
  ],
  "bytecode": "0x60806040527308880000000000000000000000000000000000016000806101000a81548173ffffffffffffffffffffffffffffffffffffffff021916908373ffffffffffffffffffffffffffffffffffffffff160217905550610854806100676000396000f3fe608060405234801561001057600080fd5b506004361061004c5760003560e01c8063af65d10814610051578063d2fc61c614610095578063e747e66c146100ed578063ead5a9ac14610145575b600080fd5b6100936004803603602081101561006757600080fd5b81019080803573ffffffffffffffffffffffffffffffffffffffff169060200190929190505050610189565b005b6100d7600480360360208110156100ab57600080fd5b81019080803573ffffffffffffffffffffffffffffffffffffffff169060200190929190505050610320565b6040518082815260200191505060405180910390f35b61012f6004803603602081101561010357600080fd5b81019080803573ffffffffffffffffffffffffffffffffffffffff1690602001909291905050506104dc565b6040518082815260200191505060405180910390f35b6101876004803603602081101561015b57600080fd5b81019080803573ffffffffffffffffffffffffffffffffffffffff169060200190929190505050610688565b005b6000809054906101000a900473ffffffffffffffffffffffffffffffffffffffff1673ffffffffffffffffffffffffffffffffffffffff16633e3e6428683635c9adc5dea0000083670de0b6b3a76400006040518463ffffffff1660e01b8152600401808373ffffffffffffffffffffffffffffffffffffffff1673ffffffffffffffffffffffffffffffffffffffff168152602001828152602001925050506000604051808303818588803b15801561024257600080fd5b505af1158015610256573d6000803e3d6000fd5b50505050506000809054906101000a900473ffffffffffffffffffffffffffffffffffffffff1673ffffffffffffffffffffffffffffffffffffffff1663e66c1bea68056bc75e2d63100000836040518363ffffffff1660e01b8152600401808273ffffffffffffffffffffffffffffffffffffffff1673ffffffffffffffffffffffffffffffffffffffff1681526020019150506000604051808303818588803b15801561030457600080fd5b505af1158015610318573d6000803e3d6000fd5b505050505050565b60008060009054906101000a900473ffffffffffffffffffffffffffffffffffffffff1673ffffffffffffffffffffffffffffffffffffffff16633e3e6428683635c9adc5dea0000084670de0b6b3a76400006040518463ffffffff1660e01b8152600401808373ffffffffffffffffffffffffffffffffffffffff1673ffffffffffffffffffffffffffffffffffffffff168152602001828152602001925050506000604051808303818588803b1580156103db57600080fd5b505af11580156103ef573d6000803e3d6000fd5b505050505060008060009054906101000a900473ffffffffffffffffffffffffffffffffffffffff1673ffffffffffffffffffffffffffffffffffffffff1663b3b28fac846040518263ffffffff1660e01b8152600401808273ffffffffffffffffffffffffffffffffffffffff1673ffffffffffffffffffffffffffffffffffffffff168152602001915050602060405180830381600087803b15801561049657600080fd5b505af11580156104aa573d6000803e3d6000fd5b505050506040513d60208110156104c057600080fd5b8101908080519060200190929190505050905080915050919050565b60008060009054906101000a900473ffffffffffffffffffffffffffffffffffffffff1673ffffffffffffffffffffffffffffffffffffffff1663e66c1bea68056bc75e2d63100000846040518363ffffffff1660e01b8152600401808273ffffffffffffffffffffffffffffffffffffffff1673ffffffffffffffffffffffffffffffffffffffff1681526020019150506000604051808303818588803b15801561058757600080fd5b505af115801561059b573d6000803e3d6000fd5b505050505060008060009054906101000a900473ffffffffffffffffffffffffffffffffffffffff1673ffffffffffffffffffffffffffffffffffffffff1663d47e9a57846040518263ffffffff1660e01b8152600401808273ffffffffffffffffffffffffffffffffffffffff1673ffffffffffffffffffffffffffffffffffffffff168152602001915050602060405180830381600087803b15801561064257600080fd5b505af1158015610656573d6000803e3d6000fd5b505050506040513d602081101561066c57600080fd5b8101908080519060200190929190505050905080915050919050565b6000809054906101000a900473ffffffffffffffffffffffffffffffffffffffff1673ffffffffffffffffffffffffffffffffffffffff1663e66c1bea68056bc75e2d63100000836040518363ffffffff1660e01b8152600401808273ffffffffffffffffffffffffffffffffffffffff1673ffffffffffffffffffffffffffffffffffffffff1681526020019150506000604051808303818588803b15801561073157600080fd5b505af1158015610745573d6000803e3d6000fd5b50505050506000809054906101000a900473ffffffffffffffffffffffffffffffffffffffff1673ffffffffffffffffffffffffffffffffffffffff16633e3e6428683635c9adc5dea0000083670de0b6b3a76400006040518463ffffffff1660e01b8152600401808373ffffffffffffffffffffffffffffffffffffffff1673ffffffffffffffffffffffffffffffffffffffff168152602001828152602001925050506000604051808303818588803b15801561080357600080fd5b505af1158015610817573d6000803e3d6000fd5b50505050505056fea265627a7a723158201249c4afed7a7c2dde1e70f918c500bd10b61927cb5e762c3167776d8833783764736f6c634300050b0032",
  "source": "pragma solidity 0.5.11;\n\nimport \"./InternalContract.sol\";\n\ncontract testFaucet {\n    SponsorWhitelistControl internal_sponsor_faucet = SponsorWhitelistControl(\n        0x0888000000000000000000000000000000000001\n    );\n\n    constructor() public payable {}\n\n    function applyGC(address dapp) public {\n        internal_sponsor_faucet.setSponsorForGas.value(1000 ether)(\n            dapp,\n            1 ether\n        );\n        internal_sponsor_faucet.setSponsorForCollateral.value(100 ether)(dapp);\n    }\n\n    function applyCG(address dapp) public {\n        internal_sponsor_faucet.setSponsorForCollateral.value(100 ether)(dapp);\n        internal_sponsor_faucet.setSponsorForGas.value(1000 ether)(\n            dapp,\n            1 ether\n        );\n    }\n\n    function applyForGas(address dapp) public returns (uint256) {\n        internal_sponsor_faucet.setSponsorForGas.value(1000 ether)(\n            dapp,\n            1 ether\n        );\n        uint256 r = internal_sponsor_faucet.getSponsoredBalanceForGas(dapp);\n        return r;\n    }\n\n    function applyForCollateral(address dapp) public returns (uint256) {\n        internal_sponsor_faucet.setSponsorForCollateral.value(100 ether)(dapp);\n        uint256 r = internal_sponsor_faucet.getSponsoredBalanceForCollateral(\n            dapp\n        );\n        return r;\n    }\n}\n",
  "sourcePath": "/Users/xiongyu/conflux-sponsor-faucet/contracts/testFaucet.sol",
  "compiler": {
    "name": "solc",
    "version": "0.5.11+commit.c082d0b4.Emscripten.clang"
  },
  "schemaVersion": "3.2.2",
  "updatedAt": "2020-10-15T06:07:51.506Z",
  "devdoc": {
    "methods": {}
  },
  "userdoc": {
    "methods": {}
  }
}